{
	"by-daulat-hussain/solidity/24-sendEther.sol": {
		"SendEther": {
			"abi": [
				{
					"inputs": [
						{
							"internalType": "address payable",
							"name": "_to",
							"type": "address"
						}
					],
					"name": "sendViaCall",
					"outputs": [],
					"stateMutability": "payable",
					"type": "function"
				},
				{
					"inputs": [
						{
							"internalType": "address payable",
							"name": "_to",
							"type": "address"
						}
					],
					"name": "sendViaSend",
					"outputs": [],
					"stateMutability": "payable",
					"type": "function"
				},
				{
					"inputs": [
						{
							"internalType": "address payable",
							"name": "_to",
							"type": "address"
						}
					],
					"name": "sendViaTransfer",
					"outputs": [],
					"stateMutability": "payable",
					"type": "function"
				}
			],
			"devdoc": {
				"kind": "dev",
				"methods": {},
				"version": 1
			},
			"evm": {
				"assembly": "    /* \"by-daulat-hussain/solidity/24-sendEther.sol\":268:771  contract SendEther {... */\n  mstore(0x40, 0x80)\n  callvalue\n  dup1\n  iszero\n  tag_1\n  jumpi\n  0x00\n  dup1\n  revert\ntag_1:\n  pop\n  dataSize(sub_0)\n  dup1\n  dataOffset(sub_0)\n  0x00\n  codecopy\n  0x00\n  return\nstop\n\nsub_0: assembly {\n        /* \"by-daulat-hussain/solidity/24-sendEther.sol\":268:771  contract SendEther {... */\n      mstore(0x40, 0x80)\n      jumpi(tag_1, lt(calldatasize, 0x04))\n      shr(0xe0, calldataload(0x00))\n      dup1\n      0x636e082b\n      eq\n      tag_2\n      jumpi\n      dup1\n      0x74be4806\n      eq\n      tag_3\n      jumpi\n      dup1\n      0x830c29ae\n      eq\n      tag_4\n      jumpi\n    tag_1:\n      0x00\n      dup1\n      revert\n        /* \"by-daulat-hussain/solidity/24-sendEther.sol\":294:397  function sendViaTransfer(address payable _to) public payable {... */\n    tag_2:\n      tag_5\n      0x04\n      dup1\n      calldatasize\n      sub\n      dup2\n      add\n      swap1\n      tag_6\n      swap2\n      swap1\n      tag_7\n      jump\t// in\n    tag_6:\n      tag_8\n      jump\t// in\n    tag_5:\n      stop\n        /* \"by-daulat-hussain/solidity/24-sendEther.sol\":405:566  function sendViaSend(address payable _to) public payable {... */\n    tag_3:\n      tag_9\n      0x04\n      dup1\n      calldatasize\n      sub\n      dup2\n      add\n      swap1\n      tag_10\n      swap2\n      swap1\n      tag_7\n      jump\t// in\n    tag_10:\n      tag_11\n      jump\t// in\n    tag_9:\n      stop\n        /* \"by-daulat-hussain/solidity/24-sendEther.sol\":574:768  function sendViaCall(address payable _to) public payable {... */\n    tag_4:\n      tag_12\n      0x04\n      dup1\n      calldatasize\n      sub\n      dup2\n      add\n      swap1\n      tag_13\n      swap2\n      swap1\n      tag_7\n      jump\t// in\n    tag_13:\n      tag_14\n      jump\t// in\n    tag_12:\n      stop\n        /* \"by-daulat-hussain/solidity/24-sendEther.sol\":294:397  function sendViaTransfer(address payable _to) public payable {... */\n    tag_8:\n        /* \"by-daulat-hussain/solidity/24-sendEther.sol\":366:369  _to */\n      dup1\n        /* \"by-daulat-hussain/solidity/24-sendEther.sol\":366:378  _to.transfer */\n      0xffffffffffffffffffffffffffffffffffffffff\n      and\n        /* \"by-daulat-hussain/solidity/24-sendEther.sol\":366:389  _to.transfer(msg.value) */\n      0x08fc\n        /* \"by-daulat-hussain/solidity/24-sendEther.sol\":379:388  msg.value */\n      callvalue\n        /* \"by-daulat-hussain/solidity/24-sendEther.sol\":366:389  _to.transfer(msg.value) */\n      swap1\n      dup2\n      iszero\n      mul\n      swap1\n      mload(0x40)\n      0x00\n      mload(0x40)\n      dup1\n      dup4\n      sub\n      dup2\n      dup6\n      dup9\n      dup9\n      call\n      swap4\n      pop\n      pop\n      pop\n      pop\n      iszero\n      dup1\n      iszero\n      tag_17\n      jumpi\n      returndatasize\n      0x00\n      dup1\n      returndatacopy\n      revert(0x00, returndatasize)\n    tag_17:\n      pop\n        /* \"by-daulat-hussain/solidity/24-sendEther.sol\":294:397  function sendViaTransfer(address payable _to) public payable {... */\n      pop\n      jump\t// out\n        /* \"by-daulat-hussain/solidity/24-sendEther.sol\":405:566  function sendViaSend(address payable _to) public payable {... */\n    tag_11:\n        /* \"by-daulat-hussain/solidity/24-sendEther.sol\":473:482  bool sent */\n      0x00\n        /* \"by-daulat-hussain/solidity/24-sendEther.sol\":485:488  _to */\n      dup2\n        /* \"by-daulat-hussain/solidity/24-sendEther.sol\":485:493  _to.send */\n      0xffffffffffffffffffffffffffffffffffffffff\n      and\n        /* \"by-daulat-hussain/solidity/24-sendEther.sol\":485:504  _to.send(msg.value) */\n      0x08fc\n        /* \"by-daulat-hussain/solidity/24-sendEther.sol\":494:503  msg.value */\n      callvalue\n        /* \"by-daulat-hussain/solidity/24-sendEther.sol\":485:504  _to.send(msg.value) */\n      swap1\n      dup2\n      iszero\n      mul\n      swap1\n      mload(0x40)\n      0x00\n      mload(0x40)\n      dup1\n      dup4\n      sub\n      dup2\n      dup6\n      dup9\n      dup9\n      call\n      swap4\n      pop\n      pop\n      pop\n      pop\n        /* \"by-daulat-hussain/solidity/24-sendEther.sol\":473:504  bool sent = _to.send(msg.value) */\n      swap1\n      pop\n        /* \"by-daulat-hussain/solidity/24-sendEther.sol\":523:527  sent */\n      dup1\n        /* \"by-daulat-hussain/solidity/24-sendEther.sol\":515:558  require(sent,\"Transaction is not complete\") */\n      tag_20\n      jumpi\n      mload(0x40)\n      0x08c379a000000000000000000000000000000000000000000000000000000000\n      dup2\n      mstore\n      0x04\n      add\n      tag_21\n      swap1\n      tag_22\n      jump\t// in\n    tag_21:\n      mload(0x40)\n      dup1\n      swap2\n      sub\n      swap1\n      revert\n    tag_20:\n        /* \"by-daulat-hussain/solidity/24-sendEther.sol\":462:566  {... */\n      pop\n        /* \"by-daulat-hussain/solidity/24-sendEther.sol\":405:566  function sendViaSend(address payable _to) public payable {... */\n      pop\n      jump\t// out\n        /* \"by-daulat-hussain/solidity/24-sendEther.sol\":574:768  function sendViaCall(address payable _to) public payable {... */\n    tag_14:\n        /* \"by-daulat-hussain/solidity/24-sendEther.sol\":643:652  bool sent */\n      0x00\n        /* \"by-daulat-hussain/solidity/24-sendEther.sol\":654:671  bytes memory data */\n      dup1\n        /* \"by-daulat-hussain/solidity/24-sendEther.sol\":676:679  _to */\n      dup3\n        /* \"by-daulat-hussain/solidity/24-sendEther.sol\":676:684  _to.call */\n      0xffffffffffffffffffffffffffffffffffffffff\n      and\n        /* \"by-daulat-hussain/solidity/24-sendEther.sol\":692:701  msg.value */\n      callvalue\n        /* \"by-daulat-hussain/solidity/24-sendEther.sol\":676:706  _to.call{value: msg.value}(\"\") */\n      mload(0x40)\n      tag_24\n      swap1\n      tag_25\n      jump\t// in\n    tag_24:\n      0x00\n      mload(0x40)\n      dup1\n      dup4\n      sub\n      dup2\n      dup6\n      dup8\n      gas\n      call\n      swap3\n      pop\n      pop\n      pop\n      returndatasize\n      dup1\n      0x00\n      dup2\n      eq\n      tag_28\n      jumpi\n      mload(0x40)\n      swap2\n      pop\n      and(add(returndatasize, 0x3f), not(0x1f))\n      dup3\n      add\n      0x40\n      mstore\n      returndatasize\n      dup3\n      mstore\n      returndatasize\n      0x00\n      0x20\n      dup5\n      add\n      returndatacopy\n      jump(tag_27)\n    tag_28:\n      0x60\n      swap2\n      pop\n    tag_27:\n      pop\n        /* \"by-daulat-hussain/solidity/24-sendEther.sol\":642:706  (bool sent, bytes memory data ) = _to.call{value: msg.value}(\"\") */\n      swap2\n      pop\n      swap2\n      pop\n        /* \"by-daulat-hussain/solidity/24-sendEther.sol\":725:729  sent */\n      dup2\n        /* \"by-daulat-hussain/solidity/24-sendEther.sol\":717:760  require(sent,\"Transaction is not complete\") */\n      tag_29\n      jumpi\n      mload(0x40)\n      0x08c379a000000000000000000000000000000000000000000000000000000000\n      dup2\n      mstore\n      0x04\n      add\n      tag_30\n      swap1\n      tag_22\n      jump\t// in\n    tag_30:\n      mload(0x40)\n      dup1\n      swap2\n      sub\n      swap1\n      revert\n    tag_29:\n        /* \"by-daulat-hussain/solidity/24-sendEther.sol\":631:768  {... */\n      pop\n      pop\n        /* \"by-daulat-hussain/solidity/24-sendEther.sol\":574:768  function sendViaCall(address payable _to) public payable {... */\n      pop\n      jump\t// out\n        /* \"#utility.yul\":88:205   */\n    tag_32:\n        /* \"#utility.yul\":197:198   */\n      0x00\n        /* \"#utility.yul\":194:195   */\n      dup1\n        /* \"#utility.yul\":187:199   */\n      revert\n        /* \"#utility.yul\":334:460   */\n    tag_34:\n        /* \"#utility.yul\":371:378   */\n      0x00\n        /* \"#utility.yul\":411:453   */\n      0xffffffffffffffffffffffffffffffffffffffff\n        /* \"#utility.yul\":404:409   */\n      dup3\n        /* \"#utility.yul\":400:454   */\n      and\n        /* \"#utility.yul\":389:454   */\n      swap1\n      pop\n        /* \"#utility.yul\":334:460   */\n      swap2\n      swap1\n      pop\n      jump\t// out\n        /* \"#utility.yul\":466:570   */\n    tag_35:\n        /* \"#utility.yul\":511:518   */\n      0x00\n        /* \"#utility.yul\":540:564   */\n      tag_50\n        /* \"#utility.yul\":558:563   */\n      dup3\n        /* \"#utility.yul\":540:564   */\n      tag_34\n      jump\t// in\n    tag_50:\n        /* \"#utility.yul\":529:564   */\n      swap1\n      pop\n        /* \"#utility.yul\":466:570   */\n      swap2\n      swap1\n      pop\n      jump\t// out\n        /* \"#utility.yul\":576:714   */\n    tag_36:\n        /* \"#utility.yul\":657:689   */\n      tag_52\n        /* \"#utility.yul\":683:688   */\n      dup2\n        /* \"#utility.yul\":657:689   */\n      tag_35\n      jump\t// in\n    tag_52:\n        /* \"#utility.yul\":650:655   */\n      dup2\n        /* \"#utility.yul\":647:690   */\n      eq\n        /* \"#utility.yul\":637:708   */\n      tag_53\n      jumpi\n        /* \"#utility.yul\":704:705   */\n      0x00\n        /* \"#utility.yul\":701:702   */\n      dup1\n        /* \"#utility.yul\":694:706   */\n      revert\n        /* \"#utility.yul\":637:708   */\n    tag_53:\n        /* \"#utility.yul\":576:714   */\n      pop\n      jump\t// out\n        /* \"#utility.yul\":720:875   */\n    tag_37:\n        /* \"#utility.yul\":774:779   */\n      0x00\n        /* \"#utility.yul\":812:818   */\n      dup2\n        /* \"#utility.yul\":799:819   */\n      calldataload\n        /* \"#utility.yul\":790:819   */\n      swap1\n      pop\n        /* \"#utility.yul\":828:869   */\n      tag_55\n        /* \"#utility.yul\":863:868   */\n      dup2\n        /* \"#utility.yul\":828:869   */\n      tag_36\n      jump\t// in\n    tag_55:\n        /* \"#utility.yul\":720:875   */\n      swap3\n      swap2\n      pop\n      pop\n      jump\t// out\n        /* \"#utility.yul\":881:1226   */\n    tag_7:\n        /* \"#utility.yul\":948:954   */\n      0x00\n        /* \"#utility.yul\":997:999   */\n      0x20\n        /* \"#utility.yul\":985:994   */\n      dup3\n        /* \"#utility.yul\":976:983   */\n      dup5\n        /* \"#utility.yul\":972:995   */\n      sub\n        /* \"#utility.yul\":968:1000   */\n      slt\n        /* \"#utility.yul\":965:1084   */\n      iszero\n      tag_57\n      jumpi\n        /* \"#utility.yul\":1003:1082   */\n      tag_58\n      tag_32\n      jump\t// in\n    tag_58:\n        /* \"#utility.yul\":965:1084   */\n    tag_57:\n        /* \"#utility.yul\":1123:1124   */\n      0x00\n        /* \"#utility.yul\":1148:1209   */\n      tag_59\n        /* \"#utility.yul\":1201:1208   */\n      dup5\n        /* \"#utility.yul\":1192:1198   */\n      dup3\n        /* \"#utility.yul\":1181:1190   */\n      dup6\n        /* \"#utility.yul\":1177:1199   */\n      add\n        /* \"#utility.yul\":1148:1209   */\n      tag_37\n      jump\t// in\n    tag_59:\n        /* \"#utility.yul\":1138:1209   */\n      swap2\n      pop\n        /* \"#utility.yul\":1094:1219   */\n      pop\n        /* \"#utility.yul\":881:1226   */\n      swap3\n      swap2\n      pop\n      pop\n      jump\t// out\n        /* \"#utility.yul\":1232:1401   */\n    tag_38:\n        /* \"#utility.yul\":1316:1327   */\n      0x00\n        /* \"#utility.yul\":1350:1356   */\n      dup3\n        /* \"#utility.yul\":1345:1348   */\n      dup3\n        /* \"#utility.yul\":1338:1357   */\n      mstore\n        /* \"#utility.yul\":1390:1394   */\n      0x20\n        /* \"#utility.yul\":1385:1388   */\n      dup3\n        /* \"#utility.yul\":1381:1395   */\n      add\n        /* \"#utility.yul\":1366:1395   */\n      swap1\n      pop\n        /* \"#utility.yul\":1232:1401   */\n      swap3\n      swap2\n      pop\n      pop\n      jump\t// out\n        /* \"#utility.yul\":1407:1584   */\n    tag_39:\n        /* \"#utility.yul\":1547:1576   */\n      0x5472616e73616374696f6e206973206e6f7420636f6d706c6574650000000000\n        /* \"#utility.yul\":1543:1544   */\n      0x00\n        /* \"#utility.yul\":1535:1541   */\n      dup3\n        /* \"#utility.yul\":1531:1545   */\n      add\n        /* \"#utility.yul\":1524:1577   */\n      mstore\n        /* \"#utility.yul\":1407:1584   */\n      pop\n      jump\t// out\n        /* \"#utility.yul\":1590:1956   */\n    tag_40:\n        /* \"#utility.yul\":1732:1735   */\n      0x00\n        /* \"#utility.yul\":1753:1820   */\n      tag_63\n        /* \"#utility.yul\":1817:1819   */\n      0x1b\n        /* \"#utility.yul\":1812:1815   */\n      dup4\n        /* \"#utility.yul\":1753:1820   */\n      tag_38\n      jump\t// in\n    tag_63:\n        /* \"#utility.yul\":1746:1820   */\n      swap2\n      pop\n        /* \"#utility.yul\":1829:1922   */\n      tag_64\n        /* \"#utility.yul\":1918:1921   */\n      dup3\n        /* \"#utility.yul\":1829:1922   */\n      tag_39\n      jump\t// in\n    tag_64:\n        /* \"#utility.yul\":1947:1949   */\n      0x20\n        /* \"#utility.yul\":1942:1945   */\n      dup3\n        /* \"#utility.yul\":1938:1950   */\n      add\n        /* \"#utility.yul\":1931:1950   */\n      swap1\n      pop\n        /* \"#utility.yul\":1590:1956   */\n      swap2\n      swap1\n      pop\n      jump\t// out\n        /* \"#utility.yul\":1962:2381   */\n    tag_22:\n        /* \"#utility.yul\":2128:2132   */\n      0x00\n        /* \"#utility.yul\":2166:2168   */\n      0x20\n        /* \"#utility.yul\":2155:2164   */\n      dup3\n        /* \"#utility.yul\":2151:2169   */\n      add\n        /* \"#utility.yul\":2143:2169   */\n      swap1\n      pop\n        /* \"#utility.yul\":2215:2224   */\n      dup2\n        /* \"#utility.yul\":2209:2213   */\n      dup2\n        /* \"#utility.yul\":2205:2225   */\n      sub\n        /* \"#utility.yul\":2201:2202   */\n      0x00\n        /* \"#utility.yul\":2190:2199   */\n      dup4\n        /* \"#utility.yul\":2186:2203   */\n      add\n        /* \"#utility.yul\":2179:2226   */\n      mstore\n        /* \"#utility.yul\":2243:2374   */\n      tag_66\n        /* \"#utility.yul\":2369:2373   */\n      dup2\n        /* \"#utility.yul\":2243:2374   */\n      tag_40\n      jump\t// in\n    tag_66:\n        /* \"#utility.yul\":2235:2374   */\n      swap1\n      pop\n        /* \"#utility.yul\":1962:2381   */\n      swap2\n      swap1\n      pop\n      jump\t// out\n        /* \"#utility.yul\":2387:2534   */\n    tag_41:\n        /* \"#utility.yul\":2488:2499   */\n      0x00\n        /* \"#utility.yul\":2525:2528   */\n      dup2\n        /* \"#utility.yul\":2510:2528   */\n      swap1\n      pop\n        /* \"#utility.yul\":2387:2534   */\n      swap3\n      swap2\n      pop\n      pop\n      jump\t// out\n        /* \"#utility.yul\":2540:2654   */\n    tag_42:\n      pop\n      jump\t// out\n        /* \"#utility.yul\":2660:3058   */\n    tag_43:\n        /* \"#utility.yul\":2819:2822   */\n      0x00\n        /* \"#utility.yul\":2840:2923   */\n      tag_70\n        /* \"#utility.yul\":2921:2922   */\n      0x00\n        /* \"#utility.yul\":2916:2919   */\n      dup4\n        /* \"#utility.yul\":2840:2923   */\n      tag_41\n      jump\t// in\n    tag_70:\n        /* \"#utility.yul\":2833:2923   */\n      swap2\n      pop\n        /* \"#utility.yul\":2932:3025   */\n      tag_71\n        /* \"#utility.yul\":3021:3024   */\n      dup3\n        /* \"#utility.yul\":2932:3025   */\n      tag_42\n      jump\t// in\n    tag_71:\n        /* \"#utility.yul\":3050:3051   */\n      0x00\n        /* \"#utility.yul\":3045:3048   */\n      dup3\n        /* \"#utility.yul\":3041:3052   */\n      add\n        /* \"#utility.yul\":3034:3052   */\n      swap1\n      pop\n        /* \"#utility.yul\":2660:3058   */\n      swap2\n      swap1\n      pop\n      jump\t// out\n        /* \"#utility.yul\":3064:3443   */\n    tag_25:\n        /* \"#utility.yul\":3248:3251   */\n      0x00\n        /* \"#utility.yul\":3270:3417   */\n      tag_73\n        /* \"#utility.yul\":3413:3416   */\n      dup3\n        /* \"#utility.yul\":3270:3417   */\n      tag_43\n      jump\t// in\n    tag_73:\n        /* \"#utility.yul\":3263:3417   */\n      swap2\n      pop\n        /* \"#utility.yul\":3434:3437   */\n      dup2\n        /* \"#utility.yul\":3427:3437   */\n      swap1\n      pop\n        /* \"#utility.yul\":3064:3443   */\n      swap2\n      swap1\n      pop\n      jump\t// out\n\n    auxdata: 0xa264697066735822122039477c617c3565fa7921c0c921811f6981fbba0ce288e7443035ece9dc21942164736f6c63430008120033\n}\n",
				"bytecode": {
					"linkReferences": {},
					"object": "608060405234801561001057600080fd5b50610390806100206000396000f3fe6080604052600436106100345760003560e01c8063636e082b1461003957806374be480614610055578063830c29ae14610071575b600080fd5b610053600480360381019061004e919061026a565b61008d565b005b61006f600480360381019061006a919061026a565b6100d7565b005b61008b6004803603810190610086919061026a565b610154565b005b8073ffffffffffffffffffffffffffffffffffffffff166108fc349081150290604051600060405180830381858888f193505050501580156100d3573d6000803e3d6000fd5b5050565b60008173ffffffffffffffffffffffffffffffffffffffff166108fc349081150290604051600060405180830381858888f19350505050905080610150576040517f08c379a0000000000000000000000000000000000000000000000000000000008152600401610147906102f4565b60405180910390fd5b5050565b6000808273ffffffffffffffffffffffffffffffffffffffff163460405161017b90610345565b60006040518083038185875af1925050503d80600081146101b8576040519150601f19603f3d011682016040523d82523d6000602084013e6101bd565b606091505b509150915081610202576040517f08c379a00000000000000000000000000000000000000000000000000000000081526004016101f9906102f4565b60405180910390fd5b505050565b600080fd5b600073ffffffffffffffffffffffffffffffffffffffff82169050919050565b60006102378261020c565b9050919050565b6102478161022c565b811461025257600080fd5b50565b6000813590506102648161023e565b92915050565b6000602082840312156102805761027f610207565b5b600061028e84828501610255565b91505092915050565b600082825260208201905092915050565b7f5472616e73616374696f6e206973206e6f7420636f6d706c6574650000000000600082015250565b60006102de601b83610297565b91506102e9826102a8565b602082019050919050565b6000602082019050818103600083015261030d816102d1565b9050919050565b600081905092915050565b50565b600061032f600083610314565b915061033a8261031f565b600082019050919050565b600061035082610322565b915081905091905056fea264697066735822122039477c617c3565fa7921c0c921811f6981fbba0ce288e7443035ece9dc21942164736f6c63430008120033",
					"opcodes": "PUSH1 0x80 PUSH1 0x40 MSTORE CALLVALUE DUP1 ISZERO PUSH2 0x10 JUMPI PUSH1 0x0 DUP1 REVERT JUMPDEST POP PUSH2 0x390 DUP1 PUSH2 0x20 PUSH1 0x0 CODECOPY PUSH1 0x0 RETURN INVALID PUSH1 0x80 PUSH1 0x40 MSTORE PUSH1 0x4 CALLDATASIZE LT PUSH2 0x34 JUMPI PUSH1 0x0 CALLDATALOAD PUSH1 0xE0 SHR DUP1 PUSH4 0x636E082B EQ PUSH2 0x39 JUMPI DUP1 PUSH4 0x74BE4806 EQ PUSH2 0x55 JUMPI DUP1 PUSH4 0x830C29AE EQ PUSH2 0x71 JUMPI JUMPDEST PUSH1 0x0 DUP1 REVERT JUMPDEST PUSH2 0x53 PUSH1 0x4 DUP1 CALLDATASIZE SUB DUP2 ADD SWAP1 PUSH2 0x4E SWAP2 SWAP1 PUSH2 0x26A JUMP JUMPDEST PUSH2 0x8D JUMP JUMPDEST STOP JUMPDEST PUSH2 0x6F PUSH1 0x4 DUP1 CALLDATASIZE SUB DUP2 ADD SWAP1 PUSH2 0x6A SWAP2 SWAP1 PUSH2 0x26A JUMP JUMPDEST PUSH2 0xD7 JUMP JUMPDEST STOP JUMPDEST PUSH2 0x8B PUSH1 0x4 DUP1 CALLDATASIZE SUB DUP2 ADD SWAP1 PUSH2 0x86 SWAP2 SWAP1 PUSH2 0x26A JUMP JUMPDEST PUSH2 0x154 JUMP JUMPDEST STOP JUMPDEST DUP1 PUSH20 0xFFFFFFFFFFFFFFFFFFFFFFFFFFFFFFFFFFFFFFFF AND PUSH2 0x8FC CALLVALUE SWAP1 DUP2 ISZERO MUL SWAP1 PUSH1 0x40 MLOAD PUSH1 0x0 PUSH1 0x40 MLOAD DUP1 DUP4 SUB DUP2 DUP6 DUP9 DUP9 CALL SWAP4 POP POP POP POP ISZERO DUP1 ISZERO PUSH2 0xD3 JUMPI RETURNDATASIZE PUSH1 0x0 DUP1 RETURNDATACOPY RETURNDATASIZE PUSH1 0x0 REVERT JUMPDEST POP POP JUMP JUMPDEST PUSH1 0x0 DUP2 PUSH20 0xFFFFFFFFFFFFFFFFFFFFFFFFFFFFFFFFFFFFFFFF AND PUSH2 0x8FC CALLVALUE SWAP1 DUP2 ISZERO MUL SWAP1 PUSH1 0x40 MLOAD PUSH1 0x0 PUSH1 0x40 MLOAD DUP1 DUP4 SUB DUP2 DUP6 DUP9 DUP9 CALL SWAP4 POP POP POP POP SWAP1 POP DUP1 PUSH2 0x150 JUMPI PUSH1 0x40 MLOAD PUSH32 0x8C379A000000000000000000000000000000000000000000000000000000000 DUP2 MSTORE PUSH1 0x4 ADD PUSH2 0x147 SWAP1 PUSH2 0x2F4 JUMP JUMPDEST PUSH1 0x40 MLOAD DUP1 SWAP2 SUB SWAP1 REVERT JUMPDEST POP POP JUMP JUMPDEST PUSH1 0x0 DUP1 DUP3 PUSH20 0xFFFFFFFFFFFFFFFFFFFFFFFFFFFFFFFFFFFFFFFF AND CALLVALUE PUSH1 0x40 MLOAD PUSH2 0x17B SWAP1 PUSH2 0x345 JUMP JUMPDEST PUSH1 0x0 PUSH1 0x40 MLOAD DUP1 DUP4 SUB DUP2 DUP6 DUP8 GAS CALL SWAP3 POP POP POP RETURNDATASIZE DUP1 PUSH1 0x0 DUP2 EQ PUSH2 0x1B8 JUMPI PUSH1 0x40 MLOAD SWAP2 POP PUSH1 0x1F NOT PUSH1 0x3F RETURNDATASIZE ADD AND DUP3 ADD PUSH1 0x40 MSTORE RETURNDATASIZE DUP3 MSTORE RETURNDATASIZE PUSH1 0x0 PUSH1 0x20 DUP5 ADD RETURNDATACOPY PUSH2 0x1BD JUMP JUMPDEST PUSH1 0x60 SWAP2 POP JUMPDEST POP SWAP2 POP SWAP2 POP DUP2 PUSH2 0x202 JUMPI PUSH1 0x40 MLOAD PUSH32 0x8C379A000000000000000000000000000000000000000000000000000000000 DUP2 MSTORE PUSH1 0x4 ADD PUSH2 0x1F9 SWAP1 PUSH2 0x2F4 JUMP JUMPDEST PUSH1 0x40 MLOAD DUP1 SWAP2 SUB SWAP1 REVERT JUMPDEST POP POP POP JUMP JUMPDEST PUSH1 0x0 DUP1 REVERT JUMPDEST PUSH1 0x0 PUSH20 0xFFFFFFFFFFFFFFFFFFFFFFFFFFFFFFFFFFFFFFFF DUP3 AND SWAP1 POP SWAP2 SWAP1 POP JUMP JUMPDEST PUSH1 0x0 PUSH2 0x237 DUP3 PUSH2 0x20C JUMP JUMPDEST SWAP1 POP SWAP2 SWAP1 POP JUMP JUMPDEST PUSH2 0x247 DUP2 PUSH2 0x22C JUMP JUMPDEST DUP2 EQ PUSH2 0x252 JUMPI PUSH1 0x0 DUP1 REVERT JUMPDEST POP JUMP JUMPDEST PUSH1 0x0 DUP2 CALLDATALOAD SWAP1 POP PUSH2 0x264 DUP2 PUSH2 0x23E JUMP JUMPDEST SWAP3 SWAP2 POP POP JUMP JUMPDEST PUSH1 0x0 PUSH1 0x20 DUP3 DUP5 SUB SLT ISZERO PUSH2 0x280 JUMPI PUSH2 0x27F PUSH2 0x207 JUMP JUMPDEST JUMPDEST PUSH1 0x0 PUSH2 0x28E DUP5 DUP3 DUP6 ADD PUSH2 0x255 JUMP JUMPDEST SWAP2 POP POP SWAP3 SWAP2 POP POP JUMP JUMPDEST PUSH1 0x0 DUP3 DUP3 MSTORE PUSH1 0x20 DUP3 ADD SWAP1 POP SWAP3 SWAP2 POP POP JUMP JUMPDEST PUSH32 0x5472616E73616374696F6E206973206E6F7420636F6D706C6574650000000000 PUSH1 0x0 DUP3 ADD MSTORE POP JUMP JUMPDEST PUSH1 0x0 PUSH2 0x2DE PUSH1 0x1B DUP4 PUSH2 0x297 JUMP JUMPDEST SWAP2 POP PUSH2 0x2E9 DUP3 PUSH2 0x2A8 JUMP JUMPDEST PUSH1 0x20 DUP3 ADD SWAP1 POP SWAP2 SWAP1 POP JUMP JUMPDEST PUSH1 0x0 PUSH1 0x20 DUP3 ADD SWAP1 POP DUP2 DUP2 SUB PUSH1 0x0 DUP4 ADD MSTORE PUSH2 0x30D DUP2 PUSH2 0x2D1 JUMP JUMPDEST SWAP1 POP SWAP2 SWAP1 POP JUMP JUMPDEST PUSH1 0x0 DUP2 SWAP1 POP SWAP3 SWAP2 POP POP JUMP JUMPDEST POP JUMP JUMPDEST PUSH1 0x0 PUSH2 0x32F PUSH1 0x0 DUP4 PUSH2 0x314 JUMP JUMPDEST SWAP2 POP PUSH2 0x33A DUP3 PUSH2 0x31F JUMP JUMPDEST PUSH1 0x0 DUP3 ADD SWAP1 POP SWAP2 SWAP1 POP JUMP JUMPDEST PUSH1 0x0 PUSH2 0x350 DUP3 PUSH2 0x322 JUMP JUMPDEST SWAP2 POP DUP2 SWAP1 POP SWAP2 SWAP1 POP JUMP INVALID LOG2 PUSH5 0x6970667358 0x22 SLT KECCAK256 CODECOPY SELFBALANCE PUSH29 0x617C3565FA7921C0C921811F6981FBBA0CE288E7443035ECE9DC219421 PUSH5 0x736F6C6343 STOP ADDMOD SLT STOP CALLER "
				},
				"gasEstimates": {
					"creation": {
						"codeDepositCost": "182400",
						"executionCost": "226",
						"totalCost": "182626"
					},
					"external": {
						"sendViaCall(address)": "infinite",
						"sendViaSend(address)": "infinite",
						"sendViaTransfer(address)": "infinite"
					}
				},
				"methodIdentifiers": {
					"sendViaCall(address)": "830c29ae",
					"sendViaSend(address)": "74be4806",
					"sendViaTransfer(address)": "636e082b"
				}
			},
			"storageLayout": {
				"storage": [],
				"types": null
			},
			"userdoc": {
				"kind": "user",
				"methods": {},
				"version": 1
			}
		}
	}
}