{
	"by-daulat-hussain/solidity/03-datatypes.sol": {
		"DataTypes": {
			"abi": [
				{
					"inputs": [],
					"name": "a",
					"outputs": [
						{
							"internalType": "bytes1",
							"name": "",
							"type": "bytes1"
						}
					],
					"stateMutability": "view",
					"type": "function"
				},
				{
					"inputs": [],
					"name": "b",
					"outputs": [
						{
							"internalType": "bytes1",
							"name": "",
							"type": "bytes1"
						}
					],
					"stateMutability": "view",
					"type": "function"
				},
				{
					"inputs": [],
					"name": "hey",
					"outputs": [
						{
							"internalType": "bool",
							"name": "",
							"type": "bool"
						}
					],
					"stateMutability": "view",
					"type": "function"
				},
				{
					"inputs": [],
					"name": "i1256",
					"outputs": [
						{
							"internalType": "int256",
							"name": "",
							"type": "int256"
						}
					],
					"stateMutability": "view",
					"type": "function"
				},
				{
					"inputs": [],
					"name": "i8",
					"outputs": [
						{
							"internalType": "int8",
							"name": "",
							"type": "int8"
						}
					],
					"stateMutability": "view",
					"type": "function"
				},
				{
					"inputs": [],
					"name": "maxInt",
					"outputs": [
						{
							"internalType": "int256",
							"name": "",
							"type": "int256"
						}
					],
					"stateMutability": "view",
					"type": "function"
				},
				{
					"inputs": [],
					"name": "minInt",
					"outputs": [
						{
							"internalType": "int256",
							"name": "",
							"type": "int256"
						}
					],
					"stateMutability": "view",
					"type": "function"
				},
				{
					"inputs": [],
					"name": "no",
					"outputs": [
						{
							"internalType": "bool",
							"name": "",
							"type": "bool"
						}
					],
					"stateMutability": "view",
					"type": "function"
				},
				{
					"inputs": [],
					"name": "ui8",
					"outputs": [
						{
							"internalType": "uint8",
							"name": "",
							"type": "uint8"
						}
					],
					"stateMutability": "view",
					"type": "function"
				}
			],
			"devdoc": {
				"kind": "dev",
				"methods": {},
				"version": 1
			},
			"evm": {
				"assembly": "    /* \"by-daulat-hussain/solidity/03-datatypes.sol\":61:828  contract DataTypes{... */\n  mstore(0x40, 0x80)\n    /* \"by-daulat-hussain/solidity/03-datatypes.sol\":132:136  true */\n  0x01\n    /* \"by-daulat-hussain/solidity/03-datatypes.sol\":115:136  bool public no = true */\n  0x00\n  exp(0x0100, 0x01)\n  dup2\n  sload\n  dup2\n  0xff\n  mul\n  not\n  and\n  swap1\n  dup4\n  iszero\n  iszero\n  mul\n  or\n  swap1\n  sstore\n  pop\n    /* \"by-daulat-hussain/solidity/03-datatypes.sol\":165:168  120 */\n  0x78\n    /* \"by-daulat-hussain/solidity/03-datatypes.sol\":146:168  uint8 public ui8 = 120 */\n  0x00\n  exp(0x0100, 0x02)\n  dup2\n  sload\n  dup2\n  0xff\n  mul\n  not\n  and\n  swap1\n  dup4\n  0xff\n  and\n  mul\n  or\n  swap1\n  sstore\n  pop\n    /* \"by-daulat-hussain/solidity/03-datatypes.sol\":257:259  -1 */\n  0xffffffffffffffffffffffffffffffffffffffffffffffffffffffffffffffff\n    /* \"by-daulat-hussain/solidity/03-datatypes.sol\":240:259  int8 public i8 = -1 */\n  0x00\n  exp(0x0100, 0x03)\n  dup2\n  sload\n  dup2\n  0xff\n  mul\n  not\n  and\n  swap1\n  dup4\n  0x00\n  signextend\n  0xff\n  and\n  mul\n  or\n  swap1\n  sstore\n  pop\n    /* \"by-daulat-hussain/solidity/03-datatypes.sol\":284:287  456 */\n  0x01c8\n    /* \"by-daulat-hussain/solidity/03-datatypes.sol\":266:287  int public i1256 =456 */\n  0x01\n  sstore\n    /* \"by-daulat-hussain/solidity/03-datatypes.sol\":354:367  type(int).min */\n  0x8000000000000000000000000000000000000000000000000000000000000000\n    /* \"by-daulat-hussain/solidity/03-datatypes.sol\":334:367  int public minInt = type(int).min */\n  0x02\n  sstore\n    /* \"by-daulat-hussain/solidity/03-datatypes.sol\":394:407  type(int).max */\n  0x7fffffffffffffffffffffffffffffffffffffffffffffffffffffffffffffff\n    /* \"by-daulat-hussain/solidity/03-datatypes.sol\":374:407  int public maxInt = type(int).max */\n  0x03\n  sstore\n    /* \"by-daulat-hussain/solidity/03-datatypes.sol\":692:696  0xb5 */\n  0xb5\n    /* \"by-daulat-hussain/solidity/03-datatypes.sol\":674:696  bytes1 public a = 0xb5 */\n  0xf8\n  shl\n  0x04\n  exp(0x0100, 0x00)\n  dup2\n  sload\n  dup2\n  0xff\n  mul\n  not\n  and\n  swap1\n  dup4\n  0xf8\n  shr\n  mul\n  or\n  swap1\n  sstore\n  pop\n    /* \"by-daulat-hussain/solidity/03-datatypes.sol\":721:725  0x56 */\n  0x56\n    /* \"by-daulat-hussain/solidity/03-datatypes.sol\":703:725  bytes1 public b = 0x56 */\n  0xf8\n  shl\n  0x04\n  exp(0x0100, 0x01)\n  dup2\n  sload\n  dup2\n  0xff\n  mul\n  not\n  and\n  swap1\n  dup4\n  0xf8\n  shr\n  mul\n  or\n  swap1\n  sstore\n  pop\n    /* \"by-daulat-hussain/solidity/03-datatypes.sol\":61:828  contract DataTypes{... */\n  callvalue\n  dup1\n  iszero\n  tag_1\n  jumpi\n  0x00\n  dup1\n  revert\ntag_1:\n  pop\n  dataSize(sub_0)\n  dup1\n  dataOffset(sub_0)\n  0x00\n  codecopy\n  0x00\n  return\nstop\n\nsub_0: assembly {\n        /* \"by-daulat-hussain/solidity/03-datatypes.sol\":61:828  contract DataTypes{... */\n      mstore(0x40, 0x80)\n      callvalue\n      dup1\n      iszero\n      tag_1\n      jumpi\n      0x00\n      dup1\n      revert\n    tag_1:\n      pop\n      jumpi(tag_2, lt(calldatasize, 0x04))\n      shr(0xe0, calldataload(0x00))\n      dup1\n      0x921cda74\n      gt\n      tag_12\n      jumpi\n      dup1\n      0x921cda74\n      eq\n      tag_7\n      jumpi\n      dup1\n      0xac0c6a70\n      eq\n      tag_8\n      jumpi\n      dup1\n      0xb6c52ae8\n      eq\n      tag_9\n      jumpi\n      dup1\n      0xbde2b573\n      eq\n      tag_10\n      jumpi\n      dup1\n      0xcb763e76\n      eq\n      tag_11\n      jumpi\n      jump(tag_2)\n    tag_12:\n      dup1\n      0x0dbe671f\n      eq\n      tag_3\n      jumpi\n      dup1\n      0x4df7e3d0\n      eq\n      tag_4\n      jumpi\n      dup1\n      0x7a4c2571\n      eq\n      tag_5\n      jumpi\n      dup1\n      0x7e4e14cc\n      eq\n      tag_6\n      jumpi\n    tag_2:\n      0x00\n      dup1\n      revert\n        /* \"by-daulat-hussain/solidity/03-datatypes.sol\":674:696  bytes1 public a = 0xb5 */\n    tag_3:\n      tag_13\n      tag_14\n      jump\t// in\n    tag_13:\n      mload(0x40)\n      tag_15\n      swap2\n      swap1\n      tag_16\n      jump\t// in\n    tag_15:\n      mload(0x40)\n      dup1\n      swap2\n      sub\n      swap1\n      return\n        /* \"by-daulat-hussain/solidity/03-datatypes.sol\":703:725  bytes1 public b = 0x56 */\n    tag_4:\n      tag_17\n      tag_18\n      jump\t// in\n    tag_17:\n      mload(0x40)\n      tag_19\n      swap2\n      swap1\n      tag_16\n      jump\t// in\n    tag_19:\n      mload(0x40)\n      dup1\n      swap2\n      sub\n      swap1\n      return\n        /* \"by-daulat-hussain/solidity/03-datatypes.sol\":374:407  int public maxInt = type(int).max */\n    tag_5:\n      tag_20\n      tag_21\n      jump\t// in\n    tag_20:\n      mload(0x40)\n      tag_22\n      swap2\n      swap1\n      tag_23\n      jump\t// in\n    tag_22:\n      mload(0x40)\n      dup1\n      swap2\n      sub\n      swap1\n      return\n        /* \"by-daulat-hussain/solidity/03-datatypes.sol\":334:367  int public minInt = type(int).min */\n    tag_6:\n      tag_24\n      tag_25\n      jump\t// in\n    tag_24:\n      mload(0x40)\n      tag_26\n      swap2\n      swap1\n      tag_23\n      jump\t// in\n    tag_26:\n      mload(0x40)\n      dup1\n      swap2\n      sub\n      swap1\n      return\n        /* \"by-daulat-hussain/solidity/03-datatypes.sol\":240:259  int8 public i8 = -1 */\n    tag_7:\n      tag_27\n      tag_28\n      jump\t// in\n    tag_27:\n      mload(0x40)\n      tag_29\n      swap2\n      swap1\n      tag_30\n      jump\t// in\n    tag_29:\n      mload(0x40)\n      dup1\n      swap2\n      sub\n      swap1\n      return\n        /* \"by-daulat-hussain/solidity/03-datatypes.sol\":146:168  uint8 public ui8 = 120 */\n    tag_8:\n      tag_31\n      tag_32\n      jump\t// in\n    tag_31:\n      mload(0x40)\n      tag_33\n      swap2\n      swap1\n      tag_34\n      jump\t// in\n    tag_33:\n      mload(0x40)\n      dup1\n      swap2\n      sub\n      swap1\n      return\n        /* \"by-daulat-hussain/solidity/03-datatypes.sol\":115:136  bool public no = true */\n    tag_9:\n      tag_35\n      tag_36\n      jump\t// in\n    tag_35:\n      mload(0x40)\n      tag_37\n      swap2\n      swap1\n      tag_38\n      jump\t// in\n    tag_37:\n      mload(0x40)\n      dup1\n      swap2\n      sub\n      swap1\n      return\n        /* \"by-daulat-hussain/solidity/03-datatypes.sol\":93:108  bool public hey */\n    tag_10:\n      tag_39\n      tag_40\n      jump\t// in\n    tag_39:\n      mload(0x40)\n      tag_41\n      swap2\n      swap1\n      tag_38\n      jump\t// in\n    tag_41:\n      mload(0x40)\n      dup1\n      swap2\n      sub\n      swap1\n      return\n        /* \"by-daulat-hussain/solidity/03-datatypes.sol\":266:287  int public i1256 =456 */\n    tag_11:\n      tag_42\n      tag_43\n      jump\t// in\n    tag_42:\n      mload(0x40)\n      tag_44\n      swap2\n      swap1\n      tag_23\n      jump\t// in\n    tag_44:\n      mload(0x40)\n      dup1\n      swap2\n      sub\n      swap1\n      return\n        /* \"by-daulat-hussain/solidity/03-datatypes.sol\":674:696  bytes1 public a = 0xb5 */\n    tag_14:\n      0x04\n      0x00\n      swap1\n      sload\n      swap1\n      0x0100\n      exp\n      swap1\n      div\n      0xf8\n      shl\n      dup2\n      jump\t// out\n        /* \"by-daulat-hussain/solidity/03-datatypes.sol\":703:725  bytes1 public b = 0x56 */\n    tag_18:\n      0x04\n      0x01\n      swap1\n      sload\n      swap1\n      0x0100\n      exp\n      swap1\n      div\n      0xf8\n      shl\n      dup2\n      jump\t// out\n        /* \"by-daulat-hussain/solidity/03-datatypes.sol\":374:407  int public maxInt = type(int).max */\n    tag_21:\n      sload(0x03)\n      dup2\n      jump\t// out\n        /* \"by-daulat-hussain/solidity/03-datatypes.sol\":334:367  int public minInt = type(int).min */\n    tag_25:\n      sload(0x02)\n      dup2\n      jump\t// out\n        /* \"by-daulat-hussain/solidity/03-datatypes.sol\":240:259  int8 public i8 = -1 */\n    tag_28:\n      0x00\n      0x03\n      swap1\n      sload\n      swap1\n      0x0100\n      exp\n      swap1\n      div\n      0x00\n      signextend\n      dup2\n      jump\t// out\n        /* \"by-daulat-hussain/solidity/03-datatypes.sol\":146:168  uint8 public ui8 = 120 */\n    tag_32:\n      0x00\n      0x02\n      swap1\n      sload\n      swap1\n      0x0100\n      exp\n      swap1\n      div\n      0xff\n      and\n      dup2\n      jump\t// out\n        /* \"by-daulat-hussain/solidity/03-datatypes.sol\":115:136  bool public no = true */\n    tag_36:\n      0x00\n      0x01\n      swap1\n      sload\n      swap1\n      0x0100\n      exp\n      swap1\n      div\n      0xff\n      and\n      dup2\n      jump\t// out\n        /* \"by-daulat-hussain/solidity/03-datatypes.sol\":93:108  bool public hey */\n    tag_40:\n      0x00\n      dup1\n      sload\n      swap1\n      0x0100\n      exp\n      swap1\n      div\n      0xff\n      and\n      dup2\n      jump\t// out\n        /* \"by-daulat-hussain/solidity/03-datatypes.sol\":266:287  int public i1256 =456 */\n    tag_43:\n      sload(0x01)\n      dup2\n      jump\t// out\n        /* \"#utility.yul\":7:156   */\n    tag_45:\n        /* \"#utility.yul\":43:50   */\n      0x00\n        /* \"#utility.yul\":83:149   */\n      0xff00000000000000000000000000000000000000000000000000000000000000\n        /* \"#utility.yul\":76:81   */\n      dup3\n        /* \"#utility.yul\":72:150   */\n      and\n        /* \"#utility.yul\":61:150   */\n      swap1\n      pop\n        /* \"#utility.yul\":7:156   */\n      swap2\n      swap1\n      pop\n      jump\t// out\n        /* \"#utility.yul\":162:277   */\n    tag_46:\n        /* \"#utility.yul\":247:270   */\n      tag_58\n        /* \"#utility.yul\":264:269   */\n      dup2\n        /* \"#utility.yul\":247:270   */\n      tag_45\n      jump\t// in\n    tag_58:\n        /* \"#utility.yul\":242:245   */\n      dup3\n        /* \"#utility.yul\":235:271   */\n      mstore\n        /* \"#utility.yul\":162:277   */\n      pop\n      pop\n      jump\t// out\n        /* \"#utility.yul\":283:501   */\n    tag_16:\n        /* \"#utility.yul\":374:378   */\n      0x00\n        /* \"#utility.yul\":412:414   */\n      0x20\n        /* \"#utility.yul\":401:410   */\n      dup3\n        /* \"#utility.yul\":397:415   */\n      add\n        /* \"#utility.yul\":389:415   */\n      swap1\n      pop\n        /* \"#utility.yul\":425:494   */\n      tag_60\n        /* \"#utility.yul\":491:492   */\n      0x00\n        /* \"#utility.yul\":480:489   */\n      dup4\n        /* \"#utility.yul\":476:493   */\n      add\n        /* \"#utility.yul\":467:473   */\n      dup5\n        /* \"#utility.yul\":425:494   */\n      tag_46\n      jump\t// in\n    tag_60:\n        /* \"#utility.yul\":283:501   */\n      swap3\n      swap2\n      pop\n      pop\n      jump\t// out\n        /* \"#utility.yul\":507:583   */\n    tag_47:\n        /* \"#utility.yul\":543:550   */\n      0x00\n        /* \"#utility.yul\":572:577   */\n      dup2\n        /* \"#utility.yul\":561:577   */\n      swap1\n      pop\n        /* \"#utility.yul\":507:583   */\n      swap2\n      swap1\n      pop\n      jump\t// out\n        /* \"#utility.yul\":589:704   */\n    tag_48:\n        /* \"#utility.yul\":674:697   */\n      tag_63\n        /* \"#utility.yul\":691:696   */\n      dup2\n        /* \"#utility.yul\":674:697   */\n      tag_47\n      jump\t// in\n    tag_63:\n        /* \"#utility.yul\":669:672   */\n      dup3\n        /* \"#utility.yul\":662:698   */\n      mstore\n        /* \"#utility.yul\":589:704   */\n      pop\n      pop\n      jump\t// out\n        /* \"#utility.yul\":710:928   */\n    tag_23:\n        /* \"#utility.yul\":801:805   */\n      0x00\n        /* \"#utility.yul\":839:841   */\n      0x20\n        /* \"#utility.yul\":828:837   */\n      dup3\n        /* \"#utility.yul\":824:842   */\n      add\n        /* \"#utility.yul\":816:842   */\n      swap1\n      pop\n        /* \"#utility.yul\":852:921   */\n      tag_65\n        /* \"#utility.yul\":918:919   */\n      0x00\n        /* \"#utility.yul\":907:916   */\n      dup4\n        /* \"#utility.yul\":903:920   */\n      add\n        /* \"#utility.yul\":894:900   */\n      dup5\n        /* \"#utility.yul\":852:921   */\n      tag_48\n      jump\t// in\n    tag_65:\n        /* \"#utility.yul\":710:928   */\n      swap3\n      swap2\n      pop\n      pop\n      jump\t// out\n        /* \"#utility.yul\":934:1023   */\n    tag_49:\n        /* \"#utility.yul\":968:975   */\n      0x00\n        /* \"#utility.yul\":1011:1016   */\n      dup2\n        /* \"#utility.yul\":1008:1009   */\n      0x00\n        /* \"#utility.yul\":997:1017   */\n      signextend\n        /* \"#utility.yul\":986:1017   */\n      swap1\n      pop\n        /* \"#utility.yul\":934:1023   */\n      swap2\n      swap1\n      pop\n      jump\t// out\n        /* \"#utility.yul\":1029:1138   */\n    tag_50:\n        /* \"#utility.yul\":1110:1131   */\n      tag_68\n        /* \"#utility.yul\":1125:1130   */\n      dup2\n        /* \"#utility.yul\":1110:1131   */\n      tag_49\n      jump\t// in\n    tag_68:\n        /* \"#utility.yul\":1105:1108   */\n      dup3\n        /* \"#utility.yul\":1098:1132   */\n      mstore\n        /* \"#utility.yul\":1029:1138   */\n      pop\n      pop\n      jump\t// out\n        /* \"#utility.yul\":1144:1354   */\n    tag_30:\n        /* \"#utility.yul\":1231:1235   */\n      0x00\n        /* \"#utility.yul\":1269:1271   */\n      0x20\n        /* \"#utility.yul\":1258:1267   */\n      dup3\n        /* \"#utility.yul\":1254:1272   */\n      add\n        /* \"#utility.yul\":1246:1272   */\n      swap1\n      pop\n        /* \"#utility.yul\":1282:1347   */\n      tag_70\n        /* \"#utility.yul\":1344:1345   */\n      0x00\n        /* \"#utility.yul\":1333:1342   */\n      dup4\n        /* \"#utility.yul\":1329:1346   */\n      add\n        /* \"#utility.yul\":1320:1326   */\n      dup5\n        /* \"#utility.yul\":1282:1347   */\n      tag_50\n      jump\t// in\n    tag_70:\n        /* \"#utility.yul\":1144:1354   */\n      swap3\n      swap2\n      pop\n      pop\n      jump\t// out\n        /* \"#utility.yul\":1360:1446   */\n    tag_51:\n        /* \"#utility.yul\":1395:1402   */\n      0x00\n        /* \"#utility.yul\":1435:1439   */\n      0xff\n        /* \"#utility.yul\":1428:1433   */\n      dup3\n        /* \"#utility.yul\":1424:1440   */\n      and\n        /* \"#utility.yul\":1413:1440   */\n      swap1\n      pop\n        /* \"#utility.yul\":1360:1446   */\n      swap2\n      swap1\n      pop\n      jump\t// out\n        /* \"#utility.yul\":1452:1564   */\n    tag_52:\n        /* \"#utility.yul\":1535:1557   */\n      tag_73\n        /* \"#utility.yul\":1551:1556   */\n      dup2\n        /* \"#utility.yul\":1535:1557   */\n      tag_51\n      jump\t// in\n    tag_73:\n        /* \"#utility.yul\":1530:1533   */\n      dup3\n        /* \"#utility.yul\":1523:1558   */\n      mstore\n        /* \"#utility.yul\":1452:1564   */\n      pop\n      pop\n      jump\t// out\n        /* \"#utility.yul\":1570:1784   */\n    tag_34:\n        /* \"#utility.yul\":1659:1663   */\n      0x00\n        /* \"#utility.yul\":1697:1699   */\n      0x20\n        /* \"#utility.yul\":1686:1695   */\n      dup3\n        /* \"#utility.yul\":1682:1700   */\n      add\n        /* \"#utility.yul\":1674:1700   */\n      swap1\n      pop\n        /* \"#utility.yul\":1710:1777   */\n      tag_75\n        /* \"#utility.yul\":1774:1775   */\n      0x00\n        /* \"#utility.yul\":1763:1772   */\n      dup4\n        /* \"#utility.yul\":1759:1776   */\n      add\n        /* \"#utility.yul\":1750:1756   */\n      dup5\n        /* \"#utility.yul\":1710:1777   */\n      tag_52\n      jump\t// in\n    tag_75:\n        /* \"#utility.yul\":1570:1784   */\n      swap3\n      swap2\n      pop\n      pop\n      jump\t// out\n        /* \"#utility.yul\":1790:1880   */\n    tag_53:\n        /* \"#utility.yul\":1824:1831   */\n      0x00\n        /* \"#utility.yul\":1867:1872   */\n      dup2\n        /* \"#utility.yul\":1860:1873   */\n      iszero\n        /* \"#utility.yul\":1853:1874   */\n      iszero\n        /* \"#utility.yul\":1842:1874   */\n      swap1\n      pop\n        /* \"#utility.yul\":1790:1880   */\n      swap2\n      swap1\n      pop\n      jump\t// out\n        /* \"#utility.yul\":1886:1995   */\n    tag_54:\n        /* \"#utility.yul\":1967:1988   */\n      tag_78\n        /* \"#utility.yul\":1982:1987   */\n      dup2\n        /* \"#utility.yul\":1967:1988   */\n      tag_53\n      jump\t// in\n    tag_78:\n        /* \"#utility.yul\":1962:1965   */\n      dup3\n        /* \"#utility.yul\":1955:1989   */\n      mstore\n        /* \"#utility.yul\":1886:1995   */\n      pop\n      pop\n      jump\t// out\n        /* \"#utility.yul\":2001:2211   */\n    tag_38:\n        /* \"#utility.yul\":2088:2092   */\n      0x00\n        /* \"#utility.yul\":2126:2128   */\n      0x20\n        /* \"#utility.yul\":2115:2124   */\n      dup3\n        /* \"#utility.yul\":2111:2129   */\n      add\n        /* \"#utility.yul\":2103:2129   */\n      swap1\n      pop\n        /* \"#utility.yul\":2139:2204   */\n      tag_80\n        /* \"#utility.yul\":2201:2202   */\n      0x00\n        /* \"#utility.yul\":2190:2199   */\n      dup4\n        /* \"#utility.yul\":2186:2203   */\n      add\n        /* \"#utility.yul\":2177:2183   */\n      dup5\n        /* \"#utility.yul\":2139:2204   */\n      tag_54\n      jump\t// in\n    tag_80:\n        /* \"#utility.yul\":2001:2211   */\n      swap3\n      swap2\n      pop\n      pop\n      jump\t// out\n\n    auxdata: 0xa2646970667358221220a062f86deb52d1705448d93bc4d8de3b60e9a6181c91371f1d4f8c497b38918f64736f6c63430008150033\n}\n",
				"bytecode": {
					"linkReferences": {},
					"object": "608060405260015f60016101000a81548160ff02191690831515021790555060785f60026101000a81548160ff021916908360ff1602179055507fffffffffffffffffffffffffffffffffffffffffffffffffffffffffffffffff5f60036101000a81548160ff02191690835f0b60ff1602179055506101c86001557f80000000000000000000000000000000000000000000000000000000000000006002557f7fffffffffffffffffffffffffffffffffffffffffffffffffffffffffffffff60035560b560f81b60045f6101000a81548160ff021916908360f81c0217905550605660f81b600460016101000a81548160ff021916908360f81c021790555034801561010b575f80fd5b50610373806101195f395ff3fe608060405234801561000f575f80fd5b5060043610610091575f3560e01c8063921cda7411610064578063921cda741461010d578063ac0c6a701461012b578063b6c52ae814610149578063bde2b57314610167578063cb763e761461018557610091565b80630dbe671f146100955780634df7e3d0146100b35780637a4c2571146100d15780637e4e14cc146100ef575b5f80fd5b61009d6101a3565b6040516100aa9190610259565b60405180910390f35b6100bb6101b5565b6040516100c89190610259565b60405180910390f35b6100d96101c8565b6040516100e6919061028a565b60405180910390f35b6100f76101ce565b604051610104919061028a565b60405180910390f35b6101156101d4565b60405161012291906102bd565b60405180910390f35b6101336101e5565b60405161014091906102f1565b60405180910390f35b6101516101f7565b60405161015e9190610324565b60405180910390f35b61016f610209565b60405161017c9190610324565b60405180910390f35b61018d610219565b60405161019a919061028a565b60405180910390f35b60045f9054906101000a900460f81b81565b600460019054906101000a900460f81b81565b60035481565b60025481565b5f60039054906101000a90045f0b81565b5f60029054906101000a900460ff1681565b5f60019054906101000a900460ff1681565b5f8054906101000a900460ff1681565b60015481565b5f7fff0000000000000000000000000000000000000000000000000000000000000082169050919050565b6102538161021f565b82525050565b5f60208201905061026c5f83018461024a565b92915050565b5f819050919050565b61028481610272565b82525050565b5f60208201905061029d5f83018461027b565b92915050565b5f815f0b9050919050565b6102b7816102a3565b82525050565b5f6020820190506102d05f8301846102ae565b92915050565b5f60ff82169050919050565b6102eb816102d6565b82525050565b5f6020820190506103045f8301846102e2565b92915050565b5f8115159050919050565b61031e8161030a565b82525050565b5f6020820190506103375f830184610315565b9291505056fea2646970667358221220a062f86deb52d1705448d93bc4d8de3b60e9a6181c91371f1d4f8c497b38918f64736f6c63430008150033",
					"opcodes": "PUSH1 0x80 PUSH1 0x40 MSTORE PUSH1 0x1 PUSH0 PUSH1 0x1 PUSH2 0x100 EXP DUP2 SLOAD DUP2 PUSH1 0xFF MUL NOT AND SWAP1 DUP4 ISZERO ISZERO MUL OR SWAP1 SSTORE POP PUSH1 0x78 PUSH0 PUSH1 0x2 PUSH2 0x100 EXP DUP2 SLOAD DUP2 PUSH1 0xFF MUL NOT AND SWAP1 DUP4 PUSH1 0xFF AND MUL OR SWAP1 SSTORE POP PUSH32 0xFFFFFFFFFFFFFFFFFFFFFFFFFFFFFFFFFFFFFFFFFFFFFFFFFFFFFFFFFFFFFFFF PUSH0 PUSH1 0x3 PUSH2 0x100 EXP DUP2 SLOAD DUP2 PUSH1 0xFF MUL NOT AND SWAP1 DUP4 PUSH0 SIGNEXTEND PUSH1 0xFF AND MUL OR SWAP1 SSTORE POP PUSH2 0x1C8 PUSH1 0x1 SSTORE PUSH32 0x8000000000000000000000000000000000000000000000000000000000000000 PUSH1 0x2 SSTORE PUSH32 0x7FFFFFFFFFFFFFFFFFFFFFFFFFFFFFFFFFFFFFFFFFFFFFFFFFFFFFFFFFFFFFFF PUSH1 0x3 SSTORE PUSH1 0xB5 PUSH1 0xF8 SHL PUSH1 0x4 PUSH0 PUSH2 0x100 EXP DUP2 SLOAD DUP2 PUSH1 0xFF MUL NOT AND SWAP1 DUP4 PUSH1 0xF8 SHR MUL OR SWAP1 SSTORE POP PUSH1 0x56 PUSH1 0xF8 SHL PUSH1 0x4 PUSH1 0x1 PUSH2 0x100 EXP DUP2 SLOAD DUP2 PUSH1 0xFF MUL NOT AND SWAP1 DUP4 PUSH1 0xF8 SHR MUL OR SWAP1 SSTORE POP CALLVALUE DUP1 ISZERO PUSH2 0x10B JUMPI PUSH0 DUP1 REVERT JUMPDEST POP PUSH2 0x373 DUP1 PUSH2 0x119 PUSH0 CODECOPY PUSH0 RETURN INVALID PUSH1 0x80 PUSH1 0x40 MSTORE CALLVALUE DUP1 ISZERO PUSH2 0xF JUMPI PUSH0 DUP1 REVERT JUMPDEST POP PUSH1 0x4 CALLDATASIZE LT PUSH2 0x91 JUMPI PUSH0 CALLDATALOAD PUSH1 0xE0 SHR DUP1 PUSH4 0x921CDA74 GT PUSH2 0x64 JUMPI DUP1 PUSH4 0x921CDA74 EQ PUSH2 0x10D JUMPI DUP1 PUSH4 0xAC0C6A70 EQ PUSH2 0x12B JUMPI DUP1 PUSH4 0xB6C52AE8 EQ PUSH2 0x149 JUMPI DUP1 PUSH4 0xBDE2B573 EQ PUSH2 0x167 JUMPI DUP1 PUSH4 0xCB763E76 EQ PUSH2 0x185 JUMPI PUSH2 0x91 JUMP JUMPDEST DUP1 PUSH4 0xDBE671F EQ PUSH2 0x95 JUMPI DUP1 PUSH4 0x4DF7E3D0 EQ PUSH2 0xB3 JUMPI DUP1 PUSH4 0x7A4C2571 EQ PUSH2 0xD1 JUMPI DUP1 PUSH4 0x7E4E14CC EQ PUSH2 0xEF JUMPI JUMPDEST PUSH0 DUP1 REVERT JUMPDEST PUSH2 0x9D PUSH2 0x1A3 JUMP JUMPDEST PUSH1 0x40 MLOAD PUSH2 0xAA SWAP2 SWAP1 PUSH2 0x259 JUMP JUMPDEST PUSH1 0x40 MLOAD DUP1 SWAP2 SUB SWAP1 RETURN JUMPDEST PUSH2 0xBB PUSH2 0x1B5 JUMP JUMPDEST PUSH1 0x40 MLOAD PUSH2 0xC8 SWAP2 SWAP1 PUSH2 0x259 JUMP JUMPDEST PUSH1 0x40 MLOAD DUP1 SWAP2 SUB SWAP1 RETURN JUMPDEST PUSH2 0xD9 PUSH2 0x1C8 JUMP JUMPDEST PUSH1 0x40 MLOAD PUSH2 0xE6 SWAP2 SWAP1 PUSH2 0x28A JUMP JUMPDEST PUSH1 0x40 MLOAD DUP1 SWAP2 SUB SWAP1 RETURN JUMPDEST PUSH2 0xF7 PUSH2 0x1CE JUMP JUMPDEST PUSH1 0x40 MLOAD PUSH2 0x104 SWAP2 SWAP1 PUSH2 0x28A JUMP JUMPDEST PUSH1 0x40 MLOAD DUP1 SWAP2 SUB SWAP1 RETURN JUMPDEST PUSH2 0x115 PUSH2 0x1D4 JUMP JUMPDEST PUSH1 0x40 MLOAD PUSH2 0x122 SWAP2 SWAP1 PUSH2 0x2BD JUMP JUMPDEST PUSH1 0x40 MLOAD DUP1 SWAP2 SUB SWAP1 RETURN JUMPDEST PUSH2 0x133 PUSH2 0x1E5 JUMP JUMPDEST PUSH1 0x40 MLOAD PUSH2 0x140 SWAP2 SWAP1 PUSH2 0x2F1 JUMP JUMPDEST PUSH1 0x40 MLOAD DUP1 SWAP2 SUB SWAP1 RETURN JUMPDEST PUSH2 0x151 PUSH2 0x1F7 JUMP JUMPDEST PUSH1 0x40 MLOAD PUSH2 0x15E SWAP2 SWAP1 PUSH2 0x324 JUMP JUMPDEST PUSH1 0x40 MLOAD DUP1 SWAP2 SUB SWAP1 RETURN JUMPDEST PUSH2 0x16F PUSH2 0x209 JUMP JUMPDEST PUSH1 0x40 MLOAD PUSH2 0x17C SWAP2 SWAP1 PUSH2 0x324 JUMP JUMPDEST PUSH1 0x40 MLOAD DUP1 SWAP2 SUB SWAP1 RETURN JUMPDEST PUSH2 0x18D PUSH2 0x219 JUMP JUMPDEST PUSH1 0x40 MLOAD PUSH2 0x19A SWAP2 SWAP1 PUSH2 0x28A JUMP JUMPDEST PUSH1 0x40 MLOAD DUP1 SWAP2 SUB SWAP1 RETURN JUMPDEST PUSH1 0x4 PUSH0 SWAP1 SLOAD SWAP1 PUSH2 0x100 EXP SWAP1 DIV PUSH1 0xF8 SHL DUP2 JUMP JUMPDEST PUSH1 0x4 PUSH1 0x1 SWAP1 SLOAD SWAP1 PUSH2 0x100 EXP SWAP1 DIV PUSH1 0xF8 SHL DUP2 JUMP JUMPDEST PUSH1 0x3 SLOAD DUP2 JUMP JUMPDEST PUSH1 0x2 SLOAD DUP2 JUMP JUMPDEST PUSH0 PUSH1 0x3 SWAP1 SLOAD SWAP1 PUSH2 0x100 EXP SWAP1 DIV PUSH0 SIGNEXTEND DUP2 JUMP JUMPDEST PUSH0 PUSH1 0x2 SWAP1 SLOAD SWAP1 PUSH2 0x100 EXP SWAP1 DIV PUSH1 0xFF AND DUP2 JUMP JUMPDEST PUSH0 PUSH1 0x1 SWAP1 SLOAD SWAP1 PUSH2 0x100 EXP SWAP1 DIV PUSH1 0xFF AND DUP2 JUMP JUMPDEST PUSH0 DUP1 SLOAD SWAP1 PUSH2 0x100 EXP SWAP1 DIV PUSH1 0xFF AND DUP2 JUMP JUMPDEST PUSH1 0x1 SLOAD DUP2 JUMP JUMPDEST PUSH0 PUSH32 0xFF00000000000000000000000000000000000000000000000000000000000000 DUP3 AND SWAP1 POP SWAP2 SWAP1 POP JUMP JUMPDEST PUSH2 0x253 DUP2 PUSH2 0x21F JUMP JUMPDEST DUP3 MSTORE POP POP JUMP JUMPDEST PUSH0 PUSH1 0x20 DUP3 ADD SWAP1 POP PUSH2 0x26C PUSH0 DUP4 ADD DUP5 PUSH2 0x24A JUMP JUMPDEST SWAP3 SWAP2 POP POP JUMP JUMPDEST PUSH0 DUP2 SWAP1 POP SWAP2 SWAP1 POP JUMP JUMPDEST PUSH2 0x284 DUP2 PUSH2 0x272 JUMP JUMPDEST DUP3 MSTORE POP POP JUMP JUMPDEST PUSH0 PUSH1 0x20 DUP3 ADD SWAP1 POP PUSH2 0x29D PUSH0 DUP4 ADD DUP5 PUSH2 0x27B JUMP JUMPDEST SWAP3 SWAP2 POP POP JUMP JUMPDEST PUSH0 DUP2 PUSH0 SIGNEXTEND SWAP1 POP SWAP2 SWAP1 POP JUMP JUMPDEST PUSH2 0x2B7 DUP2 PUSH2 0x2A3 JUMP JUMPDEST DUP3 MSTORE POP POP JUMP JUMPDEST PUSH0 PUSH1 0x20 DUP3 ADD SWAP1 POP PUSH2 0x2D0 PUSH0 DUP4 ADD DUP5 PUSH2 0x2AE JUMP JUMPDEST SWAP3 SWAP2 POP POP JUMP JUMPDEST PUSH0 PUSH1 0xFF DUP3 AND SWAP1 POP SWAP2 SWAP1 POP JUMP JUMPDEST PUSH2 0x2EB DUP2 PUSH2 0x2D6 JUMP JUMPDEST DUP3 MSTORE POP POP JUMP JUMPDEST PUSH0 PUSH1 0x20 DUP3 ADD SWAP1 POP PUSH2 0x304 PUSH0 DUP4 ADD DUP5 PUSH2 0x2E2 JUMP JUMPDEST SWAP3 SWAP2 POP POP JUMP JUMPDEST PUSH0 DUP2 ISZERO ISZERO SWAP1 POP SWAP2 SWAP1 POP JUMP JUMPDEST PUSH2 0x31E DUP2 PUSH2 0x30A JUMP JUMPDEST DUP3 MSTORE POP POP JUMP JUMPDEST PUSH0 PUSH1 0x20 DUP3 ADD SWAP1 POP PUSH2 0x337 PUSH0 DUP4 ADD DUP5 PUSH2 0x315 JUMP JUMPDEST SWAP3 SWAP2 POP POP JUMP INVALID LOG2 PUSH5 0x6970667358 0x22 SLT KECCAK256 LOG0 PUSH3 0xF86DEB MSTORE 0xD1 PUSH17 0x5448D93BC4D8DE3B60E9A6181C91371F1D 0x4F DUP13 0x49 PUSH28 0x38918F64736F6C634300081500330000000000000000000000000000 "
				},
				"gasEstimates": {
					"creation": {
						"codeDepositCost": "176600",
						"executionCost": "188086",
						"totalCost": "364686"
					},
					"external": {
						"a()": "2467",
						"b()": "2540",
						"hey()": "2529",
						"i1256()": "2513",
						"i8()": "2518",
						"maxInt()": "2470",
						"minInt()": "2492",
						"no()": "2560",
						"ui8()": "2538"
					}
				},
				"methodIdentifiers": {
					"a()": "0dbe671f",
					"b()": "4df7e3d0",
					"hey()": "bde2b573",
					"i1256()": "cb763e76",
					"i8()": "921cda74",
					"maxInt()": "7a4c2571",
					"minInt()": "7e4e14cc",
					"no()": "b6c52ae8",
					"ui8()": "ac0c6a70"
				}
			},
			"storageLayout": {
				"storage": [
					{
						"astId": 3,
						"contract": "by-daulat-hussain/solidity/03-datatypes.sol:DataTypes",
						"label": "hey",
						"offset": 0,
						"slot": "0",
						"type": "t_bool"
					},
					{
						"astId": 6,
						"contract": "by-daulat-hussain/solidity/03-datatypes.sol:DataTypes",
						"label": "no",
						"offset": 1,
						"slot": "0",
						"type": "t_bool"
					},
					{
						"astId": 9,
						"contract": "by-daulat-hussain/solidity/03-datatypes.sol:DataTypes",
						"label": "ui8",
						"offset": 2,
						"slot": "0",
						"type": "t_uint8"
					},
					{
						"astId": 13,
						"contract": "by-daulat-hussain/solidity/03-datatypes.sol:DataTypes",
						"label": "i8",
						"offset": 3,
						"slot": "0",
						"type": "t_int8"
					},
					{
						"astId": 16,
						"contract": "by-daulat-hussain/solidity/03-datatypes.sol:DataTypes",
						"label": "i1256",
						"offset": 0,
						"slot": "1",
						"type": "t_int256"
					},
					{
						"astId": 23,
						"contract": "by-daulat-hussain/solidity/03-datatypes.sol:DataTypes",
						"label": "minInt",
						"offset": 0,
						"slot": "2",
						"type": "t_int256"
					},
					{
						"astId": 30,
						"contract": "by-daulat-hussain/solidity/03-datatypes.sol:DataTypes",
						"label": "maxInt",
						"offset": 0,
						"slot": "3",
						"type": "t_int256"
					},
					{
						"astId": 33,
						"contract": "by-daulat-hussain/solidity/03-datatypes.sol:DataTypes",
						"label": "a",
						"offset": 0,
						"slot": "4",
						"type": "t_bytes1"
					},
					{
						"astId": 36,
						"contract": "by-daulat-hussain/solidity/03-datatypes.sol:DataTypes",
						"label": "b",
						"offset": 1,
						"slot": "4",
						"type": "t_bytes1"
					}
				],
				"types": {
					"t_bool": {
						"encoding": "inplace",
						"label": "bool",
						"numberOfBytes": "1"
					},
					"t_bytes1": {
						"encoding": "inplace",
						"label": "bytes1",
						"numberOfBytes": "1"
					},
					"t_int256": {
						"encoding": "inplace",
						"label": "int256",
						"numberOfBytes": "32"
					},
					"t_int8": {
						"encoding": "inplace",
						"label": "int8",
						"numberOfBytes": "1"
					},
					"t_uint8": {
						"encoding": "inplace",
						"label": "uint8",
						"numberOfBytes": "1"
					}
				}
			},
			"userdoc": {
				"kind": "user",
				"methods": {},
				"version": 1
			}
		}
	}
}