{
	"by-daulat-hussain/solidity/19-functions.sol": {
		"Function": {
			"abi": [
				{
					"inputs": [
						{
							"internalType": "uint256",
							"name": "",
							"type": "uint256"
						}
					],
					"name": "arr",
					"outputs": [
						{
							"internalType": "uint256",
							"name": "",
							"type": "uint256"
						}
					],
					"stateMutability": "view",
					"type": "function"
				},
				{
					"inputs": [],
					"name": "arrayInput",
					"outputs": [
						{
							"internalType": "uint256[]",
							"name": "",
							"type": "uint256[]"
						}
					],
					"stateMutability": "view",
					"type": "function"
				},
				{
					"inputs": [
						{
							"internalType": "uint256[]",
							"name": "_arr",
							"type": "uint256[]"
						}
					],
					"name": "arrayInput",
					"outputs": [],
					"stateMutability": "nonpayable",
					"type": "function"
				},
				{
					"inputs": [],
					"name": "assigned",
					"outputs": [
						{
							"internalType": "uint256",
							"name": "x",
							"type": "uint256"
						},
						{
							"internalType": "bool",
							"name": "b",
							"type": "bool"
						},
						{
							"internalType": "uint256",
							"name": "y",
							"type": "uint256"
						}
					],
					"stateMutability": "pure",
					"type": "function"
				},
				{
					"inputs": [],
					"name": "destructuringAssignment",
					"outputs": [
						{
							"internalType": "uint256",
							"name": "",
							"type": "uint256"
						},
						{
							"internalType": "bool",
							"name": "",
							"type": "bool"
						},
						{
							"internalType": "uint256",
							"name": "",
							"type": "uint256"
						}
					],
					"stateMutability": "pure",
					"type": "function"
				},
				{
					"inputs": [],
					"name": "named",
					"outputs": [
						{
							"internalType": "uint256",
							"name": "x",
							"type": "uint256"
						},
						{
							"internalType": "bool",
							"name": "b",
							"type": "bool"
						},
						{
							"internalType": "uint256",
							"name": "y",
							"type": "uint256"
						}
					],
					"stateMutability": "pure",
					"type": "function"
				},
				{
					"inputs": [],
					"name": "returnMany",
					"outputs": [
						{
							"internalType": "uint256",
							"name": "x",
							"type": "uint256"
						},
						{
							"internalType": "bool",
							"name": "b",
							"type": "bool"
						},
						{
							"internalType": "uint256",
							"name": "y",
							"type": "uint256"
						}
					],
					"stateMutability": "pure",
					"type": "function"
				}
			],
			"devdoc": {
				"kind": "dev",
				"methods": {},
				"version": 1
			},
			"evm": {
				"assembly": "    /* \"by-daulat-hussain/solidity/19-functions.sol\":61:857  contract Function {... */\n  mstore(0x40, 0x80)\n  callvalue\n  dup1\n  iszero\n  tag_1\n  jumpi\n  0x00\n  dup1\n  revert\ntag_1:\n  pop\n  dataSize(sub_0)\n  dup1\n  dataOffset(sub_0)\n  0x00\n  codecopy\n  0x00\n  return\nstop\n\nsub_0: assembly {\n        /* \"by-daulat-hussain/solidity/19-functions.sol\":61:857  contract Function {... */\n      mstore(0x40, 0x80)\n      callvalue\n      dup1\n      iszero\n      tag_1\n      jumpi\n      0x00\n      dup1\n      revert\n    tag_1:\n      pop\n      jumpi(tag_2, lt(calldatasize, 0x04))\n      shr(0xe0, calldataload(0x00))\n      dup1\n      0x86887544\n      gt\n      tag_10\n      jumpi\n      dup1\n      0x86887544\n      eq\n      tag_6\n      jumpi\n      dup1\n      0xa985c465\n      eq\n      tag_7\n      jumpi\n      dup1\n      0xadb4d990\n      eq\n      tag_8\n      jumpi\n      dup1\n      0xf4bb6e6b\n      eq\n      tag_9\n      jumpi\n      jump(tag_2)\n    tag_10:\n      dup1\n      0x343a6f93\n      eq\n      tag_3\n      jumpi\n      dup1\n      0x45f907a8\n      eq\n      tag_4\n      jumpi\n      dup1\n      0x71e5ee5f\n      eq\n      tag_5\n      jumpi\n    tag_2:\n      0x00\n      dup1\n      revert\n        /* \"by-daulat-hussain/solidity/19-functions.sol\":524:678  function destructuringAssignment() public pure returns(uint,bool,uint){... */\n    tag_3:\n      tag_11\n      tag_12\n      jump\t// in\n    tag_11:\n      mload(0x40)\n      tag_13\n      swap4\n      swap3\n      swap2\n      swap1\n      tag_14\n      jump\t// in\n    tag_13:\n      mload(0x40)\n      dup1\n      swap2\n      sub\n      swap1\n      return\n        /* \"by-daulat-hussain/solidity/19-functions.sol\":233:332  function named() public pure returns (uint x, bool b, uint y){... */\n    tag_4:\n      tag_15\n      tag_16\n      jump\t// in\n    tag_15:\n      mload(0x40)\n      tag_17\n      swap4\n      swap3\n      swap2\n      swap1\n      tag_14\n      jump\t// in\n    tag_17:\n      mload(0x40)\n      dup1\n      swap2\n      sub\n      swap1\n      return\n        /* \"by-daulat-hussain/solidity/19-functions.sol\":743:760  uint[] public arr */\n    tag_5:\n      tag_18\n      0x04\n      dup1\n      calldatasize\n      sub\n      dup2\n      add\n      swap1\n      tag_19\n      swap2\n      swap1\n      tag_20\n      jump\t// in\n    tag_19:\n      tag_21\n      jump\t// in\n    tag_18:\n      mload(0x40)\n      tag_22\n      swap2\n      swap1\n      tag_23\n      jump\t// in\n    tag_22:\n      mload(0x40)\n      dup1\n      swap2\n      sub\n      swap1\n      return\n        /* \"by-daulat-hussain/solidity/19-functions.sol\":86:190  function returnMany() public pure returns (uint x, bool b, uint y){... */\n    tag_6:\n      tag_24\n      tag_25\n      jump\t// in\n    tag_24:\n      mload(0x40)\n      tag_26\n      swap4\n      swap3\n      swap2\n      swap1\n      tag_14\n      jump\t// in\n    tag_26:\n      mload(0x40)\n      dup1\n      swap2\n      sub\n      swap1\n      return\n        /* \"by-daulat-hussain/solidity/19-functions.sol\":769:854  function arrayInput() public view returns(uint[] memory){... */\n    tag_7:\n      tag_27\n      tag_28\n      jump\t// in\n    tag_27:\n      mload(0x40)\n      tag_29\n      swap2\n      swap1\n      tag_30\n      jump\t// in\n    tag_29:\n      mload(0x40)\n      dup1\n      swap2\n      sub\n      swap1\n      return\n        /* \"by-daulat-hussain/solidity/19-functions.sol\":395:516  function assigned() public pure returns (uint x, bool b, uint y){... */\n    tag_8:\n      tag_31\n      tag_32\n      jump\t// in\n    tag_31:\n      mload(0x40)\n      tag_33\n      swap4\n      swap3\n      swap2\n      swap1\n      tag_14\n      jump\t// in\n    tag_33:\n      mload(0x40)\n      dup1\n      swap2\n      sub\n      swap1\n      return\n        /* \"by-daulat-hussain/solidity/19-functions.sol\":686:735  function arrayInput(uint[] memory _arr) public {} */\n    tag_9:\n      tag_34\n      0x04\n      dup1\n      calldatasize\n      sub\n      dup2\n      add\n      swap1\n      tag_35\n      swap2\n      swap1\n      tag_36\n      jump\t// in\n    tag_35:\n      tag_37\n      jump\t// in\n    tag_34:\n      stop\n        /* \"by-daulat-hussain/solidity/19-functions.sol\":524:678  function destructuringAssignment() public pure returns(uint,bool,uint){... */\n    tag_12:\n        /* \"by-daulat-hussain/solidity/19-functions.sol\":579:583  uint */\n      0x00\n        /* \"by-daulat-hussain/solidity/19-functions.sol\":584:588  bool */\n      dup1\n        /* \"by-daulat-hussain/solidity/19-functions.sol\":589:593  uint */\n      0x00\n        /* \"by-daulat-hussain/solidity/19-functions.sol\":606:612  uint x */\n      dup1\n        /* \"by-daulat-hussain/solidity/19-functions.sol\":614:620  bool b */\n      0x00\n        /* \"by-daulat-hussain/solidity/19-functions.sol\":622:628  uint y */\n      dup1\n        /* \"by-daulat-hussain/solidity/19-functions.sol\":632:644  returnMany() */\n      tag_39\n        /* \"by-daulat-hussain/solidity/19-functions.sol\":632:642  returnMany */\n      tag_25\n        /* \"by-daulat-hussain/solidity/19-functions.sol\":632:644  returnMany() */\n      jump\t// in\n    tag_39:\n        /* \"by-daulat-hussain/solidity/19-functions.sol\":605:644  (uint x, bool b, uint y) = returnMany() */\n      swap3\n      pop\n      swap3\n      pop\n      swap3\n      pop\n        /* \"by-daulat-hussain/solidity/19-functions.sol\":664:665  x */\n      dup3\n        /* \"by-daulat-hussain/solidity/19-functions.sol\":666:667  b */\n      dup3\n        /* \"by-daulat-hussain/solidity/19-functions.sol\":668:669  y */\n      dup3\n        /* \"by-daulat-hussain/solidity/19-functions.sol\":655:670  return ( x,b,y) */\n      swap6\n      pop\n      swap6\n      pop\n      swap6\n      pop\n      pop\n      pop\n      pop\n        /* \"by-daulat-hussain/solidity/19-functions.sol\":524:678  function destructuringAssignment() public pure returns(uint,bool,uint){... */\n      swap1\n      swap2\n      swap3\n      jump\t// out\n        /* \"by-daulat-hussain/solidity/19-functions.sol\":233:332  function named() public pure returns (uint x, bool b, uint y){... */\n    tag_16:\n        /* \"by-daulat-hussain/solidity/19-functions.sol\":271:277  uint x */\n      0x00\n        /* \"by-daulat-hussain/solidity/19-functions.sol\":279:285  bool b */\n      dup1\n        /* \"by-daulat-hussain/solidity/19-functions.sol\":287:293  uint y */\n      0x00\n        /* \"by-daulat-hussain/solidity/19-functions.sol\":313:314  1 */\n      0x01\n        /* \"by-daulat-hussain/solidity/19-functions.sol\":316:320  true */\n      dup1\n        /* \"by-daulat-hussain/solidity/19-functions.sol\":322:323  2 */\n      0x02\n        /* \"by-daulat-hussain/solidity/19-functions.sol\":305:324  return (1, true, 2) */\n      swap3\n      pop\n      swap3\n      pop\n      swap3\n      pop\n        /* \"by-daulat-hussain/solidity/19-functions.sol\":233:332  function named() public pure returns (uint x, bool b, uint y){... */\n      swap1\n      swap2\n      swap3\n      jump\t// out\n        /* \"by-daulat-hussain/solidity/19-functions.sol\":743:760  uint[] public arr */\n    tag_21:\n      0x00\n      dup2\n      dup2\n      sload\n      dup2\n      lt\n      tag_41\n      jumpi\n      0x00\n      dup1\n      revert\n    tag_41:\n      swap1\n      0x00\n      mstore\n      keccak256(0x00, 0x20)\n      add\n      0x00\n      swap2\n      pop\n      swap1\n      pop\n      sload\n      dup2\n      jump\t// out\n        /* \"by-daulat-hussain/solidity/19-functions.sol\":86:190  function returnMany() public pure returns (uint x, bool b, uint y){... */\n    tag_25:\n        /* \"by-daulat-hussain/solidity/19-functions.sol\":129:135  uint x */\n      0x00\n        /* \"by-daulat-hussain/solidity/19-functions.sol\":137:143  bool b */\n      dup1\n        /* \"by-daulat-hussain/solidity/19-functions.sol\":145:151  uint y */\n      0x00\n        /* \"by-daulat-hussain/solidity/19-functions.sol\":171:172  1 */\n      0x01\n        /* \"by-daulat-hussain/solidity/19-functions.sol\":174:178  true */\n      dup1\n        /* \"by-daulat-hussain/solidity/19-functions.sol\":180:181  2 */\n      0x02\n        /* \"by-daulat-hussain/solidity/19-functions.sol\":163:182  return (1, true, 2) */\n      swap3\n      pop\n      swap3\n      pop\n      swap3\n      pop\n        /* \"by-daulat-hussain/solidity/19-functions.sol\":86:190  function returnMany() public pure returns (uint x, bool b, uint y){... */\n      swap1\n      swap2\n      swap3\n      jump\t// out\n        /* \"by-daulat-hussain/solidity/19-functions.sol\":769:854  function arrayInput() public view returns(uint[] memory){... */\n    tag_28:\n        /* \"by-daulat-hussain/solidity/19-functions.sol\":811:824  uint[] memory */\n      0x60\n        /* \"by-daulat-hussain/solidity/19-functions.sol\":843:846  arr */\n      0x00\n        /* \"by-daulat-hussain/solidity/19-functions.sol\":836:846  return arr */\n      dup1\n      sload\n      dup1\n      0x20\n      mul\n      0x20\n      add\n      mload(0x40)\n      swap1\n      dup2\n      add\n      0x40\n      mstore\n      dup1\n      swap3\n      swap2\n      swap1\n      dup2\n      dup2\n      mstore\n      0x20\n      add\n      dup3\n      dup1\n      sload\n      dup1\n      iszero\n      tag_45\n      jumpi\n      0x20\n      mul\n      dup3\n      add\n      swap2\n      swap1\n      0x00\n      mstore\n      keccak256(0x00, 0x20)\n      swap1\n    tag_46:\n      dup2\n      sload\n      dup2\n      mstore\n      0x20\n      add\n      swap1\n      0x01\n      add\n      swap1\n      dup1\n      dup4\n      gt\n      tag_46\n      jumpi\n    tag_45:\n      pop\n      pop\n      pop\n      pop\n      pop\n      swap1\n      pop\n        /* \"by-daulat-hussain/solidity/19-functions.sol\":769:854  function arrayInput() public view returns(uint[] memory){... */\n      swap1\n      jump\t// out\n        /* \"by-daulat-hussain/solidity/19-functions.sol\":395:516  function assigned() public pure returns (uint x, bool b, uint y){... */\n    tag_32:\n        /* \"by-daulat-hussain/solidity/19-functions.sol\":436:442  uint x */\n      0x00\n        /* \"by-daulat-hussain/solidity/19-functions.sol\":444:450  bool b */\n      dup1\n        /* \"by-daulat-hussain/solidity/19-functions.sol\":452:458  uint y */\n      0x00\n        /* \"by-daulat-hussain/solidity/19-functions.sol\":472:473  1 */\n      0x01\n        /* \"by-daulat-hussain/solidity/19-functions.sol\":470:473  x=1 */\n      swap3\n      pop\n        /* \"by-daulat-hussain/solidity/19-functions.sol\":486:487  5 */\n      0x05\n        /* \"by-daulat-hussain/solidity/19-functions.sol\":484:487  y=5 */\n      swap1\n      pop\n        /* \"by-daulat-hussain/solidity/19-functions.sol\":500:504  true */\n      0x01\n        /* \"by-daulat-hussain/solidity/19-functions.sol\":498:504  b=true */\n      swap2\n      pop\n        /* \"by-daulat-hussain/solidity/19-functions.sol\":395:516  function assigned() public pure returns (uint x, bool b, uint y){... */\n      swap1\n      swap2\n      swap3\n      jump\t// out\n        /* \"by-daulat-hussain/solidity/19-functions.sol\":686:735  function arrayInput(uint[] memory _arr) public {} */\n    tag_37:\n      pop\n      jump\t// out\n        /* \"#utility.yul\":7:84   */\n    tag_49:\n        /* \"#utility.yul\":44:51   */\n      0x00\n        /* \"#utility.yul\":73:78   */\n      dup2\n        /* \"#utility.yul\":62:78   */\n      swap1\n      pop\n        /* \"#utility.yul\":7:84   */\n      swap2\n      swap1\n      pop\n      jump\t// out\n        /* \"#utility.yul\":90:208   */\n    tag_50:\n        /* \"#utility.yul\":177:201   */\n      tag_77\n        /* \"#utility.yul\":195:200   */\n      dup2\n        /* \"#utility.yul\":177:201   */\n      tag_49\n      jump\t// in\n    tag_77:\n        /* \"#utility.yul\":172:175   */\n      dup3\n        /* \"#utility.yul\":165:202   */\n      mstore\n        /* \"#utility.yul\":90:208   */\n      pop\n      pop\n      jump\t// out\n        /* \"#utility.yul\":214:304   */\n    tag_51:\n        /* \"#utility.yul\":248:255   */\n      0x00\n        /* \"#utility.yul\":291:296   */\n      dup2\n        /* \"#utility.yul\":284:297   */\n      iszero\n        /* \"#utility.yul\":277:298   */\n      iszero\n        /* \"#utility.yul\":266:298   */\n      swap1\n      pop\n        /* \"#utility.yul\":214:304   */\n      swap2\n      swap1\n      pop\n      jump\t// out\n        /* \"#utility.yul\":310:419   */\n    tag_52:\n        /* \"#utility.yul\":391:412   */\n      tag_80\n        /* \"#utility.yul\":406:411   */\n      dup2\n        /* \"#utility.yul\":391:412   */\n      tag_51\n      jump\t// in\n    tag_80:\n        /* \"#utility.yul\":386:389   */\n      dup3\n        /* \"#utility.yul\":379:413   */\n      mstore\n        /* \"#utility.yul\":310:419   */\n      pop\n      pop\n      jump\t// out\n        /* \"#utility.yul\":425:855   */\n    tag_14:\n        /* \"#utility.yul\":568:572   */\n      0x00\n        /* \"#utility.yul\":606:608   */\n      0x60\n        /* \"#utility.yul\":595:604   */\n      dup3\n        /* \"#utility.yul\":591:609   */\n      add\n        /* \"#utility.yul\":583:609   */\n      swap1\n      pop\n        /* \"#utility.yul\":619:690   */\n      tag_82\n        /* \"#utility.yul\":687:688   */\n      0x00\n        /* \"#utility.yul\":676:685   */\n      dup4\n        /* \"#utility.yul\":672:689   */\n      add\n        /* \"#utility.yul\":663:669   */\n      dup7\n        /* \"#utility.yul\":619:690   */\n      tag_50\n      jump\t// in\n    tag_82:\n        /* \"#utility.yul\":700:766   */\n      tag_83\n        /* \"#utility.yul\":762:764   */\n      0x20\n        /* \"#utility.yul\":751:760   */\n      dup4\n        /* \"#utility.yul\":747:765   */\n      add\n        /* \"#utility.yul\":738:744   */\n      dup6\n        /* \"#utility.yul\":700:766   */\n      tag_52\n      jump\t// in\n    tag_83:\n        /* \"#utility.yul\":776:848   */\n      tag_84\n        /* \"#utility.yul\":844:846   */\n      0x40\n        /* \"#utility.yul\":833:842   */\n      dup4\n        /* \"#utility.yul\":829:847   */\n      add\n        /* \"#utility.yul\":820:826   */\n      dup5\n        /* \"#utility.yul\":776:848   */\n      tag_50\n      jump\t// in\n    tag_84:\n        /* \"#utility.yul\":425:855   */\n      swap5\n      swap4\n      pop\n      pop\n      pop\n      pop\n      jump\t// out\n        /* \"#utility.yul\":861:936   */\n    tag_53:\n        /* \"#utility.yul\":894:900   */\n      0x00\n        /* \"#utility.yul\":927:929   */\n      0x40\n        /* \"#utility.yul\":921:930   */\n      mload\n        /* \"#utility.yul\":911:930   */\n      swap1\n      pop\n        /* \"#utility.yul\":861:936   */\n      swap1\n      jump\t// out\n        /* \"#utility.yul\":942:1059   */\n    tag_54:\n        /* \"#utility.yul\":1051:1052   */\n      0x00\n        /* \"#utility.yul\":1048:1049   */\n      dup1\n        /* \"#utility.yul\":1041:1053   */\n      revert\n        /* \"#utility.yul\":1065:1182   */\n    tag_55:\n        /* \"#utility.yul\":1174:1175   */\n      0x00\n        /* \"#utility.yul\":1171:1172   */\n      dup1\n        /* \"#utility.yul\":1164:1176   */\n      revert\n        /* \"#utility.yul\":1188:1310   */\n    tag_56:\n        /* \"#utility.yul\":1261:1285   */\n      tag_89\n        /* \"#utility.yul\":1279:1284   */\n      dup2\n        /* \"#utility.yul\":1261:1285   */\n      tag_49\n      jump\t// in\n    tag_89:\n        /* \"#utility.yul\":1254:1259   */\n      dup2\n        /* \"#utility.yul\":1251:1286   */\n      eq\n        /* \"#utility.yul\":1241:1304   */\n      tag_90\n      jumpi\n        /* \"#utility.yul\":1300:1301   */\n      0x00\n        /* \"#utility.yul\":1297:1298   */\n      dup1\n        /* \"#utility.yul\":1290:1302   */\n      revert\n        /* \"#utility.yul\":1241:1304   */\n    tag_90:\n        /* \"#utility.yul\":1188:1310   */\n      pop\n      jump\t// out\n        /* \"#utility.yul\":1316:1455   */\n    tag_57:\n        /* \"#utility.yul\":1362:1367   */\n      0x00\n        /* \"#utility.yul\":1400:1406   */\n      dup2\n        /* \"#utility.yul\":1387:1407   */\n      calldataload\n        /* \"#utility.yul\":1378:1407   */\n      swap1\n      pop\n        /* \"#utility.yul\":1416:1449   */\n      tag_92\n        /* \"#utility.yul\":1443:1448   */\n      dup2\n        /* \"#utility.yul\":1416:1449   */\n      tag_56\n      jump\t// in\n    tag_92:\n        /* \"#utility.yul\":1316:1455   */\n      swap3\n      swap2\n      pop\n      pop\n      jump\t// out\n        /* \"#utility.yul\":1461:1790   */\n    tag_20:\n        /* \"#utility.yul\":1520:1526   */\n      0x00\n        /* \"#utility.yul\":1569:1571   */\n      0x20\n        /* \"#utility.yul\":1557:1566   */\n      dup3\n        /* \"#utility.yul\":1548:1555   */\n      dup5\n        /* \"#utility.yul\":1544:1567   */\n      sub\n        /* \"#utility.yul\":1540:1572   */\n      slt\n        /* \"#utility.yul\":1537:1656   */\n      iszero\n      tag_94\n      jumpi\n        /* \"#utility.yul\":1575:1654   */\n      tag_95\n      tag_54\n      jump\t// in\n    tag_95:\n        /* \"#utility.yul\":1537:1656   */\n    tag_94:\n        /* \"#utility.yul\":1695:1696   */\n      0x00\n        /* \"#utility.yul\":1720:1773   */\n      tag_96\n        /* \"#utility.yul\":1765:1772   */\n      dup5\n        /* \"#utility.yul\":1756:1762   */\n      dup3\n        /* \"#utility.yul\":1745:1754   */\n      dup6\n        /* \"#utility.yul\":1741:1763   */\n      add\n        /* \"#utility.yul\":1720:1773   */\n      tag_57\n      jump\t// in\n    tag_96:\n        /* \"#utility.yul\":1710:1773   */\n      swap2\n      pop\n        /* \"#utility.yul\":1666:1783   */\n      pop\n        /* \"#utility.yul\":1461:1790   */\n      swap3\n      swap2\n      pop\n      pop\n      jump\t// out\n        /* \"#utility.yul\":1796:2018   */\n    tag_23:\n        /* \"#utility.yul\":1889:1893   */\n      0x00\n        /* \"#utility.yul\":1927:1929   */\n      0x20\n        /* \"#utility.yul\":1916:1925   */\n      dup3\n        /* \"#utility.yul\":1912:1930   */\n      add\n        /* \"#utility.yul\":1904:1930   */\n      swap1\n      pop\n        /* \"#utility.yul\":1940:2011   */\n      tag_98\n        /* \"#utility.yul\":2008:2009   */\n      0x00\n        /* \"#utility.yul\":1997:2006   */\n      dup4\n        /* \"#utility.yul\":1993:2010   */\n      add\n        /* \"#utility.yul\":1984:1990   */\n      dup5\n        /* \"#utility.yul\":1940:2011   */\n      tag_50\n      jump\t// in\n    tag_98:\n        /* \"#utility.yul\":1796:2018   */\n      swap3\n      swap2\n      pop\n      pop\n      jump\t// out\n        /* \"#utility.yul\":2024:2138   */\n    tag_58:\n        /* \"#utility.yul\":2091:2097   */\n      0x00\n        /* \"#utility.yul\":2125:2130   */\n      dup2\n        /* \"#utility.yul\":2119:2131   */\n      mload\n        /* \"#utility.yul\":2109:2131   */\n      swap1\n      pop\n        /* \"#utility.yul\":2024:2138   */\n      swap2\n      swap1\n      pop\n      jump\t// out\n        /* \"#utility.yul\":2144:2328   */\n    tag_59:\n        /* \"#utility.yul\":2243:2254   */\n      0x00\n        /* \"#utility.yul\":2277:2283   */\n      dup3\n        /* \"#utility.yul\":2272:2275   */\n      dup3\n        /* \"#utility.yul\":2265:2284   */\n      mstore\n        /* \"#utility.yul\":2317:2321   */\n      0x20\n        /* \"#utility.yul\":2312:2315   */\n      dup3\n        /* \"#utility.yul\":2308:2322   */\n      add\n        /* \"#utility.yul\":2293:2322   */\n      swap1\n      pop\n        /* \"#utility.yul\":2144:2328   */\n      swap3\n      swap2\n      pop\n      pop\n      jump\t// out\n        /* \"#utility.yul\":2334:2466   */\n    tag_60:\n        /* \"#utility.yul\":2401:2405   */\n      0x00\n        /* \"#utility.yul\":2424:2427   */\n      dup2\n        /* \"#utility.yul\":2416:2427   */\n      swap1\n      pop\n        /* \"#utility.yul\":2454:2458   */\n      0x20\n        /* \"#utility.yul\":2449:2452   */\n      dup3\n        /* \"#utility.yul\":2445:2459   */\n      add\n        /* \"#utility.yul\":2437:2459   */\n      swap1\n      pop\n        /* \"#utility.yul\":2334:2466   */\n      swap2\n      swap1\n      pop\n      jump\t// out\n        /* \"#utility.yul\":2472:2580   */\n    tag_61:\n        /* \"#utility.yul\":2549:2573   */\n      tag_103\n        /* \"#utility.yul\":2567:2572   */\n      dup2\n        /* \"#utility.yul\":2549:2573   */\n      tag_49\n      jump\t// in\n    tag_103:\n        /* \"#utility.yul\":2544:2547   */\n      dup3\n        /* \"#utility.yul\":2537:2574   */\n      mstore\n        /* \"#utility.yul\":2472:2580   */\n      pop\n      pop\n      jump\t// out\n        /* \"#utility.yul\":2586:2765   */\n    tag_62:\n        /* \"#utility.yul\":2655:2665   */\n      0x00\n        /* \"#utility.yul\":2676:2722   */\n      tag_105\n        /* \"#utility.yul\":2718:2721   */\n      dup4\n        /* \"#utility.yul\":2710:2716   */\n      dup4\n        /* \"#utility.yul\":2676:2722   */\n      tag_61\n      jump\t// in\n    tag_105:\n        /* \"#utility.yul\":2754:2758   */\n      0x20\n        /* \"#utility.yul\":2749:2752   */\n      dup4\n        /* \"#utility.yul\":2745:2759   */\n      add\n        /* \"#utility.yul\":2731:2759   */\n      swap1\n      pop\n        /* \"#utility.yul\":2586:2765   */\n      swap3\n      swap2\n      pop\n      pop\n      jump\t// out\n        /* \"#utility.yul\":2771:2884   */\n    tag_63:\n        /* \"#utility.yul\":2841:2845   */\n      0x00\n        /* \"#utility.yul\":2873:2877   */\n      0x20\n        /* \"#utility.yul\":2868:2871   */\n      dup3\n        /* \"#utility.yul\":2864:2878   */\n      add\n        /* \"#utility.yul\":2856:2878   */\n      swap1\n      pop\n        /* \"#utility.yul\":2771:2884   */\n      swap2\n      swap1\n      pop\n      jump\t// out\n        /* \"#utility.yul\":2920:3652   */\n    tag_64:\n        /* \"#utility.yul\":3039:3042   */\n      0x00\n        /* \"#utility.yul\":3068:3122   */\n      tag_108\n        /* \"#utility.yul\":3116:3121   */\n      dup3\n        /* \"#utility.yul\":3068:3122   */\n      tag_58\n      jump\t// in\n    tag_108:\n        /* \"#utility.yul\":3138:3224   */\n      tag_109\n        /* \"#utility.yul\":3217:3223   */\n      dup2\n        /* \"#utility.yul\":3212:3215   */\n      dup6\n        /* \"#utility.yul\":3138:3224   */\n      tag_59\n      jump\t// in\n    tag_109:\n        /* \"#utility.yul\":3131:3224   */\n      swap4\n      pop\n        /* \"#utility.yul\":3248:3304   */\n      tag_110\n        /* \"#utility.yul\":3298:3303   */\n      dup4\n        /* \"#utility.yul\":3248:3304   */\n      tag_60\n      jump\t// in\n    tag_110:\n        /* \"#utility.yul\":3327:3334   */\n      dup1\n        /* \"#utility.yul\":3358:3359   */\n      0x00\n        /* \"#utility.yul\":3343:3627   */\n    tag_111:\n        /* \"#utility.yul\":3368:3374   */\n      dup4\n        /* \"#utility.yul\":3365:3366   */\n      dup2\n        /* \"#utility.yul\":3362:3375   */\n      lt\n        /* \"#utility.yul\":3343:3627   */\n      iszero\n      tag_113\n      jumpi\n        /* \"#utility.yul\":3444:3450   */\n      dup2\n        /* \"#utility.yul\":3438:3451   */\n      mload\n        /* \"#utility.yul\":3471:3534   */\n      tag_114\n        /* \"#utility.yul\":3530:3533   */\n      dup9\n        /* \"#utility.yul\":3515:3528   */\n      dup3\n        /* \"#utility.yul\":3471:3534   */\n      tag_62\n      jump\t// in\n    tag_114:\n        /* \"#utility.yul\":3464:3534   */\n      swap8\n      pop\n        /* \"#utility.yul\":3557:3617   */\n      tag_115\n        /* \"#utility.yul\":3610:3616   */\n      dup4\n        /* \"#utility.yul\":3557:3617   */\n      tag_63\n      jump\t// in\n    tag_115:\n        /* \"#utility.yul\":3547:3617   */\n      swap3\n      pop\n        /* \"#utility.yul\":3403:3627   */\n      pop\n        /* \"#utility.yul\":3390:3391   */\n      0x01\n        /* \"#utility.yul\":3387:3388   */\n      dup2\n        /* \"#utility.yul\":3383:3392   */\n      add\n        /* \"#utility.yul\":3378:3392   */\n      swap1\n      pop\n        /* \"#utility.yul\":3343:3627   */\n      jump(tag_111)\n    tag_113:\n        /* \"#utility.yul\":3347:3361   */\n      pop\n        /* \"#utility.yul\":3643:3646   */\n      dup6\n        /* \"#utility.yul\":3636:3646   */\n      swap4\n      pop\n        /* \"#utility.yul\":3044:3652   */\n      pop\n      pop\n      pop\n        /* \"#utility.yul\":2920:3652   */\n      swap3\n      swap2\n      pop\n      pop\n      jump\t// out\n        /* \"#utility.yul\":3658:4031   */\n    tag_30:\n        /* \"#utility.yul\":3801:3805   */\n      0x00\n        /* \"#utility.yul\":3839:3841   */\n      0x20\n        /* \"#utility.yul\":3828:3837   */\n      dup3\n        /* \"#utility.yul\":3824:3842   */\n      add\n        /* \"#utility.yul\":3816:3842   */\n      swap1\n      pop\n        /* \"#utility.yul\":3888:3897   */\n      dup2\n        /* \"#utility.yul\":3882:3886   */\n      dup2\n        /* \"#utility.yul\":3878:3898   */\n      sub\n        /* \"#utility.yul\":3874:3875   */\n      0x00\n        /* \"#utility.yul\":3863:3872   */\n      dup4\n        /* \"#utility.yul\":3859:3876   */\n      add\n        /* \"#utility.yul\":3852:3899   */\n      mstore\n        /* \"#utility.yul\":3916:4024   */\n      tag_117\n        /* \"#utility.yul\":4019:4023   */\n      dup2\n        /* \"#utility.yul\":4010:4016   */\n      dup5\n        /* \"#utility.yul\":3916:4024   */\n      tag_64\n      jump\t// in\n    tag_117:\n        /* \"#utility.yul\":3908:4024   */\n      swap1\n      pop\n        /* \"#utility.yul\":3658:4031   */\n      swap3\n      swap2\n      pop\n      pop\n      jump\t// out\n        /* \"#utility.yul\":4037:4154   */\n    tag_65:\n        /* \"#utility.yul\":4146:4147   */\n      0x00\n        /* \"#utility.yul\":4143:4144   */\n      dup1\n        /* \"#utility.yul\":4136:4148   */\n      revert\n        /* \"#utility.yul\":4160:4262   */\n    tag_66:\n        /* \"#utility.yul\":4201:4207   */\n      0x00\n        /* \"#utility.yul\":4252:4254   */\n      0x1f\n        /* \"#utility.yul\":4248:4255   */\n      not\n        /* \"#utility.yul\":4243:4245   */\n      0x1f\n        /* \"#utility.yul\":4236:4241   */\n      dup4\n        /* \"#utility.yul\":4232:4246   */\n      add\n        /* \"#utility.yul\":4228:4256   */\n      and\n        /* \"#utility.yul\":4218:4256   */\n      swap1\n      pop\n        /* \"#utility.yul\":4160:4262   */\n      swap2\n      swap1\n      pop\n      jump\t// out\n        /* \"#utility.yul\":4268:4448   */\n    tag_67:\n        /* \"#utility.yul\":4316:4393   */\n      0x4e487b7100000000000000000000000000000000000000000000000000000000\n        /* \"#utility.yul\":4313:4314   */\n      0x00\n        /* \"#utility.yul\":4306:4394   */\n      mstore\n        /* \"#utility.yul\":4413:4417   */\n      0x41\n        /* \"#utility.yul\":4410:4411   */\n      0x04\n        /* \"#utility.yul\":4403:4418   */\n      mstore\n        /* \"#utility.yul\":4437:4441   */\n      0x24\n        /* \"#utility.yul\":4434:4435   */\n      0x00\n        /* \"#utility.yul\":4427:4442   */\n      revert\n        /* \"#utility.yul\":4454:4735   */\n    tag_68:\n        /* \"#utility.yul\":4537:4564   */\n      tag_122\n        /* \"#utility.yul\":4559:4563   */\n      dup3\n        /* \"#utility.yul\":4537:4564   */\n      tag_66\n      jump\t// in\n    tag_122:\n        /* \"#utility.yul\":4529:4535   */\n      dup2\n        /* \"#utility.yul\":4525:4565   */\n      add\n        /* \"#utility.yul\":4667:4673   */\n      dup2\n        /* \"#utility.yul\":4655:4665   */\n      dup2\n        /* \"#utility.yul\":4652:4674   */\n      lt\n        /* \"#utility.yul\":4631:4649   */\n      0xffffffffffffffff\n        /* \"#utility.yul\":4619:4629   */\n      dup3\n        /* \"#utility.yul\":4616:4650   */\n      gt\n        /* \"#utility.yul\":4613:4675   */\n      or\n        /* \"#utility.yul\":4610:4698   */\n      iszero\n      tag_123\n      jumpi\n        /* \"#utility.yul\":4678:4696   */\n      tag_124\n      tag_67\n      jump\t// in\n    tag_124:\n        /* \"#utility.yul\":4610:4698   */\n    tag_123:\n        /* \"#utility.yul\":4718:4728   */\n      dup1\n        /* \"#utility.yul\":4714:4716   */\n      0x40\n        /* \"#utility.yul\":4707:4729   */\n      mstore\n        /* \"#utility.yul\":4497:4735   */\n      pop\n        /* \"#utility.yul\":4454:4735   */\n      pop\n      pop\n      jump\t// out\n        /* \"#utility.yul\":4741:4870   */\n    tag_69:\n        /* \"#utility.yul\":4775:4781   */\n      0x00\n        /* \"#utility.yul\":4802:4822   */\n      tag_126\n      tag_53\n      jump\t// in\n    tag_126:\n        /* \"#utility.yul\":4792:4822   */\n      swap1\n      pop\n        /* \"#utility.yul\":4831:4864   */\n      tag_127\n        /* \"#utility.yul\":4859:4863   */\n      dup3\n        /* \"#utility.yul\":4851:4857   */\n      dup3\n        /* \"#utility.yul\":4831:4864   */\n      tag_68\n      jump\t// in\n    tag_127:\n        /* \"#utility.yul\":4741:4870   */\n      swap2\n      swap1\n      pop\n      jump\t// out\n        /* \"#utility.yul\":4876:5187   */\n    tag_70:\n        /* \"#utility.yul\":4953:4957   */\n      0x00\n        /* \"#utility.yul\":5043:5061   */\n      0xffffffffffffffff\n        /* \"#utility.yul\":5035:5041   */\n      dup3\n        /* \"#utility.yul\":5032:5062   */\n      gt\n        /* \"#utility.yul\":5029:5085   */\n      iszero\n      tag_129\n      jumpi\n        /* \"#utility.yul\":5065:5083   */\n      tag_130\n      tag_67\n      jump\t// in\n    tag_130:\n        /* \"#utility.yul\":5029:5085   */\n    tag_129:\n        /* \"#utility.yul\":5115:5119   */\n      0x20\n        /* \"#utility.yul\":5107:5113   */\n      dup3\n        /* \"#utility.yul\":5103:5120   */\n      mul\n        /* \"#utility.yul\":5095:5120   */\n      swap1\n      pop\n        /* \"#utility.yul\":5175:5179   */\n      0x20\n        /* \"#utility.yul\":5169:5173   */\n      dup2\n        /* \"#utility.yul\":5165:5180   */\n      add\n        /* \"#utility.yul\":5157:5180   */\n      swap1\n      pop\n        /* \"#utility.yul\":4876:5187   */\n      swap2\n      swap1\n      pop\n      jump\t// out\n        /* \"#utility.yul\":5193:5310   */\n    tag_71:\n        /* \"#utility.yul\":5302:5303   */\n      0x00\n        /* \"#utility.yul\":5299:5300   */\n      dup1\n        /* \"#utility.yul\":5292:5304   */\n      revert\n        /* \"#utility.yul\":5333:6043   */\n    tag_72:\n        /* \"#utility.yul\":5429:5434   */\n      0x00\n        /* \"#utility.yul\":5454:5535   */\n      tag_133\n        /* \"#utility.yul\":5470:5534   */\n      tag_134\n        /* \"#utility.yul\":5527:5533   */\n      dup5\n        /* \"#utility.yul\":5470:5534   */\n      tag_70\n      jump\t// in\n    tag_134:\n        /* \"#utility.yul\":5454:5535   */\n      tag_69\n      jump\t// in\n    tag_133:\n        /* \"#utility.yul\":5445:5535   */\n      swap1\n      pop\n        /* \"#utility.yul\":5555:5560   */\n      dup1\n        /* \"#utility.yul\":5584:5590   */\n      dup4\n        /* \"#utility.yul\":5577:5582   */\n      dup3\n        /* \"#utility.yul\":5570:5591   */\n      mstore\n        /* \"#utility.yul\":5618:5622   */\n      0x20\n        /* \"#utility.yul\":5611:5616   */\n      dup3\n        /* \"#utility.yul\":5607:5623   */\n      add\n        /* \"#utility.yul\":5600:5623   */\n      swap1\n      pop\n        /* \"#utility.yul\":5671:5675   */\n      0x20\n        /* \"#utility.yul\":5663:5669   */\n      dup5\n        /* \"#utility.yul\":5659:5676   */\n      mul\n        /* \"#utility.yul\":5651:5657   */\n      dup4\n        /* \"#utility.yul\":5647:5677   */\n      add\n        /* \"#utility.yul\":5700:5703   */\n      dup6\n        /* \"#utility.yul\":5692:5698   */\n      dup2\n        /* \"#utility.yul\":5689:5704   */\n      gt\n        /* \"#utility.yul\":5686:5808   */\n      iszero\n      tag_135\n      jumpi\n        /* \"#utility.yul\":5719:5798   */\n      tag_136\n      tag_71\n      jump\t// in\n    tag_136:\n        /* \"#utility.yul\":5686:5808   */\n    tag_135:\n        /* \"#utility.yul\":5834:5840   */\n      dup4\n        /* \"#utility.yul\":5817:6037   */\n    tag_137:\n        /* \"#utility.yul\":5851:5857   */\n      dup2\n        /* \"#utility.yul\":5846:5849   */\n      dup2\n        /* \"#utility.yul\":5843:5858   */\n      lt\n        /* \"#utility.yul\":5817:6037   */\n      iszero\n      tag_139\n      jumpi\n        /* \"#utility.yul\":5926:5929   */\n      dup1\n        /* \"#utility.yul\":5955:5992   */\n      tag_140\n        /* \"#utility.yul\":5988:5991   */\n      dup9\n        /* \"#utility.yul\":5976:5986   */\n      dup3\n        /* \"#utility.yul\":5955:5992   */\n      tag_57\n      jump\t// in\n    tag_140:\n        /* \"#utility.yul\":5950:5953   */\n      dup5\n        /* \"#utility.yul\":5943:5993   */\n      mstore\n        /* \"#utility.yul\":6022:6026   */\n      0x20\n        /* \"#utility.yul\":6017:6020   */\n      dup5\n        /* \"#utility.yul\":6013:6027   */\n      add\n        /* \"#utility.yul\":6006:6027   */\n      swap4\n      pop\n        /* \"#utility.yul\":5893:6037   */\n      pop\n        /* \"#utility.yul\":5877:5881   */\n      0x20\n        /* \"#utility.yul\":5872:5875   */\n      dup2\n        /* \"#utility.yul\":5868:5882   */\n      add\n        /* \"#utility.yul\":5861:5882   */\n      swap1\n      pop\n        /* \"#utility.yul\":5817:6037   */\n      jump(tag_137)\n    tag_139:\n        /* \"#utility.yul\":5821:5842   */\n      pop\n        /* \"#utility.yul\":5435:6043   */\n      pop\n      pop\n        /* \"#utility.yul\":5333:6043   */\n      swap4\n      swap3\n      pop\n      pop\n      pop\n      jump\t// out\n        /* \"#utility.yul\":6066:6436   */\n    tag_73:\n        /* \"#utility.yul\":6137:6142   */\n      0x00\n        /* \"#utility.yul\":6186:6189   */\n      dup3\n        /* \"#utility.yul\":6179:6183   */\n      0x1f\n        /* \"#utility.yul\":6171:6177   */\n      dup4\n        /* \"#utility.yul\":6167:6184   */\n      add\n        /* \"#utility.yul\":6163:6190   */\n      slt\n        /* \"#utility.yul\":6153:6275   */\n      tag_142\n      jumpi\n        /* \"#utility.yul\":6194:6273   */\n      tag_143\n      tag_65\n      jump\t// in\n    tag_143:\n        /* \"#utility.yul\":6153:6275   */\n    tag_142:\n        /* \"#utility.yul\":6311:6317   */\n      dup2\n        /* \"#utility.yul\":6298:6318   */\n      calldataload\n        /* \"#utility.yul\":6336:6430   */\n      tag_144\n        /* \"#utility.yul\":6426:6429   */\n      dup5\n        /* \"#utility.yul\":6418:6424   */\n      dup3\n        /* \"#utility.yul\":6411:6415   */\n      0x20\n        /* \"#utility.yul\":6403:6409   */\n      dup7\n        /* \"#utility.yul\":6399:6416   */\n      add\n        /* \"#utility.yul\":6336:6430   */\n      tag_72\n      jump\t// in\n    tag_144:\n        /* \"#utility.yul\":6327:6430   */\n      swap2\n      pop\n        /* \"#utility.yul\":6143:6436   */\n      pop\n        /* \"#utility.yul\":6066:6436   */\n      swap3\n      swap2\n      pop\n      pop\n      jump\t// out\n        /* \"#utility.yul\":6442:6981   */\n    tag_36:\n        /* \"#utility.yul\":6526:6532   */\n      0x00\n        /* \"#utility.yul\":6575:6577   */\n      0x20\n        /* \"#utility.yul\":6563:6572   */\n      dup3\n        /* \"#utility.yul\":6554:6561   */\n      dup5\n        /* \"#utility.yul\":6550:6573   */\n      sub\n        /* \"#utility.yul\":6546:6578   */\n      slt\n        /* \"#utility.yul\":6543:6662   */\n      iszero\n      tag_146\n      jumpi\n        /* \"#utility.yul\":6581:6660   */\n      tag_147\n      tag_54\n      jump\t// in\n    tag_147:\n        /* \"#utility.yul\":6543:6662   */\n    tag_146:\n        /* \"#utility.yul\":6729:6730   */\n      0x00\n        /* \"#utility.yul\":6718:6727   */\n      dup3\n        /* \"#utility.yul\":6714:6731   */\n      add\n        /* \"#utility.yul\":6701:6732   */\n      calldataload\n        /* \"#utility.yul\":6759:6777   */\n      0xffffffffffffffff\n        /* \"#utility.yul\":6751:6757   */\n      dup2\n        /* \"#utility.yul\":6748:6778   */\n      gt\n        /* \"#utility.yul\":6745:6862   */\n      iszero\n      tag_148\n      jumpi\n        /* \"#utility.yul\":6781:6860   */\n      tag_149\n      tag_55\n      jump\t// in\n    tag_149:\n        /* \"#utility.yul\":6745:6862   */\n    tag_148:\n        /* \"#utility.yul\":6886:6964   */\n      tag_150\n        /* \"#utility.yul\":6956:6963   */\n      dup5\n        /* \"#utility.yul\":6947:6953   */\n      dup3\n        /* \"#utility.yul\":6936:6945   */\n      dup6\n        /* \"#utility.yul\":6932:6954   */\n      add\n        /* \"#utility.yul\":6886:6964   */\n      tag_73\n      jump\t// in\n    tag_150:\n        /* \"#utility.yul\":6876:6964   */\n      swap2\n      pop\n        /* \"#utility.yul\":6672:6974   */\n      pop\n        /* \"#utility.yul\":6442:6981   */\n      swap3\n      swap2\n      pop\n      pop\n      jump\t// out\n\n    auxdata: 0xa2646970667358221220c102ec41a32e7f9098b00336c0cb3f7410e48488205bf2d0b2671efdb781268964736f6c63430008120033\n}\n",
				"bytecode": {
					"linkReferences": {},
					"object": "608060405234801561001057600080fd5b506105fe806100206000396000f3fe608060405234801561001057600080fd5b506004361061007d5760003560e01c8063868875441161005b57806386887544146100f2578063a985c46514610112578063adb4d99014610130578063f4bb6e6b146101505761007d565b8063343a6f931461008257806345f907a8146100a257806371e5ee5f146100c2575b600080fd5b61008a61016c565b60405161009993929190610287565b60405180910390f35b6100aa610194565b6040516100b993929190610287565b60405180910390f35b6100dc60048036038101906100d791906102fe565b6101a9565b6040516100e9919061032b565b60405180910390f35b6100fa6101cd565b60405161010993929190610287565b60405180910390f35b61011a6101e2565b6040516101279190610404565b60405180910390f35b61013861023a565b60405161014793929190610287565b60405180910390f35b61016a6004803603810190610165919061057f565b610250565b005b60008060008060008061017d6101cd565b925092509250828282955095509550505050909192565b60008060006001806002925092509250909192565b600081815481106101b957600080fd5b906000526020600020016000915090505481565b60008060006001806002925092509250909192565b6060600080548060200260200160405190810160405280929190818152602001828054801561023057602002820191906000526020600020905b81548152602001906001019080831161021c575b5050505050905090565b6000806000600192506005905060019150909192565b50565b6000819050919050565b61026681610253565b82525050565b60008115159050919050565b6102818161026c565b82525050565b600060608201905061029c600083018661025d565b6102a96020830185610278565b6102b6604083018461025d565b949350505050565b6000604051905090565b600080fd5b600080fd5b6102db81610253565b81146102e657600080fd5b50565b6000813590506102f8816102d2565b92915050565b600060208284031215610314576103136102c8565b5b6000610322848285016102e9565b91505092915050565b6000602082019050610340600083018461025d565b92915050565b600081519050919050565b600082825260208201905092915050565b6000819050602082019050919050565b61037b81610253565b82525050565b600061038d8383610372565b60208301905092915050565b6000602082019050919050565b60006103b182610346565b6103bb8185610351565b93506103c683610362565b8060005b838110156103f75781516103de8882610381565b97506103e983610399565b9250506001810190506103ca565b5085935050505092915050565b6000602082019050818103600083015261041e81846103a6565b905092915050565b600080fd5b6000601f19601f8301169050919050565b7f4e487b7100000000000000000000000000000000000000000000000000000000600052604160045260246000fd5b6104748261042b565b810181811067ffffffffffffffff821117156104935761049261043c565b5b80604052505050565b60006104a66102be565b90506104b2828261046b565b919050565b600067ffffffffffffffff8211156104d2576104d161043c565b5b602082029050602081019050919050565b600080fd5b60006104fb6104f6846104b7565b61049c565b9050808382526020820190506020840283018581111561051e5761051d6104e3565b5b835b81811015610547578061053388826102e9565b845260208401935050602081019050610520565b5050509392505050565b600082601f83011261056657610565610426565b5b81356105768482602086016104e8565b91505092915050565b600060208284031215610595576105946102c8565b5b600082013567ffffffffffffffff8111156105b3576105b26102cd565b5b6105bf84828501610551565b9150509291505056fea2646970667358221220c102ec41a32e7f9098b00336c0cb3f7410e48488205bf2d0b2671efdb781268964736f6c63430008120033",
					"opcodes": "PUSH1 0x80 PUSH1 0x40 MSTORE CALLVALUE DUP1 ISZERO PUSH2 0x10 JUMPI PUSH1 0x0 DUP1 REVERT JUMPDEST POP PUSH2 0x5FE DUP1 PUSH2 0x20 PUSH1 0x0 CODECOPY PUSH1 0x0 RETURN INVALID PUSH1 0x80 PUSH1 0x40 MSTORE CALLVALUE DUP1 ISZERO PUSH2 0x10 JUMPI PUSH1 0x0 DUP1 REVERT JUMPDEST POP PUSH1 0x4 CALLDATASIZE LT PUSH2 0x7D JUMPI PUSH1 0x0 CALLDATALOAD PUSH1 0xE0 SHR DUP1 PUSH4 0x86887544 GT PUSH2 0x5B JUMPI DUP1 PUSH4 0x86887544 EQ PUSH2 0xF2 JUMPI DUP1 PUSH4 0xA985C465 EQ PUSH2 0x112 JUMPI DUP1 PUSH4 0xADB4D990 EQ PUSH2 0x130 JUMPI DUP1 PUSH4 0xF4BB6E6B EQ PUSH2 0x150 JUMPI PUSH2 0x7D JUMP JUMPDEST DUP1 PUSH4 0x343A6F93 EQ PUSH2 0x82 JUMPI DUP1 PUSH4 0x45F907A8 EQ PUSH2 0xA2 JUMPI DUP1 PUSH4 0x71E5EE5F EQ PUSH2 0xC2 JUMPI JUMPDEST PUSH1 0x0 DUP1 REVERT JUMPDEST PUSH2 0x8A PUSH2 0x16C JUMP JUMPDEST PUSH1 0x40 MLOAD PUSH2 0x99 SWAP4 SWAP3 SWAP2 SWAP1 PUSH2 0x287 JUMP JUMPDEST PUSH1 0x40 MLOAD DUP1 SWAP2 SUB SWAP1 RETURN JUMPDEST PUSH2 0xAA PUSH2 0x194 JUMP JUMPDEST PUSH1 0x40 MLOAD PUSH2 0xB9 SWAP4 SWAP3 SWAP2 SWAP1 PUSH2 0x287 JUMP JUMPDEST PUSH1 0x40 MLOAD DUP1 SWAP2 SUB SWAP1 RETURN JUMPDEST PUSH2 0xDC PUSH1 0x4 DUP1 CALLDATASIZE SUB DUP2 ADD SWAP1 PUSH2 0xD7 SWAP2 SWAP1 PUSH2 0x2FE JUMP JUMPDEST PUSH2 0x1A9 JUMP JUMPDEST PUSH1 0x40 MLOAD PUSH2 0xE9 SWAP2 SWAP1 PUSH2 0x32B JUMP JUMPDEST PUSH1 0x40 MLOAD DUP1 SWAP2 SUB SWAP1 RETURN JUMPDEST PUSH2 0xFA PUSH2 0x1CD JUMP JUMPDEST PUSH1 0x40 MLOAD PUSH2 0x109 SWAP4 SWAP3 SWAP2 SWAP1 PUSH2 0x287 JUMP JUMPDEST PUSH1 0x40 MLOAD DUP1 SWAP2 SUB SWAP1 RETURN JUMPDEST PUSH2 0x11A PUSH2 0x1E2 JUMP JUMPDEST PUSH1 0x40 MLOAD PUSH2 0x127 SWAP2 SWAP1 PUSH2 0x404 JUMP JUMPDEST PUSH1 0x40 MLOAD DUP1 SWAP2 SUB SWAP1 RETURN JUMPDEST PUSH2 0x138 PUSH2 0x23A JUMP JUMPDEST PUSH1 0x40 MLOAD PUSH2 0x147 SWAP4 SWAP3 SWAP2 SWAP1 PUSH2 0x287 JUMP JUMPDEST PUSH1 0x40 MLOAD DUP1 SWAP2 SUB SWAP1 RETURN JUMPDEST PUSH2 0x16A PUSH1 0x4 DUP1 CALLDATASIZE SUB DUP2 ADD SWAP1 PUSH2 0x165 SWAP2 SWAP1 PUSH2 0x57F JUMP JUMPDEST PUSH2 0x250 JUMP JUMPDEST STOP JUMPDEST PUSH1 0x0 DUP1 PUSH1 0x0 DUP1 PUSH1 0x0 DUP1 PUSH2 0x17D PUSH2 0x1CD JUMP JUMPDEST SWAP3 POP SWAP3 POP SWAP3 POP DUP3 DUP3 DUP3 SWAP6 POP SWAP6 POP SWAP6 POP POP POP POP SWAP1 SWAP2 SWAP3 JUMP JUMPDEST PUSH1 0x0 DUP1 PUSH1 0x0 PUSH1 0x1 DUP1 PUSH1 0x2 SWAP3 POP SWAP3 POP SWAP3 POP SWAP1 SWAP2 SWAP3 JUMP JUMPDEST PUSH1 0x0 DUP2 DUP2 SLOAD DUP2 LT PUSH2 0x1B9 JUMPI PUSH1 0x0 DUP1 REVERT JUMPDEST SWAP1 PUSH1 0x0 MSTORE PUSH1 0x20 PUSH1 0x0 KECCAK256 ADD PUSH1 0x0 SWAP2 POP SWAP1 POP SLOAD DUP2 JUMP JUMPDEST PUSH1 0x0 DUP1 PUSH1 0x0 PUSH1 0x1 DUP1 PUSH1 0x2 SWAP3 POP SWAP3 POP SWAP3 POP SWAP1 SWAP2 SWAP3 JUMP JUMPDEST PUSH1 0x60 PUSH1 0x0 DUP1 SLOAD DUP1 PUSH1 0x20 MUL PUSH1 0x20 ADD PUSH1 0x40 MLOAD SWAP1 DUP2 ADD PUSH1 0x40 MSTORE DUP1 SWAP3 SWAP2 SWAP1 DUP2 DUP2 MSTORE PUSH1 0x20 ADD DUP3 DUP1 SLOAD DUP1 ISZERO PUSH2 0x230 JUMPI PUSH1 0x20 MUL DUP3 ADD SWAP2 SWAP1 PUSH1 0x0 MSTORE PUSH1 0x20 PUSH1 0x0 KECCAK256 SWAP1 JUMPDEST DUP2 SLOAD DUP2 MSTORE PUSH1 0x20 ADD SWAP1 PUSH1 0x1 ADD SWAP1 DUP1 DUP4 GT PUSH2 0x21C JUMPI JUMPDEST POP POP POP POP POP SWAP1 POP SWAP1 JUMP JUMPDEST PUSH1 0x0 DUP1 PUSH1 0x0 PUSH1 0x1 SWAP3 POP PUSH1 0x5 SWAP1 POP PUSH1 0x1 SWAP2 POP SWAP1 SWAP2 SWAP3 JUMP JUMPDEST POP JUMP JUMPDEST PUSH1 0x0 DUP2 SWAP1 POP SWAP2 SWAP1 POP JUMP JUMPDEST PUSH2 0x266 DUP2 PUSH2 0x253 JUMP JUMPDEST DUP3 MSTORE POP POP JUMP JUMPDEST PUSH1 0x0 DUP2 ISZERO ISZERO SWAP1 POP SWAP2 SWAP1 POP JUMP JUMPDEST PUSH2 0x281 DUP2 PUSH2 0x26C JUMP JUMPDEST DUP3 MSTORE POP POP JUMP JUMPDEST PUSH1 0x0 PUSH1 0x60 DUP3 ADD SWAP1 POP PUSH2 0x29C PUSH1 0x0 DUP4 ADD DUP7 PUSH2 0x25D JUMP JUMPDEST PUSH2 0x2A9 PUSH1 0x20 DUP4 ADD DUP6 PUSH2 0x278 JUMP JUMPDEST PUSH2 0x2B6 PUSH1 0x40 DUP4 ADD DUP5 PUSH2 0x25D JUMP JUMPDEST SWAP5 SWAP4 POP POP POP POP JUMP JUMPDEST PUSH1 0x0 PUSH1 0x40 MLOAD SWAP1 POP SWAP1 JUMP JUMPDEST PUSH1 0x0 DUP1 REVERT JUMPDEST PUSH1 0x0 DUP1 REVERT JUMPDEST PUSH2 0x2DB DUP2 PUSH2 0x253 JUMP JUMPDEST DUP2 EQ PUSH2 0x2E6 JUMPI PUSH1 0x0 DUP1 REVERT JUMPDEST POP JUMP JUMPDEST PUSH1 0x0 DUP2 CALLDATALOAD SWAP1 POP PUSH2 0x2F8 DUP2 PUSH2 0x2D2 JUMP JUMPDEST SWAP3 SWAP2 POP POP JUMP JUMPDEST PUSH1 0x0 PUSH1 0x20 DUP3 DUP5 SUB SLT ISZERO PUSH2 0x314 JUMPI PUSH2 0x313 PUSH2 0x2C8 JUMP JUMPDEST JUMPDEST PUSH1 0x0 PUSH2 0x322 DUP5 DUP3 DUP6 ADD PUSH2 0x2E9 JUMP JUMPDEST SWAP2 POP POP SWAP3 SWAP2 POP POP JUMP JUMPDEST PUSH1 0x0 PUSH1 0x20 DUP3 ADD SWAP1 POP PUSH2 0x340 PUSH1 0x0 DUP4 ADD DUP5 PUSH2 0x25D JUMP JUMPDEST SWAP3 SWAP2 POP POP JUMP JUMPDEST PUSH1 0x0 DUP2 MLOAD SWAP1 POP SWAP2 SWAP1 POP JUMP JUMPDEST PUSH1 0x0 DUP3 DUP3 MSTORE PUSH1 0x20 DUP3 ADD SWAP1 POP SWAP3 SWAP2 POP POP JUMP JUMPDEST PUSH1 0x0 DUP2 SWAP1 POP PUSH1 0x20 DUP3 ADD SWAP1 POP SWAP2 SWAP1 POP JUMP JUMPDEST PUSH2 0x37B DUP2 PUSH2 0x253 JUMP JUMPDEST DUP3 MSTORE POP POP JUMP JUMPDEST PUSH1 0x0 PUSH2 0x38D DUP4 DUP4 PUSH2 0x372 JUMP JUMPDEST PUSH1 0x20 DUP4 ADD SWAP1 POP SWAP3 SWAP2 POP POP JUMP JUMPDEST PUSH1 0x0 PUSH1 0x20 DUP3 ADD SWAP1 POP SWAP2 SWAP1 POP JUMP JUMPDEST PUSH1 0x0 PUSH2 0x3B1 DUP3 PUSH2 0x346 JUMP JUMPDEST PUSH2 0x3BB DUP2 DUP6 PUSH2 0x351 JUMP JUMPDEST SWAP4 POP PUSH2 0x3C6 DUP4 PUSH2 0x362 JUMP JUMPDEST DUP1 PUSH1 0x0 JUMPDEST DUP4 DUP2 LT ISZERO PUSH2 0x3F7 JUMPI DUP2 MLOAD PUSH2 0x3DE DUP9 DUP3 PUSH2 0x381 JUMP JUMPDEST SWAP8 POP PUSH2 0x3E9 DUP4 PUSH2 0x399 JUMP JUMPDEST SWAP3 POP POP PUSH1 0x1 DUP2 ADD SWAP1 POP PUSH2 0x3CA JUMP JUMPDEST POP DUP6 SWAP4 POP POP POP POP SWAP3 SWAP2 POP POP JUMP JUMPDEST PUSH1 0x0 PUSH1 0x20 DUP3 ADD SWAP1 POP DUP2 DUP2 SUB PUSH1 0x0 DUP4 ADD MSTORE PUSH2 0x41E DUP2 DUP5 PUSH2 0x3A6 JUMP JUMPDEST SWAP1 POP SWAP3 SWAP2 POP POP JUMP JUMPDEST PUSH1 0x0 DUP1 REVERT JUMPDEST PUSH1 0x0 PUSH1 0x1F NOT PUSH1 0x1F DUP4 ADD AND SWAP1 POP SWAP2 SWAP1 POP JUMP JUMPDEST PUSH32 0x4E487B7100000000000000000000000000000000000000000000000000000000 PUSH1 0x0 MSTORE PUSH1 0x41 PUSH1 0x4 MSTORE PUSH1 0x24 PUSH1 0x0 REVERT JUMPDEST PUSH2 0x474 DUP3 PUSH2 0x42B JUMP JUMPDEST DUP2 ADD DUP2 DUP2 LT PUSH8 0xFFFFFFFFFFFFFFFF DUP3 GT OR ISZERO PUSH2 0x493 JUMPI PUSH2 0x492 PUSH2 0x43C JUMP JUMPDEST JUMPDEST DUP1 PUSH1 0x40 MSTORE POP POP POP JUMP JUMPDEST PUSH1 0x0 PUSH2 0x4A6 PUSH2 0x2BE JUMP JUMPDEST SWAP1 POP PUSH2 0x4B2 DUP3 DUP3 PUSH2 0x46B JUMP JUMPDEST SWAP2 SWAP1 POP JUMP JUMPDEST PUSH1 0x0 PUSH8 0xFFFFFFFFFFFFFFFF DUP3 GT ISZERO PUSH2 0x4D2 JUMPI PUSH2 0x4D1 PUSH2 0x43C JUMP JUMPDEST JUMPDEST PUSH1 0x20 DUP3 MUL SWAP1 POP PUSH1 0x20 DUP2 ADD SWAP1 POP SWAP2 SWAP1 POP JUMP JUMPDEST PUSH1 0x0 DUP1 REVERT JUMPDEST PUSH1 0x0 PUSH2 0x4FB PUSH2 0x4F6 DUP5 PUSH2 0x4B7 JUMP JUMPDEST PUSH2 0x49C JUMP JUMPDEST SWAP1 POP DUP1 DUP4 DUP3 MSTORE PUSH1 0x20 DUP3 ADD SWAP1 POP PUSH1 0x20 DUP5 MUL DUP4 ADD DUP6 DUP2 GT ISZERO PUSH2 0x51E JUMPI PUSH2 0x51D PUSH2 0x4E3 JUMP JUMPDEST JUMPDEST DUP4 JUMPDEST DUP2 DUP2 LT ISZERO PUSH2 0x547 JUMPI DUP1 PUSH2 0x533 DUP9 DUP3 PUSH2 0x2E9 JUMP JUMPDEST DUP5 MSTORE PUSH1 0x20 DUP5 ADD SWAP4 POP POP PUSH1 0x20 DUP2 ADD SWAP1 POP PUSH2 0x520 JUMP JUMPDEST POP POP POP SWAP4 SWAP3 POP POP POP JUMP JUMPDEST PUSH1 0x0 DUP3 PUSH1 0x1F DUP4 ADD SLT PUSH2 0x566 JUMPI PUSH2 0x565 PUSH2 0x426 JUMP JUMPDEST JUMPDEST DUP2 CALLDATALOAD PUSH2 0x576 DUP5 DUP3 PUSH1 0x20 DUP7 ADD PUSH2 0x4E8 JUMP JUMPDEST SWAP2 POP POP SWAP3 SWAP2 POP POP JUMP JUMPDEST PUSH1 0x0 PUSH1 0x20 DUP3 DUP5 SUB SLT ISZERO PUSH2 0x595 JUMPI PUSH2 0x594 PUSH2 0x2C8 JUMP JUMPDEST JUMPDEST PUSH1 0x0 DUP3 ADD CALLDATALOAD PUSH8 0xFFFFFFFFFFFFFFFF DUP2 GT ISZERO PUSH2 0x5B3 JUMPI PUSH2 0x5B2 PUSH2 0x2CD JUMP JUMPDEST JUMPDEST PUSH2 0x5BF DUP5 DUP3 DUP6 ADD PUSH2 0x551 JUMP JUMPDEST SWAP2 POP POP SWAP3 SWAP2 POP POP JUMP INVALID LOG2 PUSH5 0x6970667358 0x22 SLT KECCAK256 0xC1 MUL 0xEC COINBASE LOG3 0x2E PUSH32 0x9098B00336C0CB3F7410E48488205BF2D0B2671EFDB781268964736F6C634300 ADDMOD SLT STOP CALLER "
				},
				"gasEstimates": {
					"creation": {
						"codeDepositCost": "306800",
						"executionCost": "343",
						"totalCost": "307143"
					},
					"external": {
						"arr(uint256)": "infinite",
						"arrayInput()": "infinite",
						"arrayInput(uint256[])": "infinite",
						"assigned()": "infinite",
						"destructuringAssignment()": "infinite",
						"named()": "infinite",
						"returnMany()": "infinite"
					}
				},
				"methodIdentifiers": {
					"arr(uint256)": "71e5ee5f",
					"arrayInput()": "a985c465",
					"arrayInput(uint256[])": "f4bb6e6b",
					"assigned()": "adb4d990",
					"destructuringAssignment()": "343a6f93",
					"named()": "45f907a8",
					"returnMany()": "86887544"
				}
			},
			"storageLayout": {
				"storage": [
					{
						"astId": 87,
						"contract": "by-daulat-hussain/solidity/19-functions.sol:Function",
						"label": "arr",
						"offset": 0,
						"slot": "0",
						"type": "t_array(t_uint256)dyn_storage"
					}
				],
				"types": {
					"t_array(t_uint256)dyn_storage": {
						"base": "t_uint256",
						"encoding": "dynamic_array",
						"label": "uint256[]",
						"numberOfBytes": "32"
					},
					"t_uint256": {
						"encoding": "inplace",
						"label": "uint256",
						"numberOfBytes": "32"
					}
				}
			},
			"userdoc": {
				"kind": "user",
				"methods": {},
				"version": 1
			}
		}
	}
}