{
	"by-code-eater/event-organization/event.sol": {
		"Eventcontract": {
			"abi": [
				{
					"inputs": [
						{
							"internalType": "uint256",
							"name": "id",
							"type": "uint256"
						},
						{
							"internalType": "uint256",
							"name": "quantity",
							"type": "uint256"
						}
					],
					"name": "buyTicket",
					"outputs": [],
					"stateMutability": "payable",
					"type": "function"
				},
				{
					"inputs": [
						{
							"internalType": "string",
							"name": "name",
							"type": "string"
						},
						{
							"internalType": "uint256",
							"name": "date",
							"type": "uint256"
						},
						{
							"internalType": "uint256",
							"name": "price",
							"type": "uint256"
						},
						{
							"internalType": "uint256",
							"name": "ticketCount",
							"type": "uint256"
						}
					],
					"name": "createEvent",
					"outputs": [],
					"stateMutability": "nonpayable",
					"type": "function"
				},
				{
					"inputs": [
						{
							"internalType": "uint256",
							"name": "",
							"type": "uint256"
						}
					],
					"name": "events",
					"outputs": [
						{
							"internalType": "address",
							"name": "organizer",
							"type": "address"
						},
						{
							"internalType": "string",
							"name": "name",
							"type": "string"
						},
						{
							"internalType": "uint256",
							"name": "date",
							"type": "uint256"
						},
						{
							"internalType": "uint256",
							"name": "price",
							"type": "uint256"
						},
						{
							"internalType": "uint256",
							"name": "ticketCount",
							"type": "uint256"
						},
						{
							"internalType": "uint256",
							"name": "ticketRemain",
							"type": "uint256"
						}
					],
					"stateMutability": "view",
					"type": "function"
				},
				{
					"inputs": [],
					"name": "nextId",
					"outputs": [
						{
							"internalType": "uint256",
							"name": "",
							"type": "uint256"
						}
					],
					"stateMutability": "view",
					"type": "function"
				},
				{
					"inputs": [
						{
							"internalType": "address",
							"name": "",
							"type": "address"
						},
						{
							"internalType": "uint256",
							"name": "",
							"type": "uint256"
						}
					],
					"name": "tickets",
					"outputs": [
						{
							"internalType": "uint256",
							"name": "",
							"type": "uint256"
						}
					],
					"stateMutability": "view",
					"type": "function"
				},
				{
					"inputs": [
						{
							"internalType": "uint256",
							"name": "id",
							"type": "uint256"
						},
						{
							"internalType": "uint256",
							"name": "quantity",
							"type": "uint256"
						},
						{
							"internalType": "address",
							"name": "to",
							"type": "address"
						}
					],
					"name": "transferTicket",
					"outputs": [],
					"stateMutability": "nonpayable",
					"type": "function"
				}
			],
			"devdoc": {
				"kind": "dev",
				"methods": {},
				"version": 1
			},
			"evm": {
				"assembly": "    /* \"by-code-eater/event-organization/event.sol\":64:1694  contract Eventcontract{... */\n  mstore(0x40, 0x80)\n  callvalue\n  dup1\n  iszero\n  tag_1\n  jumpi\n  0x00\n  dup1\n  revert\ntag_1:\n  pop\n  dataSize(sub_0)\n  dup1\n  dataOffset(sub_0)\n  0x00\n  codecopy\n  0x00\n  return\nstop\n\nsub_0: assembly {\n        /* \"by-code-eater/event-organization/event.sol\":64:1694  contract Eventcontract{... */\n      mstore(0x40, 0x80)\n      jumpi(tag_1, lt(calldatasize, 0x04))\n      shr(0xe0, calldataload(0x00))\n      dup1\n      0x0374ab0b\n      eq\n      tag_2\n      jumpi\n      dup1\n      0x0b791430\n      eq\n      tag_3\n      jumpi\n      dup1\n      0x298ec208\n      eq\n      tag_4\n      jumpi\n      dup1\n      0x61b8ce8c\n      eq\n      tag_5\n      jumpi\n      dup1\n      0xdae7a13c\n      eq\n      tag_6\n      jumpi\n      dup1\n      0xf086a09b\n      eq\n      tag_7\n      jumpi\n    tag_1:\n      0x00\n      dup1\n      revert\n        /* \"by-code-eater/event-organization/event.sol\":395:779  function createEvent(string memory name, uint date, uint price, uint ticketCount) external {... */\n    tag_2:\n      callvalue\n      dup1\n      iszero\n      tag_8\n      jumpi\n      0x00\n      dup1\n      revert\n    tag_8:\n      pop\n      tag_9\n      0x04\n      dup1\n      calldatasize\n      sub\n      dup2\n      add\n      swap1\n      tag_10\n      swap2\n      swap1\n      tag_11\n      jump\t// in\n    tag_10:\n      tag_12\n      jump\t// in\n    tag_9:\n      stop\n        /* \"by-code-eater/event-organization/event.sol\":267:301  mapping(uint=>Event) public events */\n    tag_3:\n      callvalue\n      dup1\n      iszero\n      tag_13\n      jumpi\n      0x00\n      dup1\n      revert\n    tag_13:\n      pop\n      tag_14\n      0x04\n      dup1\n      calldatasize\n      sub\n      dup2\n      add\n      swap1\n      tag_15\n      swap2\n      swap1\n      tag_16\n      jump\t// in\n    tag_15:\n      tag_17\n      jump\t// in\n    tag_14:\n      mload(0x40)\n      tag_18\n      swap7\n      swap6\n      swap5\n      swap4\n      swap3\n      swap2\n      swap1\n      tag_19\n      jump\t// in\n    tag_18:\n      mload(0x40)\n      dup1\n      swap2\n      sub\n      swap1\n      return\n        /* \"by-code-eater/event-organization/event.sol\":787:1290  function buyTicket(uint id, uint quantity) payable external {... */\n    tag_4:\n      tag_20\n      0x04\n      dup1\n      calldatasize\n      sub\n      dup2\n      add\n      swap1\n      tag_21\n      swap2\n      swap1\n      tag_22\n      jump\t// in\n    tag_21:\n      tag_23\n      jump\t// in\n    tag_20:\n      stop\n        /* \"by-code-eater/event-organization/event.sol\":368:386  uint public nextId */\n    tag_5:\n      callvalue\n      dup1\n      iszero\n      tag_24\n      jumpi\n      0x00\n      dup1\n      revert\n    tag_24:\n      pop\n      tag_25\n      tag_26\n      jump\t// in\n    tag_25:\n      mload(0x40)\n      tag_27\n      swap2\n      swap1\n      tag_28\n      jump\t// in\n    tag_27:\n      mload(0x40)\n      dup1\n      swap2\n      sub\n      swap1\n      return\n        /* \"by-code-eater/event-organization/event.sol\":308:361  mapping(address=>mapping (uint=>uint)) public tickets */\n    tag_6:\n      callvalue\n      dup1\n      iszero\n      tag_29\n      jumpi\n      0x00\n      dup1\n      revert\n    tag_29:\n      pop\n      tag_30\n      0x04\n      dup1\n      calldatasize\n      sub\n      dup2\n      add\n      swap1\n      tag_31\n      swap2\n      swap1\n      tag_32\n      jump\t// in\n    tag_31:\n      tag_33\n      jump\t// in\n    tag_30:\n      mload(0x40)\n      tag_34\n      swap2\n      swap1\n      tag_28\n      jump\t// in\n    tag_34:\n      mload(0x40)\n      dup1\n      swap2\n      sub\n      swap1\n      return\n        /* \"by-code-eater/event-organization/event.sol\":1298:1691  function transferTicket(uint id, uint quantity, address to) external {... */\n    tag_7:\n      callvalue\n      dup1\n      iszero\n      tag_35\n      jumpi\n      0x00\n      dup1\n      revert\n    tag_35:\n      pop\n      tag_36\n      0x04\n      dup1\n      calldatasize\n      sub\n      dup2\n      add\n      swap1\n      tag_37\n      swap2\n      swap1\n      tag_38\n      jump\t// in\n    tag_37:\n      tag_39\n      jump\t// in\n    tag_36:\n      stop\n        /* \"by-code-eater/event-organization/event.sol\":395:779  function createEvent(string memory name, uint date, uint price, uint ticketCount) external {... */\n    tag_12:\n        /* \"by-code-eater/event-organization/event.sol\":510:525  block.timestamp */\n      timestamp\n        /* \"by-code-eater/event-organization/event.sol\":505:509  date */\n      dup4\n        /* \"by-code-eater/event-organization/event.sol\":505:525  date>block.timestamp */\n      gt\n        /* \"by-code-eater/event-organization/event.sol\":497:568  require(date>block.timestamp, \"You can organize event for future date\") */\n      tag_41\n      jumpi\n      mload(0x40)\n      0x08c379a000000000000000000000000000000000000000000000000000000000\n      dup2\n      mstore\n      0x04\n      add\n      tag_42\n      swap1\n      tag_43\n      jump\t// in\n    tag_42:\n      mload(0x40)\n      dup1\n      swap2\n      sub\n      swap1\n      revert\n    tag_41:\n        /* \"by-code-eater/event-organization/event.sol\":599:600  0 */\n      0x00\n        /* \"by-code-eater/event-organization/event.sol\":587:598  ticketCount */\n      dup2\n        /* \"by-code-eater/event-organization/event.sol\":587:600  ticketCount>0 */\n      gt\n        /* \"by-code-eater/event-organization/event.sol\":579:665  require(ticketCount>0,\"YOu can organize ecent only if you create more than 0 tickets\") */\n      tag_44\n      jumpi\n      mload(0x40)\n      0x08c379a000000000000000000000000000000000000000000000000000000000\n      dup2\n      mstore\n      0x04\n      add\n      tag_45\n      swap1\n      tag_46\n      jump\t// in\n    tag_45:\n      mload(0x40)\n      dup1\n      swap2\n      sub\n      swap1\n      revert\n    tag_44:\n        /* \"by-code-eater/event-organization/event.sol\":695:752  Event(msg.sender,name,date,price,ticketCount,ticketCount) */\n      mload(0x40)\n      dup1\n      0xc0\n      add\n      0x40\n      mstore\n      dup1\n        /* \"by-code-eater/event-organization/event.sol\":701:711  msg.sender */\n      caller\n        /* \"by-code-eater/event-organization/event.sol\":695:752  Event(msg.sender,name,date,price,ticketCount,ticketCount) */\n      0xffffffffffffffffffffffffffffffffffffffff\n      and\n      dup2\n      mstore\n      0x20\n      add\n        /* \"by-code-eater/event-organization/event.sol\":712:716  name */\n      dup6\n        /* \"by-code-eater/event-organization/event.sol\":695:752  Event(msg.sender,name,date,price,ticketCount,ticketCount) */\n      dup2\n      mstore\n      0x20\n      add\n        /* \"by-code-eater/event-organization/event.sol\":717:721  date */\n      dup5\n        /* \"by-code-eater/event-organization/event.sol\":695:752  Event(msg.sender,name,date,price,ticketCount,ticketCount) */\n      dup2\n      mstore\n      0x20\n      add\n        /* \"by-code-eater/event-organization/event.sol\":722:727  price */\n      dup4\n        /* \"by-code-eater/event-organization/event.sol\":695:752  Event(msg.sender,name,date,price,ticketCount,ticketCount) */\n      dup2\n      mstore\n      0x20\n      add\n        /* \"by-code-eater/event-organization/event.sol\":728:739  ticketCount */\n      dup3\n        /* \"by-code-eater/event-organization/event.sol\":695:752  Event(msg.sender,name,date,price,ticketCount,ticketCount) */\n      dup2\n      mstore\n      0x20\n      add\n        /* \"by-code-eater/event-organization/event.sol\":740:751  ticketCount */\n      dup3\n        /* \"by-code-eater/event-organization/event.sol\":695:752  Event(msg.sender,name,date,price,ticketCount,ticketCount) */\n      dup2\n      mstore\n      pop\n        /* \"by-code-eater/event-organization/event.sol\":678:684  events */\n      0x00\n        /* \"by-code-eater/event-organization/event.sol\":678:692  events[nextId] */\n      dup1\n        /* \"by-code-eater/event-organization/event.sol\":685:691  nextId */\n      sload(0x02)\n        /* \"by-code-eater/event-organization/event.sol\":678:692  events[nextId] */\n      dup2\n      mstore\n      0x20\n      add\n      swap1\n      dup2\n      mstore\n      0x20\n      add\n      0x00\n      keccak256\n        /* \"by-code-eater/event-organization/event.sol\":678:752  events[nextId] = Event(msg.sender,name,date,price,ticketCount,ticketCount) */\n      0x00\n      dup3\n      add\n      mload\n      dup2\n      0x00\n      add\n      exp(0x0100, 0x00)\n      dup2\n      sload\n      dup2\n      0xffffffffffffffffffffffffffffffffffffffff\n      mul\n      not\n      and\n      swap1\n      dup4\n      0xffffffffffffffffffffffffffffffffffffffff\n      and\n      mul\n      or\n      swap1\n      sstore\n      pop\n      0x20\n      dup3\n      add\n      mload\n      dup2\n      0x01\n      add\n      swap1\n      dup2\n      tag_47\n      swap2\n      swap1\n      tag_48\n      jump\t// in\n    tag_47:\n      pop\n      0x40\n      dup3\n      add\n      mload\n      dup2\n      0x02\n      add\n      sstore\n      0x60\n      dup3\n      add\n      mload\n      dup2\n      0x03\n      add\n      sstore\n      0x80\n      dup3\n      add\n      mload\n      dup2\n      0x04\n      add\n      sstore\n      0xa0\n      dup3\n      add\n      mload\n      dup2\n      0x05\n      add\n      sstore\n      swap1\n      pop\n      pop\n        /* \"by-code-eater/event-organization/event.sol\":763:769  nextId */\n      0x02\n      0x00\n        /* \"by-code-eater/event-organization/event.sol\":763:771  nextId++ */\n      dup2\n      sload\n      dup1\n      swap3\n      swap2\n      swap1\n      tag_49\n      swap1\n      tag_50\n      jump\t// in\n    tag_49:\n      swap2\n      swap1\n      pop\n      sstore\n      pop\n        /* \"by-code-eater/event-organization/event.sol\":395:779  function createEvent(string memory name, uint date, uint price, uint ticketCount) external {... */\n      pop\n      pop\n      pop\n      pop\n      jump\t// out\n        /* \"by-code-eater/event-organization/event.sol\":267:301  mapping(uint=>Event) public events */\n    tag_17:\n      mstore(0x20, 0x00)\n      dup1\n      0x00\n      mstore\n      keccak256(0x00, 0x40)\n      0x00\n      swap2\n      pop\n      swap1\n      pop\n      dup1\n      0x00\n      add\n      0x00\n      swap1\n      sload\n      swap1\n      0x0100\n      exp\n      swap1\n      div\n      0xffffffffffffffffffffffffffffffffffffffff\n      and\n      swap1\n      dup1\n      0x01\n      add\n      dup1\n      sload\n      tag_51\n      swap1\n      tag_52\n      jump\t// in\n    tag_51:\n      dup1\n      0x1f\n      add\n      0x20\n      dup1\n      swap2\n      div\n      mul\n      0x20\n      add\n      mload(0x40)\n      swap1\n      dup2\n      add\n      0x40\n      mstore\n      dup1\n      swap3\n      swap2\n      swap1\n      dup2\n      dup2\n      mstore\n      0x20\n      add\n      dup3\n      dup1\n      sload\n      tag_53\n      swap1\n      tag_52\n      jump\t// in\n    tag_53:\n      dup1\n      iszero\n      tag_54\n      jumpi\n      dup1\n      0x1f\n      lt\n      tag_55\n      jumpi\n      0x0100\n      dup1\n      dup4\n      sload\n      div\n      mul\n      dup4\n      mstore\n      swap2\n      0x20\n      add\n      swap2\n      jump(tag_54)\n    tag_55:\n      dup3\n      add\n      swap2\n      swap1\n      0x00\n      mstore\n      keccak256(0x00, 0x20)\n      swap1\n    tag_56:\n      dup2\n      sload\n      dup2\n      mstore\n      swap1\n      0x01\n      add\n      swap1\n      0x20\n      add\n      dup1\n      dup4\n      gt\n      tag_56\n      jumpi\n      dup3\n      swap1\n      sub\n      0x1f\n      and\n      dup3\n      add\n      swap2\n    tag_54:\n      pop\n      pop\n      pop\n      pop\n      pop\n      swap1\n      dup1\n      0x02\n      add\n      sload\n      swap1\n      dup1\n      0x03\n      add\n      sload\n      swap1\n      dup1\n      0x04\n      add\n      sload\n      swap1\n      dup1\n      0x05\n      add\n      sload\n      swap1\n      pop\n      dup7\n      jump\t// out\n        /* \"by-code-eater/event-organization/event.sol\":787:1290  function buyTicket(uint id, uint quantity) payable external {... */\n    tag_23:\n        /* \"by-code-eater/event-organization/event.sol\":883:884  0 */\n      0x00\n        /* \"by-code-eater/event-organization/event.sol\":866:872  events */\n      dup1\n        /* \"by-code-eater/event-organization/event.sol\":866:876  events[id] */\n      0x00\n        /* \"by-code-eater/event-organization/event.sol\":873:875  id */\n      dup5\n        /* \"by-code-eater/event-organization/event.sol\":866:876  events[id] */\n      dup2\n      mstore\n      0x20\n      add\n      swap1\n      dup2\n      mstore\n      0x20\n      add\n      0x00\n      keccak256\n        /* \"by-code-eater/event-organization/event.sol\":866:881  events[id].date */\n      0x02\n      add\n      sload\n        /* \"by-code-eater/event-organization/event.sol\":866:884  events[id].date!=0 */\n      sub\n        /* \"by-code-eater/event-organization/event.sol\":858:913  require(events[id].date!=0,\"This event does not exist\") */\n      tag_58\n      jumpi\n      mload(0x40)\n      0x08c379a000000000000000000000000000000000000000000000000000000000\n      dup2\n      mstore\n      0x04\n      add\n      tag_59\n      swap1\n      tag_60\n      jump\t// in\n    tag_59:\n      mload(0x40)\n      dup1\n      swap2\n      sub\n      swap1\n      revert\n    tag_58:\n        /* \"by-code-eater/event-organization/event.sol\":948:963  block.timestamp */\n      timestamp\n        /* \"by-code-eater/event-organization/event.sol\":932:938  events */\n      0x00\n        /* \"by-code-eater/event-organization/event.sol\":932:942  events[id] */\n      dup1\n        /* \"by-code-eater/event-organization/event.sol\":939:941  id */\n      dup5\n        /* \"by-code-eater/event-organization/event.sol\":932:942  events[id] */\n      dup2\n      mstore\n      0x20\n      add\n      swap1\n      dup2\n      mstore\n      0x20\n      add\n      0x00\n      keccak256\n        /* \"by-code-eater/event-organization/event.sol\":932:947  events[id].date */\n      0x02\n      add\n      sload\n        /* \"by-code-eater/event-organization/event.sol\":932:963  events[id].date>block.timestamp */\n      gt\n        /* \"by-code-eater/event-organization/event.sol\":924:997  require(events[id].date>block.timestamp,\"This event has already occured\") */\n      tag_61\n      jumpi\n      mload(0x40)\n      0x08c379a000000000000000000000000000000000000000000000000000000000\n      dup2\n      mstore\n      0x04\n      add\n      tag_62\n      swap1\n      tag_63\n      jump\t// in\n    tag_62:\n      mload(0x40)\n      dup1\n      swap2\n      sub\n      swap1\n      revert\n    tag_61:\n        /* \"by-code-eater/event-organization/event.sol\":1008:1028  Event storage _event */\n      0x00\n        /* \"by-code-eater/event-organization/event.sol\":1030:1036  events */\n      dup1\n        /* \"by-code-eater/event-organization/event.sol\":1030:1040  events[id] */\n      0x00\n        /* \"by-code-eater/event-organization/event.sol\":1037:1039  id */\n      dup5\n        /* \"by-code-eater/event-organization/event.sol\":1030:1040  events[id] */\n      dup2\n      mstore\n      0x20\n      add\n      swap1\n      dup2\n      mstore\n      0x20\n      add\n      0x00\n      keccak256\n        /* \"by-code-eater/event-organization/event.sol\":1008:1040  Event storage _event =events[id] */\n      swap1\n      pop\n        /* \"by-code-eater/event-organization/event.sol\":1094:1102  quantity */\n      dup2\n        /* \"by-code-eater/event-organization/event.sol\":1081:1087  _event */\n      dup2\n        /* \"by-code-eater/event-organization/event.sol\":1081:1093  _event.price */\n      0x03\n      add\n      sload\n        /* \"by-code-eater/event-organization/event.sol\":1081:1102  _event.price*quantity */\n      tag_64\n      swap2\n      swap1\n      tag_65\n      jump\t// in\n    tag_64:\n        /* \"by-code-eater/event-organization/event.sol\":1069:1078  msg.value */\n      callvalue\n        /* \"by-code-eater/event-organization/event.sol\":1069:1103  msg.value<=(_event.price*quantity) */\n      gt\n      iszero\n        /* \"by-code-eater/event-organization/event.sol\":1061:1127  require(msg.value<=(_event.price*quantity), \"Ether is not enough\") */\n      tag_66\n      jumpi\n      mload(0x40)\n      0x08c379a000000000000000000000000000000000000000000000000000000000\n      dup2\n      mstore\n      0x04\n      add\n      tag_67\n      swap1\n      tag_68\n      jump\t// in\n    tag_67:\n      mload(0x40)\n      dup1\n      swap2\n      sub\n      swap1\n      revert\n    tag_66:\n        /* \"by-code-eater/event-organization/event.sol\":1167:1175  quantity */\n      dup2\n        /* \"by-code-eater/event-organization/event.sol\":1146:1152  _event */\n      dup2\n        /* \"by-code-eater/event-organization/event.sol\":1146:1165  _event.ticketRemain */\n      0x05\n      add\n      sload\n        /* \"by-code-eater/event-organization/event.sol\":1146:1175  _event.ticketRemain>=quantity */\n      lt\n      iszero\n        /* \"by-code-eater/event-organization/event.sol\":1138:1198  require(_event.ticketRemain>=quantity, \"Not enough tickets\") */\n      tag_69\n      jumpi\n      mload(0x40)\n      0x08c379a000000000000000000000000000000000000000000000000000000000\n      dup2\n      mstore\n      0x04\n      add\n      tag_70\n      swap1\n      tag_71\n      jump\t// in\n    tag_70:\n      mload(0x40)\n      dup1\n      swap2\n      sub\n      swap1\n      revert\n    tag_69:\n        /* \"by-code-eater/event-organization/event.sol\":1230:1238  quantity */\n      dup2\n        /* \"by-code-eater/event-organization/event.sol\":1209:1215  _event */\n      dup2\n        /* \"by-code-eater/event-organization/event.sol\":1209:1228  _event.ticketRemain */\n      0x05\n      add\n      0x00\n        /* \"by-code-eater/event-organization/event.sol\":1209:1238  _event.ticketRemain-=quantity */\n      dup3\n      dup3\n      sload\n      tag_72\n      swap2\n      swap1\n      tag_73\n      jump\t// in\n    tag_72:\n      swap3\n      pop\n      pop\n      dup2\n      swap1\n      sstore\n      pop\n        /* \"by-code-eater/event-organization/event.sol\":1274:1282  quantity */\n      dup2\n        /* \"by-code-eater/event-organization/event.sol\":1249:1256  tickets */\n      0x01\n        /* \"by-code-eater/event-organization/event.sol\":1249:1268  tickets[msg.sender] */\n      0x00\n        /* \"by-code-eater/event-organization/event.sol\":1257:1267  msg.sender */\n      caller\n        /* \"by-code-eater/event-organization/event.sol\":1249:1268  tickets[msg.sender] */\n      0xffffffffffffffffffffffffffffffffffffffff\n      and\n      0xffffffffffffffffffffffffffffffffffffffff\n      and\n      dup2\n      mstore\n      0x20\n      add\n      swap1\n      dup2\n      mstore\n      0x20\n      add\n      0x00\n      keccak256\n        /* \"by-code-eater/event-organization/event.sol\":1249:1272  tickets[msg.sender][id] */\n      0x00\n        /* \"by-code-eater/event-organization/event.sol\":1269:1271  id */\n      dup6\n        /* \"by-code-eater/event-organization/event.sol\":1249:1272  tickets[msg.sender][id] */\n      dup2\n      mstore\n      0x20\n      add\n      swap1\n      dup2\n      mstore\n      0x20\n      add\n      0x00\n      keccak256\n      0x00\n        /* \"by-code-eater/event-organization/event.sol\":1249:1282  tickets[msg.sender][id]+=quantity */\n      dup3\n      dup3\n      sload\n      tag_74\n      swap2\n      swap1\n      tag_75\n      jump\t// in\n    tag_74:\n      swap3\n      pop\n      pop\n      dup2\n      swap1\n      sstore\n      pop\n        /* \"by-code-eater/event-organization/event.sol\":847:1290  {... */\n      pop\n        /* \"by-code-eater/event-organization/event.sol\":787:1290  function buyTicket(uint id, uint quantity) payable external {... */\n      pop\n      pop\n      jump\t// out\n        /* \"by-code-eater/event-organization/event.sol\":368:386  uint public nextId */\n    tag_26:\n      sload(0x02)\n      dup2\n      jump\t// out\n        /* \"by-code-eater/event-organization/event.sol\":308:361  mapping(address=>mapping (uint=>uint)) public tickets */\n    tag_33:\n      mstore(0x20, 0x01)\n      dup2\n      0x00\n      mstore\n      mstore(0x20, keccak256(0x00, 0x40))\n      dup1\n      0x00\n      mstore\n      keccak256(0x00, 0x40)\n      0x00\n      swap2\n      pop\n      swap2\n      pop\n      pop\n      sload\n      dup2\n      jump\t// out\n        /* \"by-code-eater/event-organization/event.sol\":1298:1691  function transferTicket(uint id, uint quantity, address to) external {... */\n    tag_39:\n        /* \"by-code-eater/event-organization/event.sol\":1403:1404  0 */\n      0x00\n        /* \"by-code-eater/event-organization/event.sol\":1386:1392  events */\n      dup1\n        /* \"by-code-eater/event-organization/event.sol\":1386:1396  events[id] */\n      0x00\n        /* \"by-code-eater/event-organization/event.sol\":1393:1395  id */\n      dup6\n        /* \"by-code-eater/event-organization/event.sol\":1386:1396  events[id] */\n      dup2\n      mstore\n      0x20\n      add\n      swap1\n      dup2\n      mstore\n      0x20\n      add\n      0x00\n      keccak256\n        /* \"by-code-eater/event-organization/event.sol\":1386:1401  events[id].date */\n      0x02\n      add\n      sload\n        /* \"by-code-eater/event-organization/event.sol\":1386:1404  events[id].date!=0 */\n      sub\n        /* \"by-code-eater/event-organization/event.sol\":1378:1433  require(events[id].date!=0,\"This event does not exist\") */\n      tag_77\n      jumpi\n      mload(0x40)\n      0x08c379a000000000000000000000000000000000000000000000000000000000\n      dup2\n      mstore\n      0x04\n      add\n      tag_78\n      swap1\n      tag_60\n      jump\t// in\n    tag_78:\n      mload(0x40)\n      dup1\n      swap2\n      sub\n      swap1\n      revert\n    tag_77:\n        /* \"by-code-eater/event-organization/event.sol\":1468:1483  block.timestamp */\n      timestamp\n        /* \"by-code-eater/event-organization/event.sol\":1452:1458  events */\n      0x00\n        /* \"by-code-eater/event-organization/event.sol\":1452:1462  events[id] */\n      dup1\n        /* \"by-code-eater/event-organization/event.sol\":1459:1461  id */\n      dup6\n        /* \"by-code-eater/event-organization/event.sol\":1452:1462  events[id] */\n      dup2\n      mstore\n      0x20\n      add\n      swap1\n      dup2\n      mstore\n      0x20\n      add\n      0x00\n      keccak256\n        /* \"by-code-eater/event-organization/event.sol\":1452:1467  events[id].date */\n      0x02\n      add\n      sload\n        /* \"by-code-eater/event-organization/event.sol\":1452:1483  events[id].date>block.timestamp */\n      gt\n        /* \"by-code-eater/event-organization/event.sol\":1444:1517  require(events[id].date>block.timestamp,\"This event has already occured\") */\n      tag_79\n      jumpi\n      mload(0x40)\n      0x08c379a000000000000000000000000000000000000000000000000000000000\n      dup2\n      mstore\n      0x04\n      add\n      tag_80\n      swap1\n      tag_63\n      jump\t// in\n    tag_80:\n      mload(0x40)\n      dup1\n      swap2\n      sub\n      swap1\n      revert\n    tag_79:\n        /* \"by-code-eater/event-organization/event.sol\":1561:1569  quantity */\n      dup2\n        /* \"by-code-eater/event-organization/event.sol\":1536:1543  tickets */\n      0x01\n        /* \"by-code-eater/event-organization/event.sol\":1536:1555  tickets[msg.sender] */\n      0x00\n        /* \"by-code-eater/event-organization/event.sol\":1544:1554  msg.sender */\n      caller\n        /* \"by-code-eater/event-organization/event.sol\":1536:1555  tickets[msg.sender] */\n      0xffffffffffffffffffffffffffffffffffffffff\n      and\n      0xffffffffffffffffffffffffffffffffffffffff\n      and\n      dup2\n      mstore\n      0x20\n      add\n      swap1\n      dup2\n      mstore\n      0x20\n      add\n      0x00\n      keccak256\n        /* \"by-code-eater/event-organization/event.sol\":1536:1559  tickets[msg.sender][id] */\n      0x00\n        /* \"by-code-eater/event-organization/event.sol\":1556:1558  id */\n      dup6\n        /* \"by-code-eater/event-organization/event.sol\":1536:1559  tickets[msg.sender][id] */\n      dup2\n      mstore\n      0x20\n      add\n      swap1\n      dup2\n      mstore\n      0x20\n      add\n      0x00\n      keccak256\n      sload\n        /* \"by-code-eater/event-organization/event.sol\":1536:1569  tickets[msg.sender][id]>=quantity */\n      lt\n      iszero\n        /* \"by-code-eater/event-organization/event.sol\":1528:1603  require(tickets[msg.sender][id]>=quantity,\"You do not have enough tickets\") */\n      tag_81\n      jumpi\n      mload(0x40)\n      0x08c379a000000000000000000000000000000000000000000000000000000000\n      dup2\n      mstore\n      0x04\n      add\n      tag_82\n      swap1\n      tag_83\n      jump\t// in\n    tag_82:\n      mload(0x40)\n      dup1\n      swap2\n      sub\n      swap1\n      revert\n    tag_81:\n        /* \"by-code-eater/event-organization/event.sol\":1639:1647  quantity */\n      dup2\n        /* \"by-code-eater/event-organization/event.sol\":1614:1621  tickets */\n      0x01\n        /* \"by-code-eater/event-organization/event.sol\":1614:1633  tickets[msg.sender] */\n      0x00\n        /* \"by-code-eater/event-organization/event.sol\":1622:1632  msg.sender */\n      caller\n        /* \"by-code-eater/event-organization/event.sol\":1614:1633  tickets[msg.sender] */\n      0xffffffffffffffffffffffffffffffffffffffff\n      and\n      0xffffffffffffffffffffffffffffffffffffffff\n      and\n      dup2\n      mstore\n      0x20\n      add\n      swap1\n      dup2\n      mstore\n      0x20\n      add\n      0x00\n      keccak256\n        /* \"by-code-eater/event-organization/event.sol\":1614:1637  tickets[msg.sender][id] */\n      0x00\n        /* \"by-code-eater/event-organization/event.sol\":1634:1636  id */\n      dup6\n        /* \"by-code-eater/event-organization/event.sol\":1614:1637  tickets[msg.sender][id] */\n      dup2\n      mstore\n      0x20\n      add\n      swap1\n      dup2\n      mstore\n      0x20\n      add\n      0x00\n      keccak256\n      0x00\n        /* \"by-code-eater/event-organization/event.sol\":1614:1647  tickets[msg.sender][id]-=quantity */\n      dup3\n      dup3\n      sload\n      tag_84\n      swap2\n      swap1\n      tag_73\n      jump\t// in\n    tag_84:\n      swap3\n      pop\n      pop\n      dup2\n      swap1\n      sstore\n      pop\n        /* \"by-code-eater/event-organization/event.sol\":1675:1683  quantity */\n      dup2\n        /* \"by-code-eater/event-organization/event.sol\":1658:1665  tickets */\n      0x01\n        /* \"by-code-eater/event-organization/event.sol\":1658:1669  tickets[to] */\n      0x00\n        /* \"by-code-eater/event-organization/event.sol\":1666:1668  to */\n      dup4\n        /* \"by-code-eater/event-organization/event.sol\":1658:1669  tickets[to] */\n      0xffffffffffffffffffffffffffffffffffffffff\n      and\n      0xffffffffffffffffffffffffffffffffffffffff\n      and\n      dup2\n      mstore\n      0x20\n      add\n      swap1\n      dup2\n      mstore\n      0x20\n      add\n      0x00\n      keccak256\n        /* \"by-code-eater/event-organization/event.sol\":1658:1673  tickets[to][id] */\n      0x00\n        /* \"by-code-eater/event-organization/event.sol\":1670:1672  id */\n      dup6\n        /* \"by-code-eater/event-organization/event.sol\":1658:1673  tickets[to][id] */\n      dup2\n      mstore\n      0x20\n      add\n      swap1\n      dup2\n      mstore\n      0x20\n      add\n      0x00\n      keccak256\n      0x00\n        /* \"by-code-eater/event-organization/event.sol\":1658:1683  tickets[to][id]+=quantity */\n      dup3\n      dup3\n      sload\n      tag_85\n      swap2\n      swap1\n      tag_75\n      jump\t// in\n    tag_85:\n      swap3\n      pop\n      pop\n      dup2\n      swap1\n      sstore\n      pop\n        /* \"by-code-eater/event-organization/event.sol\":1298:1691  function transferTicket(uint id, uint quantity, address to) external {... */\n      pop\n      pop\n      pop\n      jump\t// out\n        /* \"#utility.yul\":7:82   */\n    tag_86:\n        /* \"#utility.yul\":40:46   */\n      0x00\n        /* \"#utility.yul\":73:75   */\n      0x40\n        /* \"#utility.yul\":67:76   */\n      mload\n        /* \"#utility.yul\":57:76   */\n      swap1\n      pop\n        /* \"#utility.yul\":7:82   */\n      swap1\n      jump\t// out\n        /* \"#utility.yul\":88:205   */\n    tag_87:\n        /* \"#utility.yul\":197:198   */\n      0x00\n        /* \"#utility.yul\":194:195   */\n      dup1\n        /* \"#utility.yul\":187:199   */\n      revert\n        /* \"#utility.yul\":211:328   */\n    tag_88:\n        /* \"#utility.yul\":320:321   */\n      0x00\n        /* \"#utility.yul\":317:318   */\n      dup1\n        /* \"#utility.yul\":310:322   */\n      revert\n        /* \"#utility.yul\":334:451   */\n    tag_89:\n        /* \"#utility.yul\":443:444   */\n      0x00\n        /* \"#utility.yul\":440:441   */\n      dup1\n        /* \"#utility.yul\":433:445   */\n      revert\n        /* \"#utility.yul\":457:574   */\n    tag_90:\n        /* \"#utility.yul\":566:567   */\n      0x00\n        /* \"#utility.yul\":563:564   */\n      dup1\n        /* \"#utility.yul\":556:568   */\n      revert\n        /* \"#utility.yul\":580:682   */\n    tag_91:\n        /* \"#utility.yul\":621:627   */\n      0x00\n        /* \"#utility.yul\":672:674   */\n      0x1f\n        /* \"#utility.yul\":668:675   */\n      not\n        /* \"#utility.yul\":663:665   */\n      0x1f\n        /* \"#utility.yul\":656:661   */\n      dup4\n        /* \"#utility.yul\":652:666   */\n      add\n        /* \"#utility.yul\":648:676   */\n      and\n        /* \"#utility.yul\":638:676   */\n      swap1\n      pop\n        /* \"#utility.yul\":580:682   */\n      swap2\n      swap1\n      pop\n      jump\t// out\n        /* \"#utility.yul\":688:868   */\n    tag_92:\n        /* \"#utility.yul\":736:813   */\n      0x4e487b7100000000000000000000000000000000000000000000000000000000\n        /* \"#utility.yul\":733:734   */\n      0x00\n        /* \"#utility.yul\":726:814   */\n      mstore\n        /* \"#utility.yul\":833:837   */\n      0x41\n        /* \"#utility.yul\":830:831   */\n      0x04\n        /* \"#utility.yul\":823:838   */\n      mstore\n        /* \"#utility.yul\":857:861   */\n      0x24\n        /* \"#utility.yul\":854:855   */\n      0x00\n        /* \"#utility.yul\":847:862   */\n      revert\n        /* \"#utility.yul\":874:1155   */\n    tag_93:\n        /* \"#utility.yul\":957:984   */\n      tag_152\n        /* \"#utility.yul\":979:983   */\n      dup3\n        /* \"#utility.yul\":957:984   */\n      tag_91\n      jump\t// in\n    tag_152:\n        /* \"#utility.yul\":949:955   */\n      dup2\n        /* \"#utility.yul\":945:985   */\n      add\n        /* \"#utility.yul\":1087:1093   */\n      dup2\n        /* \"#utility.yul\":1075:1085   */\n      dup2\n        /* \"#utility.yul\":1072:1094   */\n      lt\n        /* \"#utility.yul\":1051:1069   */\n      0xffffffffffffffff\n        /* \"#utility.yul\":1039:1049   */\n      dup3\n        /* \"#utility.yul\":1036:1070   */\n      gt\n        /* \"#utility.yul\":1033:1095   */\n      or\n        /* \"#utility.yul\":1030:1118   */\n      iszero\n      tag_153\n      jumpi\n        /* \"#utility.yul\":1098:1116   */\n      tag_154\n      tag_92\n      jump\t// in\n    tag_154:\n        /* \"#utility.yul\":1030:1118   */\n    tag_153:\n        /* \"#utility.yul\":1138:1148   */\n      dup1\n        /* \"#utility.yul\":1134:1136   */\n      0x40\n        /* \"#utility.yul\":1127:1149   */\n      mstore\n        /* \"#utility.yul\":917:1155   */\n      pop\n        /* \"#utility.yul\":874:1155   */\n      pop\n      pop\n      jump\t// out\n        /* \"#utility.yul\":1161:1290   */\n    tag_94:\n        /* \"#utility.yul\":1195:1201   */\n      0x00\n        /* \"#utility.yul\":1222:1242   */\n      tag_156\n      tag_86\n      jump\t// in\n    tag_156:\n        /* \"#utility.yul\":1212:1242   */\n      swap1\n      pop\n        /* \"#utility.yul\":1251:1284   */\n      tag_157\n        /* \"#utility.yul\":1279:1283   */\n      dup3\n        /* \"#utility.yul\":1271:1277   */\n      dup3\n        /* \"#utility.yul\":1251:1284   */\n      tag_93\n      jump\t// in\n    tag_157:\n        /* \"#utility.yul\":1161:1290   */\n      swap2\n      swap1\n      pop\n      jump\t// out\n        /* \"#utility.yul\":1296:1604   */\n    tag_95:\n        /* \"#utility.yul\":1358:1362   */\n      0x00\n        /* \"#utility.yul\":1448:1466   */\n      0xffffffffffffffff\n        /* \"#utility.yul\":1440:1446   */\n      dup3\n        /* \"#utility.yul\":1437:1467   */\n      gt\n        /* \"#utility.yul\":1434:1490   */\n      iszero\n      tag_159\n      jumpi\n        /* \"#utility.yul\":1470:1488   */\n      tag_160\n      tag_92\n      jump\t// in\n    tag_160:\n        /* \"#utility.yul\":1434:1490   */\n    tag_159:\n        /* \"#utility.yul\":1508:1537   */\n      tag_161\n        /* \"#utility.yul\":1530:1536   */\n      dup3\n        /* \"#utility.yul\":1508:1537   */\n      tag_91\n      jump\t// in\n    tag_161:\n        /* \"#utility.yul\":1500:1537   */\n      swap1\n      pop\n        /* \"#utility.yul\":1592:1596   */\n      0x20\n        /* \"#utility.yul\":1586:1590   */\n      dup2\n        /* \"#utility.yul\":1582:1597   */\n      add\n        /* \"#utility.yul\":1574:1597   */\n      swap1\n      pop\n        /* \"#utility.yul\":1296:1604   */\n      swap2\n      swap1\n      pop\n      jump\t// out\n        /* \"#utility.yul\":1610:1756   */\n    tag_96:\n        /* \"#utility.yul\":1707:1713   */\n      dup3\n        /* \"#utility.yul\":1702:1705   */\n      dup2\n        /* \"#utility.yul\":1697:1700   */\n      dup4\n        /* \"#utility.yul\":1684:1714   */\n      calldatacopy\n        /* \"#utility.yul\":1748:1749   */\n      0x00\n        /* \"#utility.yul\":1739:1745   */\n      dup4\n        /* \"#utility.yul\":1734:1737   */\n      dup4\n        /* \"#utility.yul\":1730:1746   */\n      add\n        /* \"#utility.yul\":1723:1750   */\n      mstore\n        /* \"#utility.yul\":1610:1756   */\n      pop\n      pop\n      pop\n      jump\t// out\n        /* \"#utility.yul\":1762:2187   */\n    tag_97:\n        /* \"#utility.yul\":1840:1845   */\n      0x00\n        /* \"#utility.yul\":1865:1931   */\n      tag_164\n        /* \"#utility.yul\":1881:1930   */\n      tag_165\n        /* \"#utility.yul\":1923:1929   */\n      dup5\n        /* \"#utility.yul\":1881:1930   */\n      tag_95\n      jump\t// in\n    tag_165:\n        /* \"#utility.yul\":1865:1931   */\n      tag_94\n      jump\t// in\n    tag_164:\n        /* \"#utility.yul\":1856:1931   */\n      swap1\n      pop\n        /* \"#utility.yul\":1954:1960   */\n      dup3\n        /* \"#utility.yul\":1947:1952   */\n      dup2\n        /* \"#utility.yul\":1940:1961   */\n      mstore\n        /* \"#utility.yul\":1992:1996   */\n      0x20\n        /* \"#utility.yul\":1985:1990   */\n      dup2\n        /* \"#utility.yul\":1981:1997   */\n      add\n        /* \"#utility.yul\":2030:2033   */\n      dup5\n        /* \"#utility.yul\":2021:2027   */\n      dup5\n        /* \"#utility.yul\":2016:2019   */\n      dup5\n        /* \"#utility.yul\":2012:2028   */\n      add\n        /* \"#utility.yul\":2009:2034   */\n      gt\n        /* \"#utility.yul\":2006:2118   */\n      iszero\n      tag_166\n      jumpi\n        /* \"#utility.yul\":2037:2116   */\n      tag_167\n      tag_90\n      jump\t// in\n    tag_167:\n        /* \"#utility.yul\":2006:2118   */\n    tag_166:\n        /* \"#utility.yul\":2127:2181   */\n      tag_168\n        /* \"#utility.yul\":2174:2180   */\n      dup5\n        /* \"#utility.yul\":2169:2172   */\n      dup3\n        /* \"#utility.yul\":2164:2167   */\n      dup6\n        /* \"#utility.yul\":2127:2181   */\n      tag_96\n      jump\t// in\n    tag_168:\n        /* \"#utility.yul\":1846:2187   */\n      pop\n        /* \"#utility.yul\":1762:2187   */\n      swap4\n      swap3\n      pop\n      pop\n      pop\n      jump\t// out\n        /* \"#utility.yul\":2207:2547   */\n    tag_98:\n        /* \"#utility.yul\":2263:2268   */\n      0x00\n        /* \"#utility.yul\":2312:2315   */\n      dup3\n        /* \"#utility.yul\":2305:2309   */\n      0x1f\n        /* \"#utility.yul\":2297:2303   */\n      dup4\n        /* \"#utility.yul\":2293:2310   */\n      add\n        /* \"#utility.yul\":2289:2316   */\n      slt\n        /* \"#utility.yul\":2279:2401   */\n      tag_170\n      jumpi\n        /* \"#utility.yul\":2320:2399   */\n      tag_171\n      tag_89\n      jump\t// in\n    tag_171:\n        /* \"#utility.yul\":2279:2401   */\n    tag_170:\n        /* \"#utility.yul\":2437:2443   */\n      dup2\n        /* \"#utility.yul\":2424:2444   */\n      calldataload\n        /* \"#utility.yul\":2462:2541   */\n      tag_172\n        /* \"#utility.yul\":2537:2540   */\n      dup5\n        /* \"#utility.yul\":2529:2535   */\n      dup3\n        /* \"#utility.yul\":2522:2526   */\n      0x20\n        /* \"#utility.yul\":2514:2520   */\n      dup7\n        /* \"#utility.yul\":2510:2527   */\n      add\n        /* \"#utility.yul\":2462:2541   */\n      tag_97\n      jump\t// in\n    tag_172:\n        /* \"#utility.yul\":2453:2541   */\n      swap2\n      pop\n        /* \"#utility.yul\":2269:2547   */\n      pop\n        /* \"#utility.yul\":2207:2547   */\n      swap3\n      swap2\n      pop\n      pop\n      jump\t// out\n        /* \"#utility.yul\":2553:2630   */\n    tag_99:\n        /* \"#utility.yul\":2590:2597   */\n      0x00\n        /* \"#utility.yul\":2619:2624   */\n      dup2\n        /* \"#utility.yul\":2608:2624   */\n      swap1\n      pop\n        /* \"#utility.yul\":2553:2630   */\n      swap2\n      swap1\n      pop\n      jump\t// out\n        /* \"#utility.yul\":2636:2758   */\n    tag_100:\n        /* \"#utility.yul\":2709:2733   */\n      tag_175\n        /* \"#utility.yul\":2727:2732   */\n      dup2\n        /* \"#utility.yul\":2709:2733   */\n      tag_99\n      jump\t// in\n    tag_175:\n        /* \"#utility.yul\":2702:2707   */\n      dup2\n        /* \"#utility.yul\":2699:2734   */\n      eq\n        /* \"#utility.yul\":2689:2752   */\n      tag_176\n      jumpi\n        /* \"#utility.yul\":2748:2749   */\n      0x00\n        /* \"#utility.yul\":2745:2746   */\n      dup1\n        /* \"#utility.yul\":2738:2750   */\n      revert\n        /* \"#utility.yul\":2689:2752   */\n    tag_176:\n        /* \"#utility.yul\":2636:2758   */\n      pop\n      jump\t// out\n        /* \"#utility.yul\":2764:2903   */\n    tag_101:\n        /* \"#utility.yul\":2810:2815   */\n      0x00\n        /* \"#utility.yul\":2848:2854   */\n      dup2\n        /* \"#utility.yul\":2835:2855   */\n      calldataload\n        /* \"#utility.yul\":2826:2855   */\n      swap1\n      pop\n        /* \"#utility.yul\":2864:2897   */\n      tag_178\n        /* \"#utility.yul\":2891:2896   */\n      dup2\n        /* \"#utility.yul\":2864:2897   */\n      tag_100\n      jump\t// in\n    tag_178:\n        /* \"#utility.yul\":2764:2903   */\n      swap3\n      swap2\n      pop\n      pop\n      jump\t// out\n        /* \"#utility.yul\":2909:3854   */\n    tag_11:\n        /* \"#utility.yul\":3005:3011   */\n      0x00\n        /* \"#utility.yul\":3013:3019   */\n      dup1\n        /* \"#utility.yul\":3021:3027   */\n      0x00\n        /* \"#utility.yul\":3029:3035   */\n      dup1\n        /* \"#utility.yul\":3078:3081   */\n      0x80\n        /* \"#utility.yul\":3066:3075   */\n      dup6\n        /* \"#utility.yul\":3057:3064   */\n      dup8\n        /* \"#utility.yul\":3053:3076   */\n      sub\n        /* \"#utility.yul\":3049:3082   */\n      slt\n        /* \"#utility.yul\":3046:3166   */\n      iszero\n      tag_180\n      jumpi\n        /* \"#utility.yul\":3085:3164   */\n      tag_181\n      tag_87\n      jump\t// in\n    tag_181:\n        /* \"#utility.yul\":3046:3166   */\n    tag_180:\n        /* \"#utility.yul\":3233:3234   */\n      0x00\n        /* \"#utility.yul\":3222:3231   */\n      dup6\n        /* \"#utility.yul\":3218:3235   */\n      add\n        /* \"#utility.yul\":3205:3236   */\n      calldataload\n        /* \"#utility.yul\":3263:3281   */\n      0xffffffffffffffff\n        /* \"#utility.yul\":3255:3261   */\n      dup2\n        /* \"#utility.yul\":3252:3282   */\n      gt\n        /* \"#utility.yul\":3249:3366   */\n      iszero\n      tag_182\n      jumpi\n        /* \"#utility.yul\":3285:3364   */\n      tag_183\n      tag_88\n      jump\t// in\n    tag_183:\n        /* \"#utility.yul\":3249:3366   */\n    tag_182:\n        /* \"#utility.yul\":3390:3453   */\n      tag_184\n        /* \"#utility.yul\":3445:3452   */\n      dup8\n        /* \"#utility.yul\":3436:3442   */\n      dup3\n        /* \"#utility.yul\":3425:3434   */\n      dup9\n        /* \"#utility.yul\":3421:3443   */\n      add\n        /* \"#utility.yul\":3390:3453   */\n      tag_98\n      jump\t// in\n    tag_184:\n        /* \"#utility.yul\":3380:3453   */\n      swap5\n      pop\n        /* \"#utility.yul\":3176:3463   */\n      pop\n        /* \"#utility.yul\":3502:3504   */\n      0x20\n        /* \"#utility.yul\":3528:3581   */\n      tag_185\n        /* \"#utility.yul\":3573:3580   */\n      dup8\n        /* \"#utility.yul\":3564:3570   */\n      dup3\n        /* \"#utility.yul\":3553:3562   */\n      dup9\n        /* \"#utility.yul\":3549:3571   */\n      add\n        /* \"#utility.yul\":3528:3581   */\n      tag_101\n      jump\t// in\n    tag_185:\n        /* \"#utility.yul\":3518:3581   */\n      swap4\n      pop\n        /* \"#utility.yul\":3473:3591   */\n      pop\n        /* \"#utility.yul\":3630:3632   */\n      0x40\n        /* \"#utility.yul\":3656:3709   */\n      tag_186\n        /* \"#utility.yul\":3701:3708   */\n      dup8\n        /* \"#utility.yul\":3692:3698   */\n      dup3\n        /* \"#utility.yul\":3681:3690   */\n      dup9\n        /* \"#utility.yul\":3677:3699   */\n      add\n        /* \"#utility.yul\":3656:3709   */\n      tag_101\n      jump\t// in\n    tag_186:\n        /* \"#utility.yul\":3646:3709   */\n      swap3\n      pop\n        /* \"#utility.yul\":3601:3719   */\n      pop\n        /* \"#utility.yul\":3758:3760   */\n      0x60\n        /* \"#utility.yul\":3784:3837   */\n      tag_187\n        /* \"#utility.yul\":3829:3836   */\n      dup8\n        /* \"#utility.yul\":3820:3826   */\n      dup3\n        /* \"#utility.yul\":3809:3818   */\n      dup9\n        /* \"#utility.yul\":3805:3827   */\n      add\n        /* \"#utility.yul\":3784:3837   */\n      tag_101\n      jump\t// in\n    tag_187:\n        /* \"#utility.yul\":3774:3837   */\n      swap2\n      pop\n        /* \"#utility.yul\":3729:3847   */\n      pop\n        /* \"#utility.yul\":2909:3854   */\n      swap3\n      swap6\n      swap2\n      swap5\n      pop\n      swap3\n      pop\n      jump\t// out\n        /* \"#utility.yul\":3860:4189   */\n    tag_16:\n        /* \"#utility.yul\":3919:3925   */\n      0x00\n        /* \"#utility.yul\":3968:3970   */\n      0x20\n        /* \"#utility.yul\":3956:3965   */\n      dup3\n        /* \"#utility.yul\":3947:3954   */\n      dup5\n        /* \"#utility.yul\":3943:3966   */\n      sub\n        /* \"#utility.yul\":3939:3971   */\n      slt\n        /* \"#utility.yul\":3936:4055   */\n      iszero\n      tag_189\n      jumpi\n        /* \"#utility.yul\":3974:4053   */\n      tag_190\n      tag_87\n      jump\t// in\n    tag_190:\n        /* \"#utility.yul\":3936:4055   */\n    tag_189:\n        /* \"#utility.yul\":4094:4095   */\n      0x00\n        /* \"#utility.yul\":4119:4172   */\n      tag_191\n        /* \"#utility.yul\":4164:4171   */\n      dup5\n        /* \"#utility.yul\":4155:4161   */\n      dup3\n        /* \"#utility.yul\":4144:4153   */\n      dup6\n        /* \"#utility.yul\":4140:4162   */\n      add\n        /* \"#utility.yul\":4119:4172   */\n      tag_101\n      jump\t// in\n    tag_191:\n        /* \"#utility.yul\":4109:4172   */\n      swap2\n      pop\n        /* \"#utility.yul\":4065:4182   */\n      pop\n        /* \"#utility.yul\":3860:4189   */\n      swap3\n      swap2\n      pop\n      pop\n      jump\t// out\n        /* \"#utility.yul\":4195:4321   */\n    tag_102:\n        /* \"#utility.yul\":4232:4239   */\n      0x00\n        /* \"#utility.yul\":4272:4314   */\n      0xffffffffffffffffffffffffffffffffffffffff\n        /* \"#utility.yul\":4265:4270   */\n      dup3\n        /* \"#utility.yul\":4261:4315   */\n      and\n        /* \"#utility.yul\":4250:4315   */\n      swap1\n      pop\n        /* \"#utility.yul\":4195:4321   */\n      swap2\n      swap1\n      pop\n      jump\t// out\n        /* \"#utility.yul\":4327:4423   */\n    tag_103:\n        /* \"#utility.yul\":4364:4371   */\n      0x00\n        /* \"#utility.yul\":4393:4417   */\n      tag_194\n        /* \"#utility.yul\":4411:4416   */\n      dup3\n        /* \"#utility.yul\":4393:4417   */\n      tag_102\n      jump\t// in\n    tag_194:\n        /* \"#utility.yul\":4382:4417   */\n      swap1\n      pop\n        /* \"#utility.yul\":4327:4423   */\n      swap2\n      swap1\n      pop\n      jump\t// out\n        /* \"#utility.yul\":4429:4547   */\n    tag_104:\n        /* \"#utility.yul\":4516:4540   */\n      tag_196\n        /* \"#utility.yul\":4534:4539   */\n      dup2\n        /* \"#utility.yul\":4516:4540   */\n      tag_103\n      jump\t// in\n    tag_196:\n        /* \"#utility.yul\":4511:4514   */\n      dup3\n        /* \"#utility.yul\":4504:4541   */\n      mstore\n        /* \"#utility.yul\":4429:4547   */\n      pop\n      pop\n      jump\t// out\n        /* \"#utility.yul\":4553:4652   */\n    tag_105:\n        /* \"#utility.yul\":4605:4611   */\n      0x00\n        /* \"#utility.yul\":4639:4644   */\n      dup2\n        /* \"#utility.yul\":4633:4645   */\n      mload\n        /* \"#utility.yul\":4623:4645   */\n      swap1\n      pop\n        /* \"#utility.yul\":4553:4652   */\n      swap2\n      swap1\n      pop\n      jump\t// out\n        /* \"#utility.yul\":4658:4827   */\n    tag_106:\n        /* \"#utility.yul\":4742:4753   */\n      0x00\n        /* \"#utility.yul\":4776:4782   */\n      dup3\n        /* \"#utility.yul\":4771:4774   */\n      dup3\n        /* \"#utility.yul\":4764:4783   */\n      mstore\n        /* \"#utility.yul\":4816:4820   */\n      0x20\n        /* \"#utility.yul\":4811:4814   */\n      dup3\n        /* \"#utility.yul\":4807:4821   */\n      add\n        /* \"#utility.yul\":4792:4821   */\n      swap1\n      pop\n        /* \"#utility.yul\":4658:4827   */\n      swap3\n      swap2\n      pop\n      pop\n      jump\t// out\n        /* \"#utility.yul\":4833:5079   */\n    tag_107:\n        /* \"#utility.yul\":4914:4915   */\n      0x00\n        /* \"#utility.yul\":4924:5037   */\n    tag_200:\n        /* \"#utility.yul\":4938:4944   */\n      dup4\n        /* \"#utility.yul\":4935:4936   */\n      dup2\n        /* \"#utility.yul\":4932:4945   */\n      lt\n        /* \"#utility.yul\":4924:5037   */\n      iszero\n      tag_202\n      jumpi\n        /* \"#utility.yul\":5023:5024   */\n      dup1\n        /* \"#utility.yul\":5018:5021   */\n      dup3\n        /* \"#utility.yul\":5014:5025   */\n      add\n        /* \"#utility.yul\":5008:5026   */\n      mload\n        /* \"#utility.yul\":5004:5005   */\n      dup2\n        /* \"#utility.yul\":4999:5002   */\n      dup5\n        /* \"#utility.yul\":4995:5006   */\n      add\n        /* \"#utility.yul\":4988:5027   */\n      mstore\n        /* \"#utility.yul\":4960:4962   */\n      0x20\n        /* \"#utility.yul\":4957:4958   */\n      dup2\n        /* \"#utility.yul\":4953:4963   */\n      add\n        /* \"#utility.yul\":4948:4963   */\n      swap1\n      pop\n        /* \"#utility.yul\":4924:5037   */\n      jump(tag_200)\n    tag_202:\n        /* \"#utility.yul\":5071:5072   */\n      0x00\n        /* \"#utility.yul\":5062:5068   */\n      dup5\n        /* \"#utility.yul\":5057:5060   */\n      dup5\n        /* \"#utility.yul\":5053:5069   */\n      add\n        /* \"#utility.yul\":5046:5073   */\n      mstore\n        /* \"#utility.yul\":4895:5079   */\n      pop\n        /* \"#utility.yul\":4833:5079   */\n      pop\n      pop\n      pop\n      jump\t// out\n        /* \"#utility.yul\":5085:5462   */\n    tag_108:\n        /* \"#utility.yul\":5173:5176   */\n      0x00\n        /* \"#utility.yul\":5201:5240   */\n      tag_204\n        /* \"#utility.yul\":5234:5239   */\n      dup3\n        /* \"#utility.yul\":5201:5240   */\n      tag_105\n      jump\t// in\n    tag_204:\n        /* \"#utility.yul\":5256:5327   */\n      tag_205\n        /* \"#utility.yul\":5320:5326   */\n      dup2\n        /* \"#utility.yul\":5315:5318   */\n      dup6\n        /* \"#utility.yul\":5256:5327   */\n      tag_106\n      jump\t// in\n    tag_205:\n        /* \"#utility.yul\":5249:5327   */\n      swap4\n      pop\n        /* \"#utility.yul\":5336:5401   */\n      tag_206\n        /* \"#utility.yul\":5394:5400   */\n      dup2\n        /* \"#utility.yul\":5389:5392   */\n      dup6\n        /* \"#utility.yul\":5382:5386   */\n      0x20\n        /* \"#utility.yul\":5375:5380   */\n      dup7\n        /* \"#utility.yul\":5371:5387   */\n      add\n        /* \"#utility.yul\":5336:5401   */\n      tag_107\n      jump\t// in\n    tag_206:\n        /* \"#utility.yul\":5426:5455   */\n      tag_207\n        /* \"#utility.yul\":5448:5454   */\n      dup2\n        /* \"#utility.yul\":5426:5455   */\n      tag_91\n      jump\t// in\n    tag_207:\n        /* \"#utility.yul\":5421:5424   */\n      dup5\n        /* \"#utility.yul\":5417:5456   */\n      add\n        /* \"#utility.yul\":5410:5456   */\n      swap2\n      pop\n        /* \"#utility.yul\":5177:5462   */\n      pop\n        /* \"#utility.yul\":5085:5462   */\n      swap3\n      swap2\n      pop\n      pop\n      jump\t// out\n        /* \"#utility.yul\":5468:5586   */\n    tag_109:\n        /* \"#utility.yul\":5555:5579   */\n      tag_209\n        /* \"#utility.yul\":5573:5578   */\n      dup2\n        /* \"#utility.yul\":5555:5579   */\n      tag_99\n      jump\t// in\n    tag_209:\n        /* \"#utility.yul\":5550:5553   */\n      dup3\n        /* \"#utility.yul\":5543:5580   */\n      mstore\n        /* \"#utility.yul\":5468:5586   */\n      pop\n      pop\n      jump\t// out\n        /* \"#utility.yul\":5592:6458   */\n    tag_19:\n        /* \"#utility.yul\":5845:5849   */\n      0x00\n        /* \"#utility.yul\":5883:5886   */\n      0xc0\n        /* \"#utility.yul\":5872:5881   */\n      dup3\n        /* \"#utility.yul\":5868:5887   */\n      add\n        /* \"#utility.yul\":5860:5887   */\n      swap1\n      pop\n        /* \"#utility.yul\":5897:5968   */\n      tag_211\n        /* \"#utility.yul\":5965:5966   */\n      0x00\n        /* \"#utility.yul\":5954:5963   */\n      dup4\n        /* \"#utility.yul\":5950:5967   */\n      add\n        /* \"#utility.yul\":5941:5947   */\n      dup10\n        /* \"#utility.yul\":5897:5968   */\n      tag_104\n      jump\t// in\n    tag_211:\n        /* \"#utility.yul\":6015:6024   */\n      dup2\n        /* \"#utility.yul\":6009:6013   */\n      dup2\n        /* \"#utility.yul\":6005:6025   */\n      sub\n        /* \"#utility.yul\":6000:6002   */\n      0x20\n        /* \"#utility.yul\":5989:5998   */\n      dup4\n        /* \"#utility.yul\":5985:6003   */\n      add\n        /* \"#utility.yul\":5978:6026   */\n      mstore\n        /* \"#utility.yul\":6043:6121   */\n      tag_212\n        /* \"#utility.yul\":6116:6120   */\n      dup2\n        /* \"#utility.yul\":6107:6113   */\n      dup9\n        /* \"#utility.yul\":6043:6121   */\n      tag_108\n      jump\t// in\n    tag_212:\n        /* \"#utility.yul\":6035:6121   */\n      swap1\n      pop\n        /* \"#utility.yul\":6131:6203   */\n      tag_213\n        /* \"#utility.yul\":6199:6201   */\n      0x40\n        /* \"#utility.yul\":6188:6197   */\n      dup4\n        /* \"#utility.yul\":6184:6202   */\n      add\n        /* \"#utility.yul\":6175:6181   */\n      dup8\n        /* \"#utility.yul\":6131:6203   */\n      tag_109\n      jump\t// in\n    tag_213:\n        /* \"#utility.yul\":6213:6285   */\n      tag_214\n        /* \"#utility.yul\":6281:6283   */\n      0x60\n        /* \"#utility.yul\":6270:6279   */\n      dup4\n        /* \"#utility.yul\":6266:6284   */\n      add\n        /* \"#utility.yul\":6257:6263   */\n      dup7\n        /* \"#utility.yul\":6213:6285   */\n      tag_109\n      jump\t// in\n    tag_214:\n        /* \"#utility.yul\":6295:6368   */\n      tag_215\n        /* \"#utility.yul\":6363:6366   */\n      0x80\n        /* \"#utility.yul\":6352:6361   */\n      dup4\n        /* \"#utility.yul\":6348:6367   */\n      add\n        /* \"#utility.yul\":6339:6345   */\n      dup6\n        /* \"#utility.yul\":6295:6368   */\n      tag_109\n      jump\t// in\n    tag_215:\n        /* \"#utility.yul\":6378:6451   */\n      tag_216\n        /* \"#utility.yul\":6446:6449   */\n      0xa0\n        /* \"#utility.yul\":6435:6444   */\n      dup4\n        /* \"#utility.yul\":6431:6450   */\n      add\n        /* \"#utility.yul\":6422:6428   */\n      dup5\n        /* \"#utility.yul\":6378:6451   */\n      tag_109\n      jump\t// in\n    tag_216:\n        /* \"#utility.yul\":5592:6458   */\n      swap8\n      swap7\n      pop\n      pop\n      pop\n      pop\n      pop\n      pop\n      pop\n      jump\t// out\n        /* \"#utility.yul\":6464:6938   */\n    tag_22:\n        /* \"#utility.yul\":6532:6538   */\n      0x00\n        /* \"#utility.yul\":6540:6546   */\n      dup1\n        /* \"#utility.yul\":6589:6591   */\n      0x40\n        /* \"#utility.yul\":6577:6586   */\n      dup4\n        /* \"#utility.yul\":6568:6575   */\n      dup6\n        /* \"#utility.yul\":6564:6587   */\n      sub\n        /* \"#utility.yul\":6560:6592   */\n      slt\n        /* \"#utility.yul\":6557:6676   */\n      iszero\n      tag_218\n      jumpi\n        /* \"#utility.yul\":6595:6674   */\n      tag_219\n      tag_87\n      jump\t// in\n    tag_219:\n        /* \"#utility.yul\":6557:6676   */\n    tag_218:\n        /* \"#utility.yul\":6715:6716   */\n      0x00\n        /* \"#utility.yul\":6740:6793   */\n      tag_220\n        /* \"#utility.yul\":6785:6792   */\n      dup6\n        /* \"#utility.yul\":6776:6782   */\n      dup3\n        /* \"#utility.yul\":6765:6774   */\n      dup7\n        /* \"#utility.yul\":6761:6783   */\n      add\n        /* \"#utility.yul\":6740:6793   */\n      tag_101\n      jump\t// in\n    tag_220:\n        /* \"#utility.yul\":6730:6793   */\n      swap3\n      pop\n        /* \"#utility.yul\":6686:6803   */\n      pop\n        /* \"#utility.yul\":6842:6844   */\n      0x20\n        /* \"#utility.yul\":6868:6921   */\n      tag_221\n        /* \"#utility.yul\":6913:6920   */\n      dup6\n        /* \"#utility.yul\":6904:6910   */\n      dup3\n        /* \"#utility.yul\":6893:6902   */\n      dup7\n        /* \"#utility.yul\":6889:6911   */\n      add\n        /* \"#utility.yul\":6868:6921   */\n      tag_101\n      jump\t// in\n    tag_221:\n        /* \"#utility.yul\":6858:6921   */\n      swap2\n      pop\n        /* \"#utility.yul\":6813:6931   */\n      pop\n        /* \"#utility.yul\":6464:6938   */\n      swap3\n      pop\n      swap3\n      swap1\n      pop\n      jump\t// out\n        /* \"#utility.yul\":6944:7166   */\n    tag_28:\n        /* \"#utility.yul\":7037:7041   */\n      0x00\n        /* \"#utility.yul\":7075:7077   */\n      0x20\n        /* \"#utility.yul\":7064:7073   */\n      dup3\n        /* \"#utility.yul\":7060:7078   */\n      add\n        /* \"#utility.yul\":7052:7078   */\n      swap1\n      pop\n        /* \"#utility.yul\":7088:7159   */\n      tag_223\n        /* \"#utility.yul\":7156:7157   */\n      0x00\n        /* \"#utility.yul\":7145:7154   */\n      dup4\n        /* \"#utility.yul\":7141:7158   */\n      add\n        /* \"#utility.yul\":7132:7138   */\n      dup5\n        /* \"#utility.yul\":7088:7159   */\n      tag_109\n      jump\t// in\n    tag_223:\n        /* \"#utility.yul\":6944:7166   */\n      swap3\n      swap2\n      pop\n      pop\n      jump\t// out\n        /* \"#utility.yul\":7172:7294   */\n    tag_110:\n        /* \"#utility.yul\":7245:7269   */\n      tag_225\n        /* \"#utility.yul\":7263:7268   */\n      dup2\n        /* \"#utility.yul\":7245:7269   */\n      tag_103\n      jump\t// in\n    tag_225:\n        /* \"#utility.yul\":7238:7243   */\n      dup2\n        /* \"#utility.yul\":7235:7270   */\n      eq\n        /* \"#utility.yul\":7225:7288   */\n      tag_226\n      jumpi\n        /* \"#utility.yul\":7284:7285   */\n      0x00\n        /* \"#utility.yul\":7281:7282   */\n      dup1\n        /* \"#utility.yul\":7274:7286   */\n      revert\n        /* \"#utility.yul\":7225:7288   */\n    tag_226:\n        /* \"#utility.yul\":7172:7294   */\n      pop\n      jump\t// out\n        /* \"#utility.yul\":7300:7439   */\n    tag_111:\n        /* \"#utility.yul\":7346:7351   */\n      0x00\n        /* \"#utility.yul\":7384:7390   */\n      dup2\n        /* \"#utility.yul\":7371:7391   */\n      calldataload\n        /* \"#utility.yul\":7362:7391   */\n      swap1\n      pop\n        /* \"#utility.yul\":7400:7433   */\n      tag_228\n        /* \"#utility.yul\":7427:7432   */\n      dup2\n        /* \"#utility.yul\":7400:7433   */\n      tag_110\n      jump\t// in\n    tag_228:\n        /* \"#utility.yul\":7300:7439   */\n      swap3\n      swap2\n      pop\n      pop\n      jump\t// out\n        /* \"#utility.yul\":7445:7919   */\n    tag_32:\n        /* \"#utility.yul\":7513:7519   */\n      0x00\n        /* \"#utility.yul\":7521:7527   */\n      dup1\n        /* \"#utility.yul\":7570:7572   */\n      0x40\n        /* \"#utility.yul\":7558:7567   */\n      dup4\n        /* \"#utility.yul\":7549:7556   */\n      dup6\n        /* \"#utility.yul\":7545:7568   */\n      sub\n        /* \"#utility.yul\":7541:7573   */\n      slt\n        /* \"#utility.yul\":7538:7657   */\n      iszero\n      tag_230\n      jumpi\n        /* \"#utility.yul\":7576:7655   */\n      tag_231\n      tag_87\n      jump\t// in\n    tag_231:\n        /* \"#utility.yul\":7538:7657   */\n    tag_230:\n        /* \"#utility.yul\":7696:7697   */\n      0x00\n        /* \"#utility.yul\":7721:7774   */\n      tag_232\n        /* \"#utility.yul\":7766:7773   */\n      dup6\n        /* \"#utility.yul\":7757:7763   */\n      dup3\n        /* \"#utility.yul\":7746:7755   */\n      dup7\n        /* \"#utility.yul\":7742:7764   */\n      add\n        /* \"#utility.yul\":7721:7774   */\n      tag_111\n      jump\t// in\n    tag_232:\n        /* \"#utility.yul\":7711:7774   */\n      swap3\n      pop\n        /* \"#utility.yul\":7667:7784   */\n      pop\n        /* \"#utility.yul\":7823:7825   */\n      0x20\n        /* \"#utility.yul\":7849:7902   */\n      tag_233\n        /* \"#utility.yul\":7894:7901   */\n      dup6\n        /* \"#utility.yul\":7885:7891   */\n      dup3\n        /* \"#utility.yul\":7874:7883   */\n      dup7\n        /* \"#utility.yul\":7870:7892   */\n      add\n        /* \"#utility.yul\":7849:7902   */\n      tag_101\n      jump\t// in\n    tag_233:\n        /* \"#utility.yul\":7839:7902   */\n      swap2\n      pop\n        /* \"#utility.yul\":7794:7912   */\n      pop\n        /* \"#utility.yul\":7445:7919   */\n      swap3\n      pop\n      swap3\n      swap1\n      pop\n      jump\t// out\n        /* \"#utility.yul\":7925:8544   */\n    tag_38:\n        /* \"#utility.yul\":8002:8008   */\n      0x00\n        /* \"#utility.yul\":8010:8016   */\n      dup1\n        /* \"#utility.yul\":8018:8024   */\n      0x00\n        /* \"#utility.yul\":8067:8069   */\n      0x60\n        /* \"#utility.yul\":8055:8064   */\n      dup5\n        /* \"#utility.yul\":8046:8053   */\n      dup7\n        /* \"#utility.yul\":8042:8065   */\n      sub\n        /* \"#utility.yul\":8038:8070   */\n      slt\n        /* \"#utility.yul\":8035:8154   */\n      iszero\n      tag_235\n      jumpi\n        /* \"#utility.yul\":8073:8152   */\n      tag_236\n      tag_87\n      jump\t// in\n    tag_236:\n        /* \"#utility.yul\":8035:8154   */\n    tag_235:\n        /* \"#utility.yul\":8193:8194   */\n      0x00\n        /* \"#utility.yul\":8218:8271   */\n      tag_237\n        /* \"#utility.yul\":8263:8270   */\n      dup7\n        /* \"#utility.yul\":8254:8260   */\n      dup3\n        /* \"#utility.yul\":8243:8252   */\n      dup8\n        /* \"#utility.yul\":8239:8261   */\n      add\n        /* \"#utility.yul\":8218:8271   */\n      tag_101\n      jump\t// in\n    tag_237:\n        /* \"#utility.yul\":8208:8271   */\n      swap4\n      pop\n        /* \"#utility.yul\":8164:8281   */\n      pop\n        /* \"#utility.yul\":8320:8322   */\n      0x20\n        /* \"#utility.yul\":8346:8399   */\n      tag_238\n        /* \"#utility.yul\":8391:8398   */\n      dup7\n        /* \"#utility.yul\":8382:8388   */\n      dup3\n        /* \"#utility.yul\":8371:8380   */\n      dup8\n        /* \"#utility.yul\":8367:8389   */\n      add\n        /* \"#utility.yul\":8346:8399   */\n      tag_101\n      jump\t// in\n    tag_238:\n        /* \"#utility.yul\":8336:8399   */\n      swap3\n      pop\n        /* \"#utility.yul\":8291:8409   */\n      pop\n        /* \"#utility.yul\":8448:8450   */\n      0x40\n        /* \"#utility.yul\":8474:8527   */\n      tag_239\n        /* \"#utility.yul\":8519:8526   */\n      dup7\n        /* \"#utility.yul\":8510:8516   */\n      dup3\n        /* \"#utility.yul\":8499:8508   */\n      dup8\n        /* \"#utility.yul\":8495:8517   */\n      add\n        /* \"#utility.yul\":8474:8527   */\n      tag_111\n      jump\t// in\n    tag_239:\n        /* \"#utility.yul\":8464:8527   */\n      swap2\n      pop\n        /* \"#utility.yul\":8419:8537   */\n      pop\n        /* \"#utility.yul\":7925:8544   */\n      swap3\n      pop\n      swap3\n      pop\n      swap3\n      jump\t// out\n        /* \"#utility.yul\":8550:8775   */\n    tag_112:\n        /* \"#utility.yul\":8690:8724   */\n      0x596f752063616e206f7267616e697a65206576656e7420666f72206675747572\n        /* \"#utility.yul\":8686:8687   */\n      0x00\n        /* \"#utility.yul\":8678:8684   */\n      dup3\n        /* \"#utility.yul\":8674:8688   */\n      add\n        /* \"#utility.yul\":8667:8725   */\n      mstore\n        /* \"#utility.yul\":8759:8767   */\n      0x6520646174650000000000000000000000000000000000000000000000000000\n        /* \"#utility.yul\":8754:8756   */\n      0x20\n        /* \"#utility.yul\":8746:8752   */\n      dup3\n        /* \"#utility.yul\":8742:8757   */\n      add\n        /* \"#utility.yul\":8735:8768   */\n      mstore\n        /* \"#utility.yul\":8550:8775   */\n      pop\n      jump\t// out\n        /* \"#utility.yul\":8781:9147   */\n    tag_113:\n        /* \"#utility.yul\":8923:8926   */\n      0x00\n        /* \"#utility.yul\":8944:9011   */\n      tag_242\n        /* \"#utility.yul\":9008:9010   */\n      0x26\n        /* \"#utility.yul\":9003:9006   */\n      dup4\n        /* \"#utility.yul\":8944:9011   */\n      tag_106\n      jump\t// in\n    tag_242:\n        /* \"#utility.yul\":8937:9011   */\n      swap2\n      pop\n        /* \"#utility.yul\":9020:9113   */\n      tag_243\n        /* \"#utility.yul\":9109:9112   */\n      dup3\n        /* \"#utility.yul\":9020:9113   */\n      tag_112\n      jump\t// in\n    tag_243:\n        /* \"#utility.yul\":9138:9140   */\n      0x40\n        /* \"#utility.yul\":9133:9136   */\n      dup3\n        /* \"#utility.yul\":9129:9141   */\n      add\n        /* \"#utility.yul\":9122:9141   */\n      swap1\n      pop\n        /* \"#utility.yul\":8781:9147   */\n      swap2\n      swap1\n      pop\n      jump\t// out\n        /* \"#utility.yul\":9153:9572   */\n    tag_43:\n        /* \"#utility.yul\":9319:9323   */\n      0x00\n        /* \"#utility.yul\":9357:9359   */\n      0x20\n        /* \"#utility.yul\":9346:9355   */\n      dup3\n        /* \"#utility.yul\":9342:9360   */\n      add\n        /* \"#utility.yul\":9334:9360   */\n      swap1\n      pop\n        /* \"#utility.yul\":9406:9415   */\n      dup2\n        /* \"#utility.yul\":9400:9404   */\n      dup2\n        /* \"#utility.yul\":9396:9416   */\n      sub\n        /* \"#utility.yul\":9392:9393   */\n      0x00\n        /* \"#utility.yul\":9381:9390   */\n      dup4\n        /* \"#utility.yul\":9377:9394   */\n      add\n        /* \"#utility.yul\":9370:9417   */\n      mstore\n        /* \"#utility.yul\":9434:9565   */\n      tag_245\n        /* \"#utility.yul\":9560:9564   */\n      dup2\n        /* \"#utility.yul\":9434:9565   */\n      tag_113\n      jump\t// in\n    tag_245:\n        /* \"#utility.yul\":9426:9565   */\n      swap1\n      pop\n        /* \"#utility.yul\":9153:9572   */\n      swap2\n      swap1\n      pop\n      jump\t// out\n        /* \"#utility.yul\":9578:9826   */\n    tag_114:\n        /* \"#utility.yul\":9718:9752   */\n      0x594f752063616e206f7267616e697a65206563656e74206f6e6c792069662079\n        /* \"#utility.yul\":9714:9715   */\n      0x00\n        /* \"#utility.yul\":9706:9712   */\n      dup3\n        /* \"#utility.yul\":9702:9716   */\n      add\n        /* \"#utility.yul\":9695:9753   */\n      mstore\n        /* \"#utility.yul\":9787:9818   */\n      0x6f7520637265617465206d6f7265207468616e2030207469636b657473000000\n        /* \"#utility.yul\":9782:9784   */\n      0x20\n        /* \"#utility.yul\":9774:9780   */\n      dup3\n        /* \"#utility.yul\":9770:9785   */\n      add\n        /* \"#utility.yul\":9763:9819   */\n      mstore\n        /* \"#utility.yul\":9578:9826   */\n      pop\n      jump\t// out\n        /* \"#utility.yul\":9832:10198   */\n    tag_115:\n        /* \"#utility.yul\":9974:9977   */\n      0x00\n        /* \"#utility.yul\":9995:10062   */\n      tag_248\n        /* \"#utility.yul\":10059:10061   */\n      0x3d\n        /* \"#utility.yul\":10054:10057   */\n      dup4\n        /* \"#utility.yul\":9995:10062   */\n      tag_106\n      jump\t// in\n    tag_248:\n        /* \"#utility.yul\":9988:10062   */\n      swap2\n      pop\n        /* \"#utility.yul\":10071:10164   */\n      tag_249\n        /* \"#utility.yul\":10160:10163   */\n      dup3\n        /* \"#utility.yul\":10071:10164   */\n      tag_114\n      jump\t// in\n    tag_249:\n        /* \"#utility.yul\":10189:10191   */\n      0x40\n        /* \"#utility.yul\":10184:10187   */\n      dup3\n        /* \"#utility.yul\":10180:10192   */\n      add\n        /* \"#utility.yul\":10173:10192   */\n      swap1\n      pop\n        /* \"#utility.yul\":9832:10198   */\n      swap2\n      swap1\n      pop\n      jump\t// out\n        /* \"#utility.yul\":10204:10623   */\n    tag_46:\n        /* \"#utility.yul\":10370:10374   */\n      0x00\n        /* \"#utility.yul\":10408:10410   */\n      0x20\n        /* \"#utility.yul\":10397:10406   */\n      dup3\n        /* \"#utility.yul\":10393:10411   */\n      add\n        /* \"#utility.yul\":10385:10411   */\n      swap1\n      pop\n        /* \"#utility.yul\":10457:10466   */\n      dup2\n        /* \"#utility.yul\":10451:10455   */\n      dup2\n        /* \"#utility.yul\":10447:10467   */\n      sub\n        /* \"#utility.yul\":10443:10444   */\n      0x00\n        /* \"#utility.yul\":10432:10441   */\n      dup4\n        /* \"#utility.yul\":10428:10445   */\n      add\n        /* \"#utility.yul\":10421:10468   */\n      mstore\n        /* \"#utility.yul\":10485:10616   */\n      tag_251\n        /* \"#utility.yul\":10611:10615   */\n      dup2\n        /* \"#utility.yul\":10485:10616   */\n      tag_115\n      jump\t// in\n    tag_251:\n        /* \"#utility.yul\":10477:10616   */\n      swap1\n      pop\n        /* \"#utility.yul\":10204:10623   */\n      swap2\n      swap1\n      pop\n      jump\t// out\n        /* \"#utility.yul\":10629:10809   */\n    tag_116:\n        /* \"#utility.yul\":10677:10754   */\n      0x4e487b7100000000000000000000000000000000000000000000000000000000\n        /* \"#utility.yul\":10674:10675   */\n      0x00\n        /* \"#utility.yul\":10667:10755   */\n      mstore\n        /* \"#utility.yul\":10774:10778   */\n      0x22\n        /* \"#utility.yul\":10771:10772   */\n      0x04\n        /* \"#utility.yul\":10764:10779   */\n      mstore\n        /* \"#utility.yul\":10798:10802   */\n      0x24\n        /* \"#utility.yul\":10795:10796   */\n      0x00\n        /* \"#utility.yul\":10788:10803   */\n      revert\n        /* \"#utility.yul\":10815:11135   */\n    tag_52:\n        /* \"#utility.yul\":10859:10865   */\n      0x00\n        /* \"#utility.yul\":10896:10897   */\n      0x02\n        /* \"#utility.yul\":10890:10894   */\n      dup3\n        /* \"#utility.yul\":10886:10898   */\n      div\n        /* \"#utility.yul\":10876:10898   */\n      swap1\n      pop\n        /* \"#utility.yul\":10943:10944   */\n      0x01\n        /* \"#utility.yul\":10937:10941   */\n      dup3\n        /* \"#utility.yul\":10933:10945   */\n      and\n        /* \"#utility.yul\":10964:10982   */\n      dup1\n        /* \"#utility.yul\":10954:11035   */\n      tag_254\n      jumpi\n        /* \"#utility.yul\":11020:11024   */\n      0x7f\n        /* \"#utility.yul\":11012:11018   */\n      dup3\n        /* \"#utility.yul\":11008:11025   */\n      and\n        /* \"#utility.yul\":10998:11025   */\n      swap2\n      pop\n        /* \"#utility.yul\":10954:11035   */\n    tag_254:\n        /* \"#utility.yul\":11082:11084   */\n      0x20\n        /* \"#utility.yul\":11074:11080   */\n      dup3\n        /* \"#utility.yul\":11071:11085   */\n      lt\n        /* \"#utility.yul\":11051:11069   */\n      dup2\n        /* \"#utility.yul\":11048:11086   */\n      sub\n        /* \"#utility.yul\":11045:11129   */\n      tag_255\n      jumpi\n        /* \"#utility.yul\":11101:11119   */\n      tag_256\n      tag_116\n      jump\t// in\n    tag_256:\n        /* \"#utility.yul\":11045:11129   */\n    tag_255:\n        /* \"#utility.yul\":10866:11135   */\n      pop\n        /* \"#utility.yul\":10815:11135   */\n      swap2\n      swap1\n      pop\n      jump\t// out\n        /* \"#utility.yul\":11141:11282   */\n    tag_117:\n        /* \"#utility.yul\":11190:11194   */\n      0x00\n        /* \"#utility.yul\":11213:11216   */\n      dup2\n        /* \"#utility.yul\":11205:11216   */\n      swap1\n      pop\n        /* \"#utility.yul\":11236:11239   */\n      dup2\n        /* \"#utility.yul\":11233:11234   */\n      0x00\n        /* \"#utility.yul\":11226:11240   */\n      mstore\n        /* \"#utility.yul\":11270:11274   */\n      0x20\n        /* \"#utility.yul\":11267:11268   */\n      0x00\n        /* \"#utility.yul\":11257:11275   */\n      keccak256\n        /* \"#utility.yul\":11249:11275   */\n      swap1\n      pop\n        /* \"#utility.yul\":11141:11282   */\n      swap2\n      swap1\n      pop\n      jump\t// out\n        /* \"#utility.yul\":11288:11381   */\n    tag_118:\n        /* \"#utility.yul\":11325:11331   */\n      0x00\n        /* \"#utility.yul\":11372:11374   */\n      0x20\n        /* \"#utility.yul\":11367:11369   */\n      0x1f\n        /* \"#utility.yul\":11360:11365   */\n      dup4\n        /* \"#utility.yul\":11356:11370   */\n      add\n        /* \"#utility.yul\":11352:11375   */\n      div\n        /* \"#utility.yul\":11342:11375   */\n      swap1\n      pop\n        /* \"#utility.yul\":11288:11381   */\n      swap2\n      swap1\n      pop\n      jump\t// out\n        /* \"#utility.yul\":11387:11494   */\n    tag_119:\n        /* \"#utility.yul\":11431:11439   */\n      0x00\n        /* \"#utility.yul\":11481:11486   */\n      dup3\n        /* \"#utility.yul\":11475:11479   */\n      dup3\n        /* \"#utility.yul\":11471:11487   */\n      shl\n        /* \"#utility.yul\":11450:11487   */\n      swap1\n      pop\n        /* \"#utility.yul\":11387:11494   */\n      swap3\n      swap2\n      pop\n      pop\n      jump\t// out\n        /* \"#utility.yul\":11500:11893   */\n    tag_120:\n        /* \"#utility.yul\":11569:11575   */\n      0x00\n        /* \"#utility.yul\":11619:11620   */\n      0x08\n        /* \"#utility.yul\":11607:11617   */\n      dup4\n        /* \"#utility.yul\":11603:11621   */\n      mul\n        /* \"#utility.yul\":11642:11739   */\n      tag_261\n        /* \"#utility.yul\":11672:11738   */\n      0xffffffffffffffffffffffffffffffffffffffffffffffffffffffffffffffff\n        /* \"#utility.yul\":11661:11670   */\n      dup3\n        /* \"#utility.yul\":11642:11739   */\n      tag_119\n      jump\t// in\n    tag_261:\n        /* \"#utility.yul\":11760:11799   */\n      tag_262\n        /* \"#utility.yul\":11790:11798   */\n      dup7\n        /* \"#utility.yul\":11779:11788   */\n      dup4\n        /* \"#utility.yul\":11760:11799   */\n      tag_119\n      jump\t// in\n    tag_262:\n        /* \"#utility.yul\":11748:11799   */\n      swap6\n      pop\n        /* \"#utility.yul\":11832:11836   */\n      dup1\n        /* \"#utility.yul\":11828:11837   */\n      not\n        /* \"#utility.yul\":11821:11826   */\n      dup5\n        /* \"#utility.yul\":11817:11838   */\n      and\n        /* \"#utility.yul\":11808:11838   */\n      swap4\n      pop\n        /* \"#utility.yul\":11881:11885   */\n      dup1\n        /* \"#utility.yul\":11871:11879   */\n      dup7\n        /* \"#utility.yul\":11867:11886   */\n      and\n        /* \"#utility.yul\":11860:11865   */\n      dup5\n        /* \"#utility.yul\":11857:11887   */\n      or\n        /* \"#utility.yul\":11847:11887   */\n      swap3\n      pop\n        /* \"#utility.yul\":11576:11893   */\n      pop\n      pop\n        /* \"#utility.yul\":11500:11893   */\n      swap4\n      swap3\n      pop\n      pop\n      pop\n      jump\t// out\n        /* \"#utility.yul\":11899:11959   */\n    tag_121:\n        /* \"#utility.yul\":11927:11930   */\n      0x00\n        /* \"#utility.yul\":11948:11953   */\n      dup2\n        /* \"#utility.yul\":11941:11953   */\n      swap1\n      pop\n        /* \"#utility.yul\":11899:11959   */\n      swap2\n      swap1\n      pop\n      jump\t// out\n        /* \"#utility.yul\":11965:12107   */\n    tag_122:\n        /* \"#utility.yul\":12015:12024   */\n      0x00\n        /* \"#utility.yul\":12048:12101   */\n      tag_265\n        /* \"#utility.yul\":12066:12100   */\n      tag_266\n        /* \"#utility.yul\":12075:12099   */\n      tag_267\n        /* \"#utility.yul\":12093:12098   */\n      dup5\n        /* \"#utility.yul\":12075:12099   */\n      tag_99\n      jump\t// in\n    tag_267:\n        /* \"#utility.yul\":12066:12100   */\n      tag_121\n      jump\t// in\n    tag_266:\n        /* \"#utility.yul\":12048:12101   */\n      tag_99\n      jump\t// in\n    tag_265:\n        /* \"#utility.yul\":12035:12101   */\n      swap1\n      pop\n        /* \"#utility.yul\":11965:12107   */\n      swap2\n      swap1\n      pop\n      jump\t// out\n        /* \"#utility.yul\":12113:12188   */\n    tag_123:\n        /* \"#utility.yul\":12156:12159   */\n      0x00\n        /* \"#utility.yul\":12177:12182   */\n      dup2\n        /* \"#utility.yul\":12170:12182   */\n      swap1\n      pop\n        /* \"#utility.yul\":12113:12188   */\n      swap2\n      swap1\n      pop\n      jump\t// out\n        /* \"#utility.yul\":12194:12463   */\n    tag_124:\n        /* \"#utility.yul\":12304:12343   */\n      tag_270\n        /* \"#utility.yul\":12335:12342   */\n      dup4\n        /* \"#utility.yul\":12304:12343   */\n      tag_122\n      jump\t// in\n    tag_270:\n        /* \"#utility.yul\":12365:12456   */\n      tag_271\n        /* \"#utility.yul\":12414:12455   */\n      tag_272\n        /* \"#utility.yul\":12438:12454   */\n      dup3\n        /* \"#utility.yul\":12414:12455   */\n      tag_123\n      jump\t// in\n    tag_272:\n        /* \"#utility.yul\":12406:12412   */\n      dup5\n        /* \"#utility.yul\":12399:12403   */\n      dup5\n        /* \"#utility.yul\":12393:12404   */\n      sload\n        /* \"#utility.yul\":12365:12456   */\n      tag_120\n      jump\t// in\n    tag_271:\n        /* \"#utility.yul\":12359:12363   */\n      dup3\n        /* \"#utility.yul\":12352:12457   */\n      sstore\n        /* \"#utility.yul\":12270:12463   */\n      pop\n        /* \"#utility.yul\":12194:12463   */\n      pop\n      pop\n      pop\n      jump\t// out\n        /* \"#utility.yul\":12469:12542   */\n    tag_125:\n        /* \"#utility.yul\":12514:12517   */\n      0x00\n        /* \"#utility.yul\":12469:12542   */\n      swap1\n      jump\t// out\n        /* \"#utility.yul\":12548:12737   */\n    tag_126:\n        /* \"#utility.yul\":12625:12657   */\n      tag_275\n      tag_125\n      jump\t// in\n    tag_275:\n        /* \"#utility.yul\":12666:12731   */\n      tag_276\n        /* \"#utility.yul\":12724:12730   */\n      dup2\n        /* \"#utility.yul\":12716:12722   */\n      dup5\n        /* \"#utility.yul\":12710:12714   */\n      dup5\n        /* \"#utility.yul\":12666:12731   */\n      tag_124\n      jump\t// in\n    tag_276:\n        /* \"#utility.yul\":12601:12737   */\n      pop\n        /* \"#utility.yul\":12548:12737   */\n      pop\n      pop\n      jump\t// out\n        /* \"#utility.yul\":12743:12929   */\n    tag_127:\n        /* \"#utility.yul\":12803:12923   */\n    tag_278:\n        /* \"#utility.yul\":12820:12823   */\n      dup2\n        /* \"#utility.yul\":12813:12818   */\n      dup2\n        /* \"#utility.yul\":12810:12824   */\n      lt\n        /* \"#utility.yul\":12803:12923   */\n      iszero\n      tag_280\n      jumpi\n        /* \"#utility.yul\":12874:12913   */\n      tag_281\n        /* \"#utility.yul\":12911:12912   */\n      0x00\n        /* \"#utility.yul\":12904:12909   */\n      dup3\n        /* \"#utility.yul\":12874:12913   */\n      tag_126\n      jump\t// in\n    tag_281:\n        /* \"#utility.yul\":12847:12848   */\n      0x01\n        /* \"#utility.yul\":12840:12845   */\n      dup2\n        /* \"#utility.yul\":12836:12849   */\n      add\n        /* \"#utility.yul\":12827:12849   */\n      swap1\n      pop\n        /* \"#utility.yul\":12803:12923   */\n      jump(tag_278)\n    tag_280:\n        /* \"#utility.yul\":12743:12929   */\n      pop\n      pop\n      jump\t// out\n        /* \"#utility.yul\":12935:13478   */\n    tag_128:\n        /* \"#utility.yul\":13036:13038   */\n      0x1f\n        /* \"#utility.yul\":13031:13034   */\n      dup3\n        /* \"#utility.yul\":13028:13039   */\n      gt\n        /* \"#utility.yul\":13025:13471   */\n      iszero\n      tag_283\n      jumpi\n        /* \"#utility.yul\":13070:13108   */\n      tag_284\n        /* \"#utility.yul\":13102:13107   */\n      dup2\n        /* \"#utility.yul\":13070:13108   */\n      tag_117\n      jump\t// in\n    tag_284:\n        /* \"#utility.yul\":13154:13183   */\n      tag_285\n        /* \"#utility.yul\":13172:13182   */\n      dup5\n        /* \"#utility.yul\":13154:13183   */\n      tag_118\n      jump\t// in\n    tag_285:\n        /* \"#utility.yul\":13144:13152   */\n      dup2\n        /* \"#utility.yul\":13140:13184   */\n      add\n        /* \"#utility.yul\":13337:13339   */\n      0x20\n        /* \"#utility.yul\":13325:13335   */\n      dup6\n        /* \"#utility.yul\":13322:13340   */\n      lt\n        /* \"#utility.yul\":13319:13368   */\n      iszero\n      tag_286\n      jumpi\n        /* \"#utility.yul\":13358:13366   */\n      dup2\n        /* \"#utility.yul\":13343:13366   */\n      swap1\n      pop\n        /* \"#utility.yul\":13319:13368   */\n    tag_286:\n        /* \"#utility.yul\":13381:13461   */\n      tag_287\n        /* \"#utility.yul\":13437:13459   */\n      tag_288\n        /* \"#utility.yul\":13455:13458   */\n      dup6\n        /* \"#utility.yul\":13437:13459   */\n      tag_118\n      jump\t// in\n    tag_288:\n        /* \"#utility.yul\":13427:13435   */\n      dup4\n        /* \"#utility.yul\":13423:13460   */\n      add\n        /* \"#utility.yul\":13410:13421   */\n      dup3\n        /* \"#utility.yul\":13381:13461   */\n      tag_127\n      jump\t// in\n    tag_287:\n        /* \"#utility.yul\":13040:13471   */\n      pop\n      pop\n        /* \"#utility.yul\":13025:13471   */\n    tag_283:\n        /* \"#utility.yul\":12935:13478   */\n      pop\n      pop\n      pop\n      jump\t// out\n        /* \"#utility.yul\":13484:13601   */\n    tag_129:\n        /* \"#utility.yul\":13538:13546   */\n      0x00\n        /* \"#utility.yul\":13588:13593   */\n      dup3\n        /* \"#utility.yul\":13582:13586   */\n      dup3\n        /* \"#utility.yul\":13578:13594   */\n      shr\n        /* \"#utility.yul\":13557:13594   */\n      swap1\n      pop\n        /* \"#utility.yul\":13484:13601   */\n      swap3\n      swap2\n      pop\n      pop\n      jump\t// out\n        /* \"#utility.yul\":13607:13776   */\n    tag_130:\n        /* \"#utility.yul\":13651:13657   */\n      0x00\n        /* \"#utility.yul\":13684:13735   */\n      tag_291\n        /* \"#utility.yul\":13732:13733   */\n      0x00\n        /* \"#utility.yul\":13728:13734   */\n      not\n        /* \"#utility.yul\":13720:13725   */\n      dup5\n        /* \"#utility.yul\":13717:13718   */\n      0x08\n        /* \"#utility.yul\":13713:13726   */\n      mul\n        /* \"#utility.yul\":13684:13735   */\n      tag_129\n      jump\t// in\n    tag_291:\n        /* \"#utility.yul\":13680:13736   */\n      not\n        /* \"#utility.yul\":13765:13769   */\n      dup1\n        /* \"#utility.yul\":13759:13763   */\n      dup4\n        /* \"#utility.yul\":13755:13770   */\n      and\n        /* \"#utility.yul\":13745:13770   */\n      swap2\n      pop\n        /* \"#utility.yul\":13658:13776   */\n      pop\n        /* \"#utility.yul\":13607:13776   */\n      swap3\n      swap2\n      pop\n      pop\n      jump\t// out\n        /* \"#utility.yul\":13781:14076   */\n    tag_131:\n        /* \"#utility.yul\":13857:13861   */\n      0x00\n        /* \"#utility.yul\":14003:14032   */\n      tag_293\n        /* \"#utility.yul\":14028:14031   */\n      dup4\n        /* \"#utility.yul\":14022:14026   */\n      dup4\n        /* \"#utility.yul\":14003:14032   */\n      tag_130\n      jump\t// in\n    tag_293:\n        /* \"#utility.yul\":13995:14032   */\n      swap2\n      pop\n        /* \"#utility.yul\":14065:14068   */\n      dup3\n        /* \"#utility.yul\":14062:14063   */\n      0x02\n        /* \"#utility.yul\":14058:14069   */\n      mul\n        /* \"#utility.yul\":14052:14056   */\n      dup3\n        /* \"#utility.yul\":14049:14070   */\n      or\n        /* \"#utility.yul\":14041:14070   */\n      swap1\n      pop\n        /* \"#utility.yul\":13781:14076   */\n      swap3\n      swap2\n      pop\n      pop\n      jump\t// out\n        /* \"#utility.yul\":14081:15476   */\n    tag_48:\n        /* \"#utility.yul\":14198:14235   */\n      tag_295\n        /* \"#utility.yul\":14231:14234   */\n      dup3\n        /* \"#utility.yul\":14198:14235   */\n      tag_105\n      jump\t// in\n    tag_295:\n        /* \"#utility.yul\":14300:14318   */\n      0xffffffffffffffff\n        /* \"#utility.yul\":14292:14298   */\n      dup2\n        /* \"#utility.yul\":14289:14319   */\n      gt\n        /* \"#utility.yul\":14286:14342   */\n      iszero\n      tag_296\n      jumpi\n        /* \"#utility.yul\":14322:14340   */\n      tag_297\n      tag_92\n      jump\t// in\n    tag_297:\n        /* \"#utility.yul\":14286:14342   */\n    tag_296:\n        /* \"#utility.yul\":14366:14404   */\n      tag_298\n        /* \"#utility.yul\":14398:14402   */\n      dup3\n        /* \"#utility.yul\":14392:14403   */\n      sload\n        /* \"#utility.yul\":14366:14404   */\n      tag_52\n      jump\t// in\n    tag_298:\n        /* \"#utility.yul\":14451:14518   */\n      tag_299\n        /* \"#utility.yul\":14511:14517   */\n      dup3\n        /* \"#utility.yul\":14503:14509   */\n      dup3\n        /* \"#utility.yul\":14497:14501   */\n      dup6\n        /* \"#utility.yul\":14451:14518   */\n      tag_128\n      jump\t// in\n    tag_299:\n        /* \"#utility.yul\":14545:14546   */\n      0x00\n        /* \"#utility.yul\":14569:14573   */\n      0x20\n        /* \"#utility.yul\":14556:14573   */\n      swap1\n      pop\n        /* \"#utility.yul\":14601:14603   */\n      0x1f\n        /* \"#utility.yul\":14593:14599   */\n      dup4\n        /* \"#utility.yul\":14590:14604   */\n      gt\n        /* \"#utility.yul\":14618:14619   */\n      0x01\n        /* \"#utility.yul\":14613:15231   */\n      dup2\n      eq\n      tag_301\n      jumpi\n        /* \"#utility.yul\":15275:15276   */\n      0x00\n        /* \"#utility.yul\":15292:15298   */\n      dup5\n        /* \"#utility.yul\":15289:15366   */\n      iszero\n      tag_302\n      jumpi\n        /* \"#utility.yul\":15341:15350   */\n      dup3\n        /* \"#utility.yul\":15336:15339   */\n      dup8\n        /* \"#utility.yul\":15332:15351   */\n      add\n        /* \"#utility.yul\":15326:15352   */\n      mload\n        /* \"#utility.yul\":15317:15352   */\n      swap1\n      pop\n        /* \"#utility.yul\":15289:15366   */\n    tag_302:\n        /* \"#utility.yul\":15392:15459   */\n      tag_303\n        /* \"#utility.yul\":15452:15458   */\n      dup6\n        /* \"#utility.yul\":15445:15450   */\n      dup3\n        /* \"#utility.yul\":15392:15459   */\n      tag_131\n      jump\t// in\n    tag_303:\n        /* \"#utility.yul\":15386:15390   */\n      dup7\n        /* \"#utility.yul\":15379:15460   */\n      sstore\n        /* \"#utility.yul\":15248:15470   */\n      pop\n        /* \"#utility.yul\":14583:15470   */\n      jump(tag_300)\n        /* \"#utility.yul\":14613:15231   */\n    tag_301:\n        /* \"#utility.yul\":14665:14669   */\n      0x1f\n        /* \"#utility.yul\":14661:14670   */\n      not\n        /* \"#utility.yul\":14653:14659   */\n      dup5\n        /* \"#utility.yul\":14649:14671   */\n      and\n        /* \"#utility.yul\":14699:14736   */\n      tag_304\n        /* \"#utility.yul\":14731:14735   */\n      dup7\n        /* \"#utility.yul\":14699:14736   */\n      tag_117\n      jump\t// in\n    tag_304:\n        /* \"#utility.yul\":14758:14759   */\n      0x00\n        /* \"#utility.yul\":14772:14980   */\n    tag_305:\n        /* \"#utility.yul\":14786:14793   */\n      dup3\n        /* \"#utility.yul\":14783:14784   */\n      dup2\n        /* \"#utility.yul\":14780:14794   */\n      lt\n        /* \"#utility.yul\":14772:14980   */\n      iszero\n      tag_307\n      jumpi\n        /* \"#utility.yul\":14865:14874   */\n      dup5\n        /* \"#utility.yul\":14860:14863   */\n      dup10\n        /* \"#utility.yul\":14856:14875   */\n      add\n        /* \"#utility.yul\":14850:14876   */\n      mload\n        /* \"#utility.yul\":14842:14848   */\n      dup3\n        /* \"#utility.yul\":14835:14877   */\n      sstore\n        /* \"#utility.yul\":14916:14917   */\n      0x01\n        /* \"#utility.yul\":14908:14914   */\n      dup3\n        /* \"#utility.yul\":14904:14918   */\n      add\n        /* \"#utility.yul\":14894:14918   */\n      swap2\n      pop\n        /* \"#utility.yul\":14963:14965   */\n      0x20\n        /* \"#utility.yul\":14952:14961   */\n      dup6\n        /* \"#utility.yul\":14948:14966   */\n      add\n        /* \"#utility.yul\":14935:14966   */\n      swap5\n      pop\n        /* \"#utility.yul\":14809:14813   */\n      0x20\n        /* \"#utility.yul\":14806:14807   */\n      dup2\n        /* \"#utility.yul\":14802:14814   */\n      add\n        /* \"#utility.yul\":14797:14814   */\n      swap1\n      pop\n        /* \"#utility.yul\":14772:14980   */\n      jump(tag_305)\n    tag_307:\n        /* \"#utility.yul\":15008:15014   */\n      dup7\n        /* \"#utility.yul\":14999:15006   */\n      dup4\n        /* \"#utility.yul\":14996:15015   */\n      lt\n        /* \"#utility.yul\":14993:15172   */\n      iszero\n      tag_308\n      jumpi\n        /* \"#utility.yul\":15066:15075   */\n      dup5\n        /* \"#utility.yul\":15061:15064   */\n      dup10\n        /* \"#utility.yul\":15057:15076   */\n      add\n        /* \"#utility.yul\":15051:15077   */\n      mload\n        /* \"#utility.yul\":15109:15157   */\n      tag_309\n        /* \"#utility.yul\":15151:15155   */\n      0x1f\n        /* \"#utility.yul\":15143:15149   */\n      dup10\n        /* \"#utility.yul\":15139:15156   */\n      and\n        /* \"#utility.yul\":15128:15137   */\n      dup3\n        /* \"#utility.yul\":15109:15157   */\n      tag_130\n      jump\t// in\n    tag_309:\n        /* \"#utility.yul\":15101:15107   */\n      dup4\n        /* \"#utility.yul\":15094:15158   */\n      sstore\n        /* \"#utility.yul\":15016:15172   */\n      pop\n        /* \"#utility.yul\":14993:15172   */\n    tag_308:\n        /* \"#utility.yul\":15218:15219   */\n      0x01\n        /* \"#utility.yul\":15214:15215   */\n      0x02\n        /* \"#utility.yul\":15206:15212   */\n      dup9\n        /* \"#utility.yul\":15202:15216   */\n      mul\n        /* \"#utility.yul\":15198:15220   */\n      add\n        /* \"#utility.yul\":15192:15196   */\n      dup9\n        /* \"#utility.yul\":15185:15221   */\n      sstore\n        /* \"#utility.yul\":14620:15231   */\n      pop\n      pop\n      pop\n        /* \"#utility.yul\":14583:15470   */\n    tag_300:\n      pop\n        /* \"#utility.yul\":14173:15476   */\n      pop\n      pop\n      pop\n        /* \"#utility.yul\":14081:15476   */\n      pop\n      pop\n      jump\t// out\n        /* \"#utility.yul\":15482:15662   */\n    tag_132:\n        /* \"#utility.yul\":15530:15607   */\n      0x4e487b7100000000000000000000000000000000000000000000000000000000\n        /* \"#utility.yul\":15527:15528   */\n      0x00\n        /* \"#utility.yul\":15520:15608   */\n      mstore\n        /* \"#utility.yul\":15627:15631   */\n      0x11\n        /* \"#utility.yul\":15624:15625   */\n      0x04\n        /* \"#utility.yul\":15617:15632   */\n      mstore\n        /* \"#utility.yul\":15651:15655   */\n      0x24\n        /* \"#utility.yul\":15648:15649   */\n      0x00\n        /* \"#utility.yul\":15641:15656   */\n      revert\n        /* \"#utility.yul\":15668:15901   */\n    tag_50:\n        /* \"#utility.yul\":15707:15710   */\n      0x00\n        /* \"#utility.yul\":15730:15754   */\n      tag_312\n        /* \"#utility.yul\":15748:15753   */\n      dup3\n        /* \"#utility.yul\":15730:15754   */\n      tag_99\n      jump\t// in\n    tag_312:\n        /* \"#utility.yul\":15721:15754   */\n      swap2\n      pop\n        /* \"#utility.yul\":15776:15842   */\n      0xffffffffffffffffffffffffffffffffffffffffffffffffffffffffffffffff\n        /* \"#utility.yul\":15769:15774   */\n      dup3\n        /* \"#utility.yul\":15766:15843   */\n      sub\n        /* \"#utility.yul\":15763:15866   */\n      tag_313\n      jumpi\n        /* \"#utility.yul\":15846:15864   */\n      tag_314\n      tag_132\n      jump\t// in\n    tag_314:\n        /* \"#utility.yul\":15763:15866   */\n    tag_313:\n        /* \"#utility.yul\":15893:15894   */\n      0x01\n        /* \"#utility.yul\":15886:15891   */\n      dup3\n        /* \"#utility.yul\":15882:15895   */\n      add\n        /* \"#utility.yul\":15875:15895   */\n      swap1\n      pop\n        /* \"#utility.yul\":15668:15901   */\n      swap2\n      swap1\n      pop\n      jump\t// out\n        /* \"#utility.yul\":15907:16082   */\n    tag_133:\n        /* \"#utility.yul\":16047:16074   */\n      0x54686973206576656e7420646f6573206e6f7420657869737400000000000000\n        /* \"#utility.yul\":16043:16044   */\n      0x00\n        /* \"#utility.yul\":16035:16041   */\n      dup3\n        /* \"#utility.yul\":16031:16045   */\n      add\n        /* \"#utility.yul\":16024:16075   */\n      mstore\n        /* \"#utility.yul\":15907:16082   */\n      pop\n      jump\t// out\n        /* \"#utility.yul\":16088:16454   */\n    tag_134:\n        /* \"#utility.yul\":16230:16233   */\n      0x00\n        /* \"#utility.yul\":16251:16318   */\n      tag_317\n        /* \"#utility.yul\":16315:16317   */\n      0x19\n        /* \"#utility.yul\":16310:16313   */\n      dup4\n        /* \"#utility.yul\":16251:16318   */\n      tag_106\n      jump\t// in\n    tag_317:\n        /* \"#utility.yul\":16244:16318   */\n      swap2\n      pop\n        /* \"#utility.yul\":16327:16420   */\n      tag_318\n        /* \"#utility.yul\":16416:16419   */\n      dup3\n        /* \"#utility.yul\":16327:16420   */\n      tag_133\n      jump\t// in\n    tag_318:\n        /* \"#utility.yul\":16445:16447   */\n      0x20\n        /* \"#utility.yul\":16440:16443   */\n      dup3\n        /* \"#utility.yul\":16436:16448   */\n      add\n        /* \"#utility.yul\":16429:16448   */\n      swap1\n      pop\n        /* \"#utility.yul\":16088:16454   */\n      swap2\n      swap1\n      pop\n      jump\t// out\n        /* \"#utility.yul\":16460:16879   */\n    tag_60:\n        /* \"#utility.yul\":16626:16630   */\n      0x00\n        /* \"#utility.yul\":16664:16666   */\n      0x20\n        /* \"#utility.yul\":16653:16662   */\n      dup3\n        /* \"#utility.yul\":16649:16667   */\n      add\n        /* \"#utility.yul\":16641:16667   */\n      swap1\n      pop\n        /* \"#utility.yul\":16713:16722   */\n      dup2\n        /* \"#utility.yul\":16707:16711   */\n      dup2\n        /* \"#utility.yul\":16703:16723   */\n      sub\n        /* \"#utility.yul\":16699:16700   */\n      0x00\n        /* \"#utility.yul\":16688:16697   */\n      dup4\n        /* \"#utility.yul\":16684:16701   */\n      add\n        /* \"#utility.yul\":16677:16724   */\n      mstore\n        /* \"#utility.yul\":16741:16872   */\n      tag_320\n        /* \"#utility.yul\":16867:16871   */\n      dup2\n        /* \"#utility.yul\":16741:16872   */\n      tag_134\n      jump\t// in\n    tag_320:\n        /* \"#utility.yul\":16733:16872   */\n      swap1\n      pop\n        /* \"#utility.yul\":16460:16879   */\n      swap2\n      swap1\n      pop\n      jump\t// out\n        /* \"#utility.yul\":16885:17065   */\n    tag_135:\n        /* \"#utility.yul\":17025:17057   */\n      0x54686973206576656e742068617320616c7265616479206f6363757265640000\n        /* \"#utility.yul\":17021:17022   */\n      0x00\n        /* \"#utility.yul\":17013:17019   */\n      dup3\n        /* \"#utility.yul\":17009:17023   */\n      add\n        /* \"#utility.yul\":17002:17058   */\n      mstore\n        /* \"#utility.yul\":16885:17065   */\n      pop\n      jump\t// out\n        /* \"#utility.yul\":17071:17437   */\n    tag_136:\n        /* \"#utility.yul\":17213:17216   */\n      0x00\n        /* \"#utility.yul\":17234:17301   */\n      tag_323\n        /* \"#utility.yul\":17298:17300   */\n      0x1e\n        /* \"#utility.yul\":17293:17296   */\n      dup4\n        /* \"#utility.yul\":17234:17301   */\n      tag_106\n      jump\t// in\n    tag_323:\n        /* \"#utility.yul\":17227:17301   */\n      swap2\n      pop\n        /* \"#utility.yul\":17310:17403   */\n      tag_324\n        /* \"#utility.yul\":17399:17402   */\n      dup3\n        /* \"#utility.yul\":17310:17403   */\n      tag_135\n      jump\t// in\n    tag_324:\n        /* \"#utility.yul\":17428:17430   */\n      0x20\n        /* \"#utility.yul\":17423:17426   */\n      dup3\n        /* \"#utility.yul\":17419:17431   */\n      add\n        /* \"#utility.yul\":17412:17431   */\n      swap1\n      pop\n        /* \"#utility.yul\":17071:17437   */\n      swap2\n      swap1\n      pop\n      jump\t// out\n        /* \"#utility.yul\":17443:17862   */\n    tag_63:\n        /* \"#utility.yul\":17609:17613   */\n      0x00\n        /* \"#utility.yul\":17647:17649   */\n      0x20\n        /* \"#utility.yul\":17636:17645   */\n      dup3\n        /* \"#utility.yul\":17632:17650   */\n      add\n        /* \"#utility.yul\":17624:17650   */\n      swap1\n      pop\n        /* \"#utility.yul\":17696:17705   */\n      dup2\n        /* \"#utility.yul\":17690:17694   */\n      dup2\n        /* \"#utility.yul\":17686:17706   */\n      sub\n        /* \"#utility.yul\":17682:17683   */\n      0x00\n        /* \"#utility.yul\":17671:17680   */\n      dup4\n        /* \"#utility.yul\":17667:17684   */\n      add\n        /* \"#utility.yul\":17660:17707   */\n      mstore\n        /* \"#utility.yul\":17724:17855   */\n      tag_326\n        /* \"#utility.yul\":17850:17854   */\n      dup2\n        /* \"#utility.yul\":17724:17855   */\n      tag_136\n      jump\t// in\n    tag_326:\n        /* \"#utility.yul\":17716:17855   */\n      swap1\n      pop\n        /* \"#utility.yul\":17443:17862   */\n      swap2\n      swap1\n      pop\n      jump\t// out\n        /* \"#utility.yul\":17868:18278   */\n    tag_65:\n        /* \"#utility.yul\":17908:17915   */\n      0x00\n        /* \"#utility.yul\":17931:17951   */\n      tag_328\n        /* \"#utility.yul\":17949:17950   */\n      dup3\n        /* \"#utility.yul\":17931:17951   */\n      tag_99\n      jump\t// in\n    tag_328:\n        /* \"#utility.yul\":17926:17951   */\n      swap2\n      pop\n        /* \"#utility.yul\":17965:17985   */\n      tag_329\n        /* \"#utility.yul\":17983:17984   */\n      dup4\n        /* \"#utility.yul\":17965:17985   */\n      tag_99\n      jump\t// in\n    tag_329:\n        /* \"#utility.yul\":17960:17985   */\n      swap3\n      pop\n        /* \"#utility.yul\":18020:18021   */\n      dup3\n        /* \"#utility.yul\":18017:18018   */\n      dup3\n        /* \"#utility.yul\":18013:18022   */\n      mul\n        /* \"#utility.yul\":18042:18072   */\n      tag_330\n        /* \"#utility.yul\":18060:18071   */\n      dup2\n        /* \"#utility.yul\":18042:18072   */\n      tag_99\n      jump\t// in\n    tag_330:\n        /* \"#utility.yul\":18031:18072   */\n      swap2\n      pop\n        /* \"#utility.yul\":18221:18222   */\n      dup3\n        /* \"#utility.yul\":18212:18219   */\n      dup3\n        /* \"#utility.yul\":18208:18223   */\n      div\n        /* \"#utility.yul\":18205:18206   */\n      dup5\n        /* \"#utility.yul\":18202:18224   */\n      eq\n        /* \"#utility.yul\":18182:18183   */\n      dup4\n        /* \"#utility.yul\":18175:18184   */\n      iszero\n        /* \"#utility.yul\":18155:18238   */\n      or\n        /* \"#utility.yul\":18132:18271   */\n      tag_331\n      jumpi\n        /* \"#utility.yul\":18251:18269   */\n      tag_332\n      tag_132\n      jump\t// in\n    tag_332:\n        /* \"#utility.yul\":18132:18271   */\n    tag_331:\n        /* \"#utility.yul\":17916:18278   */\n      pop\n        /* \"#utility.yul\":17868:18278   */\n      swap3\n      swap2\n      pop\n      pop\n      jump\t// out\n        /* \"#utility.yul\":18284:18453   */\n    tag_137:\n        /* \"#utility.yul\":18424:18445   */\n      0x4574686572206973206e6f7420656e6f75676800000000000000000000000000\n        /* \"#utility.yul\":18420:18421   */\n      0x00\n        /* \"#utility.yul\":18412:18418   */\n      dup3\n        /* \"#utility.yul\":18408:18422   */\n      add\n        /* \"#utility.yul\":18401:18446   */\n      mstore\n        /* \"#utility.yul\":18284:18453   */\n      pop\n      jump\t// out\n        /* \"#utility.yul\":18459:18825   */\n    tag_138:\n        /* \"#utility.yul\":18601:18604   */\n      0x00\n        /* \"#utility.yul\":18622:18689   */\n      tag_335\n        /* \"#utility.yul\":18686:18688   */\n      0x13\n        /* \"#utility.yul\":18681:18684   */\n      dup4\n        /* \"#utility.yul\":18622:18689   */\n      tag_106\n      jump\t// in\n    tag_335:\n        /* \"#utility.yul\":18615:18689   */\n      swap2\n      pop\n        /* \"#utility.yul\":18698:18791   */\n      tag_336\n        /* \"#utility.yul\":18787:18790   */\n      dup3\n        /* \"#utility.yul\":18698:18791   */\n      tag_137\n      jump\t// in\n    tag_336:\n        /* \"#utility.yul\":18816:18818   */\n      0x20\n        /* \"#utility.yul\":18811:18814   */\n      dup3\n        /* \"#utility.yul\":18807:18819   */\n      add\n        /* \"#utility.yul\":18800:18819   */\n      swap1\n      pop\n        /* \"#utility.yul\":18459:18825   */\n      swap2\n      swap1\n      pop\n      jump\t// out\n        /* \"#utility.yul\":18831:19250   */\n    tag_68:\n        /* \"#utility.yul\":18997:19001   */\n      0x00\n        /* \"#utility.yul\":19035:19037   */\n      0x20\n        /* \"#utility.yul\":19024:19033   */\n      dup3\n        /* \"#utility.yul\":19020:19038   */\n      add\n        /* \"#utility.yul\":19012:19038   */\n      swap1\n      pop\n        /* \"#utility.yul\":19084:19093   */\n      dup2\n        /* \"#utility.yul\":19078:19082   */\n      dup2\n        /* \"#utility.yul\":19074:19094   */\n      sub\n        /* \"#utility.yul\":19070:19071   */\n      0x00\n        /* \"#utility.yul\":19059:19068   */\n      dup4\n        /* \"#utility.yul\":19055:19072   */\n      add\n        /* \"#utility.yul\":19048:19095   */\n      mstore\n        /* \"#utility.yul\":19112:19243   */\n      tag_338\n        /* \"#utility.yul\":19238:19242   */\n      dup2\n        /* \"#utility.yul\":19112:19243   */\n      tag_138\n      jump\t// in\n    tag_338:\n        /* \"#utility.yul\":19104:19243   */\n      swap1\n      pop\n        /* \"#utility.yul\":18831:19250   */\n      swap2\n      swap1\n      pop\n      jump\t// out\n        /* \"#utility.yul\":19256:19424   */\n    tag_139:\n        /* \"#utility.yul\":19396:19416   */\n      0x4e6f7420656e6f756768207469636b6574730000000000000000000000000000\n        /* \"#utility.yul\":19392:19393   */\n      0x00\n        /* \"#utility.yul\":19384:19390   */\n      dup3\n        /* \"#utility.yul\":19380:19394   */\n      add\n        /* \"#utility.yul\":19373:19417   */\n      mstore\n        /* \"#utility.yul\":19256:19424   */\n      pop\n      jump\t// out\n        /* \"#utility.yul\":19430:19796   */\n    tag_140:\n        /* \"#utility.yul\":19572:19575   */\n      0x00\n        /* \"#utility.yul\":19593:19660   */\n      tag_341\n        /* \"#utility.yul\":19657:19659   */\n      0x12\n        /* \"#utility.yul\":19652:19655   */\n      dup4\n        /* \"#utility.yul\":19593:19660   */\n      tag_106\n      jump\t// in\n    tag_341:\n        /* \"#utility.yul\":19586:19660   */\n      swap2\n      pop\n        /* \"#utility.yul\":19669:19762   */\n      tag_342\n        /* \"#utility.yul\":19758:19761   */\n      dup3\n        /* \"#utility.yul\":19669:19762   */\n      tag_139\n      jump\t// in\n    tag_342:\n        /* \"#utility.yul\":19787:19789   */\n      0x20\n        /* \"#utility.yul\":19782:19785   */\n      dup3\n        /* \"#utility.yul\":19778:19790   */\n      add\n        /* \"#utility.yul\":19771:19790   */\n      swap1\n      pop\n        /* \"#utility.yul\":19430:19796   */\n      swap2\n      swap1\n      pop\n      jump\t// out\n        /* \"#utility.yul\":19802:20221   */\n    tag_71:\n        /* \"#utility.yul\":19968:19972   */\n      0x00\n        /* \"#utility.yul\":20006:20008   */\n      0x20\n        /* \"#utility.yul\":19995:20004   */\n      dup3\n        /* \"#utility.yul\":19991:20009   */\n      add\n        /* \"#utility.yul\":19983:20009   */\n      swap1\n      pop\n        /* \"#utility.yul\":20055:20064   */\n      dup2\n        /* \"#utility.yul\":20049:20053   */\n      dup2\n        /* \"#utility.yul\":20045:20065   */\n      sub\n        /* \"#utility.yul\":20041:20042   */\n      0x00\n        /* \"#utility.yul\":20030:20039   */\n      dup4\n        /* \"#utility.yul\":20026:20043   */\n      add\n        /* \"#utility.yul\":20019:20066   */\n      mstore\n        /* \"#utility.yul\":20083:20214   */\n      tag_344\n        /* \"#utility.yul\":20209:20213   */\n      dup2\n        /* \"#utility.yul\":20083:20214   */\n      tag_140\n      jump\t// in\n    tag_344:\n        /* \"#utility.yul\":20075:20214   */\n      swap1\n      pop\n        /* \"#utility.yul\":19802:20221   */\n      swap2\n      swap1\n      pop\n      jump\t// out\n        /* \"#utility.yul\":20227:20421   */\n    tag_73:\n        /* \"#utility.yul\":20267:20271   */\n      0x00\n        /* \"#utility.yul\":20287:20307   */\n      tag_346\n        /* \"#utility.yul\":20305:20306   */\n      dup3\n        /* \"#utility.yul\":20287:20307   */\n      tag_99\n      jump\t// in\n    tag_346:\n        /* \"#utility.yul\":20282:20307   */\n      swap2\n      pop\n        /* \"#utility.yul\":20321:20341   */\n      tag_347\n        /* \"#utility.yul\":20339:20340   */\n      dup4\n        /* \"#utility.yul\":20321:20341   */\n      tag_99\n      jump\t// in\n    tag_347:\n        /* \"#utility.yul\":20316:20341   */\n      swap3\n      pop\n        /* \"#utility.yul\":20365:20366   */\n      dup3\n        /* \"#utility.yul\":20362:20363   */\n      dup3\n        /* \"#utility.yul\":20358:20367   */\n      sub\n        /* \"#utility.yul\":20350:20367   */\n      swap1\n      pop\n        /* \"#utility.yul\":20389:20390   */\n      dup2\n        /* \"#utility.yul\":20383:20387   */\n      dup2\n        /* \"#utility.yul\":20380:20391   */\n      gt\n        /* \"#utility.yul\":20377:20414   */\n      iszero\n      tag_348\n      jumpi\n        /* \"#utility.yul\":20394:20412   */\n      tag_349\n      tag_132\n      jump\t// in\n    tag_349:\n        /* \"#utility.yul\":20377:20414   */\n    tag_348:\n        /* \"#utility.yul\":20227:20421   */\n      swap3\n      swap2\n      pop\n      pop\n      jump\t// out\n        /* \"#utility.yul\":20427:20618   */\n    tag_75:\n        /* \"#utility.yul\":20467:20470   */\n      0x00\n        /* \"#utility.yul\":20486:20506   */\n      tag_351\n        /* \"#utility.yul\":20504:20505   */\n      dup3\n        /* \"#utility.yul\":20486:20506   */\n      tag_99\n      jump\t// in\n    tag_351:\n        /* \"#utility.yul\":20481:20506   */\n      swap2\n      pop\n        /* \"#utility.yul\":20520:20540   */\n      tag_352\n        /* \"#utility.yul\":20538:20539   */\n      dup4\n        /* \"#utility.yul\":20520:20540   */\n      tag_99\n      jump\t// in\n    tag_352:\n        /* \"#utility.yul\":20515:20540   */\n      swap3\n      pop\n        /* \"#utility.yul\":20563:20564   */\n      dup3\n        /* \"#utility.yul\":20560:20561   */\n      dup3\n        /* \"#utility.yul\":20556:20565   */\n      add\n        /* \"#utility.yul\":20549:20565   */\n      swap1\n      pop\n        /* \"#utility.yul\":20584:20587   */\n      dup1\n        /* \"#utility.yul\":20581:20582   */\n      dup3\n        /* \"#utility.yul\":20578:20588   */\n      gt\n        /* \"#utility.yul\":20575:20611   */\n      iszero\n      tag_353\n      jumpi\n        /* \"#utility.yul\":20591:20609   */\n      tag_354\n      tag_132\n      jump\t// in\n    tag_354:\n        /* \"#utility.yul\":20575:20611   */\n    tag_353:\n        /* \"#utility.yul\":20427:20618   */\n      swap3\n      swap2\n      pop\n      pop\n      jump\t// out\n        /* \"#utility.yul\":20624:20804   */\n    tag_141:\n        /* \"#utility.yul\":20764:20796   */\n      0x596f7520646f206e6f74206861766520656e6f756768207469636b6574730000\n        /* \"#utility.yul\":20760:20761   */\n      0x00\n        /* \"#utility.yul\":20752:20758   */\n      dup3\n        /* \"#utility.yul\":20748:20762   */\n      add\n        /* \"#utility.yul\":20741:20797   */\n      mstore\n        /* \"#utility.yul\":20624:20804   */\n      pop\n      jump\t// out\n        /* \"#utility.yul\":20810:21176   */\n    tag_142:\n        /* \"#utility.yul\":20952:20955   */\n      0x00\n        /* \"#utility.yul\":20973:21040   */\n      tag_357\n        /* \"#utility.yul\":21037:21039   */\n      0x1e\n        /* \"#utility.yul\":21032:21035   */\n      dup4\n        /* \"#utility.yul\":20973:21040   */\n      tag_106\n      jump\t// in\n    tag_357:\n        /* \"#utility.yul\":20966:21040   */\n      swap2\n      pop\n        /* \"#utility.yul\":21049:21142   */\n      tag_358\n        /* \"#utility.yul\":21138:21141   */\n      dup3\n        /* \"#utility.yul\":21049:21142   */\n      tag_141\n      jump\t// in\n    tag_358:\n        /* \"#utility.yul\":21167:21169   */\n      0x20\n        /* \"#utility.yul\":21162:21165   */\n      dup3\n        /* \"#utility.yul\":21158:21170   */\n      add\n        /* \"#utility.yul\":21151:21170   */\n      swap1\n      pop\n        /* \"#utility.yul\":20810:21176   */\n      swap2\n      swap1\n      pop\n      jump\t// out\n        /* \"#utility.yul\":21182:21601   */\n    tag_83:\n        /* \"#utility.yul\":21348:21352   */\n      0x00\n        /* \"#utility.yul\":21386:21388   */\n      0x20\n        /* \"#utility.yul\":21375:21384   */\n      dup3\n        /* \"#utility.yul\":21371:21389   */\n      add\n        /* \"#utility.yul\":21363:21389   */\n      swap1\n      pop\n        /* \"#utility.yul\":21435:21444   */\n      dup2\n        /* \"#utility.yul\":21429:21433   */\n      dup2\n        /* \"#utility.yul\":21425:21445   */\n      sub\n        /* \"#utility.yul\":21421:21422   */\n      0x00\n        /* \"#utility.yul\":21410:21419   */\n      dup4\n        /* \"#utility.yul\":21406:21423   */\n      add\n        /* \"#utility.yul\":21399:21446   */\n      mstore\n        /* \"#utility.yul\":21463:21594   */\n      tag_360\n        /* \"#utility.yul\":21589:21593   */\n      dup2\n        /* \"#utility.yul\":21463:21594   */\n      tag_142\n      jump\t// in\n    tag_360:\n        /* \"#utility.yul\":21455:21594   */\n      swap1\n      pop\n        /* \"#utility.yul\":21182:21601   */\n      swap2\n      swap1\n      pop\n      jump\t// out\n\n    auxdata: 0xa2646970667358221220db4c1c2d550b4dfb945874a54145869572423c839a65eff12185121ce9339b7764736f6c63430008120033\n}\n",
				"bytecode": {
					"linkReferences": {},
					"object": "608060405234801561001057600080fd5b50611403806100206000396000f3fe6080604052600436106100555760003560e01c80630374ab0b1461005a5780630b79143014610083578063298ec208146100c557806361b8ce8c146100e1578063dae7a13c1461010c578063f086a09b14610149575b600080fd5b34801561006657600080fd5b50610081600480360381019061007c919061098d565b610172565b005b34801561008f57600080fd5b506100aa60048036038101906100a59190610a10565b6102f4565b6040516100bc96959493929190610b0c565b60405180910390f35b6100df60048036038101906100da9190610b74565b6103d8565b005b3480156100ed57600080fd5b506100f66105bd565b6040516101039190610bb4565b60405180910390f35b34801561011857600080fd5b50610133600480360381019061012e9190610bfb565b6105c3565b6040516101409190610bb4565b60405180910390f35b34801561015557600080fd5b50610170600480360381019061016b9190610c3b565b6105e8565b005b4283116101b4576040517f08c379a00000000000000000000000000000000000000000000000000000000081526004016101ab90610d00565b60405180910390fd5b600081116101f7576040517f08c379a00000000000000000000000000000000000000000000000000000000081526004016101ee90610d92565b60405180910390fd5b6040518060c001604052803373ffffffffffffffffffffffffffffffffffffffff16815260200185815260200184815260200183815260200182815260200182815250600080600254815260200190815260200160002060008201518160000160006101000a81548173ffffffffffffffffffffffffffffffffffffffff021916908373ffffffffffffffffffffffffffffffffffffffff16021790555060208201518160010190816102aa9190610fbe565b5060408201518160020155606082015181600301556080820151816004015560a08201518160050155905050600260008154809291906102e9906110bf565b919050555050505050565b60006020528060005260406000206000915090508060000160009054906101000a900473ffffffffffffffffffffffffffffffffffffffff169080600101805461033d90610de1565b80601f016020809104026020016040519081016040528092919081815260200182805461036990610de1565b80156103b65780601f1061038b576101008083540402835291602001916103b6565b820191906000526020600020905b81548152906001019060200180831161039957829003601f168201915b5050505050908060020154908060030154908060040154908060050154905086565b60008060008481526020019081526020016000206002015403610430576040517f08c379a000000000000000000000000000000000000000000000000000000000815260040161042790611153565b60405180910390fd5b426000808481526020019081526020016000206002015411610487576040517f08c379a000000000000000000000000000000000000000000000000000000000815260040161047e906111bf565b60405180910390fd5b600080600084815260200190815260200160002090508181600301546104ad91906111df565b3411156104ef576040517f08c379a00000000000000000000000000000000000000000000000000000000081526004016104e69061126d565b60405180910390fd5b8181600501541015610536576040517f08c379a000000000000000000000000000000000000000000000000000000000815260040161052d906112d9565b60405180910390fd5b8181600501600082825461054a91906112f9565b9250508190555081600160003373ffffffffffffffffffffffffffffffffffffffff1673ffffffffffffffffffffffffffffffffffffffff168152602001908152602001600020600085815260200190815260200160002060008282546105b1919061132d565b92505081905550505050565b60025481565b6001602052816000526040600020602052806000526040600020600091509150505481565b60008060008581526020019081526020016000206002015403610640576040517f08c379a000000000000000000000000000000000000000000000000000000000815260040161063790611153565b60405180910390fd5b426000808581526020019081526020016000206002015411610697576040517f08c379a000000000000000000000000000000000000000000000000000000000815260040161068e906111bf565b60405180910390fd5b81600160003373ffffffffffffffffffffffffffffffffffffffff1673ffffffffffffffffffffffffffffffffffffffff168152602001908152602001600020600085815260200190815260200160002054101561072a576040517f08c379a0000000000000000000000000000000000000000000000000000000008152600401610721906113ad565b60405180910390fd5b81600160003373ffffffffffffffffffffffffffffffffffffffff1673ffffffffffffffffffffffffffffffffffffffff1681526020019081526020016000206000858152602001908152602001600020600082825461078a91906112f9565b9250508190555081600160008373ffffffffffffffffffffffffffffffffffffffff1673ffffffffffffffffffffffffffffffffffffffff168152602001908152602001600020600085815260200190815260200160002060008282546107f1919061132d565b92505081905550505050565b6000604051905090565b600080fd5b600080fd5b600080fd5b600080fd5b6000601f19601f8301169050919050565b7f4e487b7100000000000000000000000000000000000000000000000000000000600052604160045260246000fd5b6108648261081b565b810181811067ffffffffffffffff821117156108835761088261082c565b5b80604052505050565b60006108966107fd565b90506108a2828261085b565b919050565b600067ffffffffffffffff8211156108c2576108c161082c565b5b6108cb8261081b565b9050602081019050919050565b82818337600083830152505050565b60006108fa6108f5846108a7565b61088c565b90508281526020810184848401111561091657610915610816565b5b6109218482856108d8565b509392505050565b600082601f83011261093e5761093d610811565b5b813561094e8482602086016108e7565b91505092915050565b6000819050919050565b61096a81610957565b811461097557600080fd5b50565b60008135905061098781610961565b92915050565b600080600080608085870312156109a7576109a6610807565b5b600085013567ffffffffffffffff8111156109c5576109c461080c565b5b6109d187828801610929565b94505060206109e287828801610978565b93505060406109f387828801610978565b9250506060610a0487828801610978565b91505092959194509250565b600060208284031215610a2657610a25610807565b5b6000610a3484828501610978565b91505092915050565b600073ffffffffffffffffffffffffffffffffffffffff82169050919050565b6000610a6882610a3d565b9050919050565b610a7881610a5d565b82525050565b600081519050919050565b600082825260208201905092915050565b60005b83811015610ab8578082015181840152602081019050610a9d565b60008484015250505050565b6000610acf82610a7e565b610ad98185610a89565b9350610ae9818560208601610a9a565b610af28161081b565b840191505092915050565b610b0681610957565b82525050565b600060c082019050610b216000830189610a6f565b8181036020830152610b338188610ac4565b9050610b426040830187610afd565b610b4f6060830186610afd565b610b5c6080830185610afd565b610b6960a0830184610afd565b979650505050505050565b60008060408385031215610b8b57610b8a610807565b5b6000610b9985828601610978565b9250506020610baa85828601610978565b9150509250929050565b6000602082019050610bc96000830184610afd565b92915050565b610bd881610a5d565b8114610be357600080fd5b50565b600081359050610bf581610bcf565b92915050565b60008060408385031215610c1257610c11610807565b5b6000610c2085828601610be6565b9250506020610c3185828601610978565b9150509250929050565b600080600060608486031215610c5457610c53610807565b5b6000610c6286828701610978565b9350506020610c7386828701610978565b9250506040610c8486828701610be6565b9150509250925092565b7f596f752063616e206f7267616e697a65206576656e7420666f7220667574757260008201527f6520646174650000000000000000000000000000000000000000000000000000602082015250565b6000610cea602683610a89565b9150610cf582610c8e565b604082019050919050565b60006020820190508181036000830152610d1981610cdd565b9050919050565b7f594f752063616e206f7267616e697a65206563656e74206f6e6c79206966207960008201527f6f7520637265617465206d6f7265207468616e2030207469636b657473000000602082015250565b6000610d7c603d83610a89565b9150610d8782610d20565b604082019050919050565b60006020820190508181036000830152610dab81610d6f565b9050919050565b7f4e487b7100000000000000000000000000000000000000000000000000000000600052602260045260246000fd5b60006002820490506001821680610df957607f821691505b602082108103610e0c57610e0b610db2565b5b50919050565b60008190508160005260206000209050919050565b60006020601f8301049050919050565b600082821b905092915050565b600060088302610e747fffffffffffffffffffffffffffffffffffffffffffffffffffffffffffffffff82610e37565b610e7e8683610e37565b95508019841693508086168417925050509392505050565b6000819050919050565b6000610ebb610eb6610eb184610957565b610e96565b610957565b9050919050565b6000819050919050565b610ed583610ea0565b610ee9610ee182610ec2565b848454610e44565b825550505050565b600090565b610efe610ef1565b610f09818484610ecc565b505050565b5b81811015610f2d57610f22600082610ef6565b600181019050610f0f565b5050565b601f821115610f7257610f4381610e12565b610f4c84610e27565b81016020851015610f5b578190505b610f6f610f6785610e27565b830182610f0e565b50505b505050565b600082821c905092915050565b6000610f9560001984600802610f77565b1980831691505092915050565b6000610fae8383610f84565b9150826002028217905092915050565b610fc782610a7e565b67ffffffffffffffff811115610fe057610fdf61082c565b5b610fea8254610de1565b610ff5828285610f31565b600060209050601f8311600181146110285760008415611016578287015190505b6110208582610fa2565b865550611088565b601f19841661103686610e12565b60005b8281101561105e57848901518255600182019150602085019450602081019050611039565b8683101561107b5784890151611077601f891682610f84565b8355505b6001600288020188555050505b505050505050565b7f4e487b7100000000000000000000000000000000000000000000000000000000600052601160045260246000fd5b60006110ca82610957565b91507fffffffffffffffffffffffffffffffffffffffffffffffffffffffffffffffff82036110fc576110fb611090565b5b600182019050919050565b7f54686973206576656e7420646f6573206e6f7420657869737400000000000000600082015250565b600061113d601983610a89565b915061114882611107565b602082019050919050565b6000602082019050818103600083015261116c81611130565b9050919050565b7f54686973206576656e742068617320616c7265616479206f6363757265640000600082015250565b60006111a9601e83610a89565b91506111b482611173565b602082019050919050565b600060208201905081810360008301526111d88161119c565b9050919050565b60006111ea82610957565b91506111f583610957565b925082820261120381610957565b9150828204841483151761121a57611219611090565b5b5092915050565b7f4574686572206973206e6f7420656e6f75676800000000000000000000000000600082015250565b6000611257601383610a89565b915061126282611221565b602082019050919050565b600060208201905081810360008301526112868161124a565b9050919050565b7f4e6f7420656e6f756768207469636b6574730000000000000000000000000000600082015250565b60006112c3601283610a89565b91506112ce8261128d565b602082019050919050565b600060208201905081810360008301526112f2816112b6565b9050919050565b600061130482610957565b915061130f83610957565b925082820390508181111561132757611326611090565b5b92915050565b600061133882610957565b915061134383610957565b925082820190508082111561135b5761135a611090565b5b92915050565b7f596f7520646f206e6f74206861766520656e6f756768207469636b6574730000600082015250565b6000611397601e83610a89565b91506113a282611361565b602082019050919050565b600060208201905081810360008301526113c68161138a565b905091905056fea2646970667358221220db4c1c2d550b4dfb945874a54145869572423c839a65eff12185121ce9339b7764736f6c63430008120033",
					"opcodes": "PUSH1 0x80 PUSH1 0x40 MSTORE CALLVALUE DUP1 ISZERO PUSH2 0x10 JUMPI PUSH1 0x0 DUP1 REVERT JUMPDEST POP PUSH2 0x1403 DUP1 PUSH2 0x20 PUSH1 0x0 CODECOPY PUSH1 0x0 RETURN INVALID PUSH1 0x80 PUSH1 0x40 MSTORE PUSH1 0x4 CALLDATASIZE LT PUSH2 0x55 JUMPI PUSH1 0x0 CALLDATALOAD PUSH1 0xE0 SHR DUP1 PUSH4 0x374AB0B EQ PUSH2 0x5A JUMPI DUP1 PUSH4 0xB791430 EQ PUSH2 0x83 JUMPI DUP1 PUSH4 0x298EC208 EQ PUSH2 0xC5 JUMPI DUP1 PUSH4 0x61B8CE8C EQ PUSH2 0xE1 JUMPI DUP1 PUSH4 0xDAE7A13C EQ PUSH2 0x10C JUMPI DUP1 PUSH4 0xF086A09B EQ PUSH2 0x149 JUMPI JUMPDEST PUSH1 0x0 DUP1 REVERT JUMPDEST CALLVALUE DUP1 ISZERO PUSH2 0x66 JUMPI PUSH1 0x0 DUP1 REVERT JUMPDEST POP PUSH2 0x81 PUSH1 0x4 DUP1 CALLDATASIZE SUB DUP2 ADD SWAP1 PUSH2 0x7C SWAP2 SWAP1 PUSH2 0x98D JUMP JUMPDEST PUSH2 0x172 JUMP JUMPDEST STOP JUMPDEST CALLVALUE DUP1 ISZERO PUSH2 0x8F JUMPI PUSH1 0x0 DUP1 REVERT JUMPDEST POP PUSH2 0xAA PUSH1 0x4 DUP1 CALLDATASIZE SUB DUP2 ADD SWAP1 PUSH2 0xA5 SWAP2 SWAP1 PUSH2 0xA10 JUMP JUMPDEST PUSH2 0x2F4 JUMP JUMPDEST PUSH1 0x40 MLOAD PUSH2 0xBC SWAP7 SWAP6 SWAP5 SWAP4 SWAP3 SWAP2 SWAP1 PUSH2 0xB0C JUMP JUMPDEST PUSH1 0x40 MLOAD DUP1 SWAP2 SUB SWAP1 RETURN JUMPDEST PUSH2 0xDF PUSH1 0x4 DUP1 CALLDATASIZE SUB DUP2 ADD SWAP1 PUSH2 0xDA SWAP2 SWAP1 PUSH2 0xB74 JUMP JUMPDEST PUSH2 0x3D8 JUMP JUMPDEST STOP JUMPDEST CALLVALUE DUP1 ISZERO PUSH2 0xED JUMPI PUSH1 0x0 DUP1 REVERT JUMPDEST POP PUSH2 0xF6 PUSH2 0x5BD JUMP JUMPDEST PUSH1 0x40 MLOAD PUSH2 0x103 SWAP2 SWAP1 PUSH2 0xBB4 JUMP JUMPDEST PUSH1 0x40 MLOAD DUP1 SWAP2 SUB SWAP1 RETURN JUMPDEST CALLVALUE DUP1 ISZERO PUSH2 0x118 JUMPI PUSH1 0x0 DUP1 REVERT JUMPDEST POP PUSH2 0x133 PUSH1 0x4 DUP1 CALLDATASIZE SUB DUP2 ADD SWAP1 PUSH2 0x12E SWAP2 SWAP1 PUSH2 0xBFB JUMP JUMPDEST PUSH2 0x5C3 JUMP JUMPDEST PUSH1 0x40 MLOAD PUSH2 0x140 SWAP2 SWAP1 PUSH2 0xBB4 JUMP JUMPDEST PUSH1 0x40 MLOAD DUP1 SWAP2 SUB SWAP1 RETURN JUMPDEST CALLVALUE DUP1 ISZERO PUSH2 0x155 JUMPI PUSH1 0x0 DUP1 REVERT JUMPDEST POP PUSH2 0x170 PUSH1 0x4 DUP1 CALLDATASIZE SUB DUP2 ADD SWAP1 PUSH2 0x16B SWAP2 SWAP1 PUSH2 0xC3B JUMP JUMPDEST PUSH2 0x5E8 JUMP JUMPDEST STOP JUMPDEST TIMESTAMP DUP4 GT PUSH2 0x1B4 JUMPI PUSH1 0x40 MLOAD PUSH32 0x8C379A000000000000000000000000000000000000000000000000000000000 DUP2 MSTORE PUSH1 0x4 ADD PUSH2 0x1AB SWAP1 PUSH2 0xD00 JUMP JUMPDEST PUSH1 0x40 MLOAD DUP1 SWAP2 SUB SWAP1 REVERT JUMPDEST PUSH1 0x0 DUP2 GT PUSH2 0x1F7 JUMPI PUSH1 0x40 MLOAD PUSH32 0x8C379A000000000000000000000000000000000000000000000000000000000 DUP2 MSTORE PUSH1 0x4 ADD PUSH2 0x1EE SWAP1 PUSH2 0xD92 JUMP JUMPDEST PUSH1 0x40 MLOAD DUP1 SWAP2 SUB SWAP1 REVERT JUMPDEST PUSH1 0x40 MLOAD DUP1 PUSH1 0xC0 ADD PUSH1 0x40 MSTORE DUP1 CALLER PUSH20 0xFFFFFFFFFFFFFFFFFFFFFFFFFFFFFFFFFFFFFFFF AND DUP2 MSTORE PUSH1 0x20 ADD DUP6 DUP2 MSTORE PUSH1 0x20 ADD DUP5 DUP2 MSTORE PUSH1 0x20 ADD DUP4 DUP2 MSTORE PUSH1 0x20 ADD DUP3 DUP2 MSTORE PUSH1 0x20 ADD DUP3 DUP2 MSTORE POP PUSH1 0x0 DUP1 PUSH1 0x2 SLOAD DUP2 MSTORE PUSH1 0x20 ADD SWAP1 DUP2 MSTORE PUSH1 0x20 ADD PUSH1 0x0 KECCAK256 PUSH1 0x0 DUP3 ADD MLOAD DUP2 PUSH1 0x0 ADD PUSH1 0x0 PUSH2 0x100 EXP DUP2 SLOAD DUP2 PUSH20 0xFFFFFFFFFFFFFFFFFFFFFFFFFFFFFFFFFFFFFFFF MUL NOT AND SWAP1 DUP4 PUSH20 0xFFFFFFFFFFFFFFFFFFFFFFFFFFFFFFFFFFFFFFFF AND MUL OR SWAP1 SSTORE POP PUSH1 0x20 DUP3 ADD MLOAD DUP2 PUSH1 0x1 ADD SWAP1 DUP2 PUSH2 0x2AA SWAP2 SWAP1 PUSH2 0xFBE JUMP JUMPDEST POP PUSH1 0x40 DUP3 ADD MLOAD DUP2 PUSH1 0x2 ADD SSTORE PUSH1 0x60 DUP3 ADD MLOAD DUP2 PUSH1 0x3 ADD SSTORE PUSH1 0x80 DUP3 ADD MLOAD DUP2 PUSH1 0x4 ADD SSTORE PUSH1 0xA0 DUP3 ADD MLOAD DUP2 PUSH1 0x5 ADD SSTORE SWAP1 POP POP PUSH1 0x2 PUSH1 0x0 DUP2 SLOAD DUP1 SWAP3 SWAP2 SWAP1 PUSH2 0x2E9 SWAP1 PUSH2 0x10BF JUMP JUMPDEST SWAP2 SWAP1 POP SSTORE POP POP POP POP POP JUMP JUMPDEST PUSH1 0x0 PUSH1 0x20 MSTORE DUP1 PUSH1 0x0 MSTORE PUSH1 0x40 PUSH1 0x0 KECCAK256 PUSH1 0x0 SWAP2 POP SWAP1 POP DUP1 PUSH1 0x0 ADD PUSH1 0x0 SWAP1 SLOAD SWAP1 PUSH2 0x100 EXP SWAP1 DIV PUSH20 0xFFFFFFFFFFFFFFFFFFFFFFFFFFFFFFFFFFFFFFFF AND SWAP1 DUP1 PUSH1 0x1 ADD DUP1 SLOAD PUSH2 0x33D SWAP1 PUSH2 0xDE1 JUMP JUMPDEST DUP1 PUSH1 0x1F ADD PUSH1 0x20 DUP1 SWAP2 DIV MUL PUSH1 0x20 ADD PUSH1 0x40 MLOAD SWAP1 DUP2 ADD PUSH1 0x40 MSTORE DUP1 SWAP3 SWAP2 SWAP1 DUP2 DUP2 MSTORE PUSH1 0x20 ADD DUP3 DUP1 SLOAD PUSH2 0x369 SWAP1 PUSH2 0xDE1 JUMP JUMPDEST DUP1 ISZERO PUSH2 0x3B6 JUMPI DUP1 PUSH1 0x1F LT PUSH2 0x38B JUMPI PUSH2 0x100 DUP1 DUP4 SLOAD DIV MUL DUP4 MSTORE SWAP2 PUSH1 0x20 ADD SWAP2 PUSH2 0x3B6 JUMP JUMPDEST DUP3 ADD SWAP2 SWAP1 PUSH1 0x0 MSTORE PUSH1 0x20 PUSH1 0x0 KECCAK256 SWAP1 JUMPDEST DUP2 SLOAD DUP2 MSTORE SWAP1 PUSH1 0x1 ADD SWAP1 PUSH1 0x20 ADD DUP1 DUP4 GT PUSH2 0x399 JUMPI DUP3 SWAP1 SUB PUSH1 0x1F AND DUP3 ADD SWAP2 JUMPDEST POP POP POP POP POP SWAP1 DUP1 PUSH1 0x2 ADD SLOAD SWAP1 DUP1 PUSH1 0x3 ADD SLOAD SWAP1 DUP1 PUSH1 0x4 ADD SLOAD SWAP1 DUP1 PUSH1 0x5 ADD SLOAD SWAP1 POP DUP7 JUMP JUMPDEST PUSH1 0x0 DUP1 PUSH1 0x0 DUP5 DUP2 MSTORE PUSH1 0x20 ADD SWAP1 DUP2 MSTORE PUSH1 0x20 ADD PUSH1 0x0 KECCAK256 PUSH1 0x2 ADD SLOAD SUB PUSH2 0x430 JUMPI PUSH1 0x40 MLOAD PUSH32 0x8C379A000000000000000000000000000000000000000000000000000000000 DUP2 MSTORE PUSH1 0x4 ADD PUSH2 0x427 SWAP1 PUSH2 0x1153 JUMP JUMPDEST PUSH1 0x40 MLOAD DUP1 SWAP2 SUB SWAP1 REVERT JUMPDEST TIMESTAMP PUSH1 0x0 DUP1 DUP5 DUP2 MSTORE PUSH1 0x20 ADD SWAP1 DUP2 MSTORE PUSH1 0x20 ADD PUSH1 0x0 KECCAK256 PUSH1 0x2 ADD SLOAD GT PUSH2 0x487 JUMPI PUSH1 0x40 MLOAD PUSH32 0x8C379A000000000000000000000000000000000000000000000000000000000 DUP2 MSTORE PUSH1 0x4 ADD PUSH2 0x47E SWAP1 PUSH2 0x11BF JUMP JUMPDEST PUSH1 0x40 MLOAD DUP1 SWAP2 SUB SWAP1 REVERT JUMPDEST PUSH1 0x0 DUP1 PUSH1 0x0 DUP5 DUP2 MSTORE PUSH1 0x20 ADD SWAP1 DUP2 MSTORE PUSH1 0x20 ADD PUSH1 0x0 KECCAK256 SWAP1 POP DUP2 DUP2 PUSH1 0x3 ADD SLOAD PUSH2 0x4AD SWAP2 SWAP1 PUSH2 0x11DF JUMP JUMPDEST CALLVALUE GT ISZERO PUSH2 0x4EF JUMPI PUSH1 0x40 MLOAD PUSH32 0x8C379A000000000000000000000000000000000000000000000000000000000 DUP2 MSTORE PUSH1 0x4 ADD PUSH2 0x4E6 SWAP1 PUSH2 0x126D JUMP JUMPDEST PUSH1 0x40 MLOAD DUP1 SWAP2 SUB SWAP1 REVERT JUMPDEST DUP2 DUP2 PUSH1 0x5 ADD SLOAD LT ISZERO PUSH2 0x536 JUMPI PUSH1 0x40 MLOAD PUSH32 0x8C379A000000000000000000000000000000000000000000000000000000000 DUP2 MSTORE PUSH1 0x4 ADD PUSH2 0x52D SWAP1 PUSH2 0x12D9 JUMP JUMPDEST PUSH1 0x40 MLOAD DUP1 SWAP2 SUB SWAP1 REVERT JUMPDEST DUP2 DUP2 PUSH1 0x5 ADD PUSH1 0x0 DUP3 DUP3 SLOAD PUSH2 0x54A SWAP2 SWAP1 PUSH2 0x12F9 JUMP JUMPDEST SWAP3 POP POP DUP2 SWAP1 SSTORE POP DUP2 PUSH1 0x1 PUSH1 0x0 CALLER PUSH20 0xFFFFFFFFFFFFFFFFFFFFFFFFFFFFFFFFFFFFFFFF AND PUSH20 0xFFFFFFFFFFFFFFFFFFFFFFFFFFFFFFFFFFFFFFFF AND DUP2 MSTORE PUSH1 0x20 ADD SWAP1 DUP2 MSTORE PUSH1 0x20 ADD PUSH1 0x0 KECCAK256 PUSH1 0x0 DUP6 DUP2 MSTORE PUSH1 0x20 ADD SWAP1 DUP2 MSTORE PUSH1 0x20 ADD PUSH1 0x0 KECCAK256 PUSH1 0x0 DUP3 DUP3 SLOAD PUSH2 0x5B1 SWAP2 SWAP1 PUSH2 0x132D JUMP JUMPDEST SWAP3 POP POP DUP2 SWAP1 SSTORE POP POP POP POP JUMP JUMPDEST PUSH1 0x2 SLOAD DUP2 JUMP JUMPDEST PUSH1 0x1 PUSH1 0x20 MSTORE DUP2 PUSH1 0x0 MSTORE PUSH1 0x40 PUSH1 0x0 KECCAK256 PUSH1 0x20 MSTORE DUP1 PUSH1 0x0 MSTORE PUSH1 0x40 PUSH1 0x0 KECCAK256 PUSH1 0x0 SWAP2 POP SWAP2 POP POP SLOAD DUP2 JUMP JUMPDEST PUSH1 0x0 DUP1 PUSH1 0x0 DUP6 DUP2 MSTORE PUSH1 0x20 ADD SWAP1 DUP2 MSTORE PUSH1 0x20 ADD PUSH1 0x0 KECCAK256 PUSH1 0x2 ADD SLOAD SUB PUSH2 0x640 JUMPI PUSH1 0x40 MLOAD PUSH32 0x8C379A000000000000000000000000000000000000000000000000000000000 DUP2 MSTORE PUSH1 0x4 ADD PUSH2 0x637 SWAP1 PUSH2 0x1153 JUMP JUMPDEST PUSH1 0x40 MLOAD DUP1 SWAP2 SUB SWAP1 REVERT JUMPDEST TIMESTAMP PUSH1 0x0 DUP1 DUP6 DUP2 MSTORE PUSH1 0x20 ADD SWAP1 DUP2 MSTORE PUSH1 0x20 ADD PUSH1 0x0 KECCAK256 PUSH1 0x2 ADD SLOAD GT PUSH2 0x697 JUMPI PUSH1 0x40 MLOAD PUSH32 0x8C379A000000000000000000000000000000000000000000000000000000000 DUP2 MSTORE PUSH1 0x4 ADD PUSH2 0x68E SWAP1 PUSH2 0x11BF JUMP JUMPDEST PUSH1 0x40 MLOAD DUP1 SWAP2 SUB SWAP1 REVERT JUMPDEST DUP2 PUSH1 0x1 PUSH1 0x0 CALLER PUSH20 0xFFFFFFFFFFFFFFFFFFFFFFFFFFFFFFFFFFFFFFFF AND PUSH20 0xFFFFFFFFFFFFFFFFFFFFFFFFFFFFFFFFFFFFFFFF AND DUP2 MSTORE PUSH1 0x20 ADD SWAP1 DUP2 MSTORE PUSH1 0x20 ADD PUSH1 0x0 KECCAK256 PUSH1 0x0 DUP6 DUP2 MSTORE PUSH1 0x20 ADD SWAP1 DUP2 MSTORE PUSH1 0x20 ADD PUSH1 0x0 KECCAK256 SLOAD LT ISZERO PUSH2 0x72A JUMPI PUSH1 0x40 MLOAD PUSH32 0x8C379A000000000000000000000000000000000000000000000000000000000 DUP2 MSTORE PUSH1 0x4 ADD PUSH2 0x721 SWAP1 PUSH2 0x13AD JUMP JUMPDEST PUSH1 0x40 MLOAD DUP1 SWAP2 SUB SWAP1 REVERT JUMPDEST DUP2 PUSH1 0x1 PUSH1 0x0 CALLER PUSH20 0xFFFFFFFFFFFFFFFFFFFFFFFFFFFFFFFFFFFFFFFF AND PUSH20 0xFFFFFFFFFFFFFFFFFFFFFFFFFFFFFFFFFFFFFFFF AND DUP2 MSTORE PUSH1 0x20 ADD SWAP1 DUP2 MSTORE PUSH1 0x20 ADD PUSH1 0x0 KECCAK256 PUSH1 0x0 DUP6 DUP2 MSTORE PUSH1 0x20 ADD SWAP1 DUP2 MSTORE PUSH1 0x20 ADD PUSH1 0x0 KECCAK256 PUSH1 0x0 DUP3 DUP3 SLOAD PUSH2 0x78A SWAP2 SWAP1 PUSH2 0x12F9 JUMP JUMPDEST SWAP3 POP POP DUP2 SWAP1 SSTORE POP DUP2 PUSH1 0x1 PUSH1 0x0 DUP4 PUSH20 0xFFFFFFFFFFFFFFFFFFFFFFFFFFFFFFFFFFFFFFFF AND PUSH20 0xFFFFFFFFFFFFFFFFFFFFFFFFFFFFFFFFFFFFFFFF AND DUP2 MSTORE PUSH1 0x20 ADD SWAP1 DUP2 MSTORE PUSH1 0x20 ADD PUSH1 0x0 KECCAK256 PUSH1 0x0 DUP6 DUP2 MSTORE PUSH1 0x20 ADD SWAP1 DUP2 MSTORE PUSH1 0x20 ADD PUSH1 0x0 KECCAK256 PUSH1 0x0 DUP3 DUP3 SLOAD PUSH2 0x7F1 SWAP2 SWAP1 PUSH2 0x132D JUMP JUMPDEST SWAP3 POP POP DUP2 SWAP1 SSTORE POP POP POP POP JUMP JUMPDEST PUSH1 0x0 PUSH1 0x40 MLOAD SWAP1 POP SWAP1 JUMP JUMPDEST PUSH1 0x0 DUP1 REVERT JUMPDEST PUSH1 0x0 DUP1 REVERT JUMPDEST PUSH1 0x0 DUP1 REVERT JUMPDEST PUSH1 0x0 DUP1 REVERT JUMPDEST PUSH1 0x0 PUSH1 0x1F NOT PUSH1 0x1F DUP4 ADD AND SWAP1 POP SWAP2 SWAP1 POP JUMP JUMPDEST PUSH32 0x4E487B7100000000000000000000000000000000000000000000000000000000 PUSH1 0x0 MSTORE PUSH1 0x41 PUSH1 0x4 MSTORE PUSH1 0x24 PUSH1 0x0 REVERT JUMPDEST PUSH2 0x864 DUP3 PUSH2 0x81B JUMP JUMPDEST DUP2 ADD DUP2 DUP2 LT PUSH8 0xFFFFFFFFFFFFFFFF DUP3 GT OR ISZERO PUSH2 0x883 JUMPI PUSH2 0x882 PUSH2 0x82C JUMP JUMPDEST JUMPDEST DUP1 PUSH1 0x40 MSTORE POP POP POP JUMP JUMPDEST PUSH1 0x0 PUSH2 0x896 PUSH2 0x7FD JUMP JUMPDEST SWAP1 POP PUSH2 0x8A2 DUP3 DUP3 PUSH2 0x85B JUMP JUMPDEST SWAP2 SWAP1 POP JUMP JUMPDEST PUSH1 0x0 PUSH8 0xFFFFFFFFFFFFFFFF DUP3 GT ISZERO PUSH2 0x8C2 JUMPI PUSH2 0x8C1 PUSH2 0x82C JUMP JUMPDEST JUMPDEST PUSH2 0x8CB DUP3 PUSH2 0x81B JUMP JUMPDEST SWAP1 POP PUSH1 0x20 DUP2 ADD SWAP1 POP SWAP2 SWAP1 POP JUMP JUMPDEST DUP3 DUP2 DUP4 CALLDATACOPY PUSH1 0x0 DUP4 DUP4 ADD MSTORE POP POP POP JUMP JUMPDEST PUSH1 0x0 PUSH2 0x8FA PUSH2 0x8F5 DUP5 PUSH2 0x8A7 JUMP JUMPDEST PUSH2 0x88C JUMP JUMPDEST SWAP1 POP DUP3 DUP2 MSTORE PUSH1 0x20 DUP2 ADD DUP5 DUP5 DUP5 ADD GT ISZERO PUSH2 0x916 JUMPI PUSH2 0x915 PUSH2 0x816 JUMP JUMPDEST JUMPDEST PUSH2 0x921 DUP5 DUP3 DUP6 PUSH2 0x8D8 JUMP JUMPDEST POP SWAP4 SWAP3 POP POP POP JUMP JUMPDEST PUSH1 0x0 DUP3 PUSH1 0x1F DUP4 ADD SLT PUSH2 0x93E JUMPI PUSH2 0x93D PUSH2 0x811 JUMP JUMPDEST JUMPDEST DUP2 CALLDATALOAD PUSH2 0x94E DUP5 DUP3 PUSH1 0x20 DUP7 ADD PUSH2 0x8E7 JUMP JUMPDEST SWAP2 POP POP SWAP3 SWAP2 POP POP JUMP JUMPDEST PUSH1 0x0 DUP2 SWAP1 POP SWAP2 SWAP1 POP JUMP JUMPDEST PUSH2 0x96A DUP2 PUSH2 0x957 JUMP JUMPDEST DUP2 EQ PUSH2 0x975 JUMPI PUSH1 0x0 DUP1 REVERT JUMPDEST POP JUMP JUMPDEST PUSH1 0x0 DUP2 CALLDATALOAD SWAP1 POP PUSH2 0x987 DUP2 PUSH2 0x961 JUMP JUMPDEST SWAP3 SWAP2 POP POP JUMP JUMPDEST PUSH1 0x0 DUP1 PUSH1 0x0 DUP1 PUSH1 0x80 DUP6 DUP8 SUB SLT ISZERO PUSH2 0x9A7 JUMPI PUSH2 0x9A6 PUSH2 0x807 JUMP JUMPDEST JUMPDEST PUSH1 0x0 DUP6 ADD CALLDATALOAD PUSH8 0xFFFFFFFFFFFFFFFF DUP2 GT ISZERO PUSH2 0x9C5 JUMPI PUSH2 0x9C4 PUSH2 0x80C JUMP JUMPDEST JUMPDEST PUSH2 0x9D1 DUP8 DUP3 DUP9 ADD PUSH2 0x929 JUMP JUMPDEST SWAP5 POP POP PUSH1 0x20 PUSH2 0x9E2 DUP8 DUP3 DUP9 ADD PUSH2 0x978 JUMP JUMPDEST SWAP4 POP POP PUSH1 0x40 PUSH2 0x9F3 DUP8 DUP3 DUP9 ADD PUSH2 0x978 JUMP JUMPDEST SWAP3 POP POP PUSH1 0x60 PUSH2 0xA04 DUP8 DUP3 DUP9 ADD PUSH2 0x978 JUMP JUMPDEST SWAP2 POP POP SWAP3 SWAP6 SWAP2 SWAP5 POP SWAP3 POP JUMP JUMPDEST PUSH1 0x0 PUSH1 0x20 DUP3 DUP5 SUB SLT ISZERO PUSH2 0xA26 JUMPI PUSH2 0xA25 PUSH2 0x807 JUMP JUMPDEST JUMPDEST PUSH1 0x0 PUSH2 0xA34 DUP5 DUP3 DUP6 ADD PUSH2 0x978 JUMP JUMPDEST SWAP2 POP POP SWAP3 SWAP2 POP POP JUMP JUMPDEST PUSH1 0x0 PUSH20 0xFFFFFFFFFFFFFFFFFFFFFFFFFFFFFFFFFFFFFFFF DUP3 AND SWAP1 POP SWAP2 SWAP1 POP JUMP JUMPDEST PUSH1 0x0 PUSH2 0xA68 DUP3 PUSH2 0xA3D JUMP JUMPDEST SWAP1 POP SWAP2 SWAP1 POP JUMP JUMPDEST PUSH2 0xA78 DUP2 PUSH2 0xA5D JUMP JUMPDEST DUP3 MSTORE POP POP JUMP JUMPDEST PUSH1 0x0 DUP2 MLOAD SWAP1 POP SWAP2 SWAP1 POP JUMP JUMPDEST PUSH1 0x0 DUP3 DUP3 MSTORE PUSH1 0x20 DUP3 ADD SWAP1 POP SWAP3 SWAP2 POP POP JUMP JUMPDEST PUSH1 0x0 JUMPDEST DUP4 DUP2 LT ISZERO PUSH2 0xAB8 JUMPI DUP1 DUP3 ADD MLOAD DUP2 DUP5 ADD MSTORE PUSH1 0x20 DUP2 ADD SWAP1 POP PUSH2 0xA9D JUMP JUMPDEST PUSH1 0x0 DUP5 DUP5 ADD MSTORE POP POP POP POP JUMP JUMPDEST PUSH1 0x0 PUSH2 0xACF DUP3 PUSH2 0xA7E JUMP JUMPDEST PUSH2 0xAD9 DUP2 DUP6 PUSH2 0xA89 JUMP JUMPDEST SWAP4 POP PUSH2 0xAE9 DUP2 DUP6 PUSH1 0x20 DUP7 ADD PUSH2 0xA9A JUMP JUMPDEST PUSH2 0xAF2 DUP2 PUSH2 0x81B JUMP JUMPDEST DUP5 ADD SWAP2 POP POP SWAP3 SWAP2 POP POP JUMP JUMPDEST PUSH2 0xB06 DUP2 PUSH2 0x957 JUMP JUMPDEST DUP3 MSTORE POP POP JUMP JUMPDEST PUSH1 0x0 PUSH1 0xC0 DUP3 ADD SWAP1 POP PUSH2 0xB21 PUSH1 0x0 DUP4 ADD DUP10 PUSH2 0xA6F JUMP JUMPDEST DUP2 DUP2 SUB PUSH1 0x20 DUP4 ADD MSTORE PUSH2 0xB33 DUP2 DUP9 PUSH2 0xAC4 JUMP JUMPDEST SWAP1 POP PUSH2 0xB42 PUSH1 0x40 DUP4 ADD DUP8 PUSH2 0xAFD JUMP JUMPDEST PUSH2 0xB4F PUSH1 0x60 DUP4 ADD DUP7 PUSH2 0xAFD JUMP JUMPDEST PUSH2 0xB5C PUSH1 0x80 DUP4 ADD DUP6 PUSH2 0xAFD JUMP JUMPDEST PUSH2 0xB69 PUSH1 0xA0 DUP4 ADD DUP5 PUSH2 0xAFD JUMP JUMPDEST SWAP8 SWAP7 POP POP POP POP POP POP POP JUMP JUMPDEST PUSH1 0x0 DUP1 PUSH1 0x40 DUP4 DUP6 SUB SLT ISZERO PUSH2 0xB8B JUMPI PUSH2 0xB8A PUSH2 0x807 JUMP JUMPDEST JUMPDEST PUSH1 0x0 PUSH2 0xB99 DUP6 DUP3 DUP7 ADD PUSH2 0x978 JUMP JUMPDEST SWAP3 POP POP PUSH1 0x20 PUSH2 0xBAA DUP6 DUP3 DUP7 ADD PUSH2 0x978 JUMP JUMPDEST SWAP2 POP POP SWAP3 POP SWAP3 SWAP1 POP JUMP JUMPDEST PUSH1 0x0 PUSH1 0x20 DUP3 ADD SWAP1 POP PUSH2 0xBC9 PUSH1 0x0 DUP4 ADD DUP5 PUSH2 0xAFD JUMP JUMPDEST SWAP3 SWAP2 POP POP JUMP JUMPDEST PUSH2 0xBD8 DUP2 PUSH2 0xA5D JUMP JUMPDEST DUP2 EQ PUSH2 0xBE3 JUMPI PUSH1 0x0 DUP1 REVERT JUMPDEST POP JUMP JUMPDEST PUSH1 0x0 DUP2 CALLDATALOAD SWAP1 POP PUSH2 0xBF5 DUP2 PUSH2 0xBCF JUMP JUMPDEST SWAP3 SWAP2 POP POP JUMP JUMPDEST PUSH1 0x0 DUP1 PUSH1 0x40 DUP4 DUP6 SUB SLT ISZERO PUSH2 0xC12 JUMPI PUSH2 0xC11 PUSH2 0x807 JUMP JUMPDEST JUMPDEST PUSH1 0x0 PUSH2 0xC20 DUP6 DUP3 DUP7 ADD PUSH2 0xBE6 JUMP JUMPDEST SWAP3 POP POP PUSH1 0x20 PUSH2 0xC31 DUP6 DUP3 DUP7 ADD PUSH2 0x978 JUMP JUMPDEST SWAP2 POP POP SWAP3 POP SWAP3 SWAP1 POP JUMP JUMPDEST PUSH1 0x0 DUP1 PUSH1 0x0 PUSH1 0x60 DUP5 DUP7 SUB SLT ISZERO PUSH2 0xC54 JUMPI PUSH2 0xC53 PUSH2 0x807 JUMP JUMPDEST JUMPDEST PUSH1 0x0 PUSH2 0xC62 DUP7 DUP3 DUP8 ADD PUSH2 0x978 JUMP JUMPDEST SWAP4 POP POP PUSH1 0x20 PUSH2 0xC73 DUP7 DUP3 DUP8 ADD PUSH2 0x978 JUMP JUMPDEST SWAP3 POP POP PUSH1 0x40 PUSH2 0xC84 DUP7 DUP3 DUP8 ADD PUSH2 0xBE6 JUMP JUMPDEST SWAP2 POP POP SWAP3 POP SWAP3 POP SWAP3 JUMP JUMPDEST PUSH32 0x596F752063616E206F7267616E697A65206576656E7420666F72206675747572 PUSH1 0x0 DUP3 ADD MSTORE PUSH32 0x6520646174650000000000000000000000000000000000000000000000000000 PUSH1 0x20 DUP3 ADD MSTORE POP JUMP JUMPDEST PUSH1 0x0 PUSH2 0xCEA PUSH1 0x26 DUP4 PUSH2 0xA89 JUMP JUMPDEST SWAP2 POP PUSH2 0xCF5 DUP3 PUSH2 0xC8E JUMP JUMPDEST PUSH1 0x40 DUP3 ADD SWAP1 POP SWAP2 SWAP1 POP JUMP JUMPDEST PUSH1 0x0 PUSH1 0x20 DUP3 ADD SWAP1 POP DUP2 DUP2 SUB PUSH1 0x0 DUP4 ADD MSTORE PUSH2 0xD19 DUP2 PUSH2 0xCDD JUMP JUMPDEST SWAP1 POP SWAP2 SWAP1 POP JUMP JUMPDEST PUSH32 0x594F752063616E206F7267616E697A65206563656E74206F6E6C792069662079 PUSH1 0x0 DUP3 ADD MSTORE PUSH32 0x6F7520637265617465206D6F7265207468616E2030207469636B657473000000 PUSH1 0x20 DUP3 ADD MSTORE POP JUMP JUMPDEST PUSH1 0x0 PUSH2 0xD7C PUSH1 0x3D DUP4 PUSH2 0xA89 JUMP JUMPDEST SWAP2 POP PUSH2 0xD87 DUP3 PUSH2 0xD20 JUMP JUMPDEST PUSH1 0x40 DUP3 ADD SWAP1 POP SWAP2 SWAP1 POP JUMP JUMPDEST PUSH1 0x0 PUSH1 0x20 DUP3 ADD SWAP1 POP DUP2 DUP2 SUB PUSH1 0x0 DUP4 ADD MSTORE PUSH2 0xDAB DUP2 PUSH2 0xD6F JUMP JUMPDEST SWAP1 POP SWAP2 SWAP1 POP JUMP JUMPDEST PUSH32 0x4E487B7100000000000000000000000000000000000000000000000000000000 PUSH1 0x0 MSTORE PUSH1 0x22 PUSH1 0x4 MSTORE PUSH1 0x24 PUSH1 0x0 REVERT JUMPDEST PUSH1 0x0 PUSH1 0x2 DUP3 DIV SWAP1 POP PUSH1 0x1 DUP3 AND DUP1 PUSH2 0xDF9 JUMPI PUSH1 0x7F DUP3 AND SWAP2 POP JUMPDEST PUSH1 0x20 DUP3 LT DUP2 SUB PUSH2 0xE0C JUMPI PUSH2 0xE0B PUSH2 0xDB2 JUMP JUMPDEST JUMPDEST POP SWAP2 SWAP1 POP JUMP JUMPDEST PUSH1 0x0 DUP2 SWAP1 POP DUP2 PUSH1 0x0 MSTORE PUSH1 0x20 PUSH1 0x0 KECCAK256 SWAP1 POP SWAP2 SWAP1 POP JUMP JUMPDEST PUSH1 0x0 PUSH1 0x20 PUSH1 0x1F DUP4 ADD DIV SWAP1 POP SWAP2 SWAP1 POP JUMP JUMPDEST PUSH1 0x0 DUP3 DUP3 SHL SWAP1 POP SWAP3 SWAP2 POP POP JUMP JUMPDEST PUSH1 0x0 PUSH1 0x8 DUP4 MUL PUSH2 0xE74 PUSH32 0xFFFFFFFFFFFFFFFFFFFFFFFFFFFFFFFFFFFFFFFFFFFFFFFFFFFFFFFFFFFFFFFF DUP3 PUSH2 0xE37 JUMP JUMPDEST PUSH2 0xE7E DUP7 DUP4 PUSH2 0xE37 JUMP JUMPDEST SWAP6 POP DUP1 NOT DUP5 AND SWAP4 POP DUP1 DUP7 AND DUP5 OR SWAP3 POP POP POP SWAP4 SWAP3 POP POP POP JUMP JUMPDEST PUSH1 0x0 DUP2 SWAP1 POP SWAP2 SWAP1 POP JUMP JUMPDEST PUSH1 0x0 PUSH2 0xEBB PUSH2 0xEB6 PUSH2 0xEB1 DUP5 PUSH2 0x957 JUMP JUMPDEST PUSH2 0xE96 JUMP JUMPDEST PUSH2 0x957 JUMP JUMPDEST SWAP1 POP SWAP2 SWAP1 POP JUMP JUMPDEST PUSH1 0x0 DUP2 SWAP1 POP SWAP2 SWAP1 POP JUMP JUMPDEST PUSH2 0xED5 DUP4 PUSH2 0xEA0 JUMP JUMPDEST PUSH2 0xEE9 PUSH2 0xEE1 DUP3 PUSH2 0xEC2 JUMP JUMPDEST DUP5 DUP5 SLOAD PUSH2 0xE44 JUMP JUMPDEST DUP3 SSTORE POP POP POP POP JUMP JUMPDEST PUSH1 0x0 SWAP1 JUMP JUMPDEST PUSH2 0xEFE PUSH2 0xEF1 JUMP JUMPDEST PUSH2 0xF09 DUP2 DUP5 DUP5 PUSH2 0xECC JUMP JUMPDEST POP POP POP JUMP JUMPDEST JUMPDEST DUP2 DUP2 LT ISZERO PUSH2 0xF2D JUMPI PUSH2 0xF22 PUSH1 0x0 DUP3 PUSH2 0xEF6 JUMP JUMPDEST PUSH1 0x1 DUP2 ADD SWAP1 POP PUSH2 0xF0F JUMP JUMPDEST POP POP JUMP JUMPDEST PUSH1 0x1F DUP3 GT ISZERO PUSH2 0xF72 JUMPI PUSH2 0xF43 DUP2 PUSH2 0xE12 JUMP JUMPDEST PUSH2 0xF4C DUP5 PUSH2 0xE27 JUMP JUMPDEST DUP2 ADD PUSH1 0x20 DUP6 LT ISZERO PUSH2 0xF5B JUMPI DUP2 SWAP1 POP JUMPDEST PUSH2 0xF6F PUSH2 0xF67 DUP6 PUSH2 0xE27 JUMP JUMPDEST DUP4 ADD DUP3 PUSH2 0xF0E JUMP JUMPDEST POP POP JUMPDEST POP POP POP JUMP JUMPDEST PUSH1 0x0 DUP3 DUP3 SHR SWAP1 POP SWAP3 SWAP2 POP POP JUMP JUMPDEST PUSH1 0x0 PUSH2 0xF95 PUSH1 0x0 NOT DUP5 PUSH1 0x8 MUL PUSH2 0xF77 JUMP JUMPDEST NOT DUP1 DUP4 AND SWAP2 POP POP SWAP3 SWAP2 POP POP JUMP JUMPDEST PUSH1 0x0 PUSH2 0xFAE DUP4 DUP4 PUSH2 0xF84 JUMP JUMPDEST SWAP2 POP DUP3 PUSH1 0x2 MUL DUP3 OR SWAP1 POP SWAP3 SWAP2 POP POP JUMP JUMPDEST PUSH2 0xFC7 DUP3 PUSH2 0xA7E JUMP JUMPDEST PUSH8 0xFFFFFFFFFFFFFFFF DUP2 GT ISZERO PUSH2 0xFE0 JUMPI PUSH2 0xFDF PUSH2 0x82C JUMP JUMPDEST JUMPDEST PUSH2 0xFEA DUP3 SLOAD PUSH2 0xDE1 JUMP JUMPDEST PUSH2 0xFF5 DUP3 DUP3 DUP6 PUSH2 0xF31 JUMP JUMPDEST PUSH1 0x0 PUSH1 0x20 SWAP1 POP PUSH1 0x1F DUP4 GT PUSH1 0x1 DUP2 EQ PUSH2 0x1028 JUMPI PUSH1 0x0 DUP5 ISZERO PUSH2 0x1016 JUMPI DUP3 DUP8 ADD MLOAD SWAP1 POP JUMPDEST PUSH2 0x1020 DUP6 DUP3 PUSH2 0xFA2 JUMP JUMPDEST DUP7 SSTORE POP PUSH2 0x1088 JUMP JUMPDEST PUSH1 0x1F NOT DUP5 AND PUSH2 0x1036 DUP7 PUSH2 0xE12 JUMP JUMPDEST PUSH1 0x0 JUMPDEST DUP3 DUP2 LT ISZERO PUSH2 0x105E JUMPI DUP5 DUP10 ADD MLOAD DUP3 SSTORE PUSH1 0x1 DUP3 ADD SWAP2 POP PUSH1 0x20 DUP6 ADD SWAP5 POP PUSH1 0x20 DUP2 ADD SWAP1 POP PUSH2 0x1039 JUMP JUMPDEST DUP7 DUP4 LT ISZERO PUSH2 0x107B JUMPI DUP5 DUP10 ADD MLOAD PUSH2 0x1077 PUSH1 0x1F DUP10 AND DUP3 PUSH2 0xF84 JUMP JUMPDEST DUP4 SSTORE POP JUMPDEST PUSH1 0x1 PUSH1 0x2 DUP9 MUL ADD DUP9 SSTORE POP POP POP JUMPDEST POP POP POP POP POP POP JUMP JUMPDEST PUSH32 0x4E487B7100000000000000000000000000000000000000000000000000000000 PUSH1 0x0 MSTORE PUSH1 0x11 PUSH1 0x4 MSTORE PUSH1 0x24 PUSH1 0x0 REVERT JUMPDEST PUSH1 0x0 PUSH2 0x10CA DUP3 PUSH2 0x957 JUMP JUMPDEST SWAP2 POP PUSH32 0xFFFFFFFFFFFFFFFFFFFFFFFFFFFFFFFFFFFFFFFFFFFFFFFFFFFFFFFFFFFFFFFF DUP3 SUB PUSH2 0x10FC JUMPI PUSH2 0x10FB PUSH2 0x1090 JUMP JUMPDEST JUMPDEST PUSH1 0x1 DUP3 ADD SWAP1 POP SWAP2 SWAP1 POP JUMP JUMPDEST PUSH32 0x54686973206576656E7420646F6573206E6F7420657869737400000000000000 PUSH1 0x0 DUP3 ADD MSTORE POP JUMP JUMPDEST PUSH1 0x0 PUSH2 0x113D PUSH1 0x19 DUP4 PUSH2 0xA89 JUMP JUMPDEST SWAP2 POP PUSH2 0x1148 DUP3 PUSH2 0x1107 JUMP JUMPDEST PUSH1 0x20 DUP3 ADD SWAP1 POP SWAP2 SWAP1 POP JUMP JUMPDEST PUSH1 0x0 PUSH1 0x20 DUP3 ADD SWAP1 POP DUP2 DUP2 SUB PUSH1 0x0 DUP4 ADD MSTORE PUSH2 0x116C DUP2 PUSH2 0x1130 JUMP JUMPDEST SWAP1 POP SWAP2 SWAP1 POP JUMP JUMPDEST PUSH32 0x54686973206576656E742068617320616C7265616479206F6363757265640000 PUSH1 0x0 DUP3 ADD MSTORE POP JUMP JUMPDEST PUSH1 0x0 PUSH2 0x11A9 PUSH1 0x1E DUP4 PUSH2 0xA89 JUMP JUMPDEST SWAP2 POP PUSH2 0x11B4 DUP3 PUSH2 0x1173 JUMP JUMPDEST PUSH1 0x20 DUP3 ADD SWAP1 POP SWAP2 SWAP1 POP JUMP JUMPDEST PUSH1 0x0 PUSH1 0x20 DUP3 ADD SWAP1 POP DUP2 DUP2 SUB PUSH1 0x0 DUP4 ADD MSTORE PUSH2 0x11D8 DUP2 PUSH2 0x119C JUMP JUMPDEST SWAP1 POP SWAP2 SWAP1 POP JUMP JUMPDEST PUSH1 0x0 PUSH2 0x11EA DUP3 PUSH2 0x957 JUMP JUMPDEST SWAP2 POP PUSH2 0x11F5 DUP4 PUSH2 0x957 JUMP JUMPDEST SWAP3 POP DUP3 DUP3 MUL PUSH2 0x1203 DUP2 PUSH2 0x957 JUMP JUMPDEST SWAP2 POP DUP3 DUP3 DIV DUP5 EQ DUP4 ISZERO OR PUSH2 0x121A JUMPI PUSH2 0x1219 PUSH2 0x1090 JUMP JUMPDEST JUMPDEST POP SWAP3 SWAP2 POP POP JUMP JUMPDEST PUSH32 0x4574686572206973206E6F7420656E6F75676800000000000000000000000000 PUSH1 0x0 DUP3 ADD MSTORE POP JUMP JUMPDEST PUSH1 0x0 PUSH2 0x1257 PUSH1 0x13 DUP4 PUSH2 0xA89 JUMP JUMPDEST SWAP2 POP PUSH2 0x1262 DUP3 PUSH2 0x1221 JUMP JUMPDEST PUSH1 0x20 DUP3 ADD SWAP1 POP SWAP2 SWAP1 POP JUMP JUMPDEST PUSH1 0x0 PUSH1 0x20 DUP3 ADD SWAP1 POP DUP2 DUP2 SUB PUSH1 0x0 DUP4 ADD MSTORE PUSH2 0x1286 DUP2 PUSH2 0x124A JUMP JUMPDEST SWAP1 POP SWAP2 SWAP1 POP JUMP JUMPDEST PUSH32 0x4E6F7420656E6F756768207469636B6574730000000000000000000000000000 PUSH1 0x0 DUP3 ADD MSTORE POP JUMP JUMPDEST PUSH1 0x0 PUSH2 0x12C3 PUSH1 0x12 DUP4 PUSH2 0xA89 JUMP JUMPDEST SWAP2 POP PUSH2 0x12CE DUP3 PUSH2 0x128D JUMP JUMPDEST PUSH1 0x20 DUP3 ADD SWAP1 POP SWAP2 SWAP1 POP JUMP JUMPDEST PUSH1 0x0 PUSH1 0x20 DUP3 ADD SWAP1 POP DUP2 DUP2 SUB PUSH1 0x0 DUP4 ADD MSTORE PUSH2 0x12F2 DUP2 PUSH2 0x12B6 JUMP JUMPDEST SWAP1 POP SWAP2 SWAP1 POP JUMP JUMPDEST PUSH1 0x0 PUSH2 0x1304 DUP3 PUSH2 0x957 JUMP JUMPDEST SWAP2 POP PUSH2 0x130F DUP4 PUSH2 0x957 JUMP JUMPDEST SWAP3 POP DUP3 DUP3 SUB SWAP1 POP DUP2 DUP2 GT ISZERO PUSH2 0x1327 JUMPI PUSH2 0x1326 PUSH2 0x1090 JUMP JUMPDEST JUMPDEST SWAP3 SWAP2 POP POP JUMP JUMPDEST PUSH1 0x0 PUSH2 0x1338 DUP3 PUSH2 0x957 JUMP JUMPDEST SWAP2 POP PUSH2 0x1343 DUP4 PUSH2 0x957 JUMP JUMPDEST SWAP3 POP DUP3 DUP3 ADD SWAP1 POP DUP1 DUP3 GT ISZERO PUSH2 0x135B JUMPI PUSH2 0x135A PUSH2 0x1090 JUMP JUMPDEST JUMPDEST SWAP3 SWAP2 POP POP JUMP JUMPDEST PUSH32 0x596F7520646F206E6F74206861766520656E6F756768207469636B6574730000 PUSH1 0x0 DUP3 ADD MSTORE POP JUMP JUMPDEST PUSH1 0x0 PUSH2 0x1397 PUSH1 0x1E DUP4 PUSH2 0xA89 JUMP JUMPDEST SWAP2 POP PUSH2 0x13A2 DUP3 PUSH2 0x1361 JUMP JUMPDEST PUSH1 0x20 DUP3 ADD SWAP1 POP SWAP2 SWAP1 POP JUMP JUMPDEST PUSH1 0x0 PUSH1 0x20 DUP3 ADD SWAP1 POP DUP2 DUP2 SUB PUSH1 0x0 DUP4 ADD MSTORE PUSH2 0x13C6 DUP2 PUSH2 0x138A JUMP JUMPDEST SWAP1 POP SWAP2 SWAP1 POP JUMP INVALID LOG2 PUSH5 0x6970667358 0x22 SLT KECCAK256 0xDB 0x4C SHR 0x2D SSTORE SIGNEXTEND 0x4D 0xFB SWAP5 PC PUSH21 0xA54145869572423C839A65EFF12185121CE9339B77 PUSH5 0x736F6C6343 STOP ADDMOD SLT STOP CALLER "
				},
				"gasEstimates": {
					"creation": {
						"codeDepositCost": "1024600",
						"executionCost": "1067",
						"totalCost": "1025667"
					},
					"external": {
						"buyTicket(uint256,uint256)": "infinite",
						"createEvent(string,uint256,uint256,uint256)": "infinite",
						"events(uint256)": "infinite",
						"nextId()": "2473",
						"tickets(address,uint256)": "infinite",
						"transferTicket(uint256,uint256,address)": "infinite"
					}
				},
				"methodIdentifiers": {
					"buyTicket(uint256,uint256)": "298ec208",
					"createEvent(string,uint256,uint256,uint256)": "0374ab0b",
					"events(uint256)": "0b791430",
					"nextId()": "61b8ce8c",
					"tickets(address,uint256)": "dae7a13c",
					"transferTicket(uint256,uint256,address)": "f086a09b"
				}
			},
			"storageLayout": {
				"storage": [
					{
						"astId": 19,
						"contract": "by-code-eater/event-organization/event.sol:Eventcontract",
						"label": "events",
						"offset": 0,
						"slot": "0",
						"type": "t_mapping(t_uint256,t_struct(Event)14_storage)"
					},
					{
						"astId": 25,
						"contract": "by-code-eater/event-organization/event.sol:Eventcontract",
						"label": "tickets",
						"offset": 0,
						"slot": "1",
						"type": "t_mapping(t_address,t_mapping(t_uint256,t_uint256))"
					},
					{
						"astId": 27,
						"contract": "by-code-eater/event-organization/event.sol:Eventcontract",
						"label": "nextId",
						"offset": 0,
						"slot": "2",
						"type": "t_uint256"
					}
				],
				"types": {
					"t_address": {
						"encoding": "inplace",
						"label": "address",
						"numberOfBytes": "20"
					},
					"t_mapping(t_address,t_mapping(t_uint256,t_uint256))": {
						"encoding": "mapping",
						"key": "t_address",
						"label": "mapping(address => mapping(uint256 => uint256))",
						"numberOfBytes": "32",
						"value": "t_mapping(t_uint256,t_uint256)"
					},
					"t_mapping(t_uint256,t_struct(Event)14_storage)": {
						"encoding": "mapping",
						"key": "t_uint256",
						"label": "mapping(uint256 => struct Eventcontract.Event)",
						"numberOfBytes": "32",
						"value": "t_struct(Event)14_storage"
					},
					"t_mapping(t_uint256,t_uint256)": {
						"encoding": "mapping",
						"key": "t_uint256",
						"label": "mapping(uint256 => uint256)",
						"numberOfBytes": "32",
						"value": "t_uint256"
					},
					"t_string_storage": {
						"encoding": "bytes",
						"label": "string",
						"numberOfBytes": "32"
					},
					"t_struct(Event)14_storage": {
						"encoding": "inplace",
						"label": "struct Eventcontract.Event",
						"members": [
							{
								"astId": 3,
								"contract": "by-code-eater/event-organization/event.sol:Eventcontract",
								"label": "organizer",
								"offset": 0,
								"slot": "0",
								"type": "t_address"
							},
							{
								"astId": 5,
								"contract": "by-code-eater/event-organization/event.sol:Eventcontract",
								"label": "name",
								"offset": 0,
								"slot": "1",
								"type": "t_string_storage"
							},
							{
								"astId": 7,
								"contract": "by-code-eater/event-organization/event.sol:Eventcontract",
								"label": "date",
								"offset": 0,
								"slot": "2",
								"type": "t_uint256"
							},
							{
								"astId": 9,
								"contract": "by-code-eater/event-organization/event.sol:Eventcontract",
								"label": "price",
								"offset": 0,
								"slot": "3",
								"type": "t_uint256"
							},
							{
								"astId": 11,
								"contract": "by-code-eater/event-organization/event.sol:Eventcontract",
								"label": "ticketCount",
								"offset": 0,
								"slot": "4",
								"type": "t_uint256"
							},
							{
								"astId": 13,
								"contract": "by-code-eater/event-organization/event.sol:Eventcontract",
								"label": "ticketRemain",
								"offset": 0,
								"slot": "5",
								"type": "t_uint256"
							}
						],
						"numberOfBytes": "192"
					},
					"t_uint256": {
						"encoding": "inplace",
						"label": "uint256",
						"numberOfBytes": "32"
					}
				}
			},
			"userdoc": {
				"kind": "user",
				"methods": {},
				"version": 1
			}
		}
	}
}