{
	"by-code-eater/crowd-funding-project/main.sol": {
		"CrowdFunding": {
			"abi": [
				{
					"inputs": [
						{
							"internalType": "uint256",
							"name": "_target",
							"type": "uint256"
						},
						{
							"internalType": "uint256",
							"name": "_deadline",
							"type": "uint256"
						}
					],
					"stateMutability": "nonpayable",
					"type": "constructor"
				},
				{
					"inputs": [
						{
							"internalType": "address",
							"name": "",
							"type": "address"
						}
					],
					"name": "contributors",
					"outputs": [
						{
							"internalType": "uint256",
							"name": "",
							"type": "uint256"
						}
					],
					"stateMutability": "view",
					"type": "function"
				},
				{
					"inputs": [
						{
							"internalType": "string",
							"name": "_description",
							"type": "string"
						},
						{
							"internalType": "address payable",
							"name": "_recipient",
							"type": "address"
						},
						{
							"internalType": "uint256",
							"name": "_value",
							"type": "uint256"
						}
					],
					"name": "createRequests",
					"outputs": [],
					"stateMutability": "nonpayable",
					"type": "function"
				},
				{
					"inputs": [],
					"name": "deadline",
					"outputs": [
						{
							"internalType": "uint256",
							"name": "",
							"type": "uint256"
						}
					],
					"stateMutability": "view",
					"type": "function"
				},
				{
					"inputs": [],
					"name": "getContractBalance",
					"outputs": [
						{
							"internalType": "uint256",
							"name": "",
							"type": "uint256"
						}
					],
					"stateMutability": "view",
					"type": "function"
				},
				{
					"inputs": [
						{
							"internalType": "uint256",
							"name": "_requestNo",
							"type": "uint256"
						}
					],
					"name": "makePayment",
					"outputs": [],
					"stateMutability": "nonpayable",
					"type": "function"
				},
				{
					"inputs": [],
					"name": "manager",
					"outputs": [
						{
							"internalType": "address",
							"name": "",
							"type": "address"
						}
					],
					"stateMutability": "view",
					"type": "function"
				},
				{
					"inputs": [],
					"name": "minimumContribution",
					"outputs": [
						{
							"internalType": "uint256",
							"name": "",
							"type": "uint256"
						}
					],
					"stateMutability": "view",
					"type": "function"
				},
				{
					"inputs": [],
					"name": "noOfContributors",
					"outputs": [
						{
							"internalType": "uint256",
							"name": "",
							"type": "uint256"
						}
					],
					"stateMutability": "view",
					"type": "function"
				},
				{
					"inputs": [],
					"name": "numRequests",
					"outputs": [
						{
							"internalType": "uint256",
							"name": "",
							"type": "uint256"
						}
					],
					"stateMutability": "view",
					"type": "function"
				},
				{
					"inputs": [],
					"name": "raisedAmount",
					"outputs": [
						{
							"internalType": "uint256",
							"name": "",
							"type": "uint256"
						}
					],
					"stateMutability": "view",
					"type": "function"
				},
				{
					"inputs": [],
					"name": "refund",
					"outputs": [],
					"stateMutability": "nonpayable",
					"type": "function"
				},
				{
					"inputs": [
						{
							"internalType": "uint256",
							"name": "",
							"type": "uint256"
						}
					],
					"name": "requests",
					"outputs": [
						{
							"internalType": "string",
							"name": "description",
							"type": "string"
						},
						{
							"internalType": "address payable",
							"name": "recipient",
							"type": "address"
						},
						{
							"internalType": "uint256",
							"name": "value",
							"type": "uint256"
						},
						{
							"internalType": "bool",
							"name": "completed",
							"type": "bool"
						},
						{
							"internalType": "uint256",
							"name": "noOfVoters",
							"type": "uint256"
						}
					],
					"stateMutability": "view",
					"type": "function"
				},
				{
					"inputs": [],
					"name": "sendEth",
					"outputs": [],
					"stateMutability": "payable",
					"type": "function"
				},
				{
					"inputs": [],
					"name": "target",
					"outputs": [
						{
							"internalType": "uint256",
							"name": "",
							"type": "uint256"
						}
					],
					"stateMutability": "view",
					"type": "function"
				},
				{
					"inputs": [
						{
							"internalType": "uint256",
							"name": "_requestNo",
							"type": "uint256"
						}
					],
					"name": "voteRequest",
					"outputs": [],
					"stateMutability": "nonpayable",
					"type": "function"
				}
			],
			"devdoc": {
				"kind": "dev",
				"methods": {},
				"version": 1
			},
			"evm": {
				"assembly": "    /* \"by-code-eater/crowd-funding-project/main.sol\":64:2929  contract CrowdFunding{... */\n  mstore(0x40, 0x80)\n    /* \"by-code-eater/crowd-funding-project/main.sol\":610:797  constructor(uint _target,uint _deadline){... */\n  callvalue\n  dup1\n  iszero\n  tag_1\n  jumpi\n  0x00\n  dup1\n  revert\ntag_1:\n  pop\n  mload(0x40)\n  sub(codesize, bytecodeSize)\n  dup1\n  bytecodeSize\n  dup4\n  codecopy\n  dup2\n  dup2\n  add\n  0x40\n  mstore\n  dup2\n  add\n  swap1\n  tag_2\n  swap2\n  swap1\n  tag_3\n  jump\t// in\ntag_2:\n    /* \"by-code-eater/crowd-funding-project/main.sol\":668:675  _target */\n  dup2\n    /* \"by-code-eater/crowd-funding-project/main.sol\":661:667  target */\n  0x04\n    /* \"by-code-eater/crowd-funding-project/main.sol\":661:675  target=_target */\n  dup2\n  swap1\n  sstore\n  pop\n    /* \"by-code-eater/crowd-funding-project/main.sol\":711:720  _deadline */\n  dup1\n    /* \"by-code-eater/crowd-funding-project/main.sol\":695:710  block.timestamp */\n  timestamp\n    /* \"by-code-eater/crowd-funding-project/main.sol\":695:720  block.timestamp+_deadline */\n  tag_6\n  swap2\n  swap1\n  tag_7\n  jump\t// in\ntag_6:\n    /* \"by-code-eater/crowd-funding-project/main.sol\":686:694  deadline */\n  0x03\n    /* \"by-code-eater/crowd-funding-project/main.sol\":686:720  deadline=block.timestamp+_deadline */\n  dup2\n  swap1\n  sstore\n  pop\n    /* \"by-code-eater/crowd-funding-project/main.sol\":753:760  100 wei */\n  0x64\n    /* \"by-code-eater/crowd-funding-project/main.sol\":731:750  minimumContribution */\n  0x02\n    /* \"by-code-eater/crowd-funding-project/main.sol\":731:760  minimumContribution = 100 wei */\n  dup2\n  swap1\n  sstore\n  pop\n    /* \"by-code-eater/crowd-funding-project/main.sol\":779:789  msg.sender */\n  caller\n    /* \"by-code-eater/crowd-funding-project/main.sol\":771:778  manager */\n  0x01\n  0x00\n    /* \"by-code-eater/crowd-funding-project/main.sol\":771:789  manager=msg.sender */\n  0x0100\n  exp\n  dup2\n  sload\n  dup2\n  0xffffffffffffffffffffffffffffffffffffffff\n  mul\n  not\n  and\n  swap1\n  dup4\n  0xffffffffffffffffffffffffffffffffffffffff\n  and\n  mul\n  or\n  swap1\n  sstore\n  pop\n    /* \"by-code-eater/crowd-funding-project/main.sol\":610:797  constructor(uint _target,uint _deadline){... */\n  pop\n  pop\n    /* \"by-code-eater/crowd-funding-project/main.sol\":64:2929  contract CrowdFunding{... */\n  jump(tag_8)\n    /* \"#utility.yul\":88:205   */\ntag_10:\n    /* \"#utility.yul\":197:198   */\n  0x00\n    /* \"#utility.yul\":194:195   */\n  dup1\n    /* \"#utility.yul\":187:199   */\n  revert\n    /* \"#utility.yul\":334:411   */\ntag_12:\n    /* \"#utility.yul\":371:378   */\n  0x00\n    /* \"#utility.yul\":400:405   */\n  dup2\n    /* \"#utility.yul\":389:405   */\n  swap1\n  pop\n    /* \"#utility.yul\":334:411   */\n  swap2\n  swap1\n  pop\n  jump\t// out\n    /* \"#utility.yul\":417:539   */\ntag_13:\n    /* \"#utility.yul\":490:514   */\n  tag_22\n    /* \"#utility.yul\":508:513   */\n  dup2\n    /* \"#utility.yul\":490:514   */\n  tag_12\n  jump\t// in\ntag_22:\n    /* \"#utility.yul\":483:488   */\n  dup2\n    /* \"#utility.yul\":480:515   */\n  eq\n    /* \"#utility.yul\":470:533   */\n  tag_23\n  jumpi\n    /* \"#utility.yul\":529:530   */\n  0x00\n    /* \"#utility.yul\":526:527   */\n  dup1\n    /* \"#utility.yul\":519:531   */\n  revert\n    /* \"#utility.yul\":470:533   */\ntag_23:\n    /* \"#utility.yul\":417:539   */\n  pop\n  jump\t// out\n    /* \"#utility.yul\":545:688   */\ntag_14:\n    /* \"#utility.yul\":602:607   */\n  0x00\n    /* \"#utility.yul\":633:639   */\n  dup2\n    /* \"#utility.yul\":627:640   */\n  mload\n    /* \"#utility.yul\":618:640   */\n  swap1\n  pop\n    /* \"#utility.yul\":649:682   */\n  tag_25\n    /* \"#utility.yul\":676:681   */\n  dup2\n    /* \"#utility.yul\":649:682   */\n  tag_13\n  jump\t// in\ntag_25:\n    /* \"#utility.yul\":545:688   */\n  swap3\n  swap2\n  pop\n  pop\n  jump\t// out\n    /* \"#utility.yul\":694:1201   */\ntag_3:\n    /* \"#utility.yul\":773:779   */\n  0x00\n    /* \"#utility.yul\":781:787   */\n  dup1\n    /* \"#utility.yul\":830:832   */\n  0x40\n    /* \"#utility.yul\":818:827   */\n  dup4\n    /* \"#utility.yul\":809:816   */\n  dup6\n    /* \"#utility.yul\":805:828   */\n  sub\n    /* \"#utility.yul\":801:833   */\n  slt\n    /* \"#utility.yul\":798:917   */\n  iszero\n  tag_27\n  jumpi\n    /* \"#utility.yul\":836:915   */\n  tag_28\n  tag_10\n  jump\t// in\ntag_28:\n    /* \"#utility.yul\":798:917   */\ntag_27:\n    /* \"#utility.yul\":956:957   */\n  0x00\n    /* \"#utility.yul\":981:1045   */\n  tag_29\n    /* \"#utility.yul\":1037:1044   */\n  dup6\n    /* \"#utility.yul\":1028:1034   */\n  dup3\n    /* \"#utility.yul\":1017:1026   */\n  dup7\n    /* \"#utility.yul\":1013:1035   */\n  add\n    /* \"#utility.yul\":981:1045   */\n  tag_14\n  jump\t// in\ntag_29:\n    /* \"#utility.yul\":971:1045   */\n  swap3\n  pop\n    /* \"#utility.yul\":927:1055   */\n  pop\n    /* \"#utility.yul\":1094:1096   */\n  0x20\n    /* \"#utility.yul\":1120:1184   */\n  tag_30\n    /* \"#utility.yul\":1176:1183   */\n  dup6\n    /* \"#utility.yul\":1167:1173   */\n  dup3\n    /* \"#utility.yul\":1156:1165   */\n  dup7\n    /* \"#utility.yul\":1152:1174   */\n  add\n    /* \"#utility.yul\":1120:1184   */\n  tag_14\n  jump\t// in\ntag_30:\n    /* \"#utility.yul\":1110:1184   */\n  swap2\n  pop\n    /* \"#utility.yul\":1065:1194   */\n  pop\n    /* \"#utility.yul\":694:1201   */\n  swap3\n  pop\n  swap3\n  swap1\n  pop\n  jump\t// out\n    /* \"#utility.yul\":1207:1387   */\ntag_15:\n    /* \"#utility.yul\":1255:1332   */\n  0x4e487b7100000000000000000000000000000000000000000000000000000000\n    /* \"#utility.yul\":1252:1253   */\n  0x00\n    /* \"#utility.yul\":1245:1333   */\n  mstore\n    /* \"#utility.yul\":1352:1356   */\n  0x11\n    /* \"#utility.yul\":1349:1350   */\n  0x04\n    /* \"#utility.yul\":1342:1357   */\n  mstore\n    /* \"#utility.yul\":1376:1380   */\n  0x24\n    /* \"#utility.yul\":1373:1374   */\n  0x00\n    /* \"#utility.yul\":1366:1381   */\n  revert\n    /* \"#utility.yul\":1393:1584   */\ntag_7:\n    /* \"#utility.yul\":1433:1436   */\n  0x00\n    /* \"#utility.yul\":1452:1472   */\n  tag_33\n    /* \"#utility.yul\":1470:1471   */\n  dup3\n    /* \"#utility.yul\":1452:1472   */\n  tag_12\n  jump\t// in\ntag_33:\n    /* \"#utility.yul\":1447:1472   */\n  swap2\n  pop\n    /* \"#utility.yul\":1486:1506   */\n  tag_34\n    /* \"#utility.yul\":1504:1505   */\n  dup4\n    /* \"#utility.yul\":1486:1506   */\n  tag_12\n  jump\t// in\ntag_34:\n    /* \"#utility.yul\":1481:1506   */\n  swap3\n  pop\n    /* \"#utility.yul\":1529:1530   */\n  dup3\n    /* \"#utility.yul\":1526:1527   */\n  dup3\n    /* \"#utility.yul\":1522:1531   */\n  add\n    /* \"#utility.yul\":1515:1531   */\n  swap1\n  pop\n    /* \"#utility.yul\":1550:1553   */\n  dup1\n    /* \"#utility.yul\":1547:1548   */\n  dup3\n    /* \"#utility.yul\":1544:1554   */\n  gt\n    /* \"#utility.yul\":1541:1577   */\n  iszero\n  tag_35\n  jumpi\n    /* \"#utility.yul\":1557:1575   */\n  tag_36\n  tag_15\n  jump\t// in\ntag_36:\n    /* \"#utility.yul\":1541:1577   */\ntag_35:\n    /* \"#utility.yul\":1393:1584   */\n  swap3\n  swap2\n  pop\n  pop\n  jump\t// out\n    /* \"by-code-eater/crowd-funding-project/main.sol\":64:2929  contract CrowdFunding{... */\ntag_8:\n  dataSize(sub_0)\n  dup1\n  dataOffset(sub_0)\n  0x00\n  codecopy\n  0x00\n  return\nstop\n\nsub_0: assembly {\n        /* \"by-code-eater/crowd-funding-project/main.sol\":64:2929  contract CrowdFunding{... */\n      mstore(0x40, 0x80)\n      jumpi(tag_1, lt(calldatasize, 0x04))\n      shr(0xe0, calldataload(0x00))\n      dup1\n      0x5114cb52\n      gt\n      tag_17\n      jumpi\n      dup1\n      0x937e09b1\n      gt\n      tag_18\n      jumpi\n      dup1\n      0x937e09b1\n      eq\n      tag_13\n      jumpi\n      dup1\n      0x9fb42b1f\n      eq\n      tag_14\n      jumpi\n      dup1\n      0xc59ee1dc\n      eq\n      tag_15\n      jumpi\n      dup1\n      0xd4b83992\n      eq\n      tag_16\n      jumpi\n      jump(tag_1)\n    tag_18:\n      dup1\n      0x5114cb52\n      eq\n      tag_9\n      jumpi\n      dup1\n      0x590e1ae3\n      eq\n      tag_10\n      jumpi\n      dup1\n      0x6f9fb98a\n      eq\n      tag_11\n      jumpi\n      dup1\n      0x81d12c58\n      eq\n      tag_12\n      jumpi\n      jump(tag_1)\n    tag_17:\n      dup1\n      0x3eb7647b\n      gt\n      tag_19\n      jumpi\n      dup1\n      0x3eb7647b\n      eq\n      tag_5\n      jumpi\n      dup1\n      0x481c6a75\n      eq\n      tag_6\n      jumpi\n      dup1\n      0x4cb6f4a5\n      eq\n      tag_7\n      jumpi\n      dup1\n      0x4e260f6f\n      eq\n      tag_8\n      jumpi\n      jump(tag_1)\n    tag_19:\n      dup1\n      0x06e99fef\n      eq\n      tag_2\n      jumpi\n      dup1\n      0x1f6d4942\n      eq\n      tag_3\n      jumpi\n      dup1\n      0x29dcb0cf\n      eq\n      tag_4\n      jumpi\n    tag_1:\n      0x00\n      dup1\n      revert\n        /* \"by-code-eater/crowd-funding-project/main.sol\":805:1164  function sendEth() public payable{... */\n    tag_2:\n      tag_20\n      tag_21\n      jump\t// in\n    tag_20:\n      stop\n        /* \"by-code-eater/crowd-funding-project/main.sol\":92:134  mapping(address=>uint) public contributors */\n    tag_3:\n      callvalue\n      dup1\n      iszero\n      tag_22\n      jumpi\n      0x00\n      dup1\n      revert\n    tag_22:\n      pop\n      tag_23\n      0x04\n      dup1\n      calldatasize\n      sub\n      dup2\n      add\n      swap1\n      tag_24\n      swap2\n      swap1\n      tag_25\n      jump\t// in\n    tag_24:\n      tag_26\n      jump\t// in\n    tag_23:\n      mload(0x40)\n      tag_27\n      swap2\n      swap1\n      tag_28\n      jump\t// in\n    tag_27:\n      mload(0x40)\n      dup1\n      swap2\n      sub\n      swap1\n      return\n        /* \"by-code-eater/crowd-funding-project/main.sol\":208:228  uint public deadline */\n    tag_4:\n      callvalue\n      dup1\n      iszero\n      tag_29\n      jumpi\n      0x00\n      dup1\n      revert\n    tag_29:\n      pop\n      tag_30\n      tag_31\n      jump\t// in\n    tag_30:\n      mload(0x40)\n      tag_32\n      swap2\n      swap1\n      tag_28\n      jump\t// in\n    tag_32:\n      mload(0x40)\n      dup1\n      swap2\n      sub\n      swap1\n      return\n        /* \"by-code-eater/crowd-funding-project/main.sol\":1736:2131  function createRequests(string memory _description,address payable _recipient,uint _value) public onlyManager{... */\n    tag_5:\n      callvalue\n      dup1\n      iszero\n      tag_33\n      jumpi\n      0x00\n      dup1\n      revert\n    tag_33:\n      pop\n      tag_34\n      0x04\n      dup1\n      calldatasize\n      sub\n      dup2\n      add\n      swap1\n      tag_35\n      swap2\n      swap1\n      tag_36\n      jump\t// in\n    tag_35:\n      tag_37\n      jump\t// in\n    tag_34:\n      stop\n        /* \"by-code-eater/crowd-funding-project/main.sol\":141:163  address public manager */\n    tag_6:\n      callvalue\n      dup1\n      iszero\n      tag_38\n      jumpi\n      0x00\n      dup1\n      revert\n    tag_38:\n      pop\n      tag_39\n      tag_40\n      jump\t// in\n    tag_39:\n      mload(0x40)\n      tag_41\n      swap2\n      swap1\n      tag_42\n      jump\t// in\n    tag_41:\n      mload(0x40)\n      dup1\n      swap2\n      sub\n      swap1\n      return\n        /* \"by-code-eater/crowd-funding-project/main.sol\":2139:2485  function voteRequest(uint _requestNo) public{... */\n    tag_7:\n      callvalue\n      dup1\n      iszero\n      tag_43\n      jumpi\n      0x00\n      dup1\n      revert\n    tag_43:\n      pop\n      tag_44\n      0x04\n      dup1\n      calldatasize\n      sub\n      dup2\n      add\n      swap1\n      tag_45\n      swap2\n      swap1\n      tag_46\n      jump\t// in\n    tag_45:\n      tag_47\n      jump\t// in\n    tag_44:\n      stop\n        /* \"by-code-eater/crowd-funding-project/main.sol\":291:319  uint public noOfContributors */\n    tag_8:\n      callvalue\n      dup1\n      iszero\n      tag_48\n      jumpi\n      0x00\n      dup1\n      revert\n    tag_48:\n      pop\n      tag_49\n      tag_50\n      jump\t// in\n    tag_49:\n      mload(0x40)\n      tag_51\n      swap2\n      swap1\n      tag_28\n      jump\t// in\n    tag_51:\n      mload(0x40)\n      dup1\n      swap2\n      sub\n      swap1\n      return\n        /* \"by-code-eater/crowd-funding-project/main.sol\":2493:2926  function makePayment(uint _requestNo) public onlyManager{... */\n    tag_9:\n      callvalue\n      dup1\n      iszero\n      tag_52\n      jumpi\n      0x00\n      dup1\n      revert\n    tag_52:\n      pop\n      tag_53\n      0x04\n      dup1\n      calldatasize\n      sub\n      dup2\n      add\n      swap1\n      tag_54\n      swap2\n      swap1\n      tag_46\n      jump\t// in\n    tag_54:\n      tag_55\n      jump\t// in\n    tag_53:\n      stop\n        /* \"by-code-eater/crowd-funding-project/main.sol\":1282:1601  function refund() public{... */\n    tag_10:\n      callvalue\n      dup1\n      iszero\n      tag_56\n      jumpi\n      0x00\n      dup1\n      revert\n    tag_56:\n      pop\n      tag_57\n      tag_58\n      jump\t// in\n    tag_57:\n      stop\n        /* \"by-code-eater/crowd-funding-project/main.sol\":1172:1274  function getContractBalance() public view returns(uint){... */\n    tag_11:\n      callvalue\n      dup1\n      iszero\n      tag_59\n      jumpi\n      0x00\n      dup1\n      revert\n    tag_59:\n      pop\n      tag_60\n      tag_61\n      jump\t// in\n    tag_60:\n      mload(0x40)\n      tag_62\n      swap2\n      swap1\n      tag_28\n      jump\t// in\n    tag_62:\n      mload(0x40)\n      dup1\n      swap2\n      sub\n      swap1\n      return\n        /* \"by-code-eater/crowd-funding-project/main.sol\":533:571  mapping(uint=>Request) public requests */\n    tag_12:\n      callvalue\n      dup1\n      iszero\n      tag_63\n      jumpi\n      0x00\n      dup1\n      revert\n    tag_63:\n      pop\n      tag_64\n      0x04\n      dup1\n      calldatasize\n      sub\n      dup2\n      add\n      swap1\n      tag_65\n      swap2\n      swap1\n      tag_46\n      jump\t// in\n    tag_65:\n      tag_66\n      jump\t// in\n    tag_64:\n      mload(0x40)\n      tag_67\n      swap6\n      swap5\n      swap4\n      swap3\n      swap2\n      swap1\n      tag_68\n      jump\t// in\n    tag_67:\n      mload(0x40)\n      dup1\n      swap2\n      sub\n      swap1\n      return\n        /* \"by-code-eater/crowd-funding-project/main.sol\":170:201  uint public minimumContribution */\n    tag_13:\n      callvalue\n      dup1\n      iszero\n      tag_69\n      jumpi\n      0x00\n      dup1\n      revert\n    tag_69:\n      pop\n      tag_70\n      tag_71\n      jump\t// in\n    tag_70:\n      mload(0x40)\n      tag_72\n      swap2\n      swap1\n      tag_28\n      jump\t// in\n    tag_72:\n      mload(0x40)\n      dup1\n      swap2\n      sub\n      swap1\n      return\n        /* \"by-code-eater/crowd-funding-project/main.sol\":578:601  uint public numRequests */\n    tag_14:\n      callvalue\n      dup1\n      iszero\n      tag_73\n      jumpi\n      0x00\n      dup1\n      revert\n    tag_73:\n      pop\n      tag_74\n      tag_75\n      jump\t// in\n    tag_74:\n      mload(0x40)\n      tag_76\n      swap2\n      swap1\n      tag_28\n      jump\t// in\n    tag_76:\n      mload(0x40)\n      dup1\n      swap2\n      sub\n      swap1\n      return\n        /* \"by-code-eater/crowd-funding-project/main.sol\":260:284  uint public raisedAmount */\n    tag_15:\n      callvalue\n      dup1\n      iszero\n      tag_77\n      jumpi\n      0x00\n      dup1\n      revert\n    tag_77:\n      pop\n      tag_78\n      tag_79\n      jump\t// in\n    tag_78:\n      mload(0x40)\n      tag_80\n      swap2\n      swap1\n      tag_28\n      jump\t// in\n    tag_80:\n      mload(0x40)\n      dup1\n      swap2\n      sub\n      swap1\n      return\n        /* \"by-code-eater/crowd-funding-project/main.sol\":235:253  uint public target */\n    tag_16:\n      callvalue\n      dup1\n      iszero\n      tag_81\n      jumpi\n      0x00\n      dup1\n      revert\n    tag_81:\n      pop\n      tag_82\n      tag_83\n      jump\t// in\n    tag_82:\n      mload(0x40)\n      tag_84\n      swap2\n      swap1\n      tag_28\n      jump\t// in\n    tag_84:\n      mload(0x40)\n      dup1\n      swap2\n      sub\n      swap1\n      return\n        /* \"by-code-eater/crowd-funding-project/main.sol\":805:1164  function sendEth() public payable{... */\n    tag_21:\n        /* \"by-code-eater/crowd-funding-project/main.sol\":873:881  deadline */\n      sload(0x03)\n        /* \"by-code-eater/crowd-funding-project/main.sol\":857:872  block.timestamp */\n      timestamp\n        /* \"by-code-eater/crowd-funding-project/main.sol\":857:881  block.timestamp<deadline */\n      lt\n        /* \"by-code-eater/crowd-funding-project/main.sol\":849:904  require(block.timestamp<deadline,\"Deadline has passed\") */\n      tag_86\n      jumpi\n      mload(0x40)\n      0x08c379a000000000000000000000000000000000000000000000000000000000\n      dup2\n      mstore\n      0x04\n      add\n      tag_87\n      swap1\n      tag_88\n      jump\t// in\n    tag_87:\n      mload(0x40)\n      dup1\n      swap2\n      sub\n      swap1\n      revert\n    tag_86:\n        /* \"by-code-eater/crowd-funding-project/main.sol\":934:953  minimumContribution */\n      sload(0x02)\n        /* \"by-code-eater/crowd-funding-project/main.sol\":923:932  msg.value */\n      callvalue\n        /* \"by-code-eater/crowd-funding-project/main.sol\":923:953  msg.value>=minimumContribution */\n      lt\n      iszero\n        /* \"by-code-eater/crowd-funding-project/main.sol\":915:988  require(msg.value>=minimumContribution,\"Minimum contribution is not met\") */\n      tag_89\n      jumpi\n      mload(0x40)\n      0x08c379a000000000000000000000000000000000000000000000000000000000\n      dup2\n      mstore\n      0x04\n      add\n      tag_90\n      swap1\n      tag_91\n      jump\t// in\n    tag_90:\n      mload(0x40)\n      dup1\n      swap2\n      sub\n      swap1\n      revert\n    tag_89:\n        /* \"by-code-eater/crowd-funding-project/main.sol\":1030:1031  0 */\n      0x00\n        /* \"by-code-eater/crowd-funding-project/main.sol\":1004:1016  contributors */\n      dup1\n        /* \"by-code-eater/crowd-funding-project/main.sol\":1004:1028  contributors[msg.sender] */\n      0x00\n        /* \"by-code-eater/crowd-funding-project/main.sol\":1017:1027  msg.sender */\n      caller\n        /* \"by-code-eater/crowd-funding-project/main.sol\":1004:1028  contributors[msg.sender] */\n      0xffffffffffffffffffffffffffffffffffffffff\n      and\n      0xffffffffffffffffffffffffffffffffffffffff\n      and\n      dup2\n      mstore\n      0x20\n      add\n      swap1\n      dup2\n      mstore\n      0x20\n      add\n      0x00\n      keccak256\n      sload\n        /* \"by-code-eater/crowd-funding-project/main.sol\":1004:1031  contributors[msg.sender]==0 */\n      sub\n        /* \"by-code-eater/crowd-funding-project/main.sol\":1001:1077  if(contributors[msg.sender]==0){... */\n      tag_92\n      jumpi\n        /* \"by-code-eater/crowd-funding-project/main.sol\":1047:1063  noOfContributors */\n      0x06\n      0x00\n        /* \"by-code-eater/crowd-funding-project/main.sol\":1047:1065  noOfContributors++ */\n      dup2\n      sload\n      dup1\n      swap3\n      swap2\n      swap1\n      tag_93\n      swap1\n      tag_94\n      jump\t// in\n    tag_93:\n      swap2\n      swap1\n      pop\n      sstore\n      pop\n        /* \"by-code-eater/crowd-funding-project/main.sol\":1001:1077  if(contributors[msg.sender]==0){... */\n    tag_92:\n        /* \"by-code-eater/crowd-funding-project/main.sol\":1113:1122  msg.value */\n      callvalue\n        /* \"by-code-eater/crowd-funding-project/main.sol\":1087:1099  contributors */\n      0x00\n        /* \"by-code-eater/crowd-funding-project/main.sol\":1087:1111  contributors[msg.sender] */\n      dup1\n        /* \"by-code-eater/crowd-funding-project/main.sol\":1100:1110  msg.sender */\n      caller\n        /* \"by-code-eater/crowd-funding-project/main.sol\":1087:1111  contributors[msg.sender] */\n      0xffffffffffffffffffffffffffffffffffffffff\n      and\n      0xffffffffffffffffffffffffffffffffffffffff\n      and\n      dup2\n      mstore\n      0x20\n      add\n      swap1\n      dup2\n      mstore\n      0x20\n      add\n      0x00\n      keccak256\n      0x00\n        /* \"by-code-eater/crowd-funding-project/main.sol\":1087:1122  contributors[msg.sender]+=msg.value */\n      dup3\n      dup3\n      sload\n      tag_95\n      swap2\n      swap1\n      tag_96\n      jump\t// in\n    tag_95:\n      swap3\n      pop\n      pop\n      dup2\n      swap1\n      sstore\n      pop\n        /* \"by-code-eater/crowd-funding-project/main.sol\":1147:1156  msg.value */\n      callvalue\n        /* \"by-code-eater/crowd-funding-project/main.sol\":1133:1145  raisedAmount */\n      0x05\n      0x00\n        /* \"by-code-eater/crowd-funding-project/main.sol\":1133:1156  raisedAmount+=msg.value */\n      dup3\n      dup3\n      sload\n      tag_97\n      swap2\n      swap1\n      tag_96\n      jump\t// in\n    tag_97:\n      swap3\n      pop\n      pop\n      dup2\n      swap1\n      sstore\n      pop\n        /* \"by-code-eater/crowd-funding-project/main.sol\":805:1164  function sendEth() public payable{... */\n      jump\t// out\n        /* \"by-code-eater/crowd-funding-project/main.sol\":92:134  mapping(address=>uint) public contributors */\n    tag_26:\n      mstore(0x20, 0x00)\n      dup1\n      0x00\n      mstore\n      keccak256(0x00, 0x40)\n      0x00\n      swap2\n      pop\n      swap1\n      pop\n      sload\n      dup2\n      jump\t// out\n        /* \"by-code-eater/crowd-funding-project/main.sol\":208:228  uint public deadline */\n    tag_31:\n      sload(0x03)\n      dup2\n      jump\t// out\n        /* \"by-code-eater/crowd-funding-project/main.sol\":1736:2131  function createRequests(string memory _description,address payable _recipient,uint _value) public onlyManager{... */\n    tag_37:\n        /* \"by-code-eater/crowd-funding-project/main.sol\":1662:1669  manager */\n      0x01\n      0x00\n      swap1\n      sload\n      swap1\n      0x0100\n      exp\n      swap1\n      div\n      0xffffffffffffffffffffffffffffffffffffffff\n      and\n        /* \"by-code-eater/crowd-funding-project/main.sol\":1650:1669  msg.sender==manager */\n      0xffffffffffffffffffffffffffffffffffffffff\n      and\n        /* \"by-code-eater/crowd-funding-project/main.sol\":1650:1660  msg.sender */\n      caller\n        /* \"by-code-eater/crowd-funding-project/main.sol\":1650:1669  msg.sender==manager */\n      0xffffffffffffffffffffffffffffffffffffffff\n      and\n      eq\n        /* \"by-code-eater/crowd-funding-project/main.sol\":1642:1708  require(msg.sender==manager,\"Only manager can call this function\") */\n      tag_99\n      jumpi\n      mload(0x40)\n      0x08c379a000000000000000000000000000000000000000000000000000000000\n      dup2\n      mstore\n      0x04\n      add\n      tag_100\n      swap1\n      tag_101\n      jump\t// in\n    tag_100:\n      mload(0x40)\n      dup1\n      swap2\n      sub\n      swap1\n      revert\n    tag_99:\n        /* \"by-code-eater/crowd-funding-project/main.sol\":1856:1882  Request storage newRequest */\n      0x00\n        /* \"by-code-eater/crowd-funding-project/main.sol\":1885:1893  requests */\n      0x07\n        /* \"by-code-eater/crowd-funding-project/main.sol\":1885:1906  requests[numRequests] */\n      0x00\n        /* \"by-code-eater/crowd-funding-project/main.sol\":1894:1905  numRequests */\n      sload(0x08)\n        /* \"by-code-eater/crowd-funding-project/main.sol\":1885:1906  requests[numRequests] */\n      dup2\n      mstore\n      0x20\n      add\n      swap1\n      dup2\n      mstore\n      0x20\n      add\n      0x00\n      keccak256\n        /* \"by-code-eater/crowd-funding-project/main.sol\":1856:1906  Request storage newRequest = requests[numRequests] */\n      swap1\n      pop\n        /* \"by-code-eater/crowd-funding-project/main.sol\":1917:1928  numRequests */\n      0x08\n      0x00\n        /* \"by-code-eater/crowd-funding-project/main.sol\":1917:1930  numRequests++ */\n      dup2\n      sload\n      dup1\n      swap3\n      swap2\n      swap1\n      tag_103\n      swap1\n      tag_94\n      jump\t// in\n    tag_103:\n      swap2\n      swap1\n      pop\n      sstore\n      pop\n        /* \"by-code-eater/crowd-funding-project/main.sol\":1964:1976  _description */\n      dup4\n        /* \"by-code-eater/crowd-funding-project/main.sol\":1941:1951  newRequest */\n      dup2\n        /* \"by-code-eater/crowd-funding-project/main.sol\":1941:1963  newRequest.description */\n      0x00\n      add\n        /* \"by-code-eater/crowd-funding-project/main.sol\":1941:1976  newRequest.description=_description */\n      swap1\n      dup2\n      tag_104\n      swap2\n      swap1\n      tag_105\n      jump\t// in\n    tag_104:\n      pop\n        /* \"by-code-eater/crowd-funding-project/main.sol\":2008:2018  _recipient */\n      dup3\n        /* \"by-code-eater/crowd-funding-project/main.sol\":1987:1997  newRequest */\n      dup2\n        /* \"by-code-eater/crowd-funding-project/main.sol\":1987:2007  newRequest.recipient */\n      0x01\n      add\n      0x00\n        /* \"by-code-eater/crowd-funding-project/main.sol\":1987:2018  newRequest.recipient=_recipient */\n      0x0100\n      exp\n      dup2\n      sload\n      dup2\n      0xffffffffffffffffffffffffffffffffffffffff\n      mul\n      not\n      and\n      swap1\n      dup4\n      0xffffffffffffffffffffffffffffffffffffffff\n      and\n      mul\n      or\n      swap1\n      sstore\n      pop\n        /* \"by-code-eater/crowd-funding-project/main.sol\":2046:2052  _value */\n      dup2\n        /* \"by-code-eater/crowd-funding-project/main.sol\":2029:2039  newRequest */\n      dup2\n        /* \"by-code-eater/crowd-funding-project/main.sol\":2029:2045  newRequest.value */\n      0x02\n      add\n        /* \"by-code-eater/crowd-funding-project/main.sol\":2029:2052  newRequest.value=_value */\n      dup2\n      swap1\n      sstore\n      pop\n        /* \"by-code-eater/crowd-funding-project/main.sol\":2084:2089  false */\n      0x00\n        /* \"by-code-eater/crowd-funding-project/main.sol\":2063:2073  newRequest */\n      dup2\n        /* \"by-code-eater/crowd-funding-project/main.sol\":2063:2083  newRequest.completed */\n      0x03\n      add\n      0x00\n        /* \"by-code-eater/crowd-funding-project/main.sol\":2063:2089  newRequest.completed=false */\n      0x0100\n      exp\n      dup2\n      sload\n      dup2\n      0xff\n      mul\n      not\n      and\n      swap1\n      dup4\n      iszero\n      iszero\n      mul\n      or\n      swap1\n      sstore\n      pop\n        /* \"by-code-eater/crowd-funding-project/main.sol\":2122:2123  0 */\n      0x00\n        /* \"by-code-eater/crowd-funding-project/main.sol\":2100:2110  newRequest */\n      dup2\n        /* \"by-code-eater/crowd-funding-project/main.sol\":2100:2121  newRequest.noOfVoters */\n      0x04\n      add\n        /* \"by-code-eater/crowd-funding-project/main.sol\":2100:2123  newRequest.noOfVoters=0 */\n      dup2\n      swap1\n      sstore\n      pop\n        /* \"by-code-eater/crowd-funding-project/main.sol\":1845:2131  {... */\n      pop\n        /* \"by-code-eater/crowd-funding-project/main.sol\":1736:2131  function createRequests(string memory _description,address payable _recipient,uint _value) public onlyManager{... */\n      pop\n      pop\n      pop\n      jump\t// out\n        /* \"by-code-eater/crowd-funding-project/main.sol\":141:163  address public manager */\n    tag_40:\n      0x01\n      0x00\n      swap1\n      sload\n      swap1\n      0x0100\n      exp\n      swap1\n      div\n      0xffffffffffffffffffffffffffffffffffffffff\n      and\n      dup2\n      jump\t// out\n        /* \"by-code-eater/crowd-funding-project/main.sol\":2139:2485  function voteRequest(uint _requestNo) public{... */\n    tag_47:\n        /* \"by-code-eater/crowd-funding-project/main.sol\":2227:2228  0 */\n      0x00\n        /* \"by-code-eater/crowd-funding-project/main.sol\":2202:2214  contributors */\n      dup1\n        /* \"by-code-eater/crowd-funding-project/main.sol\":2202:2226  contributors[msg.sender] */\n      0x00\n        /* \"by-code-eater/crowd-funding-project/main.sol\":2215:2225  msg.sender */\n      caller\n        /* \"by-code-eater/crowd-funding-project/main.sol\":2202:2226  contributors[msg.sender] */\n      0xffffffffffffffffffffffffffffffffffffffff\n      and\n      0xffffffffffffffffffffffffffffffffffffffff\n      and\n      dup2\n      mstore\n      0x20\n      add\n      swap1\n      dup2\n      mstore\n      0x20\n      add\n      0x00\n      keccak256\n      sload\n        /* \"by-code-eater/crowd-funding-project/main.sol\":2202:2228  contributors[msg.sender]>0 */\n      gt\n        /* \"by-code-eater/crowd-funding-project/main.sol\":2194:2255  require(contributors[msg.sender]>0,\"You must be contributor\") */\n      tag_107\n      jumpi\n      mload(0x40)\n      0x08c379a000000000000000000000000000000000000000000000000000000000\n      dup2\n      mstore\n      0x04\n      add\n      tag_108\n      swap1\n      tag_109\n      jump\t// in\n    tag_108:\n      mload(0x40)\n      dup1\n      swap2\n      sub\n      swap1\n      revert\n    tag_107:\n        /* \"by-code-eater/crowd-funding-project/main.sol\":2266:2293  Request storage thisRequest */\n      0x00\n        /* \"by-code-eater/crowd-funding-project/main.sol\":2294:2302  requests */\n      0x07\n        /* \"by-code-eater/crowd-funding-project/main.sol\":2294:2314  requests[_requestNo] */\n      0x00\n        /* \"by-code-eater/crowd-funding-project/main.sol\":2303:2313  _requestNo */\n      dup4\n        /* \"by-code-eater/crowd-funding-project/main.sol\":2294:2314  requests[_requestNo] */\n      dup2\n      mstore\n      0x20\n      add\n      swap1\n      dup2\n      mstore\n      0x20\n      add\n      0x00\n      keccak256\n        /* \"by-code-eater/crowd-funding-project/main.sol\":2266:2314  Request storage thisRequest=requests[_requestNo] */\n      swap1\n      pop\n        /* \"by-code-eater/crowd-funding-project/main.sol\":2365:2370  false */\n      0x00\n        /* \"by-code-eater/crowd-funding-project/main.sol\":2333:2370  thisRequest.voters[msg.sender]==false */\n      iszero\n      iszero\n        /* \"by-code-eater/crowd-funding-project/main.sol\":2333:2344  thisRequest */\n      dup2\n        /* \"by-code-eater/crowd-funding-project/main.sol\":2333:2351  thisRequest.voters */\n      0x05\n      add\n        /* \"by-code-eater/crowd-funding-project/main.sol\":2333:2363  thisRequest.voters[msg.sender] */\n      0x00\n        /* \"by-code-eater/crowd-funding-project/main.sol\":2352:2362  msg.sender */\n      caller\n        /* \"by-code-eater/crowd-funding-project/main.sol\":2333:2363  thisRequest.voters[msg.sender] */\n      0xffffffffffffffffffffffffffffffffffffffff\n      and\n      0xffffffffffffffffffffffffffffffffffffffff\n      and\n      dup2\n      mstore\n      0x20\n      add\n      swap1\n      dup2\n      mstore\n      0x20\n      add\n      0x00\n      keccak256\n      0x00\n      swap1\n      sload\n      swap1\n      0x0100\n      exp\n      swap1\n      div\n      0xff\n      and\n        /* \"by-code-eater/crowd-funding-project/main.sol\":2333:2370  thisRequest.voters[msg.sender]==false */\n      iszero\n      iszero\n      eq\n        /* \"by-code-eater/crowd-funding-project/main.sol\":2325:2396  require(thisRequest.voters[msg.sender]==false,\"You have already voted\") */\n      tag_110\n      jumpi\n      mload(0x40)\n      0x08c379a000000000000000000000000000000000000000000000000000000000\n      dup2\n      mstore\n      0x04\n      add\n      tag_111\n      swap1\n      tag_112\n      jump\t// in\n    tag_111:\n      mload(0x40)\n      dup1\n      swap2\n      sub\n      swap1\n      revert\n    tag_110:\n        /* \"by-code-eater/crowd-funding-project/main.sol\":2438:2442  true */\n      0x01\n        /* \"by-code-eater/crowd-funding-project/main.sol\":2407:2418  thisRequest */\n      dup2\n        /* \"by-code-eater/crowd-funding-project/main.sol\":2407:2425  thisRequest.voters */\n      0x05\n      add\n        /* \"by-code-eater/crowd-funding-project/main.sol\":2407:2437  thisRequest.voters[msg.sender] */\n      0x00\n        /* \"by-code-eater/crowd-funding-project/main.sol\":2426:2436  msg.sender */\n      caller\n        /* \"by-code-eater/crowd-funding-project/main.sol\":2407:2437  thisRequest.voters[msg.sender] */\n      0xffffffffffffffffffffffffffffffffffffffff\n      and\n      0xffffffffffffffffffffffffffffffffffffffff\n      and\n      dup2\n      mstore\n      0x20\n      add\n      swap1\n      dup2\n      mstore\n      0x20\n      add\n      0x00\n      keccak256\n      0x00\n        /* \"by-code-eater/crowd-funding-project/main.sol\":2407:2442  thisRequest.voters[msg.sender]=true */\n      0x0100\n      exp\n      dup2\n      sload\n      dup2\n      0xff\n      mul\n      not\n      and\n      swap1\n      dup4\n      iszero\n      iszero\n      mul\n      or\n      swap1\n      sstore\n      pop\n        /* \"by-code-eater/crowd-funding-project/main.sol\":2453:2464  thisRequest */\n      dup1\n        /* \"by-code-eater/crowd-funding-project/main.sol\":2453:2475  thisRequest.noOfVoters */\n      0x04\n      add\n      0x00\n        /* \"by-code-eater/crowd-funding-project/main.sol\":2453:2477  thisRequest.noOfVoters++ */\n      dup2\n      sload\n      dup1\n      swap3\n      swap2\n      swap1\n      tag_113\n      swap1\n      tag_94\n      jump\t// in\n    tag_113:\n      swap2\n      swap1\n      pop\n      sstore\n      pop\n        /* \"by-code-eater/crowd-funding-project/main.sol\":2183:2485  {... */\n      pop\n        /* \"by-code-eater/crowd-funding-project/main.sol\":2139:2485  function voteRequest(uint _requestNo) public{... */\n      pop\n      jump\t// out\n        /* \"by-code-eater/crowd-funding-project/main.sol\":291:319  uint public noOfContributors */\n    tag_50:\n      sload(0x06)\n      dup2\n      jump\t// out\n        /* \"by-code-eater/crowd-funding-project/main.sol\":2493:2926  function makePayment(uint _requestNo) public onlyManager{... */\n    tag_55:\n        /* \"by-code-eater/crowd-funding-project/main.sol\":1662:1669  manager */\n      0x01\n      0x00\n      swap1\n      sload\n      swap1\n      0x0100\n      exp\n      swap1\n      div\n      0xffffffffffffffffffffffffffffffffffffffff\n      and\n        /* \"by-code-eater/crowd-funding-project/main.sol\":1650:1669  msg.sender==manager */\n      0xffffffffffffffffffffffffffffffffffffffff\n      and\n        /* \"by-code-eater/crowd-funding-project/main.sol\":1650:1660  msg.sender */\n      caller\n        /* \"by-code-eater/crowd-funding-project/main.sol\":1650:1669  msg.sender==manager */\n      0xffffffffffffffffffffffffffffffffffffffff\n      and\n      eq\n        /* \"by-code-eater/crowd-funding-project/main.sol\":1642:1708  require(msg.sender==manager,\"Only manager can call this function\") */\n      tag_115\n      jumpi\n      mload(0x40)\n      0x08c379a000000000000000000000000000000000000000000000000000000000\n      dup2\n      mstore\n      0x04\n      add\n      tag_116\n      swap1\n      tag_101\n      jump\t// in\n    tag_116:\n      mload(0x40)\n      dup1\n      swap2\n      sub\n      swap1\n      revert\n    tag_115:\n        /* \"by-code-eater/crowd-funding-project/main.sol\":2581:2587  target */\n      sload(0x04)\n        /* \"by-code-eater/crowd-funding-project/main.sol\":2568:2580  raisedAmount */\n      sload(0x05)\n        /* \"by-code-eater/crowd-funding-project/main.sol\":2568:2587  raisedAmount>target */\n      gt\n        /* \"by-code-eater/crowd-funding-project/main.sol\":2560:2588  require(raisedAmount>target) */\n      tag_118\n      jumpi\n      0x00\n      dup1\n      revert\n    tag_118:\n        /* \"by-code-eater/crowd-funding-project/main.sol\":2599:2626  Request storage thisRequest */\n      0x00\n        /* \"by-code-eater/crowd-funding-project/main.sol\":2627:2635  requests */\n      0x07\n        /* \"by-code-eater/crowd-funding-project/main.sol\":2627:2647  requests[_requestNo] */\n      0x00\n        /* \"by-code-eater/crowd-funding-project/main.sol\":2636:2646  _requestNo */\n      dup4\n        /* \"by-code-eater/crowd-funding-project/main.sol\":2627:2647  requests[_requestNo] */\n      dup2\n      mstore\n      0x20\n      add\n      swap1\n      dup2\n      mstore\n      0x20\n      add\n      0x00\n      keccak256\n        /* \"by-code-eater/crowd-funding-project/main.sol\":2599:2647  Request storage thisRequest=requests[_requestNo] */\n      swap1\n      pop\n        /* \"by-code-eater/crowd-funding-project/main.sol\":2689:2694  false */\n      0x00\n        /* \"by-code-eater/crowd-funding-project/main.sol\":2666:2694  thisRequest.completed==false */\n      iszero\n      iszero\n        /* \"by-code-eater/crowd-funding-project/main.sol\":2666:2677  thisRequest */\n      dup2\n        /* \"by-code-eater/crowd-funding-project/main.sol\":2666:2687  thisRequest.completed */\n      0x03\n      add\n      0x00\n      swap1\n      sload\n      swap1\n      0x0100\n      exp\n      swap1\n      div\n      0xff\n      and\n        /* \"by-code-eater/crowd-funding-project/main.sol\":2666:2694  thisRequest.completed==false */\n      iszero\n      iszero\n      eq\n        /* \"by-code-eater/crowd-funding-project/main.sol\":2658:2728  require(thisRequest.completed==false,\"The request has been completed\") */\n      tag_119\n      jumpi\n      mload(0x40)\n      0x08c379a000000000000000000000000000000000000000000000000000000000\n      dup2\n      mstore\n      0x04\n      add\n      tag_120\n      swap1\n      tag_121\n      jump\t// in\n    tag_120:\n      mload(0x40)\n      dup1\n      swap2\n      sub\n      swap1\n      revert\n    tag_119:\n        /* \"by-code-eater/crowd-funding-project/main.sol\":2789:2790  2 */\n      0x02\n        /* \"by-code-eater/crowd-funding-project/main.sol\":2772:2788  noOfContributors */\n      sload(0x06)\n        /* \"by-code-eater/crowd-funding-project/main.sol\":2772:2790  noOfContributors/2 */\n      tag_122\n      swap2\n      swap1\n      tag_123\n      jump\t// in\n    tag_122:\n        /* \"by-code-eater/crowd-funding-project/main.sol\":2747:2758  thisRequest */\n      dup2\n        /* \"by-code-eater/crowd-funding-project/main.sol\":2747:2769  thisRequest.noOfVoters */\n      0x04\n      add\n      sload\n        /* \"by-code-eater/crowd-funding-project/main.sol\":2747:2790  thisRequest.noOfVoters > noOfContributors/2 */\n      gt\n        /* \"by-code-eater/crowd-funding-project/main.sol\":2739:2819  require(thisRequest.noOfVoters > noOfContributors/2,\"Majority does not support\") */\n      tag_124\n      jumpi\n      mload(0x40)\n      0x08c379a000000000000000000000000000000000000000000000000000000000\n      dup2\n      mstore\n      0x04\n      add\n      tag_125\n      swap1\n      tag_126\n      jump\t// in\n    tag_125:\n      mload(0x40)\n      dup1\n      swap2\n      sub\n      swap1\n      revert\n    tag_124:\n        /* \"by-code-eater/crowd-funding-project/main.sol\":2830:2841  thisRequest */\n      dup1\n        /* \"by-code-eater/crowd-funding-project/main.sol\":2830:2851  thisRequest.recipient */\n      0x01\n      add\n      0x00\n      swap1\n      sload\n      swap1\n      0x0100\n      exp\n      swap1\n      div\n      0xffffffffffffffffffffffffffffffffffffffff\n      and\n        /* \"by-code-eater/crowd-funding-project/main.sol\":2830:2860  thisRequest.recipient.transfer */\n      0xffffffffffffffffffffffffffffffffffffffff\n      and\n        /* \"by-code-eater/crowd-funding-project/main.sol\":2830:2879  thisRequest.recipient.transfer(thisRequest.value) */\n      0x08fc\n        /* \"by-code-eater/crowd-funding-project/main.sol\":2861:2872  thisRequest */\n      dup3\n        /* \"by-code-eater/crowd-funding-project/main.sol\":2861:2878  thisRequest.value */\n      0x02\n      add\n      sload\n        /* \"by-code-eater/crowd-funding-project/main.sol\":2830:2879  thisRequest.recipient.transfer(thisRequest.value) */\n      swap1\n      dup2\n      iszero\n      mul\n      swap1\n      mload(0x40)\n      0x00\n      mload(0x40)\n      dup1\n      dup4\n      sub\n      dup2\n      dup6\n      dup9\n      dup9\n      call\n      swap4\n      pop\n      pop\n      pop\n      pop\n      iszero\n      dup1\n      iszero\n      tag_128\n      jumpi\n      returndatasize\n      0x00\n      dup1\n      returndatacopy\n      revert(0x00, returndatasize)\n    tag_128:\n      pop\n        /* \"by-code-eater/crowd-funding-project/main.sol\":2912:2916  true */\n      0x01\n        /* \"by-code-eater/crowd-funding-project/main.sol\":2890:2901  thisRequest */\n      dup2\n        /* \"by-code-eater/crowd-funding-project/main.sol\":2890:2911  thisRequest.completed */\n      0x03\n      add\n      0x00\n        /* \"by-code-eater/crowd-funding-project/main.sol\":2890:2916  thisRequest.completed=true */\n      0x0100\n      exp\n      dup2\n      sload\n      dup2\n      0xff\n      mul\n      not\n      and\n      swap1\n      dup4\n      iszero\n      iszero\n      mul\n      or\n      swap1\n      sstore\n      pop\n        /* \"by-code-eater/crowd-funding-project/main.sol\":2549:2926  {... */\n      pop\n        /* \"by-code-eater/crowd-funding-project/main.sol\":2493:2926  function makePayment(uint _requestNo) public onlyManager{... */\n      pop\n      jump\t// out\n        /* \"by-code-eater/crowd-funding-project/main.sol\":1282:1601  function refund() public{... */\n    tag_58:\n        /* \"by-code-eater/crowd-funding-project/main.sol\":1341:1349  deadline */\n      sload(0x03)\n        /* \"by-code-eater/crowd-funding-project/main.sol\":1325:1340  block.timestamp */\n      timestamp\n        /* \"by-code-eater/crowd-funding-project/main.sol\":1325:1349  block.timestamp>deadline */\n      gt\n        /* \"by-code-eater/crowd-funding-project/main.sol\":1325:1372  block.timestamp>deadline && raisedAmount<target */\n      dup1\n      iszero\n      tag_130\n      jumpi\n      pop\n        /* \"by-code-eater/crowd-funding-project/main.sol\":1366:1372  target */\n      sload(0x04)\n        /* \"by-code-eater/crowd-funding-project/main.sol\":1353:1365  raisedAmount */\n      sload(0x05)\n        /* \"by-code-eater/crowd-funding-project/main.sol\":1353:1372  raisedAmount<target */\n      lt\n        /* \"by-code-eater/crowd-funding-project/main.sol\":1325:1372  block.timestamp>deadline && raisedAmount<target */\n    tag_130:\n        /* \"by-code-eater/crowd-funding-project/main.sol\":1317:1407  require(block.timestamp>deadline && raisedAmount<target,\"You are not eligible for refund\") */\n      tag_131\n      jumpi\n      mload(0x40)\n      0x08c379a000000000000000000000000000000000000000000000000000000000\n      dup2\n      mstore\n      0x04\n      add\n      tag_132\n      swap1\n      tag_133\n      jump\t// in\n    tag_132:\n      mload(0x40)\n      dup1\n      swap2\n      sub\n      swap1\n      revert\n    tag_131:\n        /* \"by-code-eater/crowd-funding-project/main.sol\":1451:1452  0 */\n      0x00\n        /* \"by-code-eater/crowd-funding-project/main.sol\":1426:1438  contributors */\n      dup1\n        /* \"by-code-eater/crowd-funding-project/main.sol\":1426:1450  contributors[msg.sender] */\n      0x00\n        /* \"by-code-eater/crowd-funding-project/main.sol\":1439:1449  msg.sender */\n      caller\n        /* \"by-code-eater/crowd-funding-project/main.sol\":1426:1450  contributors[msg.sender] */\n      0xffffffffffffffffffffffffffffffffffffffff\n      and\n      0xffffffffffffffffffffffffffffffffffffffff\n      and\n      dup2\n      mstore\n      0x20\n      add\n      swap1\n      dup2\n      mstore\n      0x20\n      add\n      0x00\n      keccak256\n      sload\n        /* \"by-code-eater/crowd-funding-project/main.sol\":1426:1452  contributors[msg.sender]>0 */\n      gt\n        /* \"by-code-eater/crowd-funding-project/main.sol\":1418:1453  require(contributors[msg.sender]>0) */\n      tag_134\n      jumpi\n      0x00\n      dup1\n      revert\n    tag_134:\n        /* \"by-code-eater/crowd-funding-project/main.sol\":1464:1484  address payable user */\n      0x00\n        /* \"by-code-eater/crowd-funding-project/main.sol\":1495:1505  msg.sender */\n      caller\n        /* \"by-code-eater/crowd-funding-project/main.sol\":1464:1506  address payable user = payable(msg.sender) */\n      swap1\n      pop\n        /* \"by-code-eater/crowd-funding-project/main.sol\":1517:1521  user */\n      dup1\n        /* \"by-code-eater/crowd-funding-project/main.sol\":1517:1530  user.transfer */\n      0xffffffffffffffffffffffffffffffffffffffff\n      and\n        /* \"by-code-eater/crowd-funding-project/main.sol\":1517:1556  user.transfer(contributors[msg.sender]) */\n      0x08fc\n        /* \"by-code-eater/crowd-funding-project/main.sol\":1531:1543  contributors */\n      0x00\n        /* \"by-code-eater/crowd-funding-project/main.sol\":1531:1555  contributors[msg.sender] */\n      dup1\n        /* \"by-code-eater/crowd-funding-project/main.sol\":1544:1554  msg.sender */\n      caller\n        /* \"by-code-eater/crowd-funding-project/main.sol\":1531:1555  contributors[msg.sender] */\n      0xffffffffffffffffffffffffffffffffffffffff\n      and\n      0xffffffffffffffffffffffffffffffffffffffff\n      and\n      dup2\n      mstore\n      0x20\n      add\n      swap1\n      dup2\n      mstore\n      0x20\n      add\n      0x00\n      keccak256\n      sload\n        /* \"by-code-eater/crowd-funding-project/main.sol\":1517:1556  user.transfer(contributors[msg.sender]) */\n      swap1\n      dup2\n      iszero\n      mul\n      swap1\n      mload(0x40)\n      0x00\n      mload(0x40)\n      dup1\n      dup4\n      sub\n      dup2\n      dup6\n      dup9\n      dup9\n      call\n      swap4\n      pop\n      pop\n      pop\n      pop\n      iszero\n      dup1\n      iszero\n      tag_136\n      jumpi\n      returndatasize\n      0x00\n      dup1\n      returndatacopy\n      revert(0x00, returndatasize)\n    tag_136:\n      pop\n        /* \"by-code-eater/crowd-funding-project/main.sol\":1592:1593  0 */\n      0x00\n        /* \"by-code-eater/crowd-funding-project/main.sol\":1567:1579  contributors */\n      dup1\n        /* \"by-code-eater/crowd-funding-project/main.sol\":1567:1591  contributors[msg.sender] */\n      0x00\n        /* \"by-code-eater/crowd-funding-project/main.sol\":1580:1590  msg.sender */\n      caller\n        /* \"by-code-eater/crowd-funding-project/main.sol\":1567:1591  contributors[msg.sender] */\n      0xffffffffffffffffffffffffffffffffffffffff\n      and\n      0xffffffffffffffffffffffffffffffffffffffff\n      and\n      dup2\n      mstore\n      0x20\n      add\n      swap1\n      dup2\n      mstore\n      0x20\n      add\n      0x00\n      keccak256\n        /* \"by-code-eater/crowd-funding-project/main.sol\":1567:1593  contributors[msg.sender]=0 */\n      dup2\n      swap1\n      sstore\n      pop\n        /* \"by-code-eater/crowd-funding-project/main.sol\":1306:1601  {... */\n      pop\n        /* \"by-code-eater/crowd-funding-project/main.sol\":1282:1601  function refund() public{... */\n      jump\t// out\n        /* \"by-code-eater/crowd-funding-project/main.sol\":1172:1274  function getContractBalance() public view returns(uint){... */\n    tag_61:\n        /* \"by-code-eater/crowd-funding-project/main.sol\":1222:1226  uint */\n      0x00\n        /* \"by-code-eater/crowd-funding-project/main.sol\":1245:1266  address(this).balance */\n      selfbalance\n        /* \"by-code-eater/crowd-funding-project/main.sol\":1238:1266  return address(this).balance */\n      swap1\n      pop\n        /* \"by-code-eater/crowd-funding-project/main.sol\":1172:1274  function getContractBalance() public view returns(uint){... */\n      swap1\n      jump\t// out\n        /* \"by-code-eater/crowd-funding-project/main.sol\":533:571  mapping(uint=>Request) public requests */\n    tag_66:\n      mstore(0x20, 0x07)\n      dup1\n      0x00\n      mstore\n      keccak256(0x00, 0x40)\n      0x00\n      swap2\n      pop\n      swap1\n      pop\n      dup1\n      0x00\n      add\n      dup1\n      sload\n      tag_138\n      swap1\n      tag_139\n      jump\t// in\n    tag_138:\n      dup1\n      0x1f\n      add\n      0x20\n      dup1\n      swap2\n      div\n      mul\n      0x20\n      add\n      mload(0x40)\n      swap1\n      dup2\n      add\n      0x40\n      mstore\n      dup1\n      swap3\n      swap2\n      swap1\n      dup2\n      dup2\n      mstore\n      0x20\n      add\n      dup3\n      dup1\n      sload\n      tag_140\n      swap1\n      tag_139\n      jump\t// in\n    tag_140:\n      dup1\n      iszero\n      tag_141\n      jumpi\n      dup1\n      0x1f\n      lt\n      tag_142\n      jumpi\n      0x0100\n      dup1\n      dup4\n      sload\n      div\n      mul\n      dup4\n      mstore\n      swap2\n      0x20\n      add\n      swap2\n      jump(tag_141)\n    tag_142:\n      dup3\n      add\n      swap2\n      swap1\n      0x00\n      mstore\n      keccak256(0x00, 0x20)\n      swap1\n    tag_143:\n      dup2\n      sload\n      dup2\n      mstore\n      swap1\n      0x01\n      add\n      swap1\n      0x20\n      add\n      dup1\n      dup4\n      gt\n      tag_143\n      jumpi\n      dup3\n      swap1\n      sub\n      0x1f\n      and\n      dup3\n      add\n      swap2\n    tag_141:\n      pop\n      pop\n      pop\n      pop\n      pop\n      swap1\n      dup1\n      0x01\n      add\n      0x00\n      swap1\n      sload\n      swap1\n      0x0100\n      exp\n      swap1\n      div\n      0xffffffffffffffffffffffffffffffffffffffff\n      and\n      swap1\n      dup1\n      0x02\n      add\n      sload\n      swap1\n      dup1\n      0x03\n      add\n      0x00\n      swap1\n      sload\n      swap1\n      0x0100\n      exp\n      swap1\n      div\n      0xff\n      and\n      swap1\n      dup1\n      0x04\n      add\n      sload\n      swap1\n      pop\n      dup6\n      jump\t// out\n        /* \"by-code-eater/crowd-funding-project/main.sol\":170:201  uint public minimumContribution */\n    tag_71:\n      sload(0x02)\n      dup2\n      jump\t// out\n        /* \"by-code-eater/crowd-funding-project/main.sol\":578:601  uint public numRequests */\n    tag_75:\n      sload(0x08)\n      dup2\n      jump\t// out\n        /* \"by-code-eater/crowd-funding-project/main.sol\":260:284  uint public raisedAmount */\n    tag_79:\n      sload(0x05)\n      dup2\n      jump\t// out\n        /* \"by-code-eater/crowd-funding-project/main.sol\":235:253  uint public target */\n    tag_83:\n      sload(0x04)\n      dup2\n      jump\t// out\n        /* \"#utility.yul\":7:82   */\n    tag_144:\n        /* \"#utility.yul\":40:46   */\n      0x00\n        /* \"#utility.yul\":73:75   */\n      0x40\n        /* \"#utility.yul\":67:76   */\n      mload\n        /* \"#utility.yul\":57:76   */\n      swap1\n      pop\n        /* \"#utility.yul\":7:82   */\n      swap1\n      jump\t// out\n        /* \"#utility.yul\":88:205   */\n    tag_145:\n        /* \"#utility.yul\":197:198   */\n      0x00\n        /* \"#utility.yul\":194:195   */\n      dup1\n        /* \"#utility.yul\":187:199   */\n      revert\n        /* \"#utility.yul\":211:328   */\n    tag_146:\n        /* \"#utility.yul\":320:321   */\n      0x00\n        /* \"#utility.yul\":317:318   */\n      dup1\n        /* \"#utility.yul\":310:322   */\n      revert\n        /* \"#utility.yul\":334:460   */\n    tag_147:\n        /* \"#utility.yul\":371:378   */\n      0x00\n        /* \"#utility.yul\":411:453   */\n      0xffffffffffffffffffffffffffffffffffffffff\n        /* \"#utility.yul\":404:409   */\n      dup3\n        /* \"#utility.yul\":400:454   */\n      and\n        /* \"#utility.yul\":389:454   */\n      swap1\n      pop\n        /* \"#utility.yul\":334:460   */\n      swap2\n      swap1\n      pop\n      jump\t// out\n        /* \"#utility.yul\":466:562   */\n    tag_148:\n        /* \"#utility.yul\":503:510   */\n      0x00\n        /* \"#utility.yul\":532:556   */\n      tag_216\n        /* \"#utility.yul\":550:555   */\n      dup3\n        /* \"#utility.yul\":532:556   */\n      tag_147\n      jump\t// in\n    tag_216:\n        /* \"#utility.yul\":521:556   */\n      swap1\n      pop\n        /* \"#utility.yul\":466:562   */\n      swap2\n      swap1\n      pop\n      jump\t// out\n        /* \"#utility.yul\":568:690   */\n    tag_149:\n        /* \"#utility.yul\":641:665   */\n      tag_218\n        /* \"#utility.yul\":659:664   */\n      dup2\n        /* \"#utility.yul\":641:665   */\n      tag_148\n      jump\t// in\n    tag_218:\n        /* \"#utility.yul\":634:639   */\n      dup2\n        /* \"#utility.yul\":631:666   */\n      eq\n        /* \"#utility.yul\":621:684   */\n      tag_219\n      jumpi\n        /* \"#utility.yul\":680:681   */\n      0x00\n        /* \"#utility.yul\":677:678   */\n      dup1\n        /* \"#utility.yul\":670:682   */\n      revert\n        /* \"#utility.yul\":621:684   */\n    tag_219:\n        /* \"#utility.yul\":568:690   */\n      pop\n      jump\t// out\n        /* \"#utility.yul\":696:835   */\n    tag_150:\n        /* \"#utility.yul\":742:747   */\n      0x00\n        /* \"#utility.yul\":780:786   */\n      dup2\n        /* \"#utility.yul\":767:787   */\n      calldataload\n        /* \"#utility.yul\":758:787   */\n      swap1\n      pop\n        /* \"#utility.yul\":796:829   */\n      tag_221\n        /* \"#utility.yul\":823:828   */\n      dup2\n        /* \"#utility.yul\":796:829   */\n      tag_149\n      jump\t// in\n    tag_221:\n        /* \"#utility.yul\":696:835   */\n      swap3\n      swap2\n      pop\n      pop\n      jump\t// out\n        /* \"#utility.yul\":841:1170   */\n    tag_25:\n        /* \"#utility.yul\":900:906   */\n      0x00\n        /* \"#utility.yul\":949:951   */\n      0x20\n        /* \"#utility.yul\":937:946   */\n      dup3\n        /* \"#utility.yul\":928:935   */\n      dup5\n        /* \"#utility.yul\":924:947   */\n      sub\n        /* \"#utility.yul\":920:952   */\n      slt\n        /* \"#utility.yul\":917:1036   */\n      iszero\n      tag_223\n      jumpi\n        /* \"#utility.yul\":955:1034   */\n      tag_224\n      tag_145\n      jump\t// in\n    tag_224:\n        /* \"#utility.yul\":917:1036   */\n    tag_223:\n        /* \"#utility.yul\":1075:1076   */\n      0x00\n        /* \"#utility.yul\":1100:1153   */\n      tag_225\n        /* \"#utility.yul\":1145:1152   */\n      dup5\n        /* \"#utility.yul\":1136:1142   */\n      dup3\n        /* \"#utility.yul\":1125:1134   */\n      dup6\n        /* \"#utility.yul\":1121:1143   */\n      add\n        /* \"#utility.yul\":1100:1153   */\n      tag_150\n      jump\t// in\n    tag_225:\n        /* \"#utility.yul\":1090:1153   */\n      swap2\n      pop\n        /* \"#utility.yul\":1046:1163   */\n      pop\n        /* \"#utility.yul\":841:1170   */\n      swap3\n      swap2\n      pop\n      pop\n      jump\t// out\n        /* \"#utility.yul\":1176:1253   */\n    tag_151:\n        /* \"#utility.yul\":1213:1220   */\n      0x00\n        /* \"#utility.yul\":1242:1247   */\n      dup2\n        /* \"#utility.yul\":1231:1247   */\n      swap1\n      pop\n        /* \"#utility.yul\":1176:1253   */\n      swap2\n      swap1\n      pop\n      jump\t// out\n        /* \"#utility.yul\":1259:1377   */\n    tag_152:\n        /* \"#utility.yul\":1346:1370   */\n      tag_228\n        /* \"#utility.yul\":1364:1369   */\n      dup2\n        /* \"#utility.yul\":1346:1370   */\n      tag_151\n      jump\t// in\n    tag_228:\n        /* \"#utility.yul\":1341:1344   */\n      dup3\n        /* \"#utility.yul\":1334:1371   */\n      mstore\n        /* \"#utility.yul\":1259:1377   */\n      pop\n      pop\n      jump\t// out\n        /* \"#utility.yul\":1383:1605   */\n    tag_28:\n        /* \"#utility.yul\":1476:1480   */\n      0x00\n        /* \"#utility.yul\":1514:1516   */\n      0x20\n        /* \"#utility.yul\":1503:1512   */\n      dup3\n        /* \"#utility.yul\":1499:1517   */\n      add\n        /* \"#utility.yul\":1491:1517   */\n      swap1\n      pop\n        /* \"#utility.yul\":1527:1598   */\n      tag_230\n        /* \"#utility.yul\":1595:1596   */\n      0x00\n        /* \"#utility.yul\":1584:1593   */\n      dup4\n        /* \"#utility.yul\":1580:1597   */\n      add\n        /* \"#utility.yul\":1571:1577   */\n      dup5\n        /* \"#utility.yul\":1527:1598   */\n      tag_152\n      jump\t// in\n    tag_230:\n        /* \"#utility.yul\":1383:1605   */\n      swap3\n      swap2\n      pop\n      pop\n      jump\t// out\n        /* \"#utility.yul\":1611:1728   */\n    tag_153:\n        /* \"#utility.yul\":1720:1721   */\n      0x00\n        /* \"#utility.yul\":1717:1718   */\n      dup1\n        /* \"#utility.yul\":1710:1722   */\n      revert\n        /* \"#utility.yul\":1734:1851   */\n    tag_154:\n        /* \"#utility.yul\":1843:1844   */\n      0x00\n        /* \"#utility.yul\":1840:1841   */\n      dup1\n        /* \"#utility.yul\":1833:1845   */\n      revert\n        /* \"#utility.yul\":1857:1959   */\n    tag_155:\n        /* \"#utility.yul\":1898:1904   */\n      0x00\n        /* \"#utility.yul\":1949:1951   */\n      0x1f\n        /* \"#utility.yul\":1945:1952   */\n      not\n        /* \"#utility.yul\":1940:1942   */\n      0x1f\n        /* \"#utility.yul\":1933:1938   */\n      dup4\n        /* \"#utility.yul\":1929:1943   */\n      add\n        /* \"#utility.yul\":1925:1953   */\n      and\n        /* \"#utility.yul\":1915:1953   */\n      swap1\n      pop\n        /* \"#utility.yul\":1857:1959   */\n      swap2\n      swap1\n      pop\n      jump\t// out\n        /* \"#utility.yul\":1965:2145   */\n    tag_156:\n        /* \"#utility.yul\":2013:2090   */\n      0x4e487b7100000000000000000000000000000000000000000000000000000000\n        /* \"#utility.yul\":2010:2011   */\n      0x00\n        /* \"#utility.yul\":2003:2091   */\n      mstore\n        /* \"#utility.yul\":2110:2114   */\n      0x41\n        /* \"#utility.yul\":2107:2108   */\n      0x04\n        /* \"#utility.yul\":2100:2115   */\n      mstore\n        /* \"#utility.yul\":2134:2138   */\n      0x24\n        /* \"#utility.yul\":2131:2132   */\n      0x00\n        /* \"#utility.yul\":2124:2139   */\n      revert\n        /* \"#utility.yul\":2151:2432   */\n    tag_157:\n        /* \"#utility.yul\":2234:2261   */\n      tag_236\n        /* \"#utility.yul\":2256:2260   */\n      dup3\n        /* \"#utility.yul\":2234:2261   */\n      tag_155\n      jump\t// in\n    tag_236:\n        /* \"#utility.yul\":2226:2232   */\n      dup2\n        /* \"#utility.yul\":2222:2262   */\n      add\n        /* \"#utility.yul\":2364:2370   */\n      dup2\n        /* \"#utility.yul\":2352:2362   */\n      dup2\n        /* \"#utility.yul\":2349:2371   */\n      lt\n        /* \"#utility.yul\":2328:2346   */\n      0xffffffffffffffff\n        /* \"#utility.yul\":2316:2326   */\n      dup3\n        /* \"#utility.yul\":2313:2347   */\n      gt\n        /* \"#utility.yul\":2310:2372   */\n      or\n        /* \"#utility.yul\":2307:2395   */\n      iszero\n      tag_237\n      jumpi\n        /* \"#utility.yul\":2375:2393   */\n      tag_238\n      tag_156\n      jump\t// in\n    tag_238:\n        /* \"#utility.yul\":2307:2395   */\n    tag_237:\n        /* \"#utility.yul\":2415:2425   */\n      dup1\n        /* \"#utility.yul\":2411:2413   */\n      0x40\n        /* \"#utility.yul\":2404:2426   */\n      mstore\n        /* \"#utility.yul\":2194:2432   */\n      pop\n        /* \"#utility.yul\":2151:2432   */\n      pop\n      pop\n      jump\t// out\n        /* \"#utility.yul\":2438:2567   */\n    tag_158:\n        /* \"#utility.yul\":2472:2478   */\n      0x00\n        /* \"#utility.yul\":2499:2519   */\n      tag_240\n      tag_144\n      jump\t// in\n    tag_240:\n        /* \"#utility.yul\":2489:2519   */\n      swap1\n      pop\n        /* \"#utility.yul\":2528:2561   */\n      tag_241\n        /* \"#utility.yul\":2556:2560   */\n      dup3\n        /* \"#utility.yul\":2548:2554   */\n      dup3\n        /* \"#utility.yul\":2528:2561   */\n      tag_157\n      jump\t// in\n    tag_241:\n        /* \"#utility.yul\":2438:2567   */\n      swap2\n      swap1\n      pop\n      jump\t// out\n        /* \"#utility.yul\":2573:2881   */\n    tag_159:\n        /* \"#utility.yul\":2635:2639   */\n      0x00\n        /* \"#utility.yul\":2725:2743   */\n      0xffffffffffffffff\n        /* \"#utility.yul\":2717:2723   */\n      dup3\n        /* \"#utility.yul\":2714:2744   */\n      gt\n        /* \"#utility.yul\":2711:2767   */\n      iszero\n      tag_243\n      jumpi\n        /* \"#utility.yul\":2747:2765   */\n      tag_244\n      tag_156\n      jump\t// in\n    tag_244:\n        /* \"#utility.yul\":2711:2767   */\n    tag_243:\n        /* \"#utility.yul\":2785:2814   */\n      tag_245\n        /* \"#utility.yul\":2807:2813   */\n      dup3\n        /* \"#utility.yul\":2785:2814   */\n      tag_155\n      jump\t// in\n    tag_245:\n        /* \"#utility.yul\":2777:2814   */\n      swap1\n      pop\n        /* \"#utility.yul\":2869:2873   */\n      0x20\n        /* \"#utility.yul\":2863:2867   */\n      dup2\n        /* \"#utility.yul\":2859:2874   */\n      add\n        /* \"#utility.yul\":2851:2874   */\n      swap1\n      pop\n        /* \"#utility.yul\":2573:2881   */\n      swap2\n      swap1\n      pop\n      jump\t// out\n        /* \"#utility.yul\":2887:3033   */\n    tag_160:\n        /* \"#utility.yul\":2984:2990   */\n      dup3\n        /* \"#utility.yul\":2979:2982   */\n      dup2\n        /* \"#utility.yul\":2974:2977   */\n      dup4\n        /* \"#utility.yul\":2961:2991   */\n      calldatacopy\n        /* \"#utility.yul\":3025:3026   */\n      0x00\n        /* \"#utility.yul\":3016:3022   */\n      dup4\n        /* \"#utility.yul\":3011:3014   */\n      dup4\n        /* \"#utility.yul\":3007:3023   */\n      add\n        /* \"#utility.yul\":3000:3027   */\n      mstore\n        /* \"#utility.yul\":2887:3033   */\n      pop\n      pop\n      pop\n      jump\t// out\n        /* \"#utility.yul\":3039:3464   */\n    tag_161:\n        /* \"#utility.yul\":3117:3122   */\n      0x00\n        /* \"#utility.yul\":3142:3208   */\n      tag_248\n        /* \"#utility.yul\":3158:3207   */\n      tag_249\n        /* \"#utility.yul\":3200:3206   */\n      dup5\n        /* \"#utility.yul\":3158:3207   */\n      tag_159\n      jump\t// in\n    tag_249:\n        /* \"#utility.yul\":3142:3208   */\n      tag_158\n      jump\t// in\n    tag_248:\n        /* \"#utility.yul\":3133:3208   */\n      swap1\n      pop\n        /* \"#utility.yul\":3231:3237   */\n      dup3\n        /* \"#utility.yul\":3224:3229   */\n      dup2\n        /* \"#utility.yul\":3217:3238   */\n      mstore\n        /* \"#utility.yul\":3269:3273   */\n      0x20\n        /* \"#utility.yul\":3262:3267   */\n      dup2\n        /* \"#utility.yul\":3258:3274   */\n      add\n        /* \"#utility.yul\":3307:3310   */\n      dup5\n        /* \"#utility.yul\":3298:3304   */\n      dup5\n        /* \"#utility.yul\":3293:3296   */\n      dup5\n        /* \"#utility.yul\":3289:3305   */\n      add\n        /* \"#utility.yul\":3286:3311   */\n      gt\n        /* \"#utility.yul\":3283:3395   */\n      iszero\n      tag_250\n      jumpi\n        /* \"#utility.yul\":3314:3393   */\n      tag_251\n      tag_154\n      jump\t// in\n    tag_251:\n        /* \"#utility.yul\":3283:3395   */\n    tag_250:\n        /* \"#utility.yul\":3404:3458   */\n      tag_252\n        /* \"#utility.yul\":3451:3457   */\n      dup5\n        /* \"#utility.yul\":3446:3449   */\n      dup3\n        /* \"#utility.yul\":3441:3444   */\n      dup6\n        /* \"#utility.yul\":3404:3458   */\n      tag_160\n      jump\t// in\n    tag_252:\n        /* \"#utility.yul\":3123:3464   */\n      pop\n        /* \"#utility.yul\":3039:3464   */\n      swap4\n      swap3\n      pop\n      pop\n      pop\n      jump\t// out\n        /* \"#utility.yul\":3484:3824   */\n    tag_162:\n        /* \"#utility.yul\":3540:3545   */\n      0x00\n        /* \"#utility.yul\":3589:3592   */\n      dup3\n        /* \"#utility.yul\":3582:3586   */\n      0x1f\n        /* \"#utility.yul\":3574:3580   */\n      dup4\n        /* \"#utility.yul\":3570:3587   */\n      add\n        /* \"#utility.yul\":3566:3593   */\n      slt\n        /* \"#utility.yul\":3556:3678   */\n      tag_254\n      jumpi\n        /* \"#utility.yul\":3597:3676   */\n      tag_255\n      tag_153\n      jump\t// in\n    tag_255:\n        /* \"#utility.yul\":3556:3678   */\n    tag_254:\n        /* \"#utility.yul\":3714:3720   */\n      dup2\n        /* \"#utility.yul\":3701:3721   */\n      calldataload\n        /* \"#utility.yul\":3739:3818   */\n      tag_256\n        /* \"#utility.yul\":3814:3817   */\n      dup5\n        /* \"#utility.yul\":3806:3812   */\n      dup3\n        /* \"#utility.yul\":3799:3803   */\n      0x20\n        /* \"#utility.yul\":3791:3797   */\n      dup7\n        /* \"#utility.yul\":3787:3804   */\n      add\n        /* \"#utility.yul\":3739:3818   */\n      tag_161\n      jump\t// in\n    tag_256:\n        /* \"#utility.yul\":3730:3818   */\n      swap2\n      pop\n        /* \"#utility.yul\":3546:3824   */\n      pop\n        /* \"#utility.yul\":3484:3824   */\n      swap3\n      swap2\n      pop\n      pop\n      jump\t// out\n        /* \"#utility.yul\":3830:3934   */\n    tag_163:\n        /* \"#utility.yul\":3875:3882   */\n      0x00\n        /* \"#utility.yul\":3904:3928   */\n      tag_258\n        /* \"#utility.yul\":3922:3927   */\n      dup3\n        /* \"#utility.yul\":3904:3928   */\n      tag_147\n      jump\t// in\n    tag_258:\n        /* \"#utility.yul\":3893:3928   */\n      swap1\n      pop\n        /* \"#utility.yul\":3830:3934   */\n      swap2\n      swap1\n      pop\n      jump\t// out\n        /* \"#utility.yul\":3940:4078   */\n    tag_164:\n        /* \"#utility.yul\":4021:4053   */\n      tag_260\n        /* \"#utility.yul\":4047:4052   */\n      dup2\n        /* \"#utility.yul\":4021:4053   */\n      tag_163\n      jump\t// in\n    tag_260:\n        /* \"#utility.yul\":4014:4019   */\n      dup2\n        /* \"#utility.yul\":4011:4054   */\n      eq\n        /* \"#utility.yul\":4001:4072   */\n      tag_261\n      jumpi\n        /* \"#utility.yul\":4068:4069   */\n      0x00\n        /* \"#utility.yul\":4065:4066   */\n      dup1\n        /* \"#utility.yul\":4058:4070   */\n      revert\n        /* \"#utility.yul\":4001:4072   */\n    tag_261:\n        /* \"#utility.yul\":3940:4078   */\n      pop\n      jump\t// out\n        /* \"#utility.yul\":4084:4239   */\n    tag_165:\n        /* \"#utility.yul\":4138:4143   */\n      0x00\n        /* \"#utility.yul\":4176:4182   */\n      dup2\n        /* \"#utility.yul\":4163:4183   */\n      calldataload\n        /* \"#utility.yul\":4154:4183   */\n      swap1\n      pop\n        /* \"#utility.yul\":4192:4233   */\n      tag_263\n        /* \"#utility.yul\":4227:4232   */\n      dup2\n        /* \"#utility.yul\":4192:4233   */\n      tag_164\n      jump\t// in\n    tag_263:\n        /* \"#utility.yul\":4084:4239   */\n      swap3\n      swap2\n      pop\n      pop\n      jump\t// out\n        /* \"#utility.yul\":4245:4367   */\n    tag_166:\n        /* \"#utility.yul\":4318:4342   */\n      tag_265\n        /* \"#utility.yul\":4336:4341   */\n      dup2\n        /* \"#utility.yul\":4318:4342   */\n      tag_151\n      jump\t// in\n    tag_265:\n        /* \"#utility.yul\":4311:4316   */\n      dup2\n        /* \"#utility.yul\":4308:4343   */\n      eq\n        /* \"#utility.yul\":4298:4361   */\n      tag_266\n      jumpi\n        /* \"#utility.yul\":4357:4358   */\n      0x00\n        /* \"#utility.yul\":4354:4355   */\n      dup1\n        /* \"#utility.yul\":4347:4359   */\n      revert\n        /* \"#utility.yul\":4298:4361   */\n    tag_266:\n        /* \"#utility.yul\":4245:4367   */\n      pop\n      jump\t// out\n        /* \"#utility.yul\":4373:4512   */\n    tag_167:\n        /* \"#utility.yul\":4419:4424   */\n      0x00\n        /* \"#utility.yul\":4457:4463   */\n      dup2\n        /* \"#utility.yul\":4444:4464   */\n      calldataload\n        /* \"#utility.yul\":4435:4464   */\n      swap1\n      pop\n        /* \"#utility.yul\":4473:4506   */\n      tag_268\n        /* \"#utility.yul\":4500:4505   */\n      dup2\n        /* \"#utility.yul\":4473:4506   */\n      tag_166\n      jump\t// in\n    tag_268:\n        /* \"#utility.yul\":4373:4512   */\n      swap3\n      swap2\n      pop\n      pop\n      jump\t// out\n        /* \"#utility.yul\":4518:5333   */\n    tag_36:\n        /* \"#utility.yul\":4613:4619   */\n      0x00\n        /* \"#utility.yul\":4621:4627   */\n      dup1\n        /* \"#utility.yul\":4629:4635   */\n      0x00\n        /* \"#utility.yul\":4678:4680   */\n      0x60\n        /* \"#utility.yul\":4666:4675   */\n      dup5\n        /* \"#utility.yul\":4657:4664   */\n      dup7\n        /* \"#utility.yul\":4653:4676   */\n      sub\n        /* \"#utility.yul\":4649:4681   */\n      slt\n        /* \"#utility.yul\":4646:4765   */\n      iszero\n      tag_270\n      jumpi\n        /* \"#utility.yul\":4684:4763   */\n      tag_271\n      tag_145\n      jump\t// in\n    tag_271:\n        /* \"#utility.yul\":4646:4765   */\n    tag_270:\n        /* \"#utility.yul\":4832:4833   */\n      0x00\n        /* \"#utility.yul\":4821:4830   */\n      dup5\n        /* \"#utility.yul\":4817:4834   */\n      add\n        /* \"#utility.yul\":4804:4835   */\n      calldataload\n        /* \"#utility.yul\":4862:4880   */\n      0xffffffffffffffff\n        /* \"#utility.yul\":4854:4860   */\n      dup2\n        /* \"#utility.yul\":4851:4881   */\n      gt\n        /* \"#utility.yul\":4848:4965   */\n      iszero\n      tag_272\n      jumpi\n        /* \"#utility.yul\":4884:4963   */\n      tag_273\n      tag_146\n      jump\t// in\n    tag_273:\n        /* \"#utility.yul\":4848:4965   */\n    tag_272:\n        /* \"#utility.yul\":4989:5052   */\n      tag_274\n        /* \"#utility.yul\":5044:5051   */\n      dup7\n        /* \"#utility.yul\":5035:5041   */\n      dup3\n        /* \"#utility.yul\":5024:5033   */\n      dup8\n        /* \"#utility.yul\":5020:5042   */\n      add\n        /* \"#utility.yul\":4989:5052   */\n      tag_162\n      jump\t// in\n    tag_274:\n        /* \"#utility.yul\":4979:5052   */\n      swap4\n      pop\n        /* \"#utility.yul\":4775:5062   */\n      pop\n        /* \"#utility.yul\":5101:5103   */\n      0x20\n        /* \"#utility.yul\":5127:5188   */\n      tag_275\n        /* \"#utility.yul\":5180:5187   */\n      dup7\n        /* \"#utility.yul\":5171:5177   */\n      dup3\n        /* \"#utility.yul\":5160:5169   */\n      dup8\n        /* \"#utility.yul\":5156:5178   */\n      add\n        /* \"#utility.yul\":5127:5188   */\n      tag_165\n      jump\t// in\n    tag_275:\n        /* \"#utility.yul\":5117:5188   */\n      swap3\n      pop\n        /* \"#utility.yul\":5072:5198   */\n      pop\n        /* \"#utility.yul\":5237:5239   */\n      0x40\n        /* \"#utility.yul\":5263:5316   */\n      tag_276\n        /* \"#utility.yul\":5308:5315   */\n      dup7\n        /* \"#utility.yul\":5299:5305   */\n      dup3\n        /* \"#utility.yul\":5288:5297   */\n      dup8\n        /* \"#utility.yul\":5284:5306   */\n      add\n        /* \"#utility.yul\":5263:5316   */\n      tag_167\n      jump\t// in\n    tag_276:\n        /* \"#utility.yul\":5253:5316   */\n      swap2\n      pop\n        /* \"#utility.yul\":5208:5326   */\n      pop\n        /* \"#utility.yul\":4518:5333   */\n      swap3\n      pop\n      swap3\n      pop\n      swap3\n      jump\t// out\n        /* \"#utility.yul\":5339:5457   */\n    tag_168:\n        /* \"#utility.yul\":5426:5450   */\n      tag_278\n        /* \"#utility.yul\":5444:5449   */\n      dup2\n        /* \"#utility.yul\":5426:5450   */\n      tag_148\n      jump\t// in\n    tag_278:\n        /* \"#utility.yul\":5421:5424   */\n      dup3\n        /* \"#utility.yul\":5414:5451   */\n      mstore\n        /* \"#utility.yul\":5339:5457   */\n      pop\n      pop\n      jump\t// out\n        /* \"#utility.yul\":5463:5685   */\n    tag_42:\n        /* \"#utility.yul\":5556:5560   */\n      0x00\n        /* \"#utility.yul\":5594:5596   */\n      0x20\n        /* \"#utility.yul\":5583:5592   */\n      dup3\n        /* \"#utility.yul\":5579:5597   */\n      add\n        /* \"#utility.yul\":5571:5597   */\n      swap1\n      pop\n        /* \"#utility.yul\":5607:5678   */\n      tag_280\n        /* \"#utility.yul\":5675:5676   */\n      0x00\n        /* \"#utility.yul\":5664:5673   */\n      dup4\n        /* \"#utility.yul\":5660:5677   */\n      add\n        /* \"#utility.yul\":5651:5657   */\n      dup5\n        /* \"#utility.yul\":5607:5678   */\n      tag_168\n      jump\t// in\n    tag_280:\n        /* \"#utility.yul\":5463:5685   */\n      swap3\n      swap2\n      pop\n      pop\n      jump\t// out\n        /* \"#utility.yul\":5691:6020   */\n    tag_46:\n        /* \"#utility.yul\":5750:5756   */\n      0x00\n        /* \"#utility.yul\":5799:5801   */\n      0x20\n        /* \"#utility.yul\":5787:5796   */\n      dup3\n        /* \"#utility.yul\":5778:5785   */\n      dup5\n        /* \"#utility.yul\":5774:5797   */\n      sub\n        /* \"#utility.yul\":5770:5802   */\n      slt\n        /* \"#utility.yul\":5767:5886   */\n      iszero\n      tag_282\n      jumpi\n        /* \"#utility.yul\":5805:5884   */\n      tag_283\n      tag_145\n      jump\t// in\n    tag_283:\n        /* \"#utility.yul\":5767:5886   */\n    tag_282:\n        /* \"#utility.yul\":5925:5926   */\n      0x00\n        /* \"#utility.yul\":5950:6003   */\n      tag_284\n        /* \"#utility.yul\":5995:6002   */\n      dup5\n        /* \"#utility.yul\":5986:5992   */\n      dup3\n        /* \"#utility.yul\":5975:5984   */\n      dup6\n        /* \"#utility.yul\":5971:5993   */\n      add\n        /* \"#utility.yul\":5950:6003   */\n      tag_167\n      jump\t// in\n    tag_284:\n        /* \"#utility.yul\":5940:6003   */\n      swap2\n      pop\n        /* \"#utility.yul\":5896:6013   */\n      pop\n        /* \"#utility.yul\":5691:6020   */\n      swap3\n      swap2\n      pop\n      pop\n      jump\t// out\n        /* \"#utility.yul\":6026:6125   */\n    tag_169:\n        /* \"#utility.yul\":6078:6084   */\n      0x00\n        /* \"#utility.yul\":6112:6117   */\n      dup2\n        /* \"#utility.yul\":6106:6118   */\n      mload\n        /* \"#utility.yul\":6096:6118   */\n      swap1\n      pop\n        /* \"#utility.yul\":6026:6125   */\n      swap2\n      swap1\n      pop\n      jump\t// out\n        /* \"#utility.yul\":6131:6300   */\n    tag_170:\n        /* \"#utility.yul\":6215:6226   */\n      0x00\n        /* \"#utility.yul\":6249:6255   */\n      dup3\n        /* \"#utility.yul\":6244:6247   */\n      dup3\n        /* \"#utility.yul\":6237:6256   */\n      mstore\n        /* \"#utility.yul\":6289:6293   */\n      0x20\n        /* \"#utility.yul\":6284:6287   */\n      dup3\n        /* \"#utility.yul\":6280:6294   */\n      add\n        /* \"#utility.yul\":6265:6294   */\n      swap1\n      pop\n        /* \"#utility.yul\":6131:6300   */\n      swap3\n      swap2\n      pop\n      pop\n      jump\t// out\n        /* \"#utility.yul\":6306:6552   */\n    tag_171:\n        /* \"#utility.yul\":6387:6388   */\n      0x00\n        /* \"#utility.yul\":6397:6510   */\n    tag_288:\n        /* \"#utility.yul\":6411:6417   */\n      dup4\n        /* \"#utility.yul\":6408:6409   */\n      dup2\n        /* \"#utility.yul\":6405:6418   */\n      lt\n        /* \"#utility.yul\":6397:6510   */\n      iszero\n      tag_290\n      jumpi\n        /* \"#utility.yul\":6496:6497   */\n      dup1\n        /* \"#utility.yul\":6491:6494   */\n      dup3\n        /* \"#utility.yul\":6487:6498   */\n      add\n        /* \"#utility.yul\":6481:6499   */\n      mload\n        /* \"#utility.yul\":6477:6478   */\n      dup2\n        /* \"#utility.yul\":6472:6475   */\n      dup5\n        /* \"#utility.yul\":6468:6479   */\n      add\n        /* \"#utility.yul\":6461:6500   */\n      mstore\n        /* \"#utility.yul\":6433:6435   */\n      0x20\n        /* \"#utility.yul\":6430:6431   */\n      dup2\n        /* \"#utility.yul\":6426:6436   */\n      add\n        /* \"#utility.yul\":6421:6436   */\n      swap1\n      pop\n        /* \"#utility.yul\":6397:6510   */\n      jump(tag_288)\n    tag_290:\n        /* \"#utility.yul\":6544:6545   */\n      0x00\n        /* \"#utility.yul\":6535:6541   */\n      dup5\n        /* \"#utility.yul\":6530:6533   */\n      dup5\n        /* \"#utility.yul\":6526:6542   */\n      add\n        /* \"#utility.yul\":6519:6546   */\n      mstore\n        /* \"#utility.yul\":6368:6552   */\n      pop\n        /* \"#utility.yul\":6306:6552   */\n      pop\n      pop\n      pop\n      jump\t// out\n        /* \"#utility.yul\":6558:6935   */\n    tag_172:\n        /* \"#utility.yul\":6646:6649   */\n      0x00\n        /* \"#utility.yul\":6674:6713   */\n      tag_292\n        /* \"#utility.yul\":6707:6712   */\n      dup3\n        /* \"#utility.yul\":6674:6713   */\n      tag_169\n      jump\t// in\n    tag_292:\n        /* \"#utility.yul\":6729:6800   */\n      tag_293\n        /* \"#utility.yul\":6793:6799   */\n      dup2\n        /* \"#utility.yul\":6788:6791   */\n      dup6\n        /* \"#utility.yul\":6729:6800   */\n      tag_170\n      jump\t// in\n    tag_293:\n        /* \"#utility.yul\":6722:6800   */\n      swap4\n      pop\n        /* \"#utility.yul\":6809:6874   */\n      tag_294\n        /* \"#utility.yul\":6867:6873   */\n      dup2\n        /* \"#utility.yul\":6862:6865   */\n      dup6\n        /* \"#utility.yul\":6855:6859   */\n      0x20\n        /* \"#utility.yul\":6848:6853   */\n      dup7\n        /* \"#utility.yul\":6844:6860   */\n      add\n        /* \"#utility.yul\":6809:6874   */\n      tag_171\n      jump\t// in\n    tag_294:\n        /* \"#utility.yul\":6899:6928   */\n      tag_295\n        /* \"#utility.yul\":6921:6927   */\n      dup2\n        /* \"#utility.yul\":6899:6928   */\n      tag_155\n      jump\t// in\n    tag_295:\n        /* \"#utility.yul\":6894:6897   */\n      dup5\n        /* \"#utility.yul\":6890:6929   */\n      add\n        /* \"#utility.yul\":6883:6929   */\n      swap2\n      pop\n        /* \"#utility.yul\":6650:6935   */\n      pop\n        /* \"#utility.yul\":6558:6935   */\n      swap3\n      swap2\n      pop\n      pop\n      jump\t// out\n        /* \"#utility.yul\":6941:7083   */\n    tag_173:\n        /* \"#utility.yul\":7044:7076   */\n      tag_297\n        /* \"#utility.yul\":7070:7075   */\n      dup2\n        /* \"#utility.yul\":7044:7076   */\n      tag_163\n      jump\t// in\n    tag_297:\n        /* \"#utility.yul\":7039:7042   */\n      dup3\n        /* \"#utility.yul\":7032:7077   */\n      mstore\n        /* \"#utility.yul\":6941:7083   */\n      pop\n      pop\n      jump\t// out\n        /* \"#utility.yul\":7089:7179   */\n    tag_174:\n        /* \"#utility.yul\":7123:7130   */\n      0x00\n        /* \"#utility.yul\":7166:7171   */\n      dup2\n        /* \"#utility.yul\":7159:7172   */\n      iszero\n        /* \"#utility.yul\":7152:7173   */\n      iszero\n        /* \"#utility.yul\":7141:7173   */\n      swap1\n      pop\n        /* \"#utility.yul\":7089:7179   */\n      swap2\n      swap1\n      pop\n      jump\t// out\n        /* \"#utility.yul\":7185:7294   */\n    tag_175:\n        /* \"#utility.yul\":7266:7287   */\n      tag_300\n        /* \"#utility.yul\":7281:7286   */\n      dup2\n        /* \"#utility.yul\":7266:7287   */\n      tag_174\n      jump\t// in\n    tag_300:\n        /* \"#utility.yul\":7261:7264   */\n      dup3\n        /* \"#utility.yul\":7254:7288   */\n      mstore\n        /* \"#utility.yul\":7185:7294   */\n      pop\n      pop\n      jump\t// out\n        /* \"#utility.yul\":7300:8075   */\n    tag_68:\n        /* \"#utility.yul\":7535:7539   */\n      0x00\n        /* \"#utility.yul\":7573:7576   */\n      0xa0\n        /* \"#utility.yul\":7562:7571   */\n      dup3\n        /* \"#utility.yul\":7558:7577   */\n      add\n        /* \"#utility.yul\":7550:7577   */\n      swap1\n      pop\n        /* \"#utility.yul\":7623:7632   */\n      dup2\n        /* \"#utility.yul\":7617:7621   */\n      dup2\n        /* \"#utility.yul\":7613:7633   */\n      sub\n        /* \"#utility.yul\":7609:7610   */\n      0x00\n        /* \"#utility.yul\":7598:7607   */\n      dup4\n        /* \"#utility.yul\":7594:7611   */\n      add\n        /* \"#utility.yul\":7587:7634   */\n      mstore\n        /* \"#utility.yul\":7651:7729   */\n      tag_302\n        /* \"#utility.yul\":7724:7728   */\n      dup2\n        /* \"#utility.yul\":7715:7721   */\n      dup9\n        /* \"#utility.yul\":7651:7729   */\n      tag_172\n      jump\t// in\n    tag_302:\n        /* \"#utility.yul\":7643:7729   */\n      swap1\n      pop\n        /* \"#utility.yul\":7739:7827   */\n      tag_303\n        /* \"#utility.yul\":7823:7825   */\n      0x20\n        /* \"#utility.yul\":7812:7821   */\n      dup4\n        /* \"#utility.yul\":7808:7826   */\n      add\n        /* \"#utility.yul\":7799:7805   */\n      dup8\n        /* \"#utility.yul\":7739:7827   */\n      tag_173\n      jump\t// in\n    tag_303:\n        /* \"#utility.yul\":7837:7909   */\n      tag_304\n        /* \"#utility.yul\":7905:7907   */\n      0x40\n        /* \"#utility.yul\":7894:7903   */\n      dup4\n        /* \"#utility.yul\":7890:7908   */\n      add\n        /* \"#utility.yul\":7881:7887   */\n      dup7\n        /* \"#utility.yul\":7837:7909   */\n      tag_152\n      jump\t// in\n    tag_304:\n        /* \"#utility.yul\":7919:7985   */\n      tag_305\n        /* \"#utility.yul\":7981:7983   */\n      0x60\n        /* \"#utility.yul\":7970:7979   */\n      dup4\n        /* \"#utility.yul\":7966:7984   */\n      add\n        /* \"#utility.yul\":7957:7963   */\n      dup6\n        /* \"#utility.yul\":7919:7985   */\n      tag_175\n      jump\t// in\n    tag_305:\n        /* \"#utility.yul\":7995:8068   */\n      tag_306\n        /* \"#utility.yul\":8063:8066   */\n      0x80\n        /* \"#utility.yul\":8052:8061   */\n      dup4\n        /* \"#utility.yul\":8048:8067   */\n      add\n        /* \"#utility.yul\":8039:8045   */\n      dup5\n        /* \"#utility.yul\":7995:8068   */\n      tag_152\n      jump\t// in\n    tag_306:\n        /* \"#utility.yul\":7300:8075   */\n      swap7\n      swap6\n      pop\n      pop\n      pop\n      pop\n      pop\n      pop\n      jump\t// out\n        /* \"#utility.yul\":8081:8250   */\n    tag_176:\n        /* \"#utility.yul\":8221:8242   */\n      0x446561646c696e65206861732070617373656400000000000000000000000000\n        /* \"#utility.yul\":8217:8218   */\n      0x00\n        /* \"#utility.yul\":8209:8215   */\n      dup3\n        /* \"#utility.yul\":8205:8219   */\n      add\n        /* \"#utility.yul\":8198:8243   */\n      mstore\n        /* \"#utility.yul\":8081:8250   */\n      pop\n      jump\t// out\n        /* \"#utility.yul\":8256:8622   */\n    tag_177:\n        /* \"#utility.yul\":8398:8401   */\n      0x00\n        /* \"#utility.yul\":8419:8486   */\n      tag_309\n        /* \"#utility.yul\":8483:8485   */\n      0x13\n        /* \"#utility.yul\":8478:8481   */\n      dup4\n        /* \"#utility.yul\":8419:8486   */\n      tag_170\n      jump\t// in\n    tag_309:\n        /* \"#utility.yul\":8412:8486   */\n      swap2\n      pop\n        /* \"#utility.yul\":8495:8588   */\n      tag_310\n        /* \"#utility.yul\":8584:8587   */\n      dup3\n        /* \"#utility.yul\":8495:8588   */\n      tag_176\n      jump\t// in\n    tag_310:\n        /* \"#utility.yul\":8613:8615   */\n      0x20\n        /* \"#utility.yul\":8608:8611   */\n      dup3\n        /* \"#utility.yul\":8604:8616   */\n      add\n        /* \"#utility.yul\":8597:8616   */\n      swap1\n      pop\n        /* \"#utility.yul\":8256:8622   */\n      swap2\n      swap1\n      pop\n      jump\t// out\n        /* \"#utility.yul\":8628:9047   */\n    tag_88:\n        /* \"#utility.yul\":8794:8798   */\n      0x00\n        /* \"#utility.yul\":8832:8834   */\n      0x20\n        /* \"#utility.yul\":8821:8830   */\n      dup3\n        /* \"#utility.yul\":8817:8835   */\n      add\n        /* \"#utility.yul\":8809:8835   */\n      swap1\n      pop\n        /* \"#utility.yul\":8881:8890   */\n      dup2\n        /* \"#utility.yul\":8875:8879   */\n      dup2\n        /* \"#utility.yul\":8871:8891   */\n      sub\n        /* \"#utility.yul\":8867:8868   */\n      0x00\n        /* \"#utility.yul\":8856:8865   */\n      dup4\n        /* \"#utility.yul\":8852:8869   */\n      add\n        /* \"#utility.yul\":8845:8892   */\n      mstore\n        /* \"#utility.yul\":8909:9040   */\n      tag_312\n        /* \"#utility.yul\":9035:9039   */\n      dup2\n        /* \"#utility.yul\":8909:9040   */\n      tag_177\n      jump\t// in\n    tag_312:\n        /* \"#utility.yul\":8901:9040   */\n      swap1\n      pop\n        /* \"#utility.yul\":8628:9047   */\n      swap2\n      swap1\n      pop\n      jump\t// out\n        /* \"#utility.yul\":9053:9234   */\n    tag_178:\n        /* \"#utility.yul\":9193:9226   */\n      0x4d696e696d756d20636f6e747269627574696f6e206973206e6f74206d657400\n        /* \"#utility.yul\":9189:9190   */\n      0x00\n        /* \"#utility.yul\":9181:9187   */\n      dup3\n        /* \"#utility.yul\":9177:9191   */\n      add\n        /* \"#utility.yul\":9170:9227   */\n      mstore\n        /* \"#utility.yul\":9053:9234   */\n      pop\n      jump\t// out\n        /* \"#utility.yul\":9240:9606   */\n    tag_179:\n        /* \"#utility.yul\":9382:9385   */\n      0x00\n        /* \"#utility.yul\":9403:9470   */\n      tag_315\n        /* \"#utility.yul\":9467:9469   */\n      0x1f\n        /* \"#utility.yul\":9462:9465   */\n      dup4\n        /* \"#utility.yul\":9403:9470   */\n      tag_170\n      jump\t// in\n    tag_315:\n        /* \"#utility.yul\":9396:9470   */\n      swap2\n      pop\n        /* \"#utility.yul\":9479:9572   */\n      tag_316\n        /* \"#utility.yul\":9568:9571   */\n      dup3\n        /* \"#utility.yul\":9479:9572   */\n      tag_178\n      jump\t// in\n    tag_316:\n        /* \"#utility.yul\":9597:9599   */\n      0x20\n        /* \"#utility.yul\":9592:9595   */\n      dup3\n        /* \"#utility.yul\":9588:9600   */\n      add\n        /* \"#utility.yul\":9581:9600   */\n      swap1\n      pop\n        /* \"#utility.yul\":9240:9606   */\n      swap2\n      swap1\n      pop\n      jump\t// out\n        /* \"#utility.yul\":9612:10031   */\n    tag_91:\n        /* \"#utility.yul\":9778:9782   */\n      0x00\n        /* \"#utility.yul\":9816:9818   */\n      0x20\n        /* \"#utility.yul\":9805:9814   */\n      dup3\n        /* \"#utility.yul\":9801:9819   */\n      add\n        /* \"#utility.yul\":9793:9819   */\n      swap1\n      pop\n        /* \"#utility.yul\":9865:9874   */\n      dup2\n        /* \"#utility.yul\":9859:9863   */\n      dup2\n        /* \"#utility.yul\":9855:9875   */\n      sub\n        /* \"#utility.yul\":9851:9852   */\n      0x00\n        /* \"#utility.yul\":9840:9849   */\n      dup4\n        /* \"#utility.yul\":9836:9853   */\n      add\n        /* \"#utility.yul\":9829:9876   */\n      mstore\n        /* \"#utility.yul\":9893:10024   */\n      tag_318\n        /* \"#utility.yul\":10019:10023   */\n      dup2\n        /* \"#utility.yul\":9893:10024   */\n      tag_179\n      jump\t// in\n    tag_318:\n        /* \"#utility.yul\":9885:10024   */\n      swap1\n      pop\n        /* \"#utility.yul\":9612:10031   */\n      swap2\n      swap1\n      pop\n      jump\t// out\n        /* \"#utility.yul\":10037:10217   */\n    tag_180:\n        /* \"#utility.yul\":10085:10162   */\n      0x4e487b7100000000000000000000000000000000000000000000000000000000\n        /* \"#utility.yul\":10082:10083   */\n      0x00\n        /* \"#utility.yul\":10075:10163   */\n      mstore\n        /* \"#utility.yul\":10182:10186   */\n      0x11\n        /* \"#utility.yul\":10179:10180   */\n      0x04\n        /* \"#utility.yul\":10172:10187   */\n      mstore\n        /* \"#utility.yul\":10206:10210   */\n      0x24\n        /* \"#utility.yul\":10203:10204   */\n      0x00\n        /* \"#utility.yul\":10196:10211   */\n      revert\n        /* \"#utility.yul\":10223:10456   */\n    tag_94:\n        /* \"#utility.yul\":10262:10265   */\n      0x00\n        /* \"#utility.yul\":10285:10309   */\n      tag_321\n        /* \"#utility.yul\":10303:10308   */\n      dup3\n        /* \"#utility.yul\":10285:10309   */\n      tag_151\n      jump\t// in\n    tag_321:\n        /* \"#utility.yul\":10276:10309   */\n      swap2\n      pop\n        /* \"#utility.yul\":10331:10397   */\n      0xffffffffffffffffffffffffffffffffffffffffffffffffffffffffffffffff\n        /* \"#utility.yul\":10324:10329   */\n      dup3\n        /* \"#utility.yul\":10321:10398   */\n      sub\n        /* \"#utility.yul\":10318:10421   */\n      tag_322\n      jumpi\n        /* \"#utility.yul\":10401:10419   */\n      tag_323\n      tag_180\n      jump\t// in\n    tag_323:\n        /* \"#utility.yul\":10318:10421   */\n    tag_322:\n        /* \"#utility.yul\":10448:10449   */\n      0x01\n        /* \"#utility.yul\":10441:10446   */\n      dup3\n        /* \"#utility.yul\":10437:10450   */\n      add\n        /* \"#utility.yul\":10430:10450   */\n      swap1\n      pop\n        /* \"#utility.yul\":10223:10456   */\n      swap2\n      swap1\n      pop\n      jump\t// out\n        /* \"#utility.yul\":10462:10653   */\n    tag_96:\n        /* \"#utility.yul\":10502:10505   */\n      0x00\n        /* \"#utility.yul\":10521:10541   */\n      tag_325\n        /* \"#utility.yul\":10539:10540   */\n      dup3\n        /* \"#utility.yul\":10521:10541   */\n      tag_151\n      jump\t// in\n    tag_325:\n        /* \"#utility.yul\":10516:10541   */\n      swap2\n      pop\n        /* \"#utility.yul\":10555:10575   */\n      tag_326\n        /* \"#utility.yul\":10573:10574   */\n      dup4\n        /* \"#utility.yul\":10555:10575   */\n      tag_151\n      jump\t// in\n    tag_326:\n        /* \"#utility.yul\":10550:10575   */\n      swap3\n      pop\n        /* \"#utility.yul\":10598:10599   */\n      dup3\n        /* \"#utility.yul\":10595:10596   */\n      dup3\n        /* \"#utility.yul\":10591:10600   */\n      add\n        /* \"#utility.yul\":10584:10600   */\n      swap1\n      pop\n        /* \"#utility.yul\":10619:10622   */\n      dup1\n        /* \"#utility.yul\":10616:10617   */\n      dup3\n        /* \"#utility.yul\":10613:10623   */\n      gt\n        /* \"#utility.yul\":10610:10646   */\n      iszero\n      tag_327\n      jumpi\n        /* \"#utility.yul\":10626:10644   */\n      tag_328\n      tag_180\n      jump\t// in\n    tag_328:\n        /* \"#utility.yul\":10610:10646   */\n    tag_327:\n        /* \"#utility.yul\":10462:10653   */\n      swap3\n      swap2\n      pop\n      pop\n      jump\t// out\n        /* \"#utility.yul\":10659:10881   */\n    tag_181:\n        /* \"#utility.yul\":10799:10833   */\n      0x4f6e6c79206d616e616765722063616e2063616c6c20746869732066756e6374\n        /* \"#utility.yul\":10795:10796   */\n      0x00\n        /* \"#utility.yul\":10787:10793   */\n      dup3\n        /* \"#utility.yul\":10783:10797   */\n      add\n        /* \"#utility.yul\":10776:10834   */\n      mstore\n        /* \"#utility.yul\":10868:10873   */\n      0x696f6e0000000000000000000000000000000000000000000000000000000000\n        /* \"#utility.yul\":10863:10865   */\n      0x20\n        /* \"#utility.yul\":10855:10861   */\n      dup3\n        /* \"#utility.yul\":10851:10866   */\n      add\n        /* \"#utility.yul\":10844:10874   */\n      mstore\n        /* \"#utility.yul\":10659:10881   */\n      pop\n      jump\t// out\n        /* \"#utility.yul\":10887:11253   */\n    tag_182:\n        /* \"#utility.yul\":11029:11032   */\n      0x00\n        /* \"#utility.yul\":11050:11117   */\n      tag_331\n        /* \"#utility.yul\":11114:11116   */\n      0x23\n        /* \"#utility.yul\":11109:11112   */\n      dup4\n        /* \"#utility.yul\":11050:11117   */\n      tag_170\n      jump\t// in\n    tag_331:\n        /* \"#utility.yul\":11043:11117   */\n      swap2\n      pop\n        /* \"#utility.yul\":11126:11219   */\n      tag_332\n        /* \"#utility.yul\":11215:11218   */\n      dup3\n        /* \"#utility.yul\":11126:11219   */\n      tag_181\n      jump\t// in\n    tag_332:\n        /* \"#utility.yul\":11244:11246   */\n      0x40\n        /* \"#utility.yul\":11239:11242   */\n      dup3\n        /* \"#utility.yul\":11235:11247   */\n      add\n        /* \"#utility.yul\":11228:11247   */\n      swap1\n      pop\n        /* \"#utility.yul\":10887:11253   */\n      swap2\n      swap1\n      pop\n      jump\t// out\n        /* \"#utility.yul\":11259:11678   */\n    tag_101:\n        /* \"#utility.yul\":11425:11429   */\n      0x00\n        /* \"#utility.yul\":11463:11465   */\n      0x20\n        /* \"#utility.yul\":11452:11461   */\n      dup3\n        /* \"#utility.yul\":11448:11466   */\n      add\n        /* \"#utility.yul\":11440:11466   */\n      swap1\n      pop\n        /* \"#utility.yul\":11512:11521   */\n      dup2\n        /* \"#utility.yul\":11506:11510   */\n      dup2\n        /* \"#utility.yul\":11502:11522   */\n      sub\n        /* \"#utility.yul\":11498:11499   */\n      0x00\n        /* \"#utility.yul\":11487:11496   */\n      dup4\n        /* \"#utility.yul\":11483:11500   */\n      add\n        /* \"#utility.yul\":11476:11523   */\n      mstore\n        /* \"#utility.yul\":11540:11671   */\n      tag_334\n        /* \"#utility.yul\":11666:11670   */\n      dup2\n        /* \"#utility.yul\":11540:11671   */\n      tag_182\n      jump\t// in\n    tag_334:\n        /* \"#utility.yul\":11532:11671   */\n      swap1\n      pop\n        /* \"#utility.yul\":11259:11678   */\n      swap2\n      swap1\n      pop\n      jump\t// out\n        /* \"#utility.yul\":11684:11864   */\n    tag_183:\n        /* \"#utility.yul\":11732:11809   */\n      0x4e487b7100000000000000000000000000000000000000000000000000000000\n        /* \"#utility.yul\":11729:11730   */\n      0x00\n        /* \"#utility.yul\":11722:11810   */\n      mstore\n        /* \"#utility.yul\":11829:11833   */\n      0x22\n        /* \"#utility.yul\":11826:11827   */\n      0x04\n        /* \"#utility.yul\":11819:11834   */\n      mstore\n        /* \"#utility.yul\":11853:11857   */\n      0x24\n        /* \"#utility.yul\":11850:11851   */\n      0x00\n        /* \"#utility.yul\":11843:11858   */\n      revert\n        /* \"#utility.yul\":11870:12190   */\n    tag_139:\n        /* \"#utility.yul\":11914:11920   */\n      0x00\n        /* \"#utility.yul\":11951:11952   */\n      0x02\n        /* \"#utility.yul\":11945:11949   */\n      dup3\n        /* \"#utility.yul\":11941:11953   */\n      div\n        /* \"#utility.yul\":11931:11953   */\n      swap1\n      pop\n        /* \"#utility.yul\":11998:11999   */\n      0x01\n        /* \"#utility.yul\":11992:11996   */\n      dup3\n        /* \"#utility.yul\":11988:12000   */\n      and\n        /* \"#utility.yul\":12019:12037   */\n      dup1\n        /* \"#utility.yul\":12009:12090   */\n      tag_337\n      jumpi\n        /* \"#utility.yul\":12075:12079   */\n      0x7f\n        /* \"#utility.yul\":12067:12073   */\n      dup3\n        /* \"#utility.yul\":12063:12080   */\n      and\n        /* \"#utility.yul\":12053:12080   */\n      swap2\n      pop\n        /* \"#utility.yul\":12009:12090   */\n    tag_337:\n        /* \"#utility.yul\":12137:12139   */\n      0x20\n        /* \"#utility.yul\":12129:12135   */\n      dup3\n        /* \"#utility.yul\":12126:12140   */\n      lt\n        /* \"#utility.yul\":12106:12124   */\n      dup2\n        /* \"#utility.yul\":12103:12141   */\n      sub\n        /* \"#utility.yul\":12100:12184   */\n      tag_338\n      jumpi\n        /* \"#utility.yul\":12156:12174   */\n      tag_339\n      tag_183\n      jump\t// in\n    tag_339:\n        /* \"#utility.yul\":12100:12184   */\n    tag_338:\n        /* \"#utility.yul\":11921:12190   */\n      pop\n        /* \"#utility.yul\":11870:12190   */\n      swap2\n      swap1\n      pop\n      jump\t// out\n        /* \"#utility.yul\":12196:12337   */\n    tag_184:\n        /* \"#utility.yul\":12245:12249   */\n      0x00\n        /* \"#utility.yul\":12268:12271   */\n      dup2\n        /* \"#utility.yul\":12260:12271   */\n      swap1\n      pop\n        /* \"#utility.yul\":12291:12294   */\n      dup2\n        /* \"#utility.yul\":12288:12289   */\n      0x00\n        /* \"#utility.yul\":12281:12295   */\n      mstore\n        /* \"#utility.yul\":12325:12329   */\n      0x20\n        /* \"#utility.yul\":12322:12323   */\n      0x00\n        /* \"#utility.yul\":12312:12330   */\n      keccak256\n        /* \"#utility.yul\":12304:12330   */\n      swap1\n      pop\n        /* \"#utility.yul\":12196:12337   */\n      swap2\n      swap1\n      pop\n      jump\t// out\n        /* \"#utility.yul\":12343:12436   */\n    tag_185:\n        /* \"#utility.yul\":12380:12386   */\n      0x00\n        /* \"#utility.yul\":12427:12429   */\n      0x20\n        /* \"#utility.yul\":12422:12424   */\n      0x1f\n        /* \"#utility.yul\":12415:12420   */\n      dup4\n        /* \"#utility.yul\":12411:12425   */\n      add\n        /* \"#utility.yul\":12407:12430   */\n      div\n        /* \"#utility.yul\":12397:12430   */\n      swap1\n      pop\n        /* \"#utility.yul\":12343:12436   */\n      swap2\n      swap1\n      pop\n      jump\t// out\n        /* \"#utility.yul\":12442:12549   */\n    tag_186:\n        /* \"#utility.yul\":12486:12494   */\n      0x00\n        /* \"#utility.yul\":12536:12541   */\n      dup3\n        /* \"#utility.yul\":12530:12534   */\n      dup3\n        /* \"#utility.yul\":12526:12542   */\n      shl\n        /* \"#utility.yul\":12505:12542   */\n      swap1\n      pop\n        /* \"#utility.yul\":12442:12549   */\n      swap3\n      swap2\n      pop\n      pop\n      jump\t// out\n        /* \"#utility.yul\":12555:12948   */\n    tag_187:\n        /* \"#utility.yul\":12624:12630   */\n      0x00\n        /* \"#utility.yul\":12674:12675   */\n      0x08\n        /* \"#utility.yul\":12662:12672   */\n      dup4\n        /* \"#utility.yul\":12658:12676   */\n      mul\n        /* \"#utility.yul\":12697:12794   */\n      tag_344\n        /* \"#utility.yul\":12727:12793   */\n      0xffffffffffffffffffffffffffffffffffffffffffffffffffffffffffffffff\n        /* \"#utility.yul\":12716:12725   */\n      dup3\n        /* \"#utility.yul\":12697:12794   */\n      tag_186\n      jump\t// in\n    tag_344:\n        /* \"#utility.yul\":12815:12854   */\n      tag_345\n        /* \"#utility.yul\":12845:12853   */\n      dup7\n        /* \"#utility.yul\":12834:12843   */\n      dup4\n        /* \"#utility.yul\":12815:12854   */\n      tag_186\n      jump\t// in\n    tag_345:\n        /* \"#utility.yul\":12803:12854   */\n      swap6\n      pop\n        /* \"#utility.yul\":12887:12891   */\n      dup1\n        /* \"#utility.yul\":12883:12892   */\n      not\n        /* \"#utility.yul\":12876:12881   */\n      dup5\n        /* \"#utility.yul\":12872:12893   */\n      and\n        /* \"#utility.yul\":12863:12893   */\n      swap4\n      pop\n        /* \"#utility.yul\":12936:12940   */\n      dup1\n        /* \"#utility.yul\":12926:12934   */\n      dup7\n        /* \"#utility.yul\":12922:12941   */\n      and\n        /* \"#utility.yul\":12915:12920   */\n      dup5\n        /* \"#utility.yul\":12912:12942   */\n      or\n        /* \"#utility.yul\":12902:12942   */\n      swap3\n      pop\n        /* \"#utility.yul\":12631:12948   */\n      pop\n      pop\n        /* \"#utility.yul\":12555:12948   */\n      swap4\n      swap3\n      pop\n      pop\n      pop\n      jump\t// out\n        /* \"#utility.yul\":12954:13014   */\n    tag_188:\n        /* \"#utility.yul\":12982:12985   */\n      0x00\n        /* \"#utility.yul\":13003:13008   */\n      dup2\n        /* \"#utility.yul\":12996:13008   */\n      swap1\n      pop\n        /* \"#utility.yul\":12954:13014   */\n      swap2\n      swap1\n      pop\n      jump\t// out\n        /* \"#utility.yul\":13020:13162   */\n    tag_189:\n        /* \"#utility.yul\":13070:13079   */\n      0x00\n        /* \"#utility.yul\":13103:13156   */\n      tag_348\n        /* \"#utility.yul\":13121:13155   */\n      tag_349\n        /* \"#utility.yul\":13130:13154   */\n      tag_350\n        /* \"#utility.yul\":13148:13153   */\n      dup5\n        /* \"#utility.yul\":13130:13154   */\n      tag_151\n      jump\t// in\n    tag_350:\n        /* \"#utility.yul\":13121:13155   */\n      tag_188\n      jump\t// in\n    tag_349:\n        /* \"#utility.yul\":13103:13156   */\n      tag_151\n      jump\t// in\n    tag_348:\n        /* \"#utility.yul\":13090:13156   */\n      swap1\n      pop\n        /* \"#utility.yul\":13020:13162   */\n      swap2\n      swap1\n      pop\n      jump\t// out\n        /* \"#utility.yul\":13168:13243   */\n    tag_190:\n        /* \"#utility.yul\":13211:13214   */\n      0x00\n        /* \"#utility.yul\":13232:13237   */\n      dup2\n        /* \"#utility.yul\":13225:13237   */\n      swap1\n      pop\n        /* \"#utility.yul\":13168:13243   */\n      swap2\n      swap1\n      pop\n      jump\t// out\n        /* \"#utility.yul\":13249:13518   */\n    tag_191:\n        /* \"#utility.yul\":13359:13398   */\n      tag_353\n        /* \"#utility.yul\":13390:13397   */\n      dup4\n        /* \"#utility.yul\":13359:13398   */\n      tag_189\n      jump\t// in\n    tag_353:\n        /* \"#utility.yul\":13420:13511   */\n      tag_354\n        /* \"#utility.yul\":13469:13510   */\n      tag_355\n        /* \"#utility.yul\":13493:13509   */\n      dup3\n        /* \"#utility.yul\":13469:13510   */\n      tag_190\n      jump\t// in\n    tag_355:\n        /* \"#utility.yul\":13461:13467   */\n      dup5\n        /* \"#utility.yul\":13454:13458   */\n      dup5\n        /* \"#utility.yul\":13448:13459   */\n      sload\n        /* \"#utility.yul\":13420:13511   */\n      tag_187\n      jump\t// in\n    tag_354:\n        /* \"#utility.yul\":13414:13418   */\n      dup3\n        /* \"#utility.yul\":13407:13512   */\n      sstore\n        /* \"#utility.yul\":13325:13518   */\n      pop\n        /* \"#utility.yul\":13249:13518   */\n      pop\n      pop\n      pop\n      jump\t// out\n        /* \"#utility.yul\":13524:13597   */\n    tag_192:\n        /* \"#utility.yul\":13569:13572   */\n      0x00\n        /* \"#utility.yul\":13524:13597   */\n      swap1\n      jump\t// out\n        /* \"#utility.yul\":13603:13792   */\n    tag_193:\n        /* \"#utility.yul\":13680:13712   */\n      tag_358\n      tag_192\n      jump\t// in\n    tag_358:\n        /* \"#utility.yul\":13721:13786   */\n      tag_359\n        /* \"#utility.yul\":13779:13785   */\n      dup2\n        /* \"#utility.yul\":13771:13777   */\n      dup5\n        /* \"#utility.yul\":13765:13769   */\n      dup5\n        /* \"#utility.yul\":13721:13786   */\n      tag_191\n      jump\t// in\n    tag_359:\n        /* \"#utility.yul\":13656:13792   */\n      pop\n        /* \"#utility.yul\":13603:13792   */\n      pop\n      pop\n      jump\t// out\n        /* \"#utility.yul\":13798:13984   */\n    tag_194:\n        /* \"#utility.yul\":13858:13978   */\n    tag_361:\n        /* \"#utility.yul\":13875:13878   */\n      dup2\n        /* \"#utility.yul\":13868:13873   */\n      dup2\n        /* \"#utility.yul\":13865:13879   */\n      lt\n        /* \"#utility.yul\":13858:13978   */\n      iszero\n      tag_363\n      jumpi\n        /* \"#utility.yul\":13929:13968   */\n      tag_364\n        /* \"#utility.yul\":13966:13967   */\n      0x00\n        /* \"#utility.yul\":13959:13964   */\n      dup3\n        /* \"#utility.yul\":13929:13968   */\n      tag_193\n      jump\t// in\n    tag_364:\n        /* \"#utility.yul\":13902:13903   */\n      0x01\n        /* \"#utility.yul\":13895:13900   */\n      dup2\n        /* \"#utility.yul\":13891:13904   */\n      add\n        /* \"#utility.yul\":13882:13904   */\n      swap1\n      pop\n        /* \"#utility.yul\":13858:13978   */\n      jump(tag_361)\n    tag_363:\n        /* \"#utility.yul\":13798:13984   */\n      pop\n      pop\n      jump\t// out\n        /* \"#utility.yul\":13990:14533   */\n    tag_195:\n        /* \"#utility.yul\":14091:14093   */\n      0x1f\n        /* \"#utility.yul\":14086:14089   */\n      dup3\n        /* \"#utility.yul\":14083:14094   */\n      gt\n        /* \"#utility.yul\":14080:14526   */\n      iszero\n      tag_366\n      jumpi\n        /* \"#utility.yul\":14125:14163   */\n      tag_367\n        /* \"#utility.yul\":14157:14162   */\n      dup2\n        /* \"#utility.yul\":14125:14163   */\n      tag_184\n      jump\t// in\n    tag_367:\n        /* \"#utility.yul\":14209:14238   */\n      tag_368\n        /* \"#utility.yul\":14227:14237   */\n      dup5\n        /* \"#utility.yul\":14209:14238   */\n      tag_185\n      jump\t// in\n    tag_368:\n        /* \"#utility.yul\":14199:14207   */\n      dup2\n        /* \"#utility.yul\":14195:14239   */\n      add\n        /* \"#utility.yul\":14392:14394   */\n      0x20\n        /* \"#utility.yul\":14380:14390   */\n      dup6\n        /* \"#utility.yul\":14377:14395   */\n      lt\n        /* \"#utility.yul\":14374:14423   */\n      iszero\n      tag_369\n      jumpi\n        /* \"#utility.yul\":14413:14421   */\n      dup2\n        /* \"#utility.yul\":14398:14421   */\n      swap1\n      pop\n        /* \"#utility.yul\":14374:14423   */\n    tag_369:\n        /* \"#utility.yul\":14436:14516   */\n      tag_370\n        /* \"#utility.yul\":14492:14514   */\n      tag_371\n        /* \"#utility.yul\":14510:14513   */\n      dup6\n        /* \"#utility.yul\":14492:14514   */\n      tag_185\n      jump\t// in\n    tag_371:\n        /* \"#utility.yul\":14482:14490   */\n      dup4\n        /* \"#utility.yul\":14478:14515   */\n      add\n        /* \"#utility.yul\":14465:14476   */\n      dup3\n        /* \"#utility.yul\":14436:14516   */\n      tag_194\n      jump\t// in\n    tag_370:\n        /* \"#utility.yul\":14095:14526   */\n      pop\n      pop\n        /* \"#utility.yul\":14080:14526   */\n    tag_366:\n        /* \"#utility.yul\":13990:14533   */\n      pop\n      pop\n      pop\n      jump\t// out\n        /* \"#utility.yul\":14539:14656   */\n    tag_196:\n        /* \"#utility.yul\":14593:14601   */\n      0x00\n        /* \"#utility.yul\":14643:14648   */\n      dup3\n        /* \"#utility.yul\":14637:14641   */\n      dup3\n        /* \"#utility.yul\":14633:14649   */\n      shr\n        /* \"#utility.yul\":14612:14649   */\n      swap1\n      pop\n        /* \"#utility.yul\":14539:14656   */\n      swap3\n      swap2\n      pop\n      pop\n      jump\t// out\n        /* \"#utility.yul\":14662:14831   */\n    tag_197:\n        /* \"#utility.yul\":14706:14712   */\n      0x00\n        /* \"#utility.yul\":14739:14790   */\n      tag_374\n        /* \"#utility.yul\":14787:14788   */\n      0x00\n        /* \"#utility.yul\":14783:14789   */\n      not\n        /* \"#utility.yul\":14775:14780   */\n      dup5\n        /* \"#utility.yul\":14772:14773   */\n      0x08\n        /* \"#utility.yul\":14768:14781   */\n      mul\n        /* \"#utility.yul\":14739:14790   */\n      tag_196\n      jump\t// in\n    tag_374:\n        /* \"#utility.yul\":14735:14791   */\n      not\n        /* \"#utility.yul\":14820:14824   */\n      dup1\n        /* \"#utility.yul\":14814:14818   */\n      dup4\n        /* \"#utility.yul\":14810:14825   */\n      and\n        /* \"#utility.yul\":14800:14825   */\n      swap2\n      pop\n        /* \"#utility.yul\":14713:14831   */\n      pop\n        /* \"#utility.yul\":14662:14831   */\n      swap3\n      swap2\n      pop\n      pop\n      jump\t// out\n        /* \"#utility.yul\":14836:15131   */\n    tag_198:\n        /* \"#utility.yul\":14912:14916   */\n      0x00\n        /* \"#utility.yul\":15058:15087   */\n      tag_376\n        /* \"#utility.yul\":15083:15086   */\n      dup4\n        /* \"#utility.yul\":15077:15081   */\n      dup4\n        /* \"#utility.yul\":15058:15087   */\n      tag_197\n      jump\t// in\n    tag_376:\n        /* \"#utility.yul\":15050:15087   */\n      swap2\n      pop\n        /* \"#utility.yul\":15120:15123   */\n      dup3\n        /* \"#utility.yul\":15117:15118   */\n      0x02\n        /* \"#utility.yul\":15113:15124   */\n      mul\n        /* \"#utility.yul\":15107:15111   */\n      dup3\n        /* \"#utility.yul\":15104:15125   */\n      or\n        /* \"#utility.yul\":15096:15125   */\n      swap1\n      pop\n        /* \"#utility.yul\":14836:15131   */\n      swap3\n      swap2\n      pop\n      pop\n      jump\t// out\n        /* \"#utility.yul\":15136:16531   */\n    tag_105:\n        /* \"#utility.yul\":15253:15290   */\n      tag_378\n        /* \"#utility.yul\":15286:15289   */\n      dup3\n        /* \"#utility.yul\":15253:15290   */\n      tag_169\n      jump\t// in\n    tag_378:\n        /* \"#utility.yul\":15355:15373   */\n      0xffffffffffffffff\n        /* \"#utility.yul\":15347:15353   */\n      dup2\n        /* \"#utility.yul\":15344:15374   */\n      gt\n        /* \"#utility.yul\":15341:15397   */\n      iszero\n      tag_379\n      jumpi\n        /* \"#utility.yul\":15377:15395   */\n      tag_380\n      tag_156\n      jump\t// in\n    tag_380:\n        /* \"#utility.yul\":15341:15397   */\n    tag_379:\n        /* \"#utility.yul\":15421:15459   */\n      tag_381\n        /* \"#utility.yul\":15453:15457   */\n      dup3\n        /* \"#utility.yul\":15447:15458   */\n      sload\n        /* \"#utility.yul\":15421:15459   */\n      tag_139\n      jump\t// in\n    tag_381:\n        /* \"#utility.yul\":15506:15573   */\n      tag_382\n        /* \"#utility.yul\":15566:15572   */\n      dup3\n        /* \"#utility.yul\":15558:15564   */\n      dup3\n        /* \"#utility.yul\":15552:15556   */\n      dup6\n        /* \"#utility.yul\":15506:15573   */\n      tag_195\n      jump\t// in\n    tag_382:\n        /* \"#utility.yul\":15600:15601   */\n      0x00\n        /* \"#utility.yul\":15624:15628   */\n      0x20\n        /* \"#utility.yul\":15611:15628   */\n      swap1\n      pop\n        /* \"#utility.yul\":15656:15658   */\n      0x1f\n        /* \"#utility.yul\":15648:15654   */\n      dup4\n        /* \"#utility.yul\":15645:15659   */\n      gt\n        /* \"#utility.yul\":15673:15674   */\n      0x01\n        /* \"#utility.yul\":15668:16286   */\n      dup2\n      eq\n      tag_384\n      jumpi\n        /* \"#utility.yul\":16330:16331   */\n      0x00\n        /* \"#utility.yul\":16347:16353   */\n      dup5\n        /* \"#utility.yul\":16344:16421   */\n      iszero\n      tag_385\n      jumpi\n        /* \"#utility.yul\":16396:16405   */\n      dup3\n        /* \"#utility.yul\":16391:16394   */\n      dup8\n        /* \"#utility.yul\":16387:16406   */\n      add\n        /* \"#utility.yul\":16381:16407   */\n      mload\n        /* \"#utility.yul\":16372:16407   */\n      swap1\n      pop\n        /* \"#utility.yul\":16344:16421   */\n    tag_385:\n        /* \"#utility.yul\":16447:16514   */\n      tag_386\n        /* \"#utility.yul\":16507:16513   */\n      dup6\n        /* \"#utility.yul\":16500:16505   */\n      dup3\n        /* \"#utility.yul\":16447:16514   */\n      tag_198\n      jump\t// in\n    tag_386:\n        /* \"#utility.yul\":16441:16445   */\n      dup7\n        /* \"#utility.yul\":16434:16515   */\n      sstore\n        /* \"#utility.yul\":16303:16525   */\n      pop\n        /* \"#utility.yul\":15638:16525   */\n      jump(tag_383)\n        /* \"#utility.yul\":15668:16286   */\n    tag_384:\n        /* \"#utility.yul\":15720:15724   */\n      0x1f\n        /* \"#utility.yul\":15716:15725   */\n      not\n        /* \"#utility.yul\":15708:15714   */\n      dup5\n        /* \"#utility.yul\":15704:15726   */\n      and\n        /* \"#utility.yul\":15754:15791   */\n      tag_387\n        /* \"#utility.yul\":15786:15790   */\n      dup7\n        /* \"#utility.yul\":15754:15791   */\n      tag_184\n      jump\t// in\n    tag_387:\n        /* \"#utility.yul\":15813:15814   */\n      0x00\n        /* \"#utility.yul\":15827:16035   */\n    tag_388:\n        /* \"#utility.yul\":15841:15848   */\n      dup3\n        /* \"#utility.yul\":15838:15839   */\n      dup2\n        /* \"#utility.yul\":15835:15849   */\n      lt\n        /* \"#utility.yul\":15827:16035   */\n      iszero\n      tag_390\n      jumpi\n        /* \"#utility.yul\":15920:15929   */\n      dup5\n        /* \"#utility.yul\":15915:15918   */\n      dup10\n        /* \"#utility.yul\":15911:15930   */\n      add\n        /* \"#utility.yul\":15905:15931   */\n      mload\n        /* \"#utility.yul\":15897:15903   */\n      dup3\n        /* \"#utility.yul\":15890:15932   */\n      sstore\n        /* \"#utility.yul\":15971:15972   */\n      0x01\n        /* \"#utility.yul\":15963:15969   */\n      dup3\n        /* \"#utility.yul\":15959:15973   */\n      add\n        /* \"#utility.yul\":15949:15973   */\n      swap2\n      pop\n        /* \"#utility.yul\":16018:16020   */\n      0x20\n        /* \"#utility.yul\":16007:16016   */\n      dup6\n        /* \"#utility.yul\":16003:16021   */\n      add\n        /* \"#utility.yul\":15990:16021   */\n      swap5\n      pop\n        /* \"#utility.yul\":15864:15868   */\n      0x20\n        /* \"#utility.yul\":15861:15862   */\n      dup2\n        /* \"#utility.yul\":15857:15869   */\n      add\n        /* \"#utility.yul\":15852:15869   */\n      swap1\n      pop\n        /* \"#utility.yul\":15827:16035   */\n      jump(tag_388)\n    tag_390:\n        /* \"#utility.yul\":16063:16069   */\n      dup7\n        /* \"#utility.yul\":16054:16061   */\n      dup4\n        /* \"#utility.yul\":16051:16070   */\n      lt\n        /* \"#utility.yul\":16048:16227   */\n      iszero\n      tag_391\n      jumpi\n        /* \"#utility.yul\":16121:16130   */\n      dup5\n        /* \"#utility.yul\":16116:16119   */\n      dup10\n        /* \"#utility.yul\":16112:16131   */\n      add\n        /* \"#utility.yul\":16106:16132   */\n      mload\n        /* \"#utility.yul\":16164:16212   */\n      tag_392\n        /* \"#utility.yul\":16206:16210   */\n      0x1f\n        /* \"#utility.yul\":16198:16204   */\n      dup10\n        /* \"#utility.yul\":16194:16211   */\n      and\n        /* \"#utility.yul\":16183:16192   */\n      dup3\n        /* \"#utility.yul\":16164:16212   */\n      tag_197\n      jump\t// in\n    tag_392:\n        /* \"#utility.yul\":16156:16162   */\n      dup4\n        /* \"#utility.yul\":16149:16213   */\n      sstore\n        /* \"#utility.yul\":16071:16227   */\n      pop\n        /* \"#utility.yul\":16048:16227   */\n    tag_391:\n        /* \"#utility.yul\":16273:16274   */\n      0x01\n        /* \"#utility.yul\":16269:16270   */\n      0x02\n        /* \"#utility.yul\":16261:16267   */\n      dup9\n        /* \"#utility.yul\":16257:16271   */\n      mul\n        /* \"#utility.yul\":16253:16275   */\n      add\n        /* \"#utility.yul\":16247:16251   */\n      dup9\n        /* \"#utility.yul\":16240:16276   */\n      sstore\n        /* \"#utility.yul\":15675:16286   */\n      pop\n      pop\n      pop\n        /* \"#utility.yul\":15638:16525   */\n    tag_383:\n      pop\n        /* \"#utility.yul\":15228:16531   */\n      pop\n      pop\n      pop\n        /* \"#utility.yul\":15136:16531   */\n      pop\n      pop\n      jump\t// out\n        /* \"#utility.yul\":16537:16710   */\n    tag_199:\n        /* \"#utility.yul\":16677:16702   */\n      0x596f75206d75737420626520636f6e7472696275746f72000000000000000000\n        /* \"#utility.yul\":16673:16674   */\n      0x00\n        /* \"#utility.yul\":16665:16671   */\n      dup3\n        /* \"#utility.yul\":16661:16675   */\n      add\n        /* \"#utility.yul\":16654:16703   */\n      mstore\n        /* \"#utility.yul\":16537:16710   */\n      pop\n      jump\t// out\n        /* \"#utility.yul\":16716:17082   */\n    tag_200:\n        /* \"#utility.yul\":16858:16861   */\n      0x00\n        /* \"#utility.yul\":16879:16946   */\n      tag_395\n        /* \"#utility.yul\":16943:16945   */\n      0x17\n        /* \"#utility.yul\":16938:16941   */\n      dup4\n        /* \"#utility.yul\":16879:16946   */\n      tag_170\n      jump\t// in\n    tag_395:\n        /* \"#utility.yul\":16872:16946   */\n      swap2\n      pop\n        /* \"#utility.yul\":16955:17048   */\n      tag_396\n        /* \"#utility.yul\":17044:17047   */\n      dup3\n        /* \"#utility.yul\":16955:17048   */\n      tag_199\n      jump\t// in\n    tag_396:\n        /* \"#utility.yul\":17073:17075   */\n      0x20\n        /* \"#utility.yul\":17068:17071   */\n      dup3\n        /* \"#utility.yul\":17064:17076   */\n      add\n        /* \"#utility.yul\":17057:17076   */\n      swap1\n      pop\n        /* \"#utility.yul\":16716:17082   */\n      swap2\n      swap1\n      pop\n      jump\t// out\n        /* \"#utility.yul\":17088:17507   */\n    tag_109:\n        /* \"#utility.yul\":17254:17258   */\n      0x00\n        /* \"#utility.yul\":17292:17294   */\n      0x20\n        /* \"#utility.yul\":17281:17290   */\n      dup3\n        /* \"#utility.yul\":17277:17295   */\n      add\n        /* \"#utility.yul\":17269:17295   */\n      swap1\n      pop\n        /* \"#utility.yul\":17341:17350   */\n      dup2\n        /* \"#utility.yul\":17335:17339   */\n      dup2\n        /* \"#utility.yul\":17331:17351   */\n      sub\n        /* \"#utility.yul\":17327:17328   */\n      0x00\n        /* \"#utility.yul\":17316:17325   */\n      dup4\n        /* \"#utility.yul\":17312:17329   */\n      add\n        /* \"#utility.yul\":17305:17352   */\n      mstore\n        /* \"#utility.yul\":17369:17500   */\n      tag_398\n        /* \"#utility.yul\":17495:17499   */\n      dup2\n        /* \"#utility.yul\":17369:17500   */\n      tag_200\n      jump\t// in\n    tag_398:\n        /* \"#utility.yul\":17361:17500   */\n      swap1\n      pop\n        /* \"#utility.yul\":17088:17507   */\n      swap2\n      swap1\n      pop\n      jump\t// out\n        /* \"#utility.yul\":17513:17685   */\n    tag_201:\n        /* \"#utility.yul\":17653:17677   */\n      0x596f75206861766520616c726561647920766f74656400000000000000000000\n        /* \"#utility.yul\":17649:17650   */\n      0x00\n        /* \"#utility.yul\":17641:17647   */\n      dup3\n        /* \"#utility.yul\":17637:17651   */\n      add\n        /* \"#utility.yul\":17630:17678   */\n      mstore\n        /* \"#utility.yul\":17513:17685   */\n      pop\n      jump\t// out\n        /* \"#utility.yul\":17691:18057   */\n    tag_202:\n        /* \"#utility.yul\":17833:17836   */\n      0x00\n        /* \"#utility.yul\":17854:17921   */\n      tag_401\n        /* \"#utility.yul\":17918:17920   */\n      0x16\n        /* \"#utility.yul\":17913:17916   */\n      dup4\n        /* \"#utility.yul\":17854:17921   */\n      tag_170\n      jump\t// in\n    tag_401:\n        /* \"#utility.yul\":17847:17921   */\n      swap2\n      pop\n        /* \"#utility.yul\":17930:18023   */\n      tag_402\n        /* \"#utility.yul\":18019:18022   */\n      dup3\n        /* \"#utility.yul\":17930:18023   */\n      tag_201\n      jump\t// in\n    tag_402:\n        /* \"#utility.yul\":18048:18050   */\n      0x20\n        /* \"#utility.yul\":18043:18046   */\n      dup3\n        /* \"#utility.yul\":18039:18051   */\n      add\n        /* \"#utility.yul\":18032:18051   */\n      swap1\n      pop\n        /* \"#utility.yul\":17691:18057   */\n      swap2\n      swap1\n      pop\n      jump\t// out\n        /* \"#utility.yul\":18063:18482   */\n    tag_112:\n        /* \"#utility.yul\":18229:18233   */\n      0x00\n        /* \"#utility.yul\":18267:18269   */\n      0x20\n        /* \"#utility.yul\":18256:18265   */\n      dup3\n        /* \"#utility.yul\":18252:18270   */\n      add\n        /* \"#utility.yul\":18244:18270   */\n      swap1\n      pop\n        /* \"#utility.yul\":18316:18325   */\n      dup2\n        /* \"#utility.yul\":18310:18314   */\n      dup2\n        /* \"#utility.yul\":18306:18326   */\n      sub\n        /* \"#utility.yul\":18302:18303   */\n      0x00\n        /* \"#utility.yul\":18291:18300   */\n      dup4\n        /* \"#utility.yul\":18287:18304   */\n      add\n        /* \"#utility.yul\":18280:18327   */\n      mstore\n        /* \"#utility.yul\":18344:18475   */\n      tag_404\n        /* \"#utility.yul\":18470:18474   */\n      dup2\n        /* \"#utility.yul\":18344:18475   */\n      tag_202\n      jump\t// in\n    tag_404:\n        /* \"#utility.yul\":18336:18475   */\n      swap1\n      pop\n        /* \"#utility.yul\":18063:18482   */\n      swap2\n      swap1\n      pop\n      jump\t// out\n        /* \"#utility.yul\":18488:18668   */\n    tag_203:\n        /* \"#utility.yul\":18628:18660   */\n      0x546865207265717565737420686173206265656e20636f6d706c657465640000\n        /* \"#utility.yul\":18624:18625   */\n      0x00\n        /* \"#utility.yul\":18616:18622   */\n      dup3\n        /* \"#utility.yul\":18612:18626   */\n      add\n        /* \"#utility.yul\":18605:18661   */\n      mstore\n        /* \"#utility.yul\":18488:18668   */\n      pop\n      jump\t// out\n        /* \"#utility.yul\":18674:19040   */\n    tag_204:\n        /* \"#utility.yul\":18816:18819   */\n      0x00\n        /* \"#utility.yul\":18837:18904   */\n      tag_407\n        /* \"#utility.yul\":18901:18903   */\n      0x1e\n        /* \"#utility.yul\":18896:18899   */\n      dup4\n        /* \"#utility.yul\":18837:18904   */\n      tag_170\n      jump\t// in\n    tag_407:\n        /* \"#utility.yul\":18830:18904   */\n      swap2\n      pop\n        /* \"#utility.yul\":18913:19006   */\n      tag_408\n        /* \"#utility.yul\":19002:19005   */\n      dup3\n        /* \"#utility.yul\":18913:19006   */\n      tag_203\n      jump\t// in\n    tag_408:\n        /* \"#utility.yul\":19031:19033   */\n      0x20\n        /* \"#utility.yul\":19026:19029   */\n      dup3\n        /* \"#utility.yul\":19022:19034   */\n      add\n        /* \"#utility.yul\":19015:19034   */\n      swap1\n      pop\n        /* \"#utility.yul\":18674:19040   */\n      swap2\n      swap1\n      pop\n      jump\t// out\n        /* \"#utility.yul\":19046:19465   */\n    tag_121:\n        /* \"#utility.yul\":19212:19216   */\n      0x00\n        /* \"#utility.yul\":19250:19252   */\n      0x20\n        /* \"#utility.yul\":19239:19248   */\n      dup3\n        /* \"#utility.yul\":19235:19253   */\n      add\n        /* \"#utility.yul\":19227:19253   */\n      swap1\n      pop\n        /* \"#utility.yul\":19299:19308   */\n      dup2\n        /* \"#utility.yul\":19293:19297   */\n      dup2\n        /* \"#utility.yul\":19289:19309   */\n      sub\n        /* \"#utility.yul\":19285:19286   */\n      0x00\n        /* \"#utility.yul\":19274:19283   */\n      dup4\n        /* \"#utility.yul\":19270:19287   */\n      add\n        /* \"#utility.yul\":19263:19310   */\n      mstore\n        /* \"#utility.yul\":19327:19458   */\n      tag_410\n        /* \"#utility.yul\":19453:19457   */\n      dup2\n        /* \"#utility.yul\":19327:19458   */\n      tag_204\n      jump\t// in\n    tag_410:\n        /* \"#utility.yul\":19319:19458   */\n      swap1\n      pop\n        /* \"#utility.yul\":19046:19465   */\n      swap2\n      swap1\n      pop\n      jump\t// out\n        /* \"#utility.yul\":19471:19651   */\n    tag_205:\n        /* \"#utility.yul\":19519:19596   */\n      0x4e487b7100000000000000000000000000000000000000000000000000000000\n        /* \"#utility.yul\":19516:19517   */\n      0x00\n        /* \"#utility.yul\":19509:19597   */\n      mstore\n        /* \"#utility.yul\":19616:19620   */\n      0x12\n        /* \"#utility.yul\":19613:19614   */\n      0x04\n        /* \"#utility.yul\":19606:19621   */\n      mstore\n        /* \"#utility.yul\":19640:19644   */\n      0x24\n        /* \"#utility.yul\":19637:19638   */\n      0x00\n        /* \"#utility.yul\":19630:19645   */\n      revert\n        /* \"#utility.yul\":19657:19842   */\n    tag_123:\n        /* \"#utility.yul\":19697:19698   */\n      0x00\n        /* \"#utility.yul\":19714:19734   */\n      tag_413\n        /* \"#utility.yul\":19732:19733   */\n      dup3\n        /* \"#utility.yul\":19714:19734   */\n      tag_151\n      jump\t// in\n    tag_413:\n        /* \"#utility.yul\":19709:19734   */\n      swap2\n      pop\n        /* \"#utility.yul\":19748:19768   */\n      tag_414\n        /* \"#utility.yul\":19766:19767   */\n      dup4\n        /* \"#utility.yul\":19748:19768   */\n      tag_151\n      jump\t// in\n    tag_414:\n        /* \"#utility.yul\":19743:19768   */\n      swap3\n      pop\n        /* \"#utility.yul\":19787:19788   */\n      dup3\n        /* \"#utility.yul\":19777:19812   */\n      tag_415\n      jumpi\n        /* \"#utility.yul\":19792:19810   */\n      tag_416\n      tag_205\n      jump\t// in\n    tag_416:\n        /* \"#utility.yul\":19777:19812   */\n    tag_415:\n        /* \"#utility.yul\":19834:19835   */\n      dup3\n        /* \"#utility.yul\":19831:19832   */\n      dup3\n        /* \"#utility.yul\":19827:19836   */\n      div\n        /* \"#utility.yul\":19822:19836   */\n      swap1\n      pop\n        /* \"#utility.yul\":19657:19842   */\n      swap3\n      swap2\n      pop\n      pop\n      jump\t// out\n        /* \"#utility.yul\":19848:20023   */\n    tag_206:\n        /* \"#utility.yul\":19988:20015   */\n      0x4d616a6f7269747920646f6573206e6f7420737570706f727400000000000000\n        /* \"#utility.yul\":19984:19985   */\n      0x00\n        /* \"#utility.yul\":19976:19982   */\n      dup3\n        /* \"#utility.yul\":19972:19986   */\n      add\n        /* \"#utility.yul\":19965:20016   */\n      mstore\n        /* \"#utility.yul\":19848:20023   */\n      pop\n      jump\t// out\n        /* \"#utility.yul\":20029:20395   */\n    tag_207:\n        /* \"#utility.yul\":20171:20174   */\n      0x00\n        /* \"#utility.yul\":20192:20259   */\n      tag_419\n        /* \"#utility.yul\":20256:20258   */\n      0x19\n        /* \"#utility.yul\":20251:20254   */\n      dup4\n        /* \"#utility.yul\":20192:20259   */\n      tag_170\n      jump\t// in\n    tag_419:\n        /* \"#utility.yul\":20185:20259   */\n      swap2\n      pop\n        /* \"#utility.yul\":20268:20361   */\n      tag_420\n        /* \"#utility.yul\":20357:20360   */\n      dup3\n        /* \"#utility.yul\":20268:20361   */\n      tag_206\n      jump\t// in\n    tag_420:\n        /* \"#utility.yul\":20386:20388   */\n      0x20\n        /* \"#utility.yul\":20381:20384   */\n      dup3\n        /* \"#utility.yul\":20377:20389   */\n      add\n        /* \"#utility.yul\":20370:20389   */\n      swap1\n      pop\n        /* \"#utility.yul\":20029:20395   */\n      swap2\n      swap1\n      pop\n      jump\t// out\n        /* \"#utility.yul\":20401:20820   */\n    tag_126:\n        /* \"#utility.yul\":20567:20571   */\n      0x00\n        /* \"#utility.yul\":20605:20607   */\n      0x20\n        /* \"#utility.yul\":20594:20603   */\n      dup3\n        /* \"#utility.yul\":20590:20608   */\n      add\n        /* \"#utility.yul\":20582:20608   */\n      swap1\n      pop\n        /* \"#utility.yul\":20654:20663   */\n      dup2\n        /* \"#utility.yul\":20648:20652   */\n      dup2\n        /* \"#utility.yul\":20644:20664   */\n      sub\n        /* \"#utility.yul\":20640:20641   */\n      0x00\n        /* \"#utility.yul\":20629:20638   */\n      dup4\n        /* \"#utility.yul\":20625:20642   */\n      add\n        /* \"#utility.yul\":20618:20665   */\n      mstore\n        /* \"#utility.yul\":20682:20813   */\n      tag_422\n        /* \"#utility.yul\":20808:20812   */\n      dup2\n        /* \"#utility.yul\":20682:20813   */\n      tag_207\n      jump\t// in\n    tag_422:\n        /* \"#utility.yul\":20674:20813   */\n      swap1\n      pop\n        /* \"#utility.yul\":20401:20820   */\n      swap2\n      swap1\n      pop\n      jump\t// out\n        /* \"#utility.yul\":20826:21007   */\n    tag_208:\n        /* \"#utility.yul\":20966:20999   */\n      0x596f7520617265206e6f7420656c696769626c6520666f7220726566756e6400\n        /* \"#utility.yul\":20962:20963   */\n      0x00\n        /* \"#utility.yul\":20954:20960   */\n      dup3\n        /* \"#utility.yul\":20950:20964   */\n      add\n        /* \"#utility.yul\":20943:21000   */\n      mstore\n        /* \"#utility.yul\":20826:21007   */\n      pop\n      jump\t// out\n        /* \"#utility.yul\":21013:21379   */\n    tag_209:\n        /* \"#utility.yul\":21155:21158   */\n      0x00\n        /* \"#utility.yul\":21176:21243   */\n      tag_425\n        /* \"#utility.yul\":21240:21242   */\n      0x1f\n        /* \"#utility.yul\":21235:21238   */\n      dup4\n        /* \"#utility.yul\":21176:21243   */\n      tag_170\n      jump\t// in\n    tag_425:\n        /* \"#utility.yul\":21169:21243   */\n      swap2\n      pop\n        /* \"#utility.yul\":21252:21345   */\n      tag_426\n        /* \"#utility.yul\":21341:21344   */\n      dup3\n        /* \"#utility.yul\":21252:21345   */\n      tag_208\n      jump\t// in\n    tag_426:\n        /* \"#utility.yul\":21370:21372   */\n      0x20\n        /* \"#utility.yul\":21365:21368   */\n      dup3\n        /* \"#utility.yul\":21361:21373   */\n      add\n        /* \"#utility.yul\":21354:21373   */\n      swap1\n      pop\n        /* \"#utility.yul\":21013:21379   */\n      swap2\n      swap1\n      pop\n      jump\t// out\n        /* \"#utility.yul\":21385:21804   */\n    tag_133:\n        /* \"#utility.yul\":21551:21555   */\n      0x00\n        /* \"#utility.yul\":21589:21591   */\n      0x20\n        /* \"#utility.yul\":21578:21587   */\n      dup3\n        /* \"#utility.yul\":21574:21592   */\n      add\n        /* \"#utility.yul\":21566:21592   */\n      swap1\n      pop\n        /* \"#utility.yul\":21638:21647   */\n      dup2\n        /* \"#utility.yul\":21632:21636   */\n      dup2\n        /* \"#utility.yul\":21628:21648   */\n      sub\n        /* \"#utility.yul\":21624:21625   */\n      0x00\n        /* \"#utility.yul\":21613:21622   */\n      dup4\n        /* \"#utility.yul\":21609:21626   */\n      add\n        /* \"#utility.yul\":21602:21649   */\n      mstore\n        /* \"#utility.yul\":21666:21797   */\n      tag_428\n        /* \"#utility.yul\":21792:21796   */\n      dup2\n        /* \"#utility.yul\":21666:21797   */\n      tag_209\n      jump\t// in\n    tag_428:\n        /* \"#utility.yul\":21658:21797   */\n      swap1\n      pop\n        /* \"#utility.yul\":21385:21804   */\n      swap2\n      swap1\n      pop\n      jump\t// out\n\n    auxdata: 0xa264697066735822122002f2bc7264837e47deee5d83b83a1f031fb0354ba3ce0cfd1fc7a95089505adc64736f6c63430008120033\n}\n",
				"bytecode": {
					"linkReferences": {},
					"object": "60806040523480156200001157600080fd5b50604051620019f4380380620019f48339818101604052810190620000379190620000e3565b8160048190555080426200004c919062000159565b600381905550606460028190555033600160006101000a81548173ffffffffffffffffffffffffffffffffffffffff021916908373ffffffffffffffffffffffffffffffffffffffff160217905550505062000194565b600080fd5b6000819050919050565b620000bd81620000a8565b8114620000c957600080fd5b50565b600081519050620000dd81620000b2565b92915050565b60008060408385031215620000fd57620000fc620000a3565b5b60006200010d85828601620000cc565b92505060206200012085828601620000cc565b9150509250929050565b7f4e487b7100000000000000000000000000000000000000000000000000000000600052601160045260246000fd5b60006200016682620000a8565b91506200017383620000a8565b92508282019050808211156200018e576200018d6200012a565b5b92915050565b61185080620001a46000396000f3fe6080604052600436106100e85760003560e01c80635114cb521161008a578063937e09b111610059578063937e09b1146102b35780639fb42b1f146102de578063c59ee1dc14610309578063d4b8399214610334576100e8565b80635114cb5214610207578063590e1ae3146102305780636f9fb98a1461024757806381d12c5814610272576100e8565b80633eb7647b116100c65780633eb7647b1461015f578063481c6a75146101885780634cb6f4a5146101b35780634e260f6f146101dc576100e8565b806306e99fef146100ed5780631f6d4942146100f757806329dcb0cf14610134575b600080fd5b6100f561035f565b005b34801561010357600080fd5b5061011e60048036038101906101199190610cd1565b6104b7565b60405161012b9190610d17565b60405180910390f35b34801561014057600080fd5b506101496104cf565b6040516101569190610d17565b60405180910390f35b34801561016b57600080fd5b5061018660048036038101906101819190610ee2565b6104d5565b005b34801561019457600080fd5b5061019d610621565b6040516101aa9190610f60565b60405180910390f35b3480156101bf57600080fd5b506101da60048036038101906101d59190610f7b565b610647565b005b3480156101e857600080fd5b506101f16107ec565b6040516101fe9190610d17565b60405180910390f35b34801561021357600080fd5b5061022e60048036038101906102299190610f7b565b6107f2565b005b34801561023c57600080fd5b506102456109e5565b005b34801561025357600080fd5b5061025c610b54565b6040516102699190610d17565b60405180910390f35b34801561027e57600080fd5b5061029960048036038101906102949190610f7b565b610b5c565b6040516102aa959493929190611051565b60405180910390f35b3480156102bf57600080fd5b506102c8610c47565b6040516102d59190610d17565b60405180910390f35b3480156102ea57600080fd5b506102f3610c4d565b6040516103009190610d17565b60405180910390f35b34801561031557600080fd5b5061031e610c53565b60405161032b9190610d17565b60405180910390f35b34801561034057600080fd5b50610349610c59565b6040516103569190610d17565b60405180910390f35b60035442106103a3576040517f08c379a000000000000000000000000000000000000000000000000000000000815260040161039a906110f7565b60405180910390fd5b6002543410156103e8576040517f08c379a00000000000000000000000000000000000000000000000000000000081526004016103df90611163565b60405180910390fd5b60008060003373ffffffffffffffffffffffffffffffffffffffff1673ffffffffffffffffffffffffffffffffffffffff16815260200190815260200160002054036104475760066000815480929190610441906111b2565b91905055505b346000803373ffffffffffffffffffffffffffffffffffffffff1673ffffffffffffffffffffffffffffffffffffffff168152602001908152602001600020600082825461049591906111fa565b9250508190555034600560008282546104ae91906111fa565b92505081905550565b60006020528060005260406000206000915090505481565b60035481565b600160009054906101000a900473ffffffffffffffffffffffffffffffffffffffff1673ffffffffffffffffffffffffffffffffffffffff163373ffffffffffffffffffffffffffffffffffffffff1614610565576040517f08c379a000000000000000000000000000000000000000000000000000000000815260040161055c906112a0565b60405180910390fd5b6000600760006008548152602001908152602001600020905060086000815480929190610591906111b2565b9190505550838160000190816105a791906114cc565b50828160010160006101000a81548173ffffffffffffffffffffffffffffffffffffffff021916908373ffffffffffffffffffffffffffffffffffffffff16021790555081816002018190555060008160030160006101000a81548160ff0219169083151502179055506000816004018190555050505050565b600160009054906101000a900473ffffffffffffffffffffffffffffffffffffffff1681565b60008060003373ffffffffffffffffffffffffffffffffffffffff1673ffffffffffffffffffffffffffffffffffffffff16815260200190815260200160002054116106c8576040517f08c379a00000000000000000000000000000000000000000000000000000000081526004016106bf906115ea565b60405180910390fd5b6000600760008381526020019081526020016000209050600015158160050160003373ffffffffffffffffffffffffffffffffffffffff1673ffffffffffffffffffffffffffffffffffffffff16815260200190815260200160002060009054906101000a900460ff16151514610774576040517f08c379a000000000000000000000000000000000000000000000000000000000815260040161076b90611656565b60405180910390fd5b60018160050160003373ffffffffffffffffffffffffffffffffffffffff1673ffffffffffffffffffffffffffffffffffffffff16815260200190815260200160002060006101000a81548160ff0219169083151502179055508060040160008154809291906107e3906111b2565b91905055505050565b60065481565b600160009054906101000a900473ffffffffffffffffffffffffffffffffffffffff1673ffffffffffffffffffffffffffffffffffffffff163373ffffffffffffffffffffffffffffffffffffffff1614610882576040517f08c379a0000000000000000000000000000000000000000000000000000000008152600401610879906112a0565b60405180910390fd5b6004546005541161089257600080fd5b6000600760008381526020019081526020016000209050600015158160030160009054906101000a900460ff16151514610901576040517f08c379a00000000000000000000000000000000000000000000000000000000081526004016108f8906116c2565b60405180910390fd5b60026006546109109190611711565b816004015411610955576040517f08c379a000000000000000000000000000000000000000000000000000000000815260040161094c9061178e565b60405180910390fd5b8060010160009054906101000a900473ffffffffffffffffffffffffffffffffffffffff1673ffffffffffffffffffffffffffffffffffffffff166108fc82600201549081150290604051600060405180830381858888f193505050501580156109c3573d6000803e3d6000fd5b5060018160030160006101000a81548160ff0219169083151502179055505050565b600354421180156109f95750600454600554105b610a38576040517f08c379a0000000000000000000000000000000000000000000000000000000008152600401610a2f906117fa565b60405180910390fd5b60008060003373ffffffffffffffffffffffffffffffffffffffff1673ffffffffffffffffffffffffffffffffffffffff1681526020019081526020016000205411610a8357600080fd5b60003390508073ffffffffffffffffffffffffffffffffffffffff166108fc6000803373ffffffffffffffffffffffffffffffffffffffff1673ffffffffffffffffffffffffffffffffffffffff168152602001908152602001600020549081150290604051600060405180830381858888f19350505050158015610b0c573d6000803e3d6000fd5b5060008060003373ffffffffffffffffffffffffffffffffffffffff1673ffffffffffffffffffffffffffffffffffffffff1681526020019081526020016000208190555050565b600047905090565b6007602052806000526040600020600091509050806000018054610b7f906112ef565b80601f0160208091040260200160405190810160405280929190818152602001828054610bab906112ef565b8015610bf85780601f10610bcd57610100808354040283529160200191610bf8565b820191906000526020600020905b815481529060010190602001808311610bdb57829003601f168201915b5050505050908060010160009054906101000a900473ffffffffffffffffffffffffffffffffffffffff16908060020154908060030160009054906101000a900460ff16908060040154905085565b60025481565b60085481565b60055481565b60045481565b6000604051905090565b600080fd5b600080fd5b600073ffffffffffffffffffffffffffffffffffffffff82169050919050565b6000610c9e82610c73565b9050919050565b610cae81610c93565b8114610cb957600080fd5b50565b600081359050610ccb81610ca5565b92915050565b600060208284031215610ce757610ce6610c69565b5b6000610cf584828501610cbc565b91505092915050565b6000819050919050565b610d1181610cfe565b82525050565b6000602082019050610d2c6000830184610d08565b92915050565b600080fd5b600080fd5b6000601f19601f8301169050919050565b7f4e487b7100000000000000000000000000000000000000000000000000000000600052604160045260246000fd5b610d8582610d3c565b810181811067ffffffffffffffff82111715610da457610da3610d4d565b5b80604052505050565b6000610db7610c5f565b9050610dc38282610d7c565b919050565b600067ffffffffffffffff821115610de357610de2610d4d565b5b610dec82610d3c565b9050602081019050919050565b82818337600083830152505050565b6000610e1b610e1684610dc8565b610dad565b905082815260208101848484011115610e3757610e36610d37565b5b610e42848285610df9565b509392505050565b600082601f830112610e5f57610e5e610d32565b5b8135610e6f848260208601610e08565b91505092915050565b6000610e8382610c73565b9050919050565b610e9381610e78565b8114610e9e57600080fd5b50565b600081359050610eb081610e8a565b92915050565b610ebf81610cfe565b8114610eca57600080fd5b50565b600081359050610edc81610eb6565b92915050565b600080600060608486031215610efb57610efa610c69565b5b600084013567ffffffffffffffff811115610f1957610f18610c6e565b5b610f2586828701610e4a565b9350506020610f3686828701610ea1565b9250506040610f4786828701610ecd565b9150509250925092565b610f5a81610c93565b82525050565b6000602082019050610f756000830184610f51565b92915050565b600060208284031215610f9157610f90610c69565b5b6000610f9f84828501610ecd565b91505092915050565b600081519050919050565b600082825260208201905092915050565b60005b83811015610fe2578082015181840152602081019050610fc7565b60008484015250505050565b6000610ff982610fa8565b6110038185610fb3565b9350611013818560208601610fc4565b61101c81610d3c565b840191505092915050565b61103081610e78565b82525050565b60008115159050919050565b61104b81611036565b82525050565b600060a082019050818103600083015261106b8188610fee565b905061107a6020830187611027565b6110876040830186610d08565b6110946060830185611042565b6110a16080830184610d08565b9695505050505050565b7f446561646c696e65206861732070617373656400000000000000000000000000600082015250565b60006110e1601383610fb3565b91506110ec826110ab565b602082019050919050565b60006020820190508181036000830152611110816110d4565b9050919050565b7f4d696e696d756d20636f6e747269627574696f6e206973206e6f74206d657400600082015250565b600061114d601f83610fb3565b915061115882611117565b602082019050919050565b6000602082019050818103600083015261117c81611140565b9050919050565b7f4e487b7100000000000000000000000000000000000000000000000000000000600052601160045260246000fd5b60006111bd82610cfe565b91507fffffffffffffffffffffffffffffffffffffffffffffffffffffffffffffffff82036111ef576111ee611183565b5b600182019050919050565b600061120582610cfe565b915061121083610cfe565b925082820190508082111561122857611227611183565b5b92915050565b7f4f6e6c79206d616e616765722063616e2063616c6c20746869732066756e637460008201527f696f6e0000000000000000000000000000000000000000000000000000000000602082015250565b600061128a602383610fb3565b91506112958261122e565b604082019050919050565b600060208201905081810360008301526112b98161127d565b9050919050565b7f4e487b7100000000000000000000000000000000000000000000000000000000600052602260045260246000fd5b6000600282049050600182168061130757607f821691505b60208210810361131a576113196112c0565b5b50919050565b60008190508160005260206000209050919050565b60006020601f8301049050919050565b600082821b905092915050565b6000600883026113827fffffffffffffffffffffffffffffffffffffffffffffffffffffffffffffffff82611345565b61138c8683611345565b95508019841693508086168417925050509392505050565b6000819050919050565b60006113c96113c46113bf84610cfe565b6113a4565b610cfe565b9050919050565b6000819050919050565b6113e3836113ae565b6113f76113ef826113d0565b848454611352565b825550505050565b600090565b61140c6113ff565b6114178184846113da565b505050565b5b8181101561143b57611430600082611404565b60018101905061141d565b5050565b601f8211156114805761145181611320565b61145a84611335565b81016020851015611469578190505b61147d61147585611335565b83018261141c565b50505b505050565b600082821c905092915050565b60006114a360001984600802611485565b1980831691505092915050565b60006114bc8383611492565b9150826002028217905092915050565b6114d582610fa8565b67ffffffffffffffff8111156114ee576114ed610d4d565b5b6114f882546112ef565b61150382828561143f565b600060209050601f8311600181146115365760008415611524578287015190505b61152e85826114b0565b865550611596565b601f19841661154486611320565b60005b8281101561156c57848901518255600182019150602085019450602081019050611547565b868310156115895784890151611585601f891682611492565b8355505b6001600288020188555050505b505050505050565b7f596f75206d75737420626520636f6e7472696275746f72000000000000000000600082015250565b60006115d4601783610fb3565b91506115df8261159e565b602082019050919050565b60006020820190508181036000830152611603816115c7565b9050919050565b7f596f75206861766520616c726561647920766f74656400000000000000000000600082015250565b6000611640601683610fb3565b915061164b8261160a565b602082019050919050565b6000602082019050818103600083015261166f81611633565b9050919050565b7f546865207265717565737420686173206265656e20636f6d706c657465640000600082015250565b60006116ac601e83610fb3565b91506116b782611676565b602082019050919050565b600060208201905081810360008301526116db8161169f565b9050919050565b7f4e487b7100000000000000000000000000000000000000000000000000000000600052601260045260246000fd5b600061171c82610cfe565b915061172783610cfe565b925082611737576117366116e2565b5b828204905092915050565b7f4d616a6f7269747920646f6573206e6f7420737570706f727400000000000000600082015250565b6000611778601983610fb3565b915061178382611742565b602082019050919050565b600060208201905081810360008301526117a78161176b565b9050919050565b7f596f7520617265206e6f7420656c696769626c6520666f7220726566756e6400600082015250565b60006117e4601f83610fb3565b91506117ef826117ae565b602082019050919050565b60006020820190508181036000830152611813816117d7565b905091905056fea264697066735822122002f2bc7264837e47deee5d83b83a1f031fb0354ba3ce0cfd1fc7a95089505adc64736f6c63430008120033",
					"opcodes": "PUSH1 0x80 PUSH1 0x40 MSTORE CALLVALUE DUP1 ISZERO PUSH3 0x11 JUMPI PUSH1 0x0 DUP1 REVERT JUMPDEST POP PUSH1 0x40 MLOAD PUSH3 0x19F4 CODESIZE SUB DUP1 PUSH3 0x19F4 DUP4 CODECOPY DUP2 DUP2 ADD PUSH1 0x40 MSTORE DUP2 ADD SWAP1 PUSH3 0x37 SWAP2 SWAP1 PUSH3 0xE3 JUMP JUMPDEST DUP2 PUSH1 0x4 DUP2 SWAP1 SSTORE POP DUP1 TIMESTAMP PUSH3 0x4C SWAP2 SWAP1 PUSH3 0x159 JUMP JUMPDEST PUSH1 0x3 DUP2 SWAP1 SSTORE POP PUSH1 0x64 PUSH1 0x2 DUP2 SWAP1 SSTORE POP CALLER PUSH1 0x1 PUSH1 0x0 PUSH2 0x100 EXP DUP2 SLOAD DUP2 PUSH20 0xFFFFFFFFFFFFFFFFFFFFFFFFFFFFFFFFFFFFFFFF MUL NOT AND SWAP1 DUP4 PUSH20 0xFFFFFFFFFFFFFFFFFFFFFFFFFFFFFFFFFFFFFFFF AND MUL OR SWAP1 SSTORE POP POP POP PUSH3 0x194 JUMP JUMPDEST PUSH1 0x0 DUP1 REVERT JUMPDEST PUSH1 0x0 DUP2 SWAP1 POP SWAP2 SWAP1 POP JUMP JUMPDEST PUSH3 0xBD DUP2 PUSH3 0xA8 JUMP JUMPDEST DUP2 EQ PUSH3 0xC9 JUMPI PUSH1 0x0 DUP1 REVERT JUMPDEST POP JUMP JUMPDEST PUSH1 0x0 DUP2 MLOAD SWAP1 POP PUSH3 0xDD DUP2 PUSH3 0xB2 JUMP JUMPDEST SWAP3 SWAP2 POP POP JUMP JUMPDEST PUSH1 0x0 DUP1 PUSH1 0x40 DUP4 DUP6 SUB SLT ISZERO PUSH3 0xFD JUMPI PUSH3 0xFC PUSH3 0xA3 JUMP JUMPDEST JUMPDEST PUSH1 0x0 PUSH3 0x10D DUP6 DUP3 DUP7 ADD PUSH3 0xCC JUMP JUMPDEST SWAP3 POP POP PUSH1 0x20 PUSH3 0x120 DUP6 DUP3 DUP7 ADD PUSH3 0xCC JUMP JUMPDEST SWAP2 POP POP SWAP3 POP SWAP3 SWAP1 POP JUMP JUMPDEST PUSH32 0x4E487B7100000000000000000000000000000000000000000000000000000000 PUSH1 0x0 MSTORE PUSH1 0x11 PUSH1 0x4 MSTORE PUSH1 0x24 PUSH1 0x0 REVERT JUMPDEST PUSH1 0x0 PUSH3 0x166 DUP3 PUSH3 0xA8 JUMP JUMPDEST SWAP2 POP PUSH3 0x173 DUP4 PUSH3 0xA8 JUMP JUMPDEST SWAP3 POP DUP3 DUP3 ADD SWAP1 POP DUP1 DUP3 GT ISZERO PUSH3 0x18E JUMPI PUSH3 0x18D PUSH3 0x12A JUMP JUMPDEST JUMPDEST SWAP3 SWAP2 POP POP JUMP JUMPDEST PUSH2 0x1850 DUP1 PUSH3 0x1A4 PUSH1 0x0 CODECOPY PUSH1 0x0 RETURN INVALID PUSH1 0x80 PUSH1 0x40 MSTORE PUSH1 0x4 CALLDATASIZE LT PUSH2 0xE8 JUMPI PUSH1 0x0 CALLDATALOAD PUSH1 0xE0 SHR DUP1 PUSH4 0x5114CB52 GT PUSH2 0x8A JUMPI DUP1 PUSH4 0x937E09B1 GT PUSH2 0x59 JUMPI DUP1 PUSH4 0x937E09B1 EQ PUSH2 0x2B3 JUMPI DUP1 PUSH4 0x9FB42B1F EQ PUSH2 0x2DE JUMPI DUP1 PUSH4 0xC59EE1DC EQ PUSH2 0x309 JUMPI DUP1 PUSH4 0xD4B83992 EQ PUSH2 0x334 JUMPI PUSH2 0xE8 JUMP JUMPDEST DUP1 PUSH4 0x5114CB52 EQ PUSH2 0x207 JUMPI DUP1 PUSH4 0x590E1AE3 EQ PUSH2 0x230 JUMPI DUP1 PUSH4 0x6F9FB98A EQ PUSH2 0x247 JUMPI DUP1 PUSH4 0x81D12C58 EQ PUSH2 0x272 JUMPI PUSH2 0xE8 JUMP JUMPDEST DUP1 PUSH4 0x3EB7647B GT PUSH2 0xC6 JUMPI DUP1 PUSH4 0x3EB7647B EQ PUSH2 0x15F JUMPI DUP1 PUSH4 0x481C6A75 EQ PUSH2 0x188 JUMPI DUP1 PUSH4 0x4CB6F4A5 EQ PUSH2 0x1B3 JUMPI DUP1 PUSH4 0x4E260F6F EQ PUSH2 0x1DC JUMPI PUSH2 0xE8 JUMP JUMPDEST DUP1 PUSH4 0x6E99FEF EQ PUSH2 0xED JUMPI DUP1 PUSH4 0x1F6D4942 EQ PUSH2 0xF7 JUMPI DUP1 PUSH4 0x29DCB0CF EQ PUSH2 0x134 JUMPI JUMPDEST PUSH1 0x0 DUP1 REVERT JUMPDEST PUSH2 0xF5 PUSH2 0x35F JUMP JUMPDEST STOP JUMPDEST CALLVALUE DUP1 ISZERO PUSH2 0x103 JUMPI PUSH1 0x0 DUP1 REVERT JUMPDEST POP PUSH2 0x11E PUSH1 0x4 DUP1 CALLDATASIZE SUB DUP2 ADD SWAP1 PUSH2 0x119 SWAP2 SWAP1 PUSH2 0xCD1 JUMP JUMPDEST PUSH2 0x4B7 JUMP JUMPDEST PUSH1 0x40 MLOAD PUSH2 0x12B SWAP2 SWAP1 PUSH2 0xD17 JUMP JUMPDEST PUSH1 0x40 MLOAD DUP1 SWAP2 SUB SWAP1 RETURN JUMPDEST CALLVALUE DUP1 ISZERO PUSH2 0x140 JUMPI PUSH1 0x0 DUP1 REVERT JUMPDEST POP PUSH2 0x149 PUSH2 0x4CF JUMP JUMPDEST PUSH1 0x40 MLOAD PUSH2 0x156 SWAP2 SWAP1 PUSH2 0xD17 JUMP JUMPDEST PUSH1 0x40 MLOAD DUP1 SWAP2 SUB SWAP1 RETURN JUMPDEST CALLVALUE DUP1 ISZERO PUSH2 0x16B JUMPI PUSH1 0x0 DUP1 REVERT JUMPDEST POP PUSH2 0x186 PUSH1 0x4 DUP1 CALLDATASIZE SUB DUP2 ADD SWAP1 PUSH2 0x181 SWAP2 SWAP1 PUSH2 0xEE2 JUMP JUMPDEST PUSH2 0x4D5 JUMP JUMPDEST STOP JUMPDEST CALLVALUE DUP1 ISZERO PUSH2 0x194 JUMPI PUSH1 0x0 DUP1 REVERT JUMPDEST POP PUSH2 0x19D PUSH2 0x621 JUMP JUMPDEST PUSH1 0x40 MLOAD PUSH2 0x1AA SWAP2 SWAP1 PUSH2 0xF60 JUMP JUMPDEST PUSH1 0x40 MLOAD DUP1 SWAP2 SUB SWAP1 RETURN JUMPDEST CALLVALUE DUP1 ISZERO PUSH2 0x1BF JUMPI PUSH1 0x0 DUP1 REVERT JUMPDEST POP PUSH2 0x1DA PUSH1 0x4 DUP1 CALLDATASIZE SUB DUP2 ADD SWAP1 PUSH2 0x1D5 SWAP2 SWAP1 PUSH2 0xF7B JUMP JUMPDEST PUSH2 0x647 JUMP JUMPDEST STOP JUMPDEST CALLVALUE DUP1 ISZERO PUSH2 0x1E8 JUMPI PUSH1 0x0 DUP1 REVERT JUMPDEST POP PUSH2 0x1F1 PUSH2 0x7EC JUMP JUMPDEST PUSH1 0x40 MLOAD PUSH2 0x1FE SWAP2 SWAP1 PUSH2 0xD17 JUMP JUMPDEST PUSH1 0x40 MLOAD DUP1 SWAP2 SUB SWAP1 RETURN JUMPDEST CALLVALUE DUP1 ISZERO PUSH2 0x213 JUMPI PUSH1 0x0 DUP1 REVERT JUMPDEST POP PUSH2 0x22E PUSH1 0x4 DUP1 CALLDATASIZE SUB DUP2 ADD SWAP1 PUSH2 0x229 SWAP2 SWAP1 PUSH2 0xF7B JUMP JUMPDEST PUSH2 0x7F2 JUMP JUMPDEST STOP JUMPDEST CALLVALUE DUP1 ISZERO PUSH2 0x23C JUMPI PUSH1 0x0 DUP1 REVERT JUMPDEST POP PUSH2 0x245 PUSH2 0x9E5 JUMP JUMPDEST STOP JUMPDEST CALLVALUE DUP1 ISZERO PUSH2 0x253 JUMPI PUSH1 0x0 DUP1 REVERT JUMPDEST POP PUSH2 0x25C PUSH2 0xB54 JUMP JUMPDEST PUSH1 0x40 MLOAD PUSH2 0x269 SWAP2 SWAP1 PUSH2 0xD17 JUMP JUMPDEST PUSH1 0x40 MLOAD DUP1 SWAP2 SUB SWAP1 RETURN JUMPDEST CALLVALUE DUP1 ISZERO PUSH2 0x27E JUMPI PUSH1 0x0 DUP1 REVERT JUMPDEST POP PUSH2 0x299 PUSH1 0x4 DUP1 CALLDATASIZE SUB DUP2 ADD SWAP1 PUSH2 0x294 SWAP2 SWAP1 PUSH2 0xF7B JUMP JUMPDEST PUSH2 0xB5C JUMP JUMPDEST PUSH1 0x40 MLOAD PUSH2 0x2AA SWAP6 SWAP5 SWAP4 SWAP3 SWAP2 SWAP1 PUSH2 0x1051 JUMP JUMPDEST PUSH1 0x40 MLOAD DUP1 SWAP2 SUB SWAP1 RETURN JUMPDEST CALLVALUE DUP1 ISZERO PUSH2 0x2BF JUMPI PUSH1 0x0 DUP1 REVERT JUMPDEST POP PUSH2 0x2C8 PUSH2 0xC47 JUMP JUMPDEST PUSH1 0x40 MLOAD PUSH2 0x2D5 SWAP2 SWAP1 PUSH2 0xD17 JUMP JUMPDEST PUSH1 0x40 MLOAD DUP1 SWAP2 SUB SWAP1 RETURN JUMPDEST CALLVALUE DUP1 ISZERO PUSH2 0x2EA JUMPI PUSH1 0x0 DUP1 REVERT JUMPDEST POP PUSH2 0x2F3 PUSH2 0xC4D JUMP JUMPDEST PUSH1 0x40 MLOAD PUSH2 0x300 SWAP2 SWAP1 PUSH2 0xD17 JUMP JUMPDEST PUSH1 0x40 MLOAD DUP1 SWAP2 SUB SWAP1 RETURN JUMPDEST CALLVALUE DUP1 ISZERO PUSH2 0x315 JUMPI PUSH1 0x0 DUP1 REVERT JUMPDEST POP PUSH2 0x31E PUSH2 0xC53 JUMP JUMPDEST PUSH1 0x40 MLOAD PUSH2 0x32B SWAP2 SWAP1 PUSH2 0xD17 JUMP JUMPDEST PUSH1 0x40 MLOAD DUP1 SWAP2 SUB SWAP1 RETURN JUMPDEST CALLVALUE DUP1 ISZERO PUSH2 0x340 JUMPI PUSH1 0x0 DUP1 REVERT JUMPDEST POP PUSH2 0x349 PUSH2 0xC59 JUMP JUMPDEST PUSH1 0x40 MLOAD PUSH2 0x356 SWAP2 SWAP1 PUSH2 0xD17 JUMP JUMPDEST PUSH1 0x40 MLOAD DUP1 SWAP2 SUB SWAP1 RETURN JUMPDEST PUSH1 0x3 SLOAD TIMESTAMP LT PUSH2 0x3A3 JUMPI PUSH1 0x40 MLOAD PUSH32 0x8C379A000000000000000000000000000000000000000000000000000000000 DUP2 MSTORE PUSH1 0x4 ADD PUSH2 0x39A SWAP1 PUSH2 0x10F7 JUMP JUMPDEST PUSH1 0x40 MLOAD DUP1 SWAP2 SUB SWAP1 REVERT JUMPDEST PUSH1 0x2 SLOAD CALLVALUE LT ISZERO PUSH2 0x3E8 JUMPI PUSH1 0x40 MLOAD PUSH32 0x8C379A000000000000000000000000000000000000000000000000000000000 DUP2 MSTORE PUSH1 0x4 ADD PUSH2 0x3DF SWAP1 PUSH2 0x1163 JUMP JUMPDEST PUSH1 0x40 MLOAD DUP1 SWAP2 SUB SWAP1 REVERT JUMPDEST PUSH1 0x0 DUP1 PUSH1 0x0 CALLER PUSH20 0xFFFFFFFFFFFFFFFFFFFFFFFFFFFFFFFFFFFFFFFF AND PUSH20 0xFFFFFFFFFFFFFFFFFFFFFFFFFFFFFFFFFFFFFFFF AND DUP2 MSTORE PUSH1 0x20 ADD SWAP1 DUP2 MSTORE PUSH1 0x20 ADD PUSH1 0x0 KECCAK256 SLOAD SUB PUSH2 0x447 JUMPI PUSH1 0x6 PUSH1 0x0 DUP2 SLOAD DUP1 SWAP3 SWAP2 SWAP1 PUSH2 0x441 SWAP1 PUSH2 0x11B2 JUMP JUMPDEST SWAP2 SWAP1 POP SSTORE POP JUMPDEST CALLVALUE PUSH1 0x0 DUP1 CALLER PUSH20 0xFFFFFFFFFFFFFFFFFFFFFFFFFFFFFFFFFFFFFFFF AND PUSH20 0xFFFFFFFFFFFFFFFFFFFFFFFFFFFFFFFFFFFFFFFF AND DUP2 MSTORE PUSH1 0x20 ADD SWAP1 DUP2 MSTORE PUSH1 0x20 ADD PUSH1 0x0 KECCAK256 PUSH1 0x0 DUP3 DUP3 SLOAD PUSH2 0x495 SWAP2 SWAP1 PUSH2 0x11FA JUMP JUMPDEST SWAP3 POP POP DUP2 SWAP1 SSTORE POP CALLVALUE PUSH1 0x5 PUSH1 0x0 DUP3 DUP3 SLOAD PUSH2 0x4AE SWAP2 SWAP1 PUSH2 0x11FA JUMP JUMPDEST SWAP3 POP POP DUP2 SWAP1 SSTORE POP JUMP JUMPDEST PUSH1 0x0 PUSH1 0x20 MSTORE DUP1 PUSH1 0x0 MSTORE PUSH1 0x40 PUSH1 0x0 KECCAK256 PUSH1 0x0 SWAP2 POP SWAP1 POP SLOAD DUP2 JUMP JUMPDEST PUSH1 0x3 SLOAD DUP2 JUMP JUMPDEST PUSH1 0x1 PUSH1 0x0 SWAP1 SLOAD SWAP1 PUSH2 0x100 EXP SWAP1 DIV PUSH20 0xFFFFFFFFFFFFFFFFFFFFFFFFFFFFFFFFFFFFFFFF AND PUSH20 0xFFFFFFFFFFFFFFFFFFFFFFFFFFFFFFFFFFFFFFFF AND CALLER PUSH20 0xFFFFFFFFFFFFFFFFFFFFFFFFFFFFFFFFFFFFFFFF AND EQ PUSH2 0x565 JUMPI PUSH1 0x40 MLOAD PUSH32 0x8C379A000000000000000000000000000000000000000000000000000000000 DUP2 MSTORE PUSH1 0x4 ADD PUSH2 0x55C SWAP1 PUSH2 0x12A0 JUMP JUMPDEST PUSH1 0x40 MLOAD DUP1 SWAP2 SUB SWAP1 REVERT JUMPDEST PUSH1 0x0 PUSH1 0x7 PUSH1 0x0 PUSH1 0x8 SLOAD DUP2 MSTORE PUSH1 0x20 ADD SWAP1 DUP2 MSTORE PUSH1 0x20 ADD PUSH1 0x0 KECCAK256 SWAP1 POP PUSH1 0x8 PUSH1 0x0 DUP2 SLOAD DUP1 SWAP3 SWAP2 SWAP1 PUSH2 0x591 SWAP1 PUSH2 0x11B2 JUMP JUMPDEST SWAP2 SWAP1 POP SSTORE POP DUP4 DUP2 PUSH1 0x0 ADD SWAP1 DUP2 PUSH2 0x5A7 SWAP2 SWAP1 PUSH2 0x14CC JUMP JUMPDEST POP DUP3 DUP2 PUSH1 0x1 ADD PUSH1 0x0 PUSH2 0x100 EXP DUP2 SLOAD DUP2 PUSH20 0xFFFFFFFFFFFFFFFFFFFFFFFFFFFFFFFFFFFFFFFF MUL NOT AND SWAP1 DUP4 PUSH20 0xFFFFFFFFFFFFFFFFFFFFFFFFFFFFFFFFFFFFFFFF AND MUL OR SWAP1 SSTORE POP DUP2 DUP2 PUSH1 0x2 ADD DUP2 SWAP1 SSTORE POP PUSH1 0x0 DUP2 PUSH1 0x3 ADD PUSH1 0x0 PUSH2 0x100 EXP DUP2 SLOAD DUP2 PUSH1 0xFF MUL NOT AND SWAP1 DUP4 ISZERO ISZERO MUL OR SWAP1 SSTORE POP PUSH1 0x0 DUP2 PUSH1 0x4 ADD DUP2 SWAP1 SSTORE POP POP POP POP POP JUMP JUMPDEST PUSH1 0x1 PUSH1 0x0 SWAP1 SLOAD SWAP1 PUSH2 0x100 EXP SWAP1 DIV PUSH20 0xFFFFFFFFFFFFFFFFFFFFFFFFFFFFFFFFFFFFFFFF AND DUP2 JUMP JUMPDEST PUSH1 0x0 DUP1 PUSH1 0x0 CALLER PUSH20 0xFFFFFFFFFFFFFFFFFFFFFFFFFFFFFFFFFFFFFFFF AND PUSH20 0xFFFFFFFFFFFFFFFFFFFFFFFFFFFFFFFFFFFFFFFF AND DUP2 MSTORE PUSH1 0x20 ADD SWAP1 DUP2 MSTORE PUSH1 0x20 ADD PUSH1 0x0 KECCAK256 SLOAD GT PUSH2 0x6C8 JUMPI PUSH1 0x40 MLOAD PUSH32 0x8C379A000000000000000000000000000000000000000000000000000000000 DUP2 MSTORE PUSH1 0x4 ADD PUSH2 0x6BF SWAP1 PUSH2 0x15EA JUMP JUMPDEST PUSH1 0x40 MLOAD DUP1 SWAP2 SUB SWAP1 REVERT JUMPDEST PUSH1 0x0 PUSH1 0x7 PUSH1 0x0 DUP4 DUP2 MSTORE PUSH1 0x20 ADD SWAP1 DUP2 MSTORE PUSH1 0x20 ADD PUSH1 0x0 KECCAK256 SWAP1 POP PUSH1 0x0 ISZERO ISZERO DUP2 PUSH1 0x5 ADD PUSH1 0x0 CALLER PUSH20 0xFFFFFFFFFFFFFFFFFFFFFFFFFFFFFFFFFFFFFFFF AND PUSH20 0xFFFFFFFFFFFFFFFFFFFFFFFFFFFFFFFFFFFFFFFF AND DUP2 MSTORE PUSH1 0x20 ADD SWAP1 DUP2 MSTORE PUSH1 0x20 ADD PUSH1 0x0 KECCAK256 PUSH1 0x0 SWAP1 SLOAD SWAP1 PUSH2 0x100 EXP SWAP1 DIV PUSH1 0xFF AND ISZERO ISZERO EQ PUSH2 0x774 JUMPI PUSH1 0x40 MLOAD PUSH32 0x8C379A000000000000000000000000000000000000000000000000000000000 DUP2 MSTORE PUSH1 0x4 ADD PUSH2 0x76B SWAP1 PUSH2 0x1656 JUMP JUMPDEST PUSH1 0x40 MLOAD DUP1 SWAP2 SUB SWAP1 REVERT JUMPDEST PUSH1 0x1 DUP2 PUSH1 0x5 ADD PUSH1 0x0 CALLER PUSH20 0xFFFFFFFFFFFFFFFFFFFFFFFFFFFFFFFFFFFFFFFF AND PUSH20 0xFFFFFFFFFFFFFFFFFFFFFFFFFFFFFFFFFFFFFFFF AND DUP2 MSTORE PUSH1 0x20 ADD SWAP1 DUP2 MSTORE PUSH1 0x20 ADD PUSH1 0x0 KECCAK256 PUSH1 0x0 PUSH2 0x100 EXP DUP2 SLOAD DUP2 PUSH1 0xFF MUL NOT AND SWAP1 DUP4 ISZERO ISZERO MUL OR SWAP1 SSTORE POP DUP1 PUSH1 0x4 ADD PUSH1 0x0 DUP2 SLOAD DUP1 SWAP3 SWAP2 SWAP1 PUSH2 0x7E3 SWAP1 PUSH2 0x11B2 JUMP JUMPDEST SWAP2 SWAP1 POP SSTORE POP POP POP JUMP JUMPDEST PUSH1 0x6 SLOAD DUP2 JUMP JUMPDEST PUSH1 0x1 PUSH1 0x0 SWAP1 SLOAD SWAP1 PUSH2 0x100 EXP SWAP1 DIV PUSH20 0xFFFFFFFFFFFFFFFFFFFFFFFFFFFFFFFFFFFFFFFF AND PUSH20 0xFFFFFFFFFFFFFFFFFFFFFFFFFFFFFFFFFFFFFFFF AND CALLER PUSH20 0xFFFFFFFFFFFFFFFFFFFFFFFFFFFFFFFFFFFFFFFF AND EQ PUSH2 0x882 JUMPI PUSH1 0x40 MLOAD PUSH32 0x8C379A000000000000000000000000000000000000000000000000000000000 DUP2 MSTORE PUSH1 0x4 ADD PUSH2 0x879 SWAP1 PUSH2 0x12A0 JUMP JUMPDEST PUSH1 0x40 MLOAD DUP1 SWAP2 SUB SWAP1 REVERT JUMPDEST PUSH1 0x4 SLOAD PUSH1 0x5 SLOAD GT PUSH2 0x892 JUMPI PUSH1 0x0 DUP1 REVERT JUMPDEST PUSH1 0x0 PUSH1 0x7 PUSH1 0x0 DUP4 DUP2 MSTORE PUSH1 0x20 ADD SWAP1 DUP2 MSTORE PUSH1 0x20 ADD PUSH1 0x0 KECCAK256 SWAP1 POP PUSH1 0x0 ISZERO ISZERO DUP2 PUSH1 0x3 ADD PUSH1 0x0 SWAP1 SLOAD SWAP1 PUSH2 0x100 EXP SWAP1 DIV PUSH1 0xFF AND ISZERO ISZERO EQ PUSH2 0x901 JUMPI PUSH1 0x40 MLOAD PUSH32 0x8C379A000000000000000000000000000000000000000000000000000000000 DUP2 MSTORE PUSH1 0x4 ADD PUSH2 0x8F8 SWAP1 PUSH2 0x16C2 JUMP JUMPDEST PUSH1 0x40 MLOAD DUP1 SWAP2 SUB SWAP1 REVERT JUMPDEST PUSH1 0x2 PUSH1 0x6 SLOAD PUSH2 0x910 SWAP2 SWAP1 PUSH2 0x1711 JUMP JUMPDEST DUP2 PUSH1 0x4 ADD SLOAD GT PUSH2 0x955 JUMPI PUSH1 0x40 MLOAD PUSH32 0x8C379A000000000000000000000000000000000000000000000000000000000 DUP2 MSTORE PUSH1 0x4 ADD PUSH2 0x94C SWAP1 PUSH2 0x178E JUMP JUMPDEST PUSH1 0x40 MLOAD DUP1 SWAP2 SUB SWAP1 REVERT JUMPDEST DUP1 PUSH1 0x1 ADD PUSH1 0x0 SWAP1 SLOAD SWAP1 PUSH2 0x100 EXP SWAP1 DIV PUSH20 0xFFFFFFFFFFFFFFFFFFFFFFFFFFFFFFFFFFFFFFFF AND PUSH20 0xFFFFFFFFFFFFFFFFFFFFFFFFFFFFFFFFFFFFFFFF AND PUSH2 0x8FC DUP3 PUSH1 0x2 ADD SLOAD SWAP1 DUP2 ISZERO MUL SWAP1 PUSH1 0x40 MLOAD PUSH1 0x0 PUSH1 0x40 MLOAD DUP1 DUP4 SUB DUP2 DUP6 DUP9 DUP9 CALL SWAP4 POP POP POP POP ISZERO DUP1 ISZERO PUSH2 0x9C3 JUMPI RETURNDATASIZE PUSH1 0x0 DUP1 RETURNDATACOPY RETURNDATASIZE PUSH1 0x0 REVERT JUMPDEST POP PUSH1 0x1 DUP2 PUSH1 0x3 ADD PUSH1 0x0 PUSH2 0x100 EXP DUP2 SLOAD DUP2 PUSH1 0xFF MUL NOT AND SWAP1 DUP4 ISZERO ISZERO MUL OR SWAP1 SSTORE POP POP POP JUMP JUMPDEST PUSH1 0x3 SLOAD TIMESTAMP GT DUP1 ISZERO PUSH2 0x9F9 JUMPI POP PUSH1 0x4 SLOAD PUSH1 0x5 SLOAD LT JUMPDEST PUSH2 0xA38 JUMPI PUSH1 0x40 MLOAD PUSH32 0x8C379A000000000000000000000000000000000000000000000000000000000 DUP2 MSTORE PUSH1 0x4 ADD PUSH2 0xA2F SWAP1 PUSH2 0x17FA JUMP JUMPDEST PUSH1 0x40 MLOAD DUP1 SWAP2 SUB SWAP1 REVERT JUMPDEST PUSH1 0x0 DUP1 PUSH1 0x0 CALLER PUSH20 0xFFFFFFFFFFFFFFFFFFFFFFFFFFFFFFFFFFFFFFFF AND PUSH20 0xFFFFFFFFFFFFFFFFFFFFFFFFFFFFFFFFFFFFFFFF AND DUP2 MSTORE PUSH1 0x20 ADD SWAP1 DUP2 MSTORE PUSH1 0x20 ADD PUSH1 0x0 KECCAK256 SLOAD GT PUSH2 0xA83 JUMPI PUSH1 0x0 DUP1 REVERT JUMPDEST PUSH1 0x0 CALLER SWAP1 POP DUP1 PUSH20 0xFFFFFFFFFFFFFFFFFFFFFFFFFFFFFFFFFFFFFFFF AND PUSH2 0x8FC PUSH1 0x0 DUP1 CALLER PUSH20 0xFFFFFFFFFFFFFFFFFFFFFFFFFFFFFFFFFFFFFFFF AND PUSH20 0xFFFFFFFFFFFFFFFFFFFFFFFFFFFFFFFFFFFFFFFF AND DUP2 MSTORE PUSH1 0x20 ADD SWAP1 DUP2 MSTORE PUSH1 0x20 ADD PUSH1 0x0 KECCAK256 SLOAD SWAP1 DUP2 ISZERO MUL SWAP1 PUSH1 0x40 MLOAD PUSH1 0x0 PUSH1 0x40 MLOAD DUP1 DUP4 SUB DUP2 DUP6 DUP9 DUP9 CALL SWAP4 POP POP POP POP ISZERO DUP1 ISZERO PUSH2 0xB0C JUMPI RETURNDATASIZE PUSH1 0x0 DUP1 RETURNDATACOPY RETURNDATASIZE PUSH1 0x0 REVERT JUMPDEST POP PUSH1 0x0 DUP1 PUSH1 0x0 CALLER PUSH20 0xFFFFFFFFFFFFFFFFFFFFFFFFFFFFFFFFFFFFFFFF AND PUSH20 0xFFFFFFFFFFFFFFFFFFFFFFFFFFFFFFFFFFFFFFFF AND DUP2 MSTORE PUSH1 0x20 ADD SWAP1 DUP2 MSTORE PUSH1 0x20 ADD PUSH1 0x0 KECCAK256 DUP2 SWAP1 SSTORE POP POP JUMP JUMPDEST PUSH1 0x0 SELFBALANCE SWAP1 POP SWAP1 JUMP JUMPDEST PUSH1 0x7 PUSH1 0x20 MSTORE DUP1 PUSH1 0x0 MSTORE PUSH1 0x40 PUSH1 0x0 KECCAK256 PUSH1 0x0 SWAP2 POP SWAP1 POP DUP1 PUSH1 0x0 ADD DUP1 SLOAD PUSH2 0xB7F SWAP1 PUSH2 0x12EF JUMP JUMPDEST DUP1 PUSH1 0x1F ADD PUSH1 0x20 DUP1 SWAP2 DIV MUL PUSH1 0x20 ADD PUSH1 0x40 MLOAD SWAP1 DUP2 ADD PUSH1 0x40 MSTORE DUP1 SWAP3 SWAP2 SWAP1 DUP2 DUP2 MSTORE PUSH1 0x20 ADD DUP3 DUP1 SLOAD PUSH2 0xBAB SWAP1 PUSH2 0x12EF JUMP JUMPDEST DUP1 ISZERO PUSH2 0xBF8 JUMPI DUP1 PUSH1 0x1F LT PUSH2 0xBCD JUMPI PUSH2 0x100 DUP1 DUP4 SLOAD DIV MUL DUP4 MSTORE SWAP2 PUSH1 0x20 ADD SWAP2 PUSH2 0xBF8 JUMP JUMPDEST DUP3 ADD SWAP2 SWAP1 PUSH1 0x0 MSTORE PUSH1 0x20 PUSH1 0x0 KECCAK256 SWAP1 JUMPDEST DUP2 SLOAD DUP2 MSTORE SWAP1 PUSH1 0x1 ADD SWAP1 PUSH1 0x20 ADD DUP1 DUP4 GT PUSH2 0xBDB JUMPI DUP3 SWAP1 SUB PUSH1 0x1F AND DUP3 ADD SWAP2 JUMPDEST POP POP POP POP POP SWAP1 DUP1 PUSH1 0x1 ADD PUSH1 0x0 SWAP1 SLOAD SWAP1 PUSH2 0x100 EXP SWAP1 DIV PUSH20 0xFFFFFFFFFFFFFFFFFFFFFFFFFFFFFFFFFFFFFFFF AND SWAP1 DUP1 PUSH1 0x2 ADD SLOAD SWAP1 DUP1 PUSH1 0x3 ADD PUSH1 0x0 SWAP1 SLOAD SWAP1 PUSH2 0x100 EXP SWAP1 DIV PUSH1 0xFF AND SWAP1 DUP1 PUSH1 0x4 ADD SLOAD SWAP1 POP DUP6 JUMP JUMPDEST PUSH1 0x2 SLOAD DUP2 JUMP JUMPDEST PUSH1 0x8 SLOAD DUP2 JUMP JUMPDEST PUSH1 0x5 SLOAD DUP2 JUMP JUMPDEST PUSH1 0x4 SLOAD DUP2 JUMP JUMPDEST PUSH1 0x0 PUSH1 0x40 MLOAD SWAP1 POP SWAP1 JUMP JUMPDEST PUSH1 0x0 DUP1 REVERT JUMPDEST PUSH1 0x0 DUP1 REVERT JUMPDEST PUSH1 0x0 PUSH20 0xFFFFFFFFFFFFFFFFFFFFFFFFFFFFFFFFFFFFFFFF DUP3 AND SWAP1 POP SWAP2 SWAP1 POP JUMP JUMPDEST PUSH1 0x0 PUSH2 0xC9E DUP3 PUSH2 0xC73 JUMP JUMPDEST SWAP1 POP SWAP2 SWAP1 POP JUMP JUMPDEST PUSH2 0xCAE DUP2 PUSH2 0xC93 JUMP JUMPDEST DUP2 EQ PUSH2 0xCB9 JUMPI PUSH1 0x0 DUP1 REVERT JUMPDEST POP JUMP JUMPDEST PUSH1 0x0 DUP2 CALLDATALOAD SWAP1 POP PUSH2 0xCCB DUP2 PUSH2 0xCA5 JUMP JUMPDEST SWAP3 SWAP2 POP POP JUMP JUMPDEST PUSH1 0x0 PUSH1 0x20 DUP3 DUP5 SUB SLT ISZERO PUSH2 0xCE7 JUMPI PUSH2 0xCE6 PUSH2 0xC69 JUMP JUMPDEST JUMPDEST PUSH1 0x0 PUSH2 0xCF5 DUP5 DUP3 DUP6 ADD PUSH2 0xCBC JUMP JUMPDEST SWAP2 POP POP SWAP3 SWAP2 POP POP JUMP JUMPDEST PUSH1 0x0 DUP2 SWAP1 POP SWAP2 SWAP1 POP JUMP JUMPDEST PUSH2 0xD11 DUP2 PUSH2 0xCFE JUMP JUMPDEST DUP3 MSTORE POP POP JUMP JUMPDEST PUSH1 0x0 PUSH1 0x20 DUP3 ADD SWAP1 POP PUSH2 0xD2C PUSH1 0x0 DUP4 ADD DUP5 PUSH2 0xD08 JUMP JUMPDEST SWAP3 SWAP2 POP POP JUMP JUMPDEST PUSH1 0x0 DUP1 REVERT JUMPDEST PUSH1 0x0 DUP1 REVERT JUMPDEST PUSH1 0x0 PUSH1 0x1F NOT PUSH1 0x1F DUP4 ADD AND SWAP1 POP SWAP2 SWAP1 POP JUMP JUMPDEST PUSH32 0x4E487B7100000000000000000000000000000000000000000000000000000000 PUSH1 0x0 MSTORE PUSH1 0x41 PUSH1 0x4 MSTORE PUSH1 0x24 PUSH1 0x0 REVERT JUMPDEST PUSH2 0xD85 DUP3 PUSH2 0xD3C JUMP JUMPDEST DUP2 ADD DUP2 DUP2 LT PUSH8 0xFFFFFFFFFFFFFFFF DUP3 GT OR ISZERO PUSH2 0xDA4 JUMPI PUSH2 0xDA3 PUSH2 0xD4D JUMP JUMPDEST JUMPDEST DUP1 PUSH1 0x40 MSTORE POP POP POP JUMP JUMPDEST PUSH1 0x0 PUSH2 0xDB7 PUSH2 0xC5F JUMP JUMPDEST SWAP1 POP PUSH2 0xDC3 DUP3 DUP3 PUSH2 0xD7C JUMP JUMPDEST SWAP2 SWAP1 POP JUMP JUMPDEST PUSH1 0x0 PUSH8 0xFFFFFFFFFFFFFFFF DUP3 GT ISZERO PUSH2 0xDE3 JUMPI PUSH2 0xDE2 PUSH2 0xD4D JUMP JUMPDEST JUMPDEST PUSH2 0xDEC DUP3 PUSH2 0xD3C JUMP JUMPDEST SWAP1 POP PUSH1 0x20 DUP2 ADD SWAP1 POP SWAP2 SWAP1 POP JUMP JUMPDEST DUP3 DUP2 DUP4 CALLDATACOPY PUSH1 0x0 DUP4 DUP4 ADD MSTORE POP POP POP JUMP JUMPDEST PUSH1 0x0 PUSH2 0xE1B PUSH2 0xE16 DUP5 PUSH2 0xDC8 JUMP JUMPDEST PUSH2 0xDAD JUMP JUMPDEST SWAP1 POP DUP3 DUP2 MSTORE PUSH1 0x20 DUP2 ADD DUP5 DUP5 DUP5 ADD GT ISZERO PUSH2 0xE37 JUMPI PUSH2 0xE36 PUSH2 0xD37 JUMP JUMPDEST JUMPDEST PUSH2 0xE42 DUP5 DUP3 DUP6 PUSH2 0xDF9 JUMP JUMPDEST POP SWAP4 SWAP3 POP POP POP JUMP JUMPDEST PUSH1 0x0 DUP3 PUSH1 0x1F DUP4 ADD SLT PUSH2 0xE5F JUMPI PUSH2 0xE5E PUSH2 0xD32 JUMP JUMPDEST JUMPDEST DUP2 CALLDATALOAD PUSH2 0xE6F DUP5 DUP3 PUSH1 0x20 DUP7 ADD PUSH2 0xE08 JUMP JUMPDEST SWAP2 POP POP SWAP3 SWAP2 POP POP JUMP JUMPDEST PUSH1 0x0 PUSH2 0xE83 DUP3 PUSH2 0xC73 JUMP JUMPDEST SWAP1 POP SWAP2 SWAP1 POP JUMP JUMPDEST PUSH2 0xE93 DUP2 PUSH2 0xE78 JUMP JUMPDEST DUP2 EQ PUSH2 0xE9E JUMPI PUSH1 0x0 DUP1 REVERT JUMPDEST POP JUMP JUMPDEST PUSH1 0x0 DUP2 CALLDATALOAD SWAP1 POP PUSH2 0xEB0 DUP2 PUSH2 0xE8A JUMP JUMPDEST SWAP3 SWAP2 POP POP JUMP JUMPDEST PUSH2 0xEBF DUP2 PUSH2 0xCFE JUMP JUMPDEST DUP2 EQ PUSH2 0xECA JUMPI PUSH1 0x0 DUP1 REVERT JUMPDEST POP JUMP JUMPDEST PUSH1 0x0 DUP2 CALLDATALOAD SWAP1 POP PUSH2 0xEDC DUP2 PUSH2 0xEB6 JUMP JUMPDEST SWAP3 SWAP2 POP POP JUMP JUMPDEST PUSH1 0x0 DUP1 PUSH1 0x0 PUSH1 0x60 DUP5 DUP7 SUB SLT ISZERO PUSH2 0xEFB JUMPI PUSH2 0xEFA PUSH2 0xC69 JUMP JUMPDEST JUMPDEST PUSH1 0x0 DUP5 ADD CALLDATALOAD PUSH8 0xFFFFFFFFFFFFFFFF DUP2 GT ISZERO PUSH2 0xF19 JUMPI PUSH2 0xF18 PUSH2 0xC6E JUMP JUMPDEST JUMPDEST PUSH2 0xF25 DUP7 DUP3 DUP8 ADD PUSH2 0xE4A JUMP JUMPDEST SWAP4 POP POP PUSH1 0x20 PUSH2 0xF36 DUP7 DUP3 DUP8 ADD PUSH2 0xEA1 JUMP JUMPDEST SWAP3 POP POP PUSH1 0x40 PUSH2 0xF47 DUP7 DUP3 DUP8 ADD PUSH2 0xECD JUMP JUMPDEST SWAP2 POP POP SWAP3 POP SWAP3 POP SWAP3 JUMP JUMPDEST PUSH2 0xF5A DUP2 PUSH2 0xC93 JUMP JUMPDEST DUP3 MSTORE POP POP JUMP JUMPDEST PUSH1 0x0 PUSH1 0x20 DUP3 ADD SWAP1 POP PUSH2 0xF75 PUSH1 0x0 DUP4 ADD DUP5 PUSH2 0xF51 JUMP JUMPDEST SWAP3 SWAP2 POP POP JUMP JUMPDEST PUSH1 0x0 PUSH1 0x20 DUP3 DUP5 SUB SLT ISZERO PUSH2 0xF91 JUMPI PUSH2 0xF90 PUSH2 0xC69 JUMP JUMPDEST JUMPDEST PUSH1 0x0 PUSH2 0xF9F DUP5 DUP3 DUP6 ADD PUSH2 0xECD JUMP JUMPDEST SWAP2 POP POP SWAP3 SWAP2 POP POP JUMP JUMPDEST PUSH1 0x0 DUP2 MLOAD SWAP1 POP SWAP2 SWAP1 POP JUMP JUMPDEST PUSH1 0x0 DUP3 DUP3 MSTORE PUSH1 0x20 DUP3 ADD SWAP1 POP SWAP3 SWAP2 POP POP JUMP JUMPDEST PUSH1 0x0 JUMPDEST DUP4 DUP2 LT ISZERO PUSH2 0xFE2 JUMPI DUP1 DUP3 ADD MLOAD DUP2 DUP5 ADD MSTORE PUSH1 0x20 DUP2 ADD SWAP1 POP PUSH2 0xFC7 JUMP JUMPDEST PUSH1 0x0 DUP5 DUP5 ADD MSTORE POP POP POP POP JUMP JUMPDEST PUSH1 0x0 PUSH2 0xFF9 DUP3 PUSH2 0xFA8 JUMP JUMPDEST PUSH2 0x1003 DUP2 DUP6 PUSH2 0xFB3 JUMP JUMPDEST SWAP4 POP PUSH2 0x1013 DUP2 DUP6 PUSH1 0x20 DUP7 ADD PUSH2 0xFC4 JUMP JUMPDEST PUSH2 0x101C DUP2 PUSH2 0xD3C JUMP JUMPDEST DUP5 ADD SWAP2 POP POP SWAP3 SWAP2 POP POP JUMP JUMPDEST PUSH2 0x1030 DUP2 PUSH2 0xE78 JUMP JUMPDEST DUP3 MSTORE POP POP JUMP JUMPDEST PUSH1 0x0 DUP2 ISZERO ISZERO SWAP1 POP SWAP2 SWAP1 POP JUMP JUMPDEST PUSH2 0x104B DUP2 PUSH2 0x1036 JUMP JUMPDEST DUP3 MSTORE POP POP JUMP JUMPDEST PUSH1 0x0 PUSH1 0xA0 DUP3 ADD SWAP1 POP DUP2 DUP2 SUB PUSH1 0x0 DUP4 ADD MSTORE PUSH2 0x106B DUP2 DUP9 PUSH2 0xFEE JUMP JUMPDEST SWAP1 POP PUSH2 0x107A PUSH1 0x20 DUP4 ADD DUP8 PUSH2 0x1027 JUMP JUMPDEST PUSH2 0x1087 PUSH1 0x40 DUP4 ADD DUP7 PUSH2 0xD08 JUMP JUMPDEST PUSH2 0x1094 PUSH1 0x60 DUP4 ADD DUP6 PUSH2 0x1042 JUMP JUMPDEST PUSH2 0x10A1 PUSH1 0x80 DUP4 ADD DUP5 PUSH2 0xD08 JUMP JUMPDEST SWAP7 SWAP6 POP POP POP POP POP POP JUMP JUMPDEST PUSH32 0x446561646C696E65206861732070617373656400000000000000000000000000 PUSH1 0x0 DUP3 ADD MSTORE POP JUMP JUMPDEST PUSH1 0x0 PUSH2 0x10E1 PUSH1 0x13 DUP4 PUSH2 0xFB3 JUMP JUMPDEST SWAP2 POP PUSH2 0x10EC DUP3 PUSH2 0x10AB JUMP JUMPDEST PUSH1 0x20 DUP3 ADD SWAP1 POP SWAP2 SWAP1 POP JUMP JUMPDEST PUSH1 0x0 PUSH1 0x20 DUP3 ADD SWAP1 POP DUP2 DUP2 SUB PUSH1 0x0 DUP4 ADD MSTORE PUSH2 0x1110 DUP2 PUSH2 0x10D4 JUMP JUMPDEST SWAP1 POP SWAP2 SWAP1 POP JUMP JUMPDEST PUSH32 0x4D696E696D756D20636F6E747269627574696F6E206973206E6F74206D657400 PUSH1 0x0 DUP3 ADD MSTORE POP JUMP JUMPDEST PUSH1 0x0 PUSH2 0x114D PUSH1 0x1F DUP4 PUSH2 0xFB3 JUMP JUMPDEST SWAP2 POP PUSH2 0x1158 DUP3 PUSH2 0x1117 JUMP JUMPDEST PUSH1 0x20 DUP3 ADD SWAP1 POP SWAP2 SWAP1 POP JUMP JUMPDEST PUSH1 0x0 PUSH1 0x20 DUP3 ADD SWAP1 POP DUP2 DUP2 SUB PUSH1 0x0 DUP4 ADD MSTORE PUSH2 0x117C DUP2 PUSH2 0x1140 JUMP JUMPDEST SWAP1 POP SWAP2 SWAP1 POP JUMP JUMPDEST PUSH32 0x4E487B7100000000000000000000000000000000000000000000000000000000 PUSH1 0x0 MSTORE PUSH1 0x11 PUSH1 0x4 MSTORE PUSH1 0x24 PUSH1 0x0 REVERT JUMPDEST PUSH1 0x0 PUSH2 0x11BD DUP3 PUSH2 0xCFE JUMP JUMPDEST SWAP2 POP PUSH32 0xFFFFFFFFFFFFFFFFFFFFFFFFFFFFFFFFFFFFFFFFFFFFFFFFFFFFFFFFFFFFFFFF DUP3 SUB PUSH2 0x11EF JUMPI PUSH2 0x11EE PUSH2 0x1183 JUMP JUMPDEST JUMPDEST PUSH1 0x1 DUP3 ADD SWAP1 POP SWAP2 SWAP1 POP JUMP JUMPDEST PUSH1 0x0 PUSH2 0x1205 DUP3 PUSH2 0xCFE JUMP JUMPDEST SWAP2 POP PUSH2 0x1210 DUP4 PUSH2 0xCFE JUMP JUMPDEST SWAP3 POP DUP3 DUP3 ADD SWAP1 POP DUP1 DUP3 GT ISZERO PUSH2 0x1228 JUMPI PUSH2 0x1227 PUSH2 0x1183 JUMP JUMPDEST JUMPDEST SWAP3 SWAP2 POP POP JUMP JUMPDEST PUSH32 0x4F6E6C79206D616E616765722063616E2063616C6C20746869732066756E6374 PUSH1 0x0 DUP3 ADD MSTORE PUSH32 0x696F6E0000000000000000000000000000000000000000000000000000000000 PUSH1 0x20 DUP3 ADD MSTORE POP JUMP JUMPDEST PUSH1 0x0 PUSH2 0x128A PUSH1 0x23 DUP4 PUSH2 0xFB3 JUMP JUMPDEST SWAP2 POP PUSH2 0x1295 DUP3 PUSH2 0x122E JUMP JUMPDEST PUSH1 0x40 DUP3 ADD SWAP1 POP SWAP2 SWAP1 POP JUMP JUMPDEST PUSH1 0x0 PUSH1 0x20 DUP3 ADD SWAP1 POP DUP2 DUP2 SUB PUSH1 0x0 DUP4 ADD MSTORE PUSH2 0x12B9 DUP2 PUSH2 0x127D JUMP JUMPDEST SWAP1 POP SWAP2 SWAP1 POP JUMP JUMPDEST PUSH32 0x4E487B7100000000000000000000000000000000000000000000000000000000 PUSH1 0x0 MSTORE PUSH1 0x22 PUSH1 0x4 MSTORE PUSH1 0x24 PUSH1 0x0 REVERT JUMPDEST PUSH1 0x0 PUSH1 0x2 DUP3 DIV SWAP1 POP PUSH1 0x1 DUP3 AND DUP1 PUSH2 0x1307 JUMPI PUSH1 0x7F DUP3 AND SWAP2 POP JUMPDEST PUSH1 0x20 DUP3 LT DUP2 SUB PUSH2 0x131A JUMPI PUSH2 0x1319 PUSH2 0x12C0 JUMP JUMPDEST JUMPDEST POP SWAP2 SWAP1 POP JUMP JUMPDEST PUSH1 0x0 DUP2 SWAP1 POP DUP2 PUSH1 0x0 MSTORE PUSH1 0x20 PUSH1 0x0 KECCAK256 SWAP1 POP SWAP2 SWAP1 POP JUMP JUMPDEST PUSH1 0x0 PUSH1 0x20 PUSH1 0x1F DUP4 ADD DIV SWAP1 POP SWAP2 SWAP1 POP JUMP JUMPDEST PUSH1 0x0 DUP3 DUP3 SHL SWAP1 POP SWAP3 SWAP2 POP POP JUMP JUMPDEST PUSH1 0x0 PUSH1 0x8 DUP4 MUL PUSH2 0x1382 PUSH32 0xFFFFFFFFFFFFFFFFFFFFFFFFFFFFFFFFFFFFFFFFFFFFFFFFFFFFFFFFFFFFFFFF DUP3 PUSH2 0x1345 JUMP JUMPDEST PUSH2 0x138C DUP7 DUP4 PUSH2 0x1345 JUMP JUMPDEST SWAP6 POP DUP1 NOT DUP5 AND SWAP4 POP DUP1 DUP7 AND DUP5 OR SWAP3 POP POP POP SWAP4 SWAP3 POP POP POP JUMP JUMPDEST PUSH1 0x0 DUP2 SWAP1 POP SWAP2 SWAP1 POP JUMP JUMPDEST PUSH1 0x0 PUSH2 0x13C9 PUSH2 0x13C4 PUSH2 0x13BF DUP5 PUSH2 0xCFE JUMP JUMPDEST PUSH2 0x13A4 JUMP JUMPDEST PUSH2 0xCFE JUMP JUMPDEST SWAP1 POP SWAP2 SWAP1 POP JUMP JUMPDEST PUSH1 0x0 DUP2 SWAP1 POP SWAP2 SWAP1 POP JUMP JUMPDEST PUSH2 0x13E3 DUP4 PUSH2 0x13AE JUMP JUMPDEST PUSH2 0x13F7 PUSH2 0x13EF DUP3 PUSH2 0x13D0 JUMP JUMPDEST DUP5 DUP5 SLOAD PUSH2 0x1352 JUMP JUMPDEST DUP3 SSTORE POP POP POP POP JUMP JUMPDEST PUSH1 0x0 SWAP1 JUMP JUMPDEST PUSH2 0x140C PUSH2 0x13FF JUMP JUMPDEST PUSH2 0x1417 DUP2 DUP5 DUP5 PUSH2 0x13DA JUMP JUMPDEST POP POP POP JUMP JUMPDEST JUMPDEST DUP2 DUP2 LT ISZERO PUSH2 0x143B JUMPI PUSH2 0x1430 PUSH1 0x0 DUP3 PUSH2 0x1404 JUMP JUMPDEST PUSH1 0x1 DUP2 ADD SWAP1 POP PUSH2 0x141D JUMP JUMPDEST POP POP JUMP JUMPDEST PUSH1 0x1F DUP3 GT ISZERO PUSH2 0x1480 JUMPI PUSH2 0x1451 DUP2 PUSH2 0x1320 JUMP JUMPDEST PUSH2 0x145A DUP5 PUSH2 0x1335 JUMP JUMPDEST DUP2 ADD PUSH1 0x20 DUP6 LT ISZERO PUSH2 0x1469 JUMPI DUP2 SWAP1 POP JUMPDEST PUSH2 0x147D PUSH2 0x1475 DUP6 PUSH2 0x1335 JUMP JUMPDEST DUP4 ADD DUP3 PUSH2 0x141C JUMP JUMPDEST POP POP JUMPDEST POP POP POP JUMP JUMPDEST PUSH1 0x0 DUP3 DUP3 SHR SWAP1 POP SWAP3 SWAP2 POP POP JUMP JUMPDEST PUSH1 0x0 PUSH2 0x14A3 PUSH1 0x0 NOT DUP5 PUSH1 0x8 MUL PUSH2 0x1485 JUMP JUMPDEST NOT DUP1 DUP4 AND SWAP2 POP POP SWAP3 SWAP2 POP POP JUMP JUMPDEST PUSH1 0x0 PUSH2 0x14BC DUP4 DUP4 PUSH2 0x1492 JUMP JUMPDEST SWAP2 POP DUP3 PUSH1 0x2 MUL DUP3 OR SWAP1 POP SWAP3 SWAP2 POP POP JUMP JUMPDEST PUSH2 0x14D5 DUP3 PUSH2 0xFA8 JUMP JUMPDEST PUSH8 0xFFFFFFFFFFFFFFFF DUP2 GT ISZERO PUSH2 0x14EE JUMPI PUSH2 0x14ED PUSH2 0xD4D JUMP JUMPDEST JUMPDEST PUSH2 0x14F8 DUP3 SLOAD PUSH2 0x12EF JUMP JUMPDEST PUSH2 0x1503 DUP3 DUP3 DUP6 PUSH2 0x143F JUMP JUMPDEST PUSH1 0x0 PUSH1 0x20 SWAP1 POP PUSH1 0x1F DUP4 GT PUSH1 0x1 DUP2 EQ PUSH2 0x1536 JUMPI PUSH1 0x0 DUP5 ISZERO PUSH2 0x1524 JUMPI DUP3 DUP8 ADD MLOAD SWAP1 POP JUMPDEST PUSH2 0x152E DUP6 DUP3 PUSH2 0x14B0 JUMP JUMPDEST DUP7 SSTORE POP PUSH2 0x1596 JUMP JUMPDEST PUSH1 0x1F NOT DUP5 AND PUSH2 0x1544 DUP7 PUSH2 0x1320 JUMP JUMPDEST PUSH1 0x0 JUMPDEST DUP3 DUP2 LT ISZERO PUSH2 0x156C JUMPI DUP5 DUP10 ADD MLOAD DUP3 SSTORE PUSH1 0x1 DUP3 ADD SWAP2 POP PUSH1 0x20 DUP6 ADD SWAP5 POP PUSH1 0x20 DUP2 ADD SWAP1 POP PUSH2 0x1547 JUMP JUMPDEST DUP7 DUP4 LT ISZERO PUSH2 0x1589 JUMPI DUP5 DUP10 ADD MLOAD PUSH2 0x1585 PUSH1 0x1F DUP10 AND DUP3 PUSH2 0x1492 JUMP JUMPDEST DUP4 SSTORE POP JUMPDEST PUSH1 0x1 PUSH1 0x2 DUP9 MUL ADD DUP9 SSTORE POP POP POP JUMPDEST POP POP POP POP POP POP JUMP JUMPDEST PUSH32 0x596F75206D75737420626520636F6E7472696275746F72000000000000000000 PUSH1 0x0 DUP3 ADD MSTORE POP JUMP JUMPDEST PUSH1 0x0 PUSH2 0x15D4 PUSH1 0x17 DUP4 PUSH2 0xFB3 JUMP JUMPDEST SWAP2 POP PUSH2 0x15DF DUP3 PUSH2 0x159E JUMP JUMPDEST PUSH1 0x20 DUP3 ADD SWAP1 POP SWAP2 SWAP1 POP JUMP JUMPDEST PUSH1 0x0 PUSH1 0x20 DUP3 ADD SWAP1 POP DUP2 DUP2 SUB PUSH1 0x0 DUP4 ADD MSTORE PUSH2 0x1603 DUP2 PUSH2 0x15C7 JUMP JUMPDEST SWAP1 POP SWAP2 SWAP1 POP JUMP JUMPDEST PUSH32 0x596F75206861766520616C726561647920766F74656400000000000000000000 PUSH1 0x0 DUP3 ADD MSTORE POP JUMP JUMPDEST PUSH1 0x0 PUSH2 0x1640 PUSH1 0x16 DUP4 PUSH2 0xFB3 JUMP JUMPDEST SWAP2 POP PUSH2 0x164B DUP3 PUSH2 0x160A JUMP JUMPDEST PUSH1 0x20 DUP3 ADD SWAP1 POP SWAP2 SWAP1 POP JUMP JUMPDEST PUSH1 0x0 PUSH1 0x20 DUP3 ADD SWAP1 POP DUP2 DUP2 SUB PUSH1 0x0 DUP4 ADD MSTORE PUSH2 0x166F DUP2 PUSH2 0x1633 JUMP JUMPDEST SWAP1 POP SWAP2 SWAP1 POP JUMP JUMPDEST PUSH32 0x546865207265717565737420686173206265656E20636F6D706C657465640000 PUSH1 0x0 DUP3 ADD MSTORE POP JUMP JUMPDEST PUSH1 0x0 PUSH2 0x16AC PUSH1 0x1E DUP4 PUSH2 0xFB3 JUMP JUMPDEST SWAP2 POP PUSH2 0x16B7 DUP3 PUSH2 0x1676 JUMP JUMPDEST PUSH1 0x20 DUP3 ADD SWAP1 POP SWAP2 SWAP1 POP JUMP JUMPDEST PUSH1 0x0 PUSH1 0x20 DUP3 ADD SWAP1 POP DUP2 DUP2 SUB PUSH1 0x0 DUP4 ADD MSTORE PUSH2 0x16DB DUP2 PUSH2 0x169F JUMP JUMPDEST SWAP1 POP SWAP2 SWAP1 POP JUMP JUMPDEST PUSH32 0x4E487B7100000000000000000000000000000000000000000000000000000000 PUSH1 0x0 MSTORE PUSH1 0x12 PUSH1 0x4 MSTORE PUSH1 0x24 PUSH1 0x0 REVERT JUMPDEST PUSH1 0x0 PUSH2 0x171C DUP3 PUSH2 0xCFE JUMP JUMPDEST SWAP2 POP PUSH2 0x1727 DUP4 PUSH2 0xCFE JUMP JUMPDEST SWAP3 POP DUP3 PUSH2 0x1737 JUMPI PUSH2 0x1736 PUSH2 0x16E2 JUMP JUMPDEST JUMPDEST DUP3 DUP3 DIV SWAP1 POP SWAP3 SWAP2 POP POP JUMP JUMPDEST PUSH32 0x4D616A6F7269747920646F6573206E6F7420737570706F727400000000000000 PUSH1 0x0 DUP3 ADD MSTORE POP JUMP JUMPDEST PUSH1 0x0 PUSH2 0x1778 PUSH1 0x19 DUP4 PUSH2 0xFB3 JUMP JUMPDEST SWAP2 POP PUSH2 0x1783 DUP3 PUSH2 0x1742 JUMP JUMPDEST PUSH1 0x20 DUP3 ADD SWAP1 POP SWAP2 SWAP1 POP JUMP JUMPDEST PUSH1 0x0 PUSH1 0x20 DUP3 ADD SWAP1 POP DUP2 DUP2 SUB PUSH1 0x0 DUP4 ADD MSTORE PUSH2 0x17A7 DUP2 PUSH2 0x176B JUMP JUMPDEST SWAP1 POP SWAP2 SWAP1 POP JUMP JUMPDEST PUSH32 0x596F7520617265206E6F7420656C696769626C6520666F7220726566756E6400 PUSH1 0x0 DUP3 ADD MSTORE POP JUMP JUMPDEST PUSH1 0x0 PUSH2 0x17E4 PUSH1 0x1F DUP4 PUSH2 0xFB3 JUMP JUMPDEST SWAP2 POP PUSH2 0x17EF DUP3 PUSH2 0x17AE JUMP JUMPDEST PUSH1 0x20 DUP3 ADD SWAP1 POP SWAP2 SWAP1 POP JUMP JUMPDEST PUSH1 0x0 PUSH1 0x20 DUP3 ADD SWAP1 POP DUP2 DUP2 SUB PUSH1 0x0 DUP4 ADD MSTORE PUSH2 0x1813 DUP2 PUSH2 0x17D7 JUMP JUMPDEST SWAP1 POP SWAP2 SWAP1 POP JUMP INVALID LOG2 PUSH5 0x6970667358 0x22 SLT KECCAK256 MUL CALLCODE 0xBC PUSH19 0x64837E47DEEE5D83B83A1F031FB0354BA3CE0C REVERT 0x1F 0xC7 0xA9 POP DUP10 POP GAS 0xDC PUSH5 0x736F6C6343 STOP ADDMOD SLT STOP CALLER "
				},
				"gasEstimates": {
					"creation": {
						"codeDepositCost": "1244800",
						"executionCost": "infinite",
						"totalCost": "infinite"
					},
					"external": {
						"contributors(address)": "2860",
						"createRequests(string,address,uint256)": "infinite",
						"deadline()": "2497",
						"getContractBalance()": "406",
						"makePayment(uint256)": "infinite",
						"manager()": "2559",
						"minimumContribution()": "2451",
						"noOfContributors()": "2518",
						"numRequests()": "2473",
						"raisedAmount()": "2495",
						"refund()": "infinite",
						"requests(uint256)": "infinite",
						"sendEth()": "infinite",
						"target()": "2517",
						"voteRequest(uint256)": "infinite"
					}
				},
				"methodIdentifiers": {
					"contributors(address)": "1f6d4942",
					"createRequests(string,address,uint256)": "3eb7647b",
					"deadline()": "29dcb0cf",
					"getContractBalance()": "6f9fb98a",
					"makePayment(uint256)": "5114cb52",
					"manager()": "481c6a75",
					"minimumContribution()": "937e09b1",
					"noOfContributors()": "4e260f6f",
					"numRequests()": "9fb42b1f",
					"raisedAmount()": "c59ee1dc",
					"refund()": "590e1ae3",
					"requests(uint256)": "81d12c58",
					"sendEth()": "06e99fef",
					"target()": "d4b83992",
					"voteRequest(uint256)": "4cb6f4a5"
				}
			},
			"storageLayout": {
				"storage": [
					{
						"astId": 5,
						"contract": "by-code-eater/crowd-funding-project/main.sol:CrowdFunding",
						"label": "contributors",
						"offset": 0,
						"slot": "0",
						"type": "t_mapping(t_address,t_uint256)"
					},
					{
						"astId": 7,
						"contract": "by-code-eater/crowd-funding-project/main.sol:CrowdFunding",
						"label": "manager",
						"offset": 0,
						"slot": "1",
						"type": "t_address"
					},
					{
						"astId": 9,
						"contract": "by-code-eater/crowd-funding-project/main.sol:CrowdFunding",
						"label": "minimumContribution",
						"offset": 0,
						"slot": "2",
						"type": "t_uint256"
					},
					{
						"astId": 11,
						"contract": "by-code-eater/crowd-funding-project/main.sol:CrowdFunding",
						"label": "deadline",
						"offset": 0,
						"slot": "3",
						"type": "t_uint256"
					},
					{
						"astId": 13,
						"contract": "by-code-eater/crowd-funding-project/main.sol:CrowdFunding",
						"label": "target",
						"offset": 0,
						"slot": "4",
						"type": "t_uint256"
					},
					{
						"astId": 15,
						"contract": "by-code-eater/crowd-funding-project/main.sol:CrowdFunding",
						"label": "raisedAmount",
						"offset": 0,
						"slot": "5",
						"type": "t_uint256"
					},
					{
						"astId": 17,
						"contract": "by-code-eater/crowd-funding-project/main.sol:CrowdFunding",
						"label": "noOfContributors",
						"offset": 0,
						"slot": "6",
						"type": "t_uint256"
					},
					{
						"astId": 37,
						"contract": "by-code-eater/crowd-funding-project/main.sol:CrowdFunding",
						"label": "requests",
						"offset": 0,
						"slot": "7",
						"type": "t_mapping(t_uint256,t_struct(Request)32_storage)"
					},
					{
						"astId": 39,
						"contract": "by-code-eater/crowd-funding-project/main.sol:CrowdFunding",
						"label": "numRequests",
						"offset": 0,
						"slot": "8",
						"type": "t_uint256"
					}
				],
				"types": {
					"t_address": {
						"encoding": "inplace",
						"label": "address",
						"numberOfBytes": "20"
					},
					"t_address_payable": {
						"encoding": "inplace",
						"label": "address payable",
						"numberOfBytes": "20"
					},
					"t_bool": {
						"encoding": "inplace",
						"label": "bool",
						"numberOfBytes": "1"
					},
					"t_mapping(t_address,t_bool)": {
						"encoding": "mapping",
						"key": "t_address",
						"label": "mapping(address => bool)",
						"numberOfBytes": "32",
						"value": "t_bool"
					},
					"t_mapping(t_address,t_uint256)": {
						"encoding": "mapping",
						"key": "t_address",
						"label": "mapping(address => uint256)",
						"numberOfBytes": "32",
						"value": "t_uint256"
					},
					"t_mapping(t_uint256,t_struct(Request)32_storage)": {
						"encoding": "mapping",
						"key": "t_uint256",
						"label": "mapping(uint256 => struct CrowdFunding.Request)",
						"numberOfBytes": "32",
						"value": "t_struct(Request)32_storage"
					},
					"t_string_storage": {
						"encoding": "bytes",
						"label": "string",
						"numberOfBytes": "32"
					},
					"t_struct(Request)32_storage": {
						"encoding": "inplace",
						"label": "struct CrowdFunding.Request",
						"members": [
							{
								"astId": 19,
								"contract": "by-code-eater/crowd-funding-project/main.sol:CrowdFunding",
								"label": "description",
								"offset": 0,
								"slot": "0",
								"type": "t_string_storage"
							},
							{
								"astId": 21,
								"contract": "by-code-eater/crowd-funding-project/main.sol:CrowdFunding",
								"label": "recipient",
								"offset": 0,
								"slot": "1",
								"type": "t_address_payable"
							},
							{
								"astId": 23,
								"contract": "by-code-eater/crowd-funding-project/main.sol:CrowdFunding",
								"label": "value",
								"offset": 0,
								"slot": "2",
								"type": "t_uint256"
							},
							{
								"astId": 25,
								"contract": "by-code-eater/crowd-funding-project/main.sol:CrowdFunding",
								"label": "completed",
								"offset": 0,
								"slot": "3",
								"type": "t_bool"
							},
							{
								"astId": 27,
								"contract": "by-code-eater/crowd-funding-project/main.sol:CrowdFunding",
								"label": "noOfVoters",
								"offset": 0,
								"slot": "4",
								"type": "t_uint256"
							},
							{
								"astId": 31,
								"contract": "by-code-eater/crowd-funding-project/main.sol:CrowdFunding",
								"label": "voters",
								"offset": 0,
								"slot": "5",
								"type": "t_mapping(t_address,t_bool)"
							}
						],
						"numberOfBytes": "192"
					},
					"t_uint256": {
						"encoding": "inplace",
						"label": "uint256",
						"numberOfBytes": "32"
					}
				}
			},
			"userdoc": {
				"kind": "user",
				"methods": {},
				"version": 1
			}
		}
	}
}